{
	"contracts/TheGame.sol": {
		"TheGame": {
			"abi": [
				{
					"inputs": [
						{
							"internalType": "uint256",
							"name": "_startTime",
							"type": "uint256"
						},
						{
							"internalType": "uint256",
							"name": "_betsEndTime",
							"type": "uint256"
						},
						{
							"internalType": "uint256",
							"name": "_closeTime",
							"type": "uint256"
						}
					],
					"stateMutability": "nonpayable",
					"type": "constructor"
				},
				{
					"anonymous": false,
					"inputs": [
						{
							"indexed": true,
							"internalType": "address",
							"name": "oldOwner",
							"type": "address"
						},
						{
							"indexed": true,
							"internalType": "address",
							"name": "newOwner",
							"type": "address"
						}
					],
					"name": "OwnerSet",
					"type": "event"
				},
				{
					"inputs": [
						{
							"internalType": "address",
							"name": "newOwner",
							"type": "address"
						}
					],
					"name": "changeOwner",
					"outputs": [],
					"stateMutability": "nonpayable",
					"type": "function"
				},
				{
					"inputs": [],
					"name": "getBetsEndTime",
					"outputs": [
						{
							"internalType": "uint256",
							"name": "",
							"type": "uint256"
						}
					],
					"stateMutability": "view",
					"type": "function"
				},
				{
					"inputs": [],
					"name": "getCloseTime",
					"outputs": [
						{
							"internalType": "uint256",
							"name": "",
							"type": "uint256"
						}
					],
					"stateMutability": "view",
					"type": "function"
				},
				{
					"inputs": [],
					"name": "getOwner",
					"outputs": [
						{
							"internalType": "address",
							"name": "",
							"type": "address"
						}
					],
					"stateMutability": "view",
					"type": "function"
				},
				{
					"inputs": [],
					"name": "getStartTime",
					"outputs": [
						{
							"internalType": "uint256",
							"name": "",
							"type": "uint256"
						}
					],
					"stateMutability": "view",
					"type": "function"
				},
				{
					"inputs": [],
					"name": "getState",
					"outputs": [
						{
							"internalType": "enum GameState",
							"name": "",
							"type": "uint8"
						}
					],
					"stateMutability": "view",
					"type": "function"
				},
				{
					"inputs": [
						{
							"internalType": "enum BetTakenFor",
							"name": "option",
							"type": "uint8"
						},
						{
							"internalType": "uint256",
							"name": "amount",
							"type": "uint256"
						}
					],
					"name": "takeABet",
					"outputs": [
						{
							"components": [
								{
									"internalType": "address",
									"name": "player",
									"type": "address"
								},
								{
									"internalType": "uint256",
									"name": "oddsA",
									"type": "uint256"
								},
								{
									"internalType": "uint256",
									"name": "oddsB",
									"type": "uint256"
								},
								{
									"internalType": "enum BetTakenFor",
									"name": "betTakenFor",
									"type": "uint8"
								},
								{
									"internalType": "uint256",
									"name": "amount",
									"type": "uint256"
								}
							],
							"internalType": "struct Bet",
							"name": "",
							"type": "tuple"
						}
					],
					"stateMutability": "payable",
					"type": "function"
				},
				{
					"inputs": [
						{
							"internalType": "uint256",
							"name": "odds",
							"type": "uint256"
						}
					],
					"name": "updateOddsA",
					"outputs": [
						{
							"internalType": "uint256",
							"name": "",
							"type": "uint256"
						}
					],
					"stateMutability": "nonpayable",
					"type": "function"
				},
				{
					"inputs": [
						{
							"internalType": "uint256",
							"name": "odds",
							"type": "uint256"
						}
					],
					"name": "updateOddsB",
					"outputs": [
						{
							"internalType": "uint256",
							"name": "",
							"type": "uint256"
						}
					],
					"stateMutability": "nonpayable",
					"type": "function"
				}
			],
			"devdoc": {
				"kind": "dev",
				"methods": {},
				"version": 1
			},
			"evm": {
				"assembly": "    /* \"contracts/TheGame.sol\":828:2966  contract TheGame is Owner{... */\n  mstore(0x40, 0x80)\n    /* \"contracts/TheGame.sol\":1143:1556  constructor(uint256 _startTime, uint256 _betsEndTime, uint256 _closeTime) Owner() {... */\n  callvalue\n  dup1\n  iszero\n  tag_1\n  jumpi\n  0x00\n  dup1\n  revert\ntag_1:\n  pop\n  mload(0x40)\n  sub(codesize, bytecodeSize)\n  dup1\n  bytecodeSize\n  dup4\n  codecopy\n  dup2\n  dup2\n  add\n  0x40\n  mstore\n  dup2\n  add\n  swap1\n  tag_2\n  swap2\n  swap1\n  tag_3\n  jump\t// in\ntag_2:\n    /* \"contracts/TheGame.sol\":586:596  msg.sender */\n  caller\n    /* \"contracts/TheGame.sol\":565:597  OwnerSet(address(0), msg.sender) */\n  0xffffffffffffffffffffffffffffffffffffffff\n  and\n    /* \"contracts/TheGame.sol\":582:583  0 */\n  0x00\n    /* \"contracts/TheGame.sol\":565:597  OwnerSet(address(0), msg.sender) */\n  0xffffffffffffffffffffffffffffffffffffffff\n  and\n  0x342827c97908e5e2f71151c08502a66d44b6f758e3ac2f1de95f02eb95f0a735\n  mload(0x40)\n  mload(0x40)\n  dup1\n  swap2\n  sub\n  swap1\n  log3\n    /* \"contracts/TheGame.sol\":1235:1258  changeOwner(msg.sender) */\n  tag_8\n    /* \"contracts/TheGame.sol\":1247:1257  msg.sender */\n  caller\n    /* \"contracts/TheGame.sol\":1235:1246  changeOwner */\n  shl(0x20, tag_9)\n    /* \"contracts/TheGame.sol\":1235:1258  changeOwner(msg.sender) */\n  0x20\n  shr\n  jump\t// in\ntag_8:\n    /* \"contracts/TheGame.sol\":1283:1298  block.timestamp */\n  timestamp\n    /* \"contracts/TheGame.sol\":1268:1280  creationTime */\n  0x01\n    /* \"contracts/TheGame.sol\":1268:1298  creationTime = block.timestamp */\n  dup2\n  swap1\n  sstore\n  pop\n    /* \"contracts/TheGame.sol\":1471:1481  _startTime */\n  dup3\n    /* \"contracts/TheGame.sol\":1459:1468  startTime */\n  0x02\n    /* \"contracts/TheGame.sol\":1459:1481  startTime = _startTime */\n  dup2\n  swap1\n  sstore\n  pop\n    /* \"contracts/TheGame.sol\":1505:1517  _betsEndTime */\n  dup2\n    /* \"contracts/TheGame.sol\":1491:1502  betsEndTime */\n  0x03\n    /* \"contracts/TheGame.sol\":1491:1517  betsEndTime = _betsEndTime */\n  dup2\n  swap1\n  sstore\n  pop\n    /* \"contracts/TheGame.sol\":1539:1549  _closeTime */\n  dup1\n    /* \"contracts/TheGame.sol\":1527:1536  closeTime */\n  0x04\n    /* \"contracts/TheGame.sol\":1527:1549  closeTime = _closeTime */\n  dup2\n  swap1\n  sstore\n  pop\n    /* \"contracts/TheGame.sol\":1143:1556  constructor(uint256 _startTime, uint256 _betsEndTime, uint256 _closeTime) Owner() {... */\n  pop\n  pop\n  pop\n    /* \"contracts/TheGame.sol\":828:2966  contract TheGame is Owner{... */\n  jump(tag_10)\n    /* \"contracts/TheGame.sol\":610:737  function changeOwner(address newOwner) public isOwner {... */\ntag_9:\n    /* \"contracts/TheGame.sol\":483:488  owner */\n  0x00\n  dup1\n  sload\n  swap1\n  0x0100\n  exp\n  swap1\n  div\n  0xffffffffffffffffffffffffffffffffffffffff\n  and\n    /* \"contracts/TheGame.sol\":469:488  msg.sender == owner */\n  0xffffffffffffffffffffffffffffffffffffffff\n  and\n    /* \"contracts/TheGame.sol\":469:479  msg.sender */\n  caller\n    /* \"contracts/TheGame.sol\":469:488  msg.sender == owner */\n  0xffffffffffffffffffffffffffffffffffffffff\n  and\n  eq\n    /* \"contracts/TheGame.sol\":461:512  require(msg.sender == owner, \"Caller is not owner\") */\n  tag_12\n  jumpi\n  mload(0x40)\n  0x08c379a000000000000000000000000000000000000000000000000000000000\n  dup2\n  mstore\n  0x04\n  add\n  tag_13\n  swap1\n  tag_14\n  jump\t// in\ntag_13:\n  mload(0x40)\n  dup1\n  swap2\n  sub\n  swap1\n  revert\ntag_12:\n    /* \"contracts/TheGame.sol\":695:703  newOwner */\n  dup1\n    /* \"contracts/TheGame.sol\":679:704  OwnerSet(owner, newOwner) */\n  0xffffffffffffffffffffffffffffffffffffffff\n  and\n    /* \"contracts/TheGame.sol\":688:693  owner */\n  0x00\n  dup1\n  sload\n  swap1\n  0x0100\n  exp\n  swap1\n  div\n  0xffffffffffffffffffffffffffffffffffffffff\n  and\n    /* \"contracts/TheGame.sol\":679:704  OwnerSet(owner, newOwner) */\n  0xffffffffffffffffffffffffffffffffffffffff\n  and\n  0x342827c97908e5e2f71151c08502a66d44b6f758e3ac2f1de95f02eb95f0a735\n  mload(0x40)\n  mload(0x40)\n  dup1\n  swap2\n  sub\n  swap1\n  log3\n    /* \"contracts/TheGame.sol\":722:730  newOwner */\n  dup1\n    /* \"contracts/TheGame.sol\":714:719  owner */\n  0x00\n  dup1\n    /* \"contracts/TheGame.sol\":714:730  owner = newOwner */\n  0x0100\n  exp\n  dup2\n  sload\n  dup2\n  0xffffffffffffffffffffffffffffffffffffffff\n  mul\n  not\n  and\n  swap1\n  dup4\n  0xffffffffffffffffffffffffffffffffffffffff\n  and\n  mul\n  or\n  swap1\n  sstore\n  pop\n    /* \"contracts/TheGame.sol\":610:737  function changeOwner(address newOwner) public isOwner {... */\n  pop\n  jump\t// out\n    /* \"#utility.yul\":7:150   */\ntag_17:\n    /* \"#utility.yul\":64:69   */\n  0x00\n    /* \"#utility.yul\":95:101   */\n  dup2\n    /* \"#utility.yul\":89:102   */\n  mload\n    /* \"#utility.yul\":80:102   */\n  swap1\n  pop\n    /* \"#utility.yul\":111:144   */\n  tag_19\n    /* \"#utility.yul\":138:143   */\n  dup2\n    /* \"#utility.yul\":111:144   */\n  tag_20\n  jump\t// in\ntag_19:\n    /* \"#utility.yul\":7:150   */\n  swap3\n  swap2\n  pop\n  pop\n  jump\t// out\n    /* \"#utility.yul\":156:819   */\ntag_3:\n    /* \"#utility.yul\":244:250   */\n  0x00\n    /* \"#utility.yul\":252:258   */\n  dup1\n    /* \"#utility.yul\":260:266   */\n  0x00\n    /* \"#utility.yul\":309:311   */\n  0x60\n    /* \"#utility.yul\":297:306   */\n  dup5\n    /* \"#utility.yul\":288:295   */\n  dup7\n    /* \"#utility.yul\":284:307   */\n  sub\n    /* \"#utility.yul\":280:312   */\n  slt\n    /* \"#utility.yul\":277:396   */\n  iszero\n  tag_22\n  jumpi\n    /* \"#utility.yul\":315:394   */\n  tag_23\n  tag_24\n  jump\t// in\ntag_23:\n    /* \"#utility.yul\":277:396   */\ntag_22:\n    /* \"#utility.yul\":435:436   */\n  0x00\n    /* \"#utility.yul\":460:524   */\n  tag_25\n    /* \"#utility.yul\":516:523   */\n  dup7\n    /* \"#utility.yul\":507:513   */\n  dup3\n    /* \"#utility.yul\":496:505   */\n  dup8\n    /* \"#utility.yul\":492:514   */\n  add\n    /* \"#utility.yul\":460:524   */\n  tag_17\n  jump\t// in\ntag_25:\n    /* \"#utility.yul\":450:524   */\n  swap4\n  pop\n    /* \"#utility.yul\":406:534   */\n  pop\n    /* \"#utility.yul\":573:575   */\n  0x20\n    /* \"#utility.yul\":599:663   */\n  tag_26\n    /* \"#utility.yul\":655:662   */\n  dup7\n    /* \"#utility.yul\":646:652   */\n  dup3\n    /* \"#utility.yul\":635:644   */\n  dup8\n    /* \"#utility.yul\":631:653   */\n  add\n    /* \"#utility.yul\":599:663   */\n  tag_17\n  jump\t// in\ntag_26:\n    /* \"#utility.yul\":589:663   */\n  swap3\n  pop\n    /* \"#utility.yul\":544:673   */\n  pop\n    /* \"#utility.yul\":712:714   */\n  0x40\n    /* \"#utility.yul\":738:802   */\n  tag_27\n    /* \"#utility.yul\":794:801   */\n  dup7\n    /* \"#utility.yul\":785:791   */\n  dup3\n    /* \"#utility.yul\":774:783   */\n  dup8\n    /* \"#utility.yul\":770:792   */\n  add\n    /* \"#utility.yul\":738:802   */\n  tag_17\n  jump\t// in\ntag_27:\n    /* \"#utility.yul\":728:802   */\n  swap2\n  pop\n    /* \"#utility.yul\":683:812   */\n  pop\n    /* \"#utility.yul\":156:819   */\n  swap3\n  pop\n  swap3\n  pop\n  swap3\n  jump\t// out\n    /* \"#utility.yul\":825:1191   */\ntag_28:\n    /* \"#utility.yul\":967:970   */\n  0x00\n    /* \"#utility.yul\":988:1055   */\n  tag_30\n    /* \"#utility.yul\":1052:1054   */\n  0x13\n    /* \"#utility.yul\":1047:1050   */\n  dup4\n    /* \"#utility.yul\":988:1055   */\n  tag_31\n  jump\t// in\ntag_30:\n    /* \"#utility.yul\":981:1055   */\n  swap2\n  pop\n    /* \"#utility.yul\":1064:1157   */\n  tag_32\n    /* \"#utility.yul\":1153:1156   */\n  dup3\n    /* \"#utility.yul\":1064:1157   */\n  tag_33\n  jump\t// in\ntag_32:\n    /* \"#utility.yul\":1182:1184   */\n  0x20\n    /* \"#utility.yul\":1177:1180   */\n  dup3\n    /* \"#utility.yul\":1173:1185   */\n  add\n    /* \"#utility.yul\":1166:1185   */\n  swap1\n  pop\n    /* \"#utility.yul\":825:1191   */\n  swap2\n  swap1\n  pop\n  jump\t// out\n    /* \"#utility.yul\":1197:1616   */\ntag_14:\n    /* \"#utility.yul\":1363:1367   */\n  0x00\n    /* \"#utility.yul\":1401:1403   */\n  0x20\n    /* \"#utility.yul\":1390:1399   */\n  dup3\n    /* \"#utility.yul\":1386:1404   */\n  add\n    /* \"#utility.yul\":1378:1404   */\n  swap1\n  pop\n    /* \"#utility.yul\":1450:1459   */\n  dup2\n    /* \"#utility.yul\":1444:1448   */\n  dup2\n    /* \"#utility.yul\":1440:1460   */\n  sub\n    /* \"#utility.yul\":1436:1437   */\n  0x00\n    /* \"#utility.yul\":1425:1434   */\n  dup4\n    /* \"#utility.yul\":1421:1438   */\n  add\n    /* \"#utility.yul\":1414:1461   */\n  mstore\n    /* \"#utility.yul\":1478:1609   */\n  tag_35\n    /* \"#utility.yul\":1604:1608   */\n  dup2\n    /* \"#utility.yul\":1478:1609   */\n  tag_28\n  jump\t// in\ntag_35:\n    /* \"#utility.yul\":1470:1609   */\n  swap1\n  pop\n    /* \"#utility.yul\":1197:1616   */\n  swap2\n  swap1\n  pop\n  jump\t// out\n    /* \"#utility.yul\":1703:1872   */\ntag_31:\n    /* \"#utility.yul\":1787:1798   */\n  0x00\n    /* \"#utility.yul\":1821:1827   */\n  dup3\n    /* \"#utility.yul\":1816:1819   */\n  dup3\n    /* \"#utility.yul\":1809:1828   */\n  mstore\n    /* \"#utility.yul\":1861:1865   */\n  0x20\n    /* \"#utility.yul\":1856:1859   */\n  dup3\n    /* \"#utility.yul\":1852:1866   */\n  add\n    /* \"#utility.yul\":1837:1866   */\n  swap1\n  pop\n    /* \"#utility.yul\":1703:1872   */\n  swap3\n  swap2\n  pop\n  pop\n  jump\t// out\n    /* \"#utility.yul\":1878:1955   */\ntag_39:\n    /* \"#utility.yul\":1915:1922   */\n  0x00\n    /* \"#utility.yul\":1944:1949   */\n  dup2\n    /* \"#utility.yul\":1933:1949   */\n  swap1\n  pop\n    /* \"#utility.yul\":1878:1955   */\n  swap2\n  swap1\n  pop\n  jump\t// out\n    /* \"#utility.yul\":2084:2201   */\ntag_24:\n    /* \"#utility.yul\":2193:2194   */\n  0x00\n    /* \"#utility.yul\":2190:2191   */\n  dup1\n    /* \"#utility.yul\":2183:2195   */\n  revert\n    /* \"#utility.yul\":2207:2376   */\ntag_33:\n    /* \"#utility.yul\":2347:2368   */\n  0x43616c6c6572206973206e6f74206f776e657200000000000000000000000000\n    /* \"#utility.yul\":2343:2344   */\n  0x00\n    /* \"#utility.yul\":2335:2341   */\n  dup3\n    /* \"#utility.yul\":2331:2345   */\n  add\n    /* \"#utility.yul\":2324:2369   */\n  mstore\n    /* \"#utility.yul\":2207:2376   */\n  pop\n  jump\t// out\n    /* \"#utility.yul\":2382:2504   */\ntag_20:\n    /* \"#utility.yul\":2455:2479   */\n  tag_46\n    /* \"#utility.yul\":2473:2478   */\n  dup2\n    /* \"#utility.yul\":2455:2479   */\n  tag_39\n  jump\t// in\ntag_46:\n    /* \"#utility.yul\":2448:2453   */\n  dup2\n    /* \"#utility.yul\":2445:2480   */\n  eq\n    /* \"#utility.yul\":2435:2498   */\n  tag_47\n  jumpi\n    /* \"#utility.yul\":2494:2495   */\n  0x00\n    /* \"#utility.yul\":2491:2492   */\n  dup1\n    /* \"#utility.yul\":2484:2496   */\n  revert\n    /* \"#utility.yul\":2435:2498   */\ntag_47:\n    /* \"#utility.yul\":2382:2504   */\n  pop\n  jump\t// out\n    /* \"contracts/TheGame.sol\":828:2966  contract TheGame is Owner{... */\ntag_10:\n  dataSize(sub_0)\n  dup1\n  dataOffset(sub_0)\n  0x00\n  codecopy\n  0x00\n  return\nstop\n\nsub_0: assembly {\n        /* \"contracts/TheGame.sol\":828:2966  contract TheGame is Owner{... */\n      mstore(0x40, 0x80)\n      jumpi(tag_1, lt(calldatasize, 0x04))\n      shr(0xe0, calldataload(0x00))\n      dup1\n      0xa6f9dae1\n      gt\n      tag_11\n      jumpi\n      dup1\n      0xa6f9dae1\n      eq\n      tag_6\n      jumpi\n      dup1\n      0xb9d76da9\n      eq\n      tag_7\n      jumpi\n      dup1\n      0xc828371e\n      eq\n      tag_8\n      jumpi\n      dup1\n      0xf2c3e469\n      eq\n      tag_9\n      jumpi\n      dup1\n      0xfadeaf76\n      eq\n      tag_10\n      jumpi\n      jump(tag_1)\n    tag_11:\n      dup1\n      0x1865c57d\n      eq\n      tag_2\n      jumpi\n      dup1\n      0x805f1b80\n      eq\n      tag_3\n      jumpi\n      dup1\n      0x893d20e8\n      eq\n      tag_4\n      jumpi\n      dup1\n      0x8ea36d47\n      eq\n      tag_5\n      jumpi\n    tag_1:\n      0x00\n      dup1\n      revert\n        /* \"contracts/TheGame.sol\":1845:2245  function getState() public view returns(GameState) {... */\n    tag_2:\n      callvalue\n      dup1\n      iszero\n      tag_12\n      jumpi\n      0x00\n      dup1\n      revert\n    tag_12:\n      pop\n      tag_13\n      tag_14\n      jump\t// in\n    tag_13:\n      mload(0x40)\n      tag_15\n      swap2\n      swap1\n      tag_16\n      jump\t// in\n    tag_15:\n      mload(0x40)\n      dup1\n      swap2\n      sub\n      swap1\n      return\n        /* \"contracts/TheGame.sol\":2679:2964  function takeABet(BetTakenFor option, uint256 amount) public payable returns(Bet memory){... */\n    tag_3:\n      tag_17\n      0x04\n      dup1\n      calldatasize\n      sub\n      dup2\n      add\n      swap1\n      tag_18\n      swap2\n      swap1\n      tag_19\n      jump\t// in\n    tag_18:\n      tag_20\n      jump\t// in\n    tag_17:\n      mload(0x40)\n      tag_21\n      swap2\n      swap1\n      tag_22\n      jump\t// in\n    tag_21:\n      mload(0x40)\n      dup1\n      swap2\n      sub\n      swap1\n      return\n        /* \"contracts/TheGame.sol\":743:824  function getOwner() external view returns (address) {... */\n    tag_4:\n      callvalue\n      dup1\n      iszero\n      tag_23\n      jumpi\n      0x00\n      dup1\n      revert\n    tag_23:\n      pop\n      tag_24\n      tag_25\n      jump\t// in\n    tag_24:\n      mload(0x40)\n      tag_26\n      swap2\n      swap1\n      tag_27\n      jump\t// in\n    tag_26:\n      mload(0x40)\n      dup1\n      swap2\n      sub\n      swap1\n      return\n        /* \"contracts/TheGame.sol\":1655:1746  function getBetsEndTime() public view returns(uint256) {... */\n    tag_5:\n      callvalue\n      dup1\n      iszero\n      tag_28\n      jumpi\n      0x00\n      dup1\n      revert\n    tag_28:\n      pop\n      tag_29\n      tag_30\n      jump\t// in\n    tag_29:\n      mload(0x40)\n      tag_31\n      swap2\n      swap1\n      tag_32\n      jump\t// in\n    tag_31:\n      mload(0x40)\n      dup1\n      swap2\n      sub\n      swap1\n      return\n        /* \"contracts/TheGame.sol\":610:737  function changeOwner(address newOwner) public isOwner {... */\n    tag_6:\n      callvalue\n      dup1\n      iszero\n      tag_33\n      jumpi\n      0x00\n      dup1\n      revert\n    tag_33:\n      pop\n      tag_34\n      0x04\n      dup1\n      calldatasize\n      sub\n      dup2\n      add\n      swap1\n      tag_35\n      swap2\n      swap1\n      tag_36\n      jump\t// in\n    tag_35:\n      tag_37\n      jump\t// in\n    tag_34:\n      stop\n        /* \"contracts/TheGame.sol\":2325:2457  function updateOddsA(uint256 odds) public isOwner returns(uint256) {... */\n    tag_7:\n      callvalue\n      dup1\n      iszero\n      tag_38\n      jumpi\n      0x00\n      dup1\n      revert\n    tag_38:\n      pop\n      tag_39\n      0x04\n      dup1\n      calldatasize\n      sub\n      dup2\n      add\n      swap1\n      tag_40\n      swap2\n      swap1\n      tag_41\n      jump\t// in\n    tag_40:\n      tag_42\n      jump\t// in\n    tag_39:\n      mload(0x40)\n      tag_43\n      swap2\n      swap1\n      tag_32\n      jump\t// in\n    tag_43:\n      mload(0x40)\n      dup1\n      swap2\n      sub\n      swap1\n      return\n        /* \"contracts/TheGame.sol\":1562:1649  function getStartTime() public view returns(uint256) {... */\n    tag_8:\n      callvalue\n      dup1\n      iszero\n      tag_44\n      jumpi\n      0x00\n      dup1\n      revert\n    tag_44:\n      pop\n      tag_45\n      tag_46\n      jump\t// in\n    tag_45:\n      mload(0x40)\n      tag_47\n      swap2\n      swap1\n      tag_32\n      jump\t// in\n    tag_47:\n      mload(0x40)\n      dup1\n      swap2\n      sub\n      swap1\n      return\n        /* \"contracts/TheGame.sol\":2467:2599  function updateOddsB(uint256 odds) public isOwner returns(uint256) {... */\n    tag_9:\n      callvalue\n      dup1\n      iszero\n      tag_48\n      jumpi\n      0x00\n      dup1\n      revert\n    tag_48:\n      pop\n      tag_49\n      0x04\n      dup1\n      calldatasize\n      sub\n      dup2\n      add\n      swap1\n      tag_50\n      swap2\n      swap1\n      tag_41\n      jump\t// in\n    tag_50:\n      tag_51\n      jump\t// in\n    tag_49:\n      mload(0x40)\n      tag_52\n      swap2\n      swap1\n      tag_32\n      jump\t// in\n    tag_52:\n      mload(0x40)\n      dup1\n      swap2\n      sub\n      swap1\n      return\n        /* \"contracts/TheGame.sol\":1752:1839  function getCloseTime() public view returns(uint256) {... */\n    tag_10:\n      callvalue\n      dup1\n      iszero\n      tag_53\n      jumpi\n      0x00\n      dup1\n      revert\n    tag_53:\n      pop\n      tag_54\n      tag_55\n      jump\t// in\n    tag_54:\n      mload(0x40)\n      tag_56\n      swap2\n      swap1\n      tag_32\n      jump\t// in\n    tag_56:\n      mload(0x40)\n      dup1\n      swap2\n      sub\n      swap1\n      return\n        /* \"contracts/TheGame.sol\":1845:2245  function getState() public view returns(GameState) {... */\n    tag_14:\n        /* \"contracts/TheGame.sol\":1885:1894  GameState */\n      0x00\n        /* \"contracts/TheGame.sol\":1906:1916  uint256 ts */\n      dup1\n        /* \"contracts/TheGame.sol\":1919:1934  block.timestamp */\n      timestamp\n        /* \"contracts/TheGame.sol\":1906:1934  uint256 ts = block.timestamp */\n      swap1\n      pop\n        /* \"contracts/TheGame.sol\":1953:1962  startTime */\n      sload(0x02)\n        /* \"contracts/TheGame.sol\":1948:1950  ts */\n      dup2\n        /* \"contracts/TheGame.sol\":1948:1962  ts < startTime */\n      lt\n        /* \"contracts/TheGame.sol\":1944:2238  if (ts < startTime)... */\n      iszero\n      tag_58\n      jumpi\n        /* \"contracts/TheGame.sol\":1983:2000  GameState.CREATED */\n      0x00\n        /* \"contracts/TheGame.sol\":1976:2000  return GameState.CREATED */\n      swap2\n      pop\n      pop\n      jump(tag_57)\n        /* \"contracts/TheGame.sol\":1944:2238  if (ts < startTime)... */\n    tag_58:\n        /* \"contracts/TheGame.sol\":2025:2034  startTime */\n      sload(0x02)\n        /* \"contracts/TheGame.sol\":2019:2021  ts */\n      dup2\n        /* \"contracts/TheGame.sol\":2019:2034  ts >= startTime */\n      lt\n      iszero\n        /* \"contracts/TheGame.sol\":2019:2054  ts >= startTime && betsEndTime < ts */\n      dup1\n      iszero\n      tag_60\n      jumpi\n      pop\n        /* \"contracts/TheGame.sol\":2052:2054  ts */\n      dup1\n        /* \"contracts/TheGame.sol\":2038:2049  betsEndTime */\n      sload(0x03)\n        /* \"contracts/TheGame.sol\":2038:2054  betsEndTime < ts */\n      lt\n        /* \"contracts/TheGame.sol\":2019:2054  ts >= startTime && betsEndTime < ts */\n    tag_60:\n        /* \"contracts/TheGame.sol\":2015:2238  if (ts >= startTime && betsEndTime < ts)... */\n      iszero\n      tag_61\n      jumpi\n        /* \"contracts/TheGame.sol\":2075:2089  GameState.OPEN */\n      0x01\n        /* \"contracts/TheGame.sol\":2068:2089  return GameState.OPEN */\n      swap2\n      pop\n      pop\n      jump(tag_57)\n        /* \"contracts/TheGame.sol\":2015:2238  if (ts >= startTime && betsEndTime < ts)... */\n    tag_61:\n        /* \"contracts/TheGame.sol\":2114:2125  betsEndTime */\n      sload(0x03)\n        /* \"contracts/TheGame.sol\":2108:2110  ts */\n      dup2\n        /* \"contracts/TheGame.sol\":2108:2125  ts >= betsEndTime */\n      lt\n      iszero\n        /* \"contracts/TheGame.sol\":2108:2143  ts >= betsEndTime && ts < closeTime */\n      dup1\n      iszero\n      tag_63\n      jumpi\n      pop\n        /* \"contracts/TheGame.sol\":2134:2143  closeTime */\n      sload(0x04)\n        /* \"contracts/TheGame.sol\":2129:2131  ts */\n      dup2\n        /* \"contracts/TheGame.sol\":2129:2143  ts < closeTime */\n      lt\n        /* \"contracts/TheGame.sol\":2108:2143  ts >= betsEndTime && ts < closeTime */\n    tag_63:\n        /* \"contracts/TheGame.sol\":2104:2238  if (ts >= betsEndTime && ts < closeTime)... */\n      iszero\n      tag_64\n      jumpi\n        /* \"contracts/TheGame.sol\":2164:2185  GameState.BETS_CLOSED */\n      0x02\n        /* \"contracts/TheGame.sol\":2157:2185  return GameState.BETS_CLOSED */\n      swap2\n      pop\n      pop\n      jump(tag_57)\n        /* \"contracts/TheGame.sol\":2104:2238  if (ts >= betsEndTime && ts < closeTime)... */\n    tag_64:\n        /* \"contracts/TheGame.sol\":2220:2238  GameState.FINISHED */\n      0x03\n        /* \"contracts/TheGame.sol\":2213:2238  return GameState.FINISHED */\n      swap2\n      pop\n      pop\n        /* \"contracts/TheGame.sol\":1845:2245  function getState() public view returns(GameState) {... */\n    tag_57:\n      swap1\n      jump\t// out\n        /* \"contracts/TheGame.sol\":2679:2964  function takeABet(BetTakenFor option, uint256 amount) public payable returns(Bet memory){... */\n    tag_20:\n        /* \"contracts/TheGame.sol\":2756:2766  Bet memory */\n      tag_66\n      tag_67\n      jump\t// in\n    tag_66:\n        /* \"contracts/TheGame.sol\":2837:2851  Bet memory bet */\n      0x00\n        /* \"contracts/TheGame.sol\":2854:2913  Bet(msg.sender, currentOddsA, currentOddsB, option, amount) */\n      mload(0x40)\n      dup1\n      0xa0\n      add\n      0x40\n      mstore\n      dup1\n        /* \"contracts/TheGame.sol\":2858:2868  msg.sender */\n      caller\n        /* \"contracts/TheGame.sol\":2854:2913  Bet(msg.sender, currentOddsA, currentOddsB, option, amount) */\n      0xffffffffffffffffffffffffffffffffffffffff\n      and\n      dup2\n      mstore\n      0x20\n      add\n        /* \"contracts/TheGame.sol\":2870:2882  currentOddsA */\n      sload(0x05)\n        /* \"contracts/TheGame.sol\":2854:2913  Bet(msg.sender, currentOddsA, currentOddsB, option, amount) */\n      dup2\n      mstore\n      0x20\n      add\n        /* \"contracts/TheGame.sol\":2884:2896  currentOddsB */\n      sload(0x06)\n        /* \"contracts/TheGame.sol\":2854:2913  Bet(msg.sender, currentOddsA, currentOddsB, option, amount) */\n      dup2\n      mstore\n      0x20\n      add\n        /* \"contracts/TheGame.sol\":2898:2904  option */\n      dup6\n        /* \"contracts/TheGame.sol\":2854:2913  Bet(msg.sender, currentOddsA, currentOddsB, option, amount) */\n      0x01\n      dup2\n      gt\n      iszero\n      tag_69\n      jumpi\n      tag_70\n      tag_71\n      jump\t// in\n    tag_70:\n    tag_69:\n      dup2\n      mstore\n      0x20\n      add\n        /* \"contracts/TheGame.sol\":2906:2912  amount */\n      dup5\n        /* \"contracts/TheGame.sol\":2854:2913  Bet(msg.sender, currentOddsA, currentOddsB, option, amount) */\n      dup2\n      mstore\n      pop\n        /* \"contracts/TheGame.sol\":2837:2913  Bet memory bet = Bet(msg.sender, currentOddsA, currentOddsB, option, amount) */\n      swap1\n      pop\n        /* \"contracts/TheGame.sol\":2923:2927  bets */\n      0x07\n        /* \"contracts/TheGame.sol\":2933:2936  bet */\n      dup2\n        /* \"contracts/TheGame.sol\":2923:2937  bets.push(bet) */\n      swap1\n      dup1\n      0x01\n      dup2\n      sload\n      add\n      dup1\n      dup3\n      sstore\n      dup1\n      swap2\n      pop\n      pop\n      0x01\n      swap1\n      sub\n      swap1\n      0x00\n      mstore\n      keccak256(0x00, 0x20)\n      swap1\n      0x05\n      mul\n      add\n      0x00\n      swap1\n      swap2\n      swap1\n      swap2\n      swap1\n      swap2\n      pop\n      0x00\n      dup3\n      add\n      mload\n      dup2\n      0x00\n      add\n      exp(0x0100, 0x00)\n      dup2\n      sload\n      dup2\n      0xffffffffffffffffffffffffffffffffffffffff\n      mul\n      not\n      and\n      swap1\n      dup4\n      0xffffffffffffffffffffffffffffffffffffffff\n      and\n      mul\n      or\n      swap1\n      sstore\n      pop\n      0x20\n      dup3\n      add\n      mload\n      dup2\n      0x01\n      add\n      sstore\n      0x40\n      dup3\n      add\n      mload\n      dup2\n      0x02\n      add\n      sstore\n      0x60\n      dup3\n      add\n      mload\n      dup2\n      0x03\n      add\n      exp(0x0100, 0x00)\n      dup2\n      sload\n      dup2\n      0xff\n      mul\n      not\n      and\n      swap1\n      dup4\n      0x01\n      dup2\n      gt\n      iszero\n      tag_73\n      jumpi\n      tag_74\n      tag_71\n      jump\t// in\n    tag_74:\n    tag_73:\n      mul\n      or\n      swap1\n      sstore\n      pop\n      0x80\n      dup3\n      add\n      mload\n      dup2\n      0x04\n      add\n      sstore\n      pop\n      pop\n        /* \"contracts/TheGame.sol\":2954:2957  bet */\n      dup1\n        /* \"contracts/TheGame.sol\":2947:2957  return bet */\n      swap2\n      pop\n      pop\n        /* \"contracts/TheGame.sol\":2679:2964  function takeABet(BetTakenFor option, uint256 amount) public payable returns(Bet memory){... */\n      swap3\n      swap2\n      pop\n      pop\n      jump\t// out\n        /* \"contracts/TheGame.sol\":743:824  function getOwner() external view returns (address) {... */\n    tag_25:\n        /* \"contracts/TheGame.sol\":786:793  address */\n      0x00\n        /* \"contracts/TheGame.sol\":812:817  owner */\n      dup1\n      0x00\n      swap1\n      sload\n      swap1\n      0x0100\n      exp\n      swap1\n      div\n      0xffffffffffffffffffffffffffffffffffffffff\n      and\n        /* \"contracts/TheGame.sol\":805:817  return owner */\n      swap1\n      pop\n        /* \"contracts/TheGame.sol\":743:824  function getOwner() external view returns (address) {... */\n      swap1\n      jump\t// out\n        /* \"contracts/TheGame.sol\":1655:1746  function getBetsEndTime() public view returns(uint256) {... */\n    tag_30:\n        /* \"contracts/TheGame.sol\":1701:1708  uint256 */\n      0x00\n        /* \"contracts/TheGame.sol\":1728:1739  betsEndTime */\n      sload(0x03)\n        /* \"contracts/TheGame.sol\":1721:1739  return betsEndTime */\n      swap1\n      pop\n        /* \"contracts/TheGame.sol\":1655:1746  function getBetsEndTime() public view returns(uint256) {... */\n      swap1\n      jump\t// out\n        /* \"contracts/TheGame.sol\":610:737  function changeOwner(address newOwner) public isOwner {... */\n    tag_37:\n        /* \"contracts/TheGame.sol\":483:488  owner */\n      0x00\n      dup1\n      sload\n      swap1\n      0x0100\n      exp\n      swap1\n      div\n      0xffffffffffffffffffffffffffffffffffffffff\n      and\n        /* \"contracts/TheGame.sol\":469:488  msg.sender == owner */\n      0xffffffffffffffffffffffffffffffffffffffff\n      and\n        /* \"contracts/TheGame.sol\":469:479  msg.sender */\n      caller\n        /* \"contracts/TheGame.sol\":469:488  msg.sender == owner */\n      0xffffffffffffffffffffffffffffffffffffffff\n      and\n      eq\n        /* \"contracts/TheGame.sol\":461:512  require(msg.sender == owner, \"Caller is not owner\") */\n      tag_78\n      jumpi\n      mload(0x40)\n      0x08c379a000000000000000000000000000000000000000000000000000000000\n      dup2\n      mstore\n      0x04\n      add\n      tag_79\n      swap1\n      tag_80\n      jump\t// in\n    tag_79:\n      mload(0x40)\n      dup1\n      swap2\n      sub\n      swap1\n      revert\n    tag_78:\n        /* \"contracts/TheGame.sol\":695:703  newOwner */\n      dup1\n        /* \"contracts/TheGame.sol\":679:704  OwnerSet(owner, newOwner) */\n      0xffffffffffffffffffffffffffffffffffffffff\n      and\n        /* \"contracts/TheGame.sol\":688:693  owner */\n      0x00\n      dup1\n      sload\n      swap1\n      0x0100\n      exp\n      swap1\n      div\n      0xffffffffffffffffffffffffffffffffffffffff\n      and\n        /* \"contracts/TheGame.sol\":679:704  OwnerSet(owner, newOwner) */\n      0xffffffffffffffffffffffffffffffffffffffff\n      and\n      0x342827c97908e5e2f71151c08502a66d44b6f758e3ac2f1de95f02eb95f0a735\n      mload(0x40)\n      mload(0x40)\n      dup1\n      swap2\n      sub\n      swap1\n      log3\n        /* \"contracts/TheGame.sol\":722:730  newOwner */\n      dup1\n        /* \"contracts/TheGame.sol\":714:719  owner */\n      0x00\n      dup1\n        /* \"contracts/TheGame.sol\":714:730  owner = newOwner */\n      0x0100\n      exp\n      dup2\n      sload\n      dup2\n      0xffffffffffffffffffffffffffffffffffffffff\n      mul\n      not\n      and\n      swap1\n      dup4\n      0xffffffffffffffffffffffffffffffffffffffff\n      and\n      mul\n      or\n      swap1\n      sstore\n      pop\n        /* \"contracts/TheGame.sol\":610:737  function changeOwner(address newOwner) public isOwner {... */\n      pop\n      jump\t// out\n        /* \"contracts/TheGame.sol\":2325:2457  function updateOddsA(uint256 odds) public isOwner returns(uint256) {... */\n    tag_42:\n        /* \"contracts/TheGame.sol\":2383:2390  uint256 */\n      0x00\n        /* \"contracts/TheGame.sol\":483:488  owner */\n      dup1\n      0x00\n      swap1\n      sload\n      swap1\n      0x0100\n      exp\n      swap1\n      div\n      0xffffffffffffffffffffffffffffffffffffffff\n      and\n        /* \"contracts/TheGame.sol\":469:488  msg.sender == owner */\n      0xffffffffffffffffffffffffffffffffffffffff\n      and\n        /* \"contracts/TheGame.sol\":469:479  msg.sender */\n      caller\n        /* \"contracts/TheGame.sol\":469:488  msg.sender == owner */\n      0xffffffffffffffffffffffffffffffffffffffff\n      and\n      eq\n        /* \"contracts/TheGame.sol\":461:512  require(msg.sender == owner, \"Caller is not owner\") */\n      tag_83\n      jumpi\n      mload(0x40)\n      0x08c379a000000000000000000000000000000000000000000000000000000000\n      dup2\n      mstore\n      0x04\n      add\n      tag_84\n      swap1\n      tag_80\n      jump\t// in\n    tag_84:\n      mload(0x40)\n      dup1\n      swap2\n      sub\n      swap1\n      revert\n    tag_83:\n        /* \"contracts/TheGame.sol\":2417:2421  odds */\n      dup2\n        /* \"contracts/TheGame.sol\":2402:2414  currentOddsA */\n      0x05\n        /* \"contracts/TheGame.sol\":2402:2421  currentOddsA = odds */\n      dup2\n      swap1\n      sstore\n      pop\n        /* \"contracts/TheGame.sol\":2438:2450  currentOddsA */\n      sload(0x05)\n        /* \"contracts/TheGame.sol\":2431:2450  return currentOddsA */\n      swap1\n      pop\n        /* \"contracts/TheGame.sol\":2325:2457  function updateOddsA(uint256 odds) public isOwner returns(uint256) {... */\n      swap2\n      swap1\n      pop\n      jump\t// out\n        /* \"contracts/TheGame.sol\":1562:1649  function getStartTime() public view returns(uint256) {... */\n    tag_46:\n        /* \"contracts/TheGame.sol\":1606:1613  uint256 */\n      0x00\n        /* \"contracts/TheGame.sol\":1633:1642  startTime */\n      sload(0x02)\n        /* \"contracts/TheGame.sol\":1626:1642  return startTime */\n      swap1\n      pop\n        /* \"contracts/TheGame.sol\":1562:1649  function getStartTime() public view returns(uint256) {... */\n      swap1\n      jump\t// out\n        /* \"contracts/TheGame.sol\":2467:2599  function updateOddsB(uint256 odds) public isOwner returns(uint256) {... */\n    tag_51:\n        /* \"contracts/TheGame.sol\":2525:2532  uint256 */\n      0x00\n        /* \"contracts/TheGame.sol\":483:488  owner */\n      dup1\n      0x00\n      swap1\n      sload\n      swap1\n      0x0100\n      exp\n      swap1\n      div\n      0xffffffffffffffffffffffffffffffffffffffff\n      and\n        /* \"contracts/TheGame.sol\":469:488  msg.sender == owner */\n      0xffffffffffffffffffffffffffffffffffffffff\n      and\n        /* \"contracts/TheGame.sol\":469:479  msg.sender */\n      caller\n        /* \"contracts/TheGame.sol\":469:488  msg.sender == owner */\n      0xffffffffffffffffffffffffffffffffffffffff\n      and\n      eq\n        /* \"contracts/TheGame.sol\":461:512  require(msg.sender == owner, \"Caller is not owner\") */\n      tag_88\n      jumpi\n      mload(0x40)\n      0x08c379a000000000000000000000000000000000000000000000000000000000\n      dup2\n      mstore\n      0x04\n      add\n      tag_89\n      swap1\n      tag_80\n      jump\t// in\n    tag_89:\n      mload(0x40)\n      dup1\n      swap2\n      sub\n      swap1\n      revert\n    tag_88:\n        /* \"contracts/TheGame.sol\":2559:2563  odds */\n      dup2\n        /* \"contracts/TheGame.sol\":2544:2556  currentOddsB */\n      0x06\n        /* \"contracts/TheGame.sol\":2544:2563  currentOddsB = odds */\n      dup2\n      swap1\n      sstore\n      pop\n        /* \"contracts/TheGame.sol\":2580:2592  currentOddsB */\n      sload(0x06)\n        /* \"contracts/TheGame.sol\":2573:2592  return currentOddsB */\n      swap1\n      pop\n        /* \"contracts/TheGame.sol\":2467:2599  function updateOddsB(uint256 odds) public isOwner returns(uint256) {... */\n      swap2\n      swap1\n      pop\n      jump\t// out\n        /* \"contracts/TheGame.sol\":1752:1839  function getCloseTime() public view returns(uint256) {... */\n    tag_55:\n        /* \"contracts/TheGame.sol\":1796:1803  uint256 */\n      0x00\n        /* \"contracts/TheGame.sol\":1823:1832  closeTime */\n      sload(0x04)\n        /* \"contracts/TheGame.sol\":1816:1832  return closeTime */\n      swap1\n      pop\n        /* \"contracts/TheGame.sol\":1752:1839  function getCloseTime() public view returns(uint256) {... */\n      swap1\n      jump\t// out\n    tag_67:\n      mload(0x40)\n      dup1\n      0xa0\n      add\n      0x40\n      mstore\n      dup1\n      and(0xffffffffffffffffffffffffffffffffffffffff, 0x00)\n      dup2\n      mstore\n      0x20\n      add\n      0x00\n      dup2\n      mstore\n      0x20\n      add\n      0x00\n      dup2\n      mstore\n      0x20\n      add\n      0x00\n      0x01\n      dup2\n      gt\n      iszero\n      tag_92\n      jumpi\n      tag_93\n      tag_71\n      jump\t// in\n    tag_93:\n    tag_92:\n      dup2\n      mstore\n      0x20\n      add\n      0x00\n      dup2\n      mstore\n      pop\n      swap1\n      jump\t// out\n        /* \"#utility.yul\":7:146   */\n    tag_95:\n        /* \"#utility.yul\":53:58   */\n      0x00\n        /* \"#utility.yul\":91:97   */\n      dup2\n        /* \"#utility.yul\":78:98   */\n      calldataload\n        /* \"#utility.yul\":69:98   */\n      swap1\n      pop\n        /* \"#utility.yul\":107:140   */\n      tag_97\n        /* \"#utility.yul\":134:139   */\n      dup2\n        /* \"#utility.yul\":107:140   */\n      tag_98\n      jump\t// in\n    tag_97:\n        /* \"#utility.yul\":7:146   */\n      swap3\n      swap2\n      pop\n      pop\n      jump\t// out\n        /* \"#utility.yul\":152:317   */\n    tag_99:\n        /* \"#utility.yul\":211:216   */\n      0x00\n        /* \"#utility.yul\":249:255   */\n      dup2\n        /* \"#utility.yul\":236:256   */\n      calldataload\n        /* \"#utility.yul\":227:256   */\n      swap1\n      pop\n        /* \"#utility.yul\":265:311   */\n      tag_101\n        /* \"#utility.yul\":305:310   */\n      dup2\n        /* \"#utility.yul\":265:311   */\n      tag_102\n      jump\t// in\n    tag_101:\n        /* \"#utility.yul\":152:317   */\n      swap3\n      swap2\n      pop\n      pop\n      jump\t// out\n        /* \"#utility.yul\":323:462   */\n    tag_103:\n        /* \"#utility.yul\":369:374   */\n      0x00\n        /* \"#utility.yul\":407:413   */\n      dup2\n        /* \"#utility.yul\":394:414   */\n      calldataload\n        /* \"#utility.yul\":385:414   */\n      swap1\n      pop\n        /* \"#utility.yul\":423:456   */\n      tag_105\n        /* \"#utility.yul\":450:455   */\n      dup2\n        /* \"#utility.yul\":423:456   */\n      tag_106\n      jump\t// in\n    tag_105:\n        /* \"#utility.yul\":323:462   */\n      swap3\n      swap2\n      pop\n      pop\n      jump\t// out\n        /* \"#utility.yul\":468:797   */\n    tag_36:\n        /* \"#utility.yul\":527:533   */\n      0x00\n        /* \"#utility.yul\":576:578   */\n      0x20\n        /* \"#utility.yul\":564:573   */\n      dup3\n        /* \"#utility.yul\":555:562   */\n      dup5\n        /* \"#utility.yul\":551:574   */\n      sub\n        /* \"#utility.yul\":547:579   */\n      slt\n        /* \"#utility.yul\":544:663   */\n      iszero\n      tag_108\n      jumpi\n        /* \"#utility.yul\":582:661   */\n      tag_109\n      tag_110\n      jump\t// in\n    tag_109:\n        /* \"#utility.yul\":544:663   */\n    tag_108:\n        /* \"#utility.yul\":702:703   */\n      0x00\n        /* \"#utility.yul\":727:780   */\n      tag_111\n        /* \"#utility.yul\":772:779   */\n      dup5\n        /* \"#utility.yul\":763:769   */\n      dup3\n        /* \"#utility.yul\":752:761   */\n      dup6\n        /* \"#utility.yul\":748:770   */\n      add\n        /* \"#utility.yul\":727:780   */\n      tag_95\n      jump\t// in\n    tag_111:\n        /* \"#utility.yul\":717:780   */\n      swap2\n      pop\n        /* \"#utility.yul\":673:790   */\n      pop\n        /* \"#utility.yul\":468:797   */\n      swap3\n      swap2\n      pop\n      pop\n      jump\t// out\n        /* \"#utility.yul\":803:1303   */\n    tag_19:\n        /* \"#utility.yul\":884:890   */\n      0x00\n        /* \"#utility.yul\":892:898   */\n      dup1\n        /* \"#utility.yul\":941:943   */\n      0x40\n        /* \"#utility.yul\":929:938   */\n      dup4\n        /* \"#utility.yul\":920:927   */\n      dup6\n        /* \"#utility.yul\":916:939   */\n      sub\n        /* \"#utility.yul\":912:944   */\n      slt\n        /* \"#utility.yul\":909:1028   */\n      iszero\n      tag_113\n      jumpi\n        /* \"#utility.yul\":947:1026   */\n      tag_114\n      tag_110\n      jump\t// in\n    tag_114:\n        /* \"#utility.yul\":909:1028   */\n    tag_113:\n        /* \"#utility.yul\":1067:1068   */\n      0x00\n        /* \"#utility.yul\":1092:1158   */\n      tag_115\n        /* \"#utility.yul\":1150:1157   */\n      dup6\n        /* \"#utility.yul\":1141:1147   */\n      dup3\n        /* \"#utility.yul\":1130:1139   */\n      dup7\n        /* \"#utility.yul\":1126:1148   */\n      add\n        /* \"#utility.yul\":1092:1158   */\n      tag_99\n      jump\t// in\n    tag_115:\n        /* \"#utility.yul\":1082:1158   */\n      swap3\n      pop\n        /* \"#utility.yul\":1038:1168   */\n      pop\n        /* \"#utility.yul\":1207:1209   */\n      0x20\n        /* \"#utility.yul\":1233:1286   */\n      tag_116\n        /* \"#utility.yul\":1278:1285   */\n      dup6\n        /* \"#utility.yul\":1269:1275   */\n      dup3\n        /* \"#utility.yul\":1258:1267   */\n      dup7\n        /* \"#utility.yul\":1254:1276   */\n      add\n        /* \"#utility.yul\":1233:1286   */\n      tag_103\n      jump\t// in\n    tag_116:\n        /* \"#utility.yul\":1223:1286   */\n      swap2\n      pop\n        /* \"#utility.yul\":1178:1296   */\n      pop\n        /* \"#utility.yul\":803:1303   */\n      swap3\n      pop\n      swap3\n      swap1\n      pop\n      jump\t// out\n        /* \"#utility.yul\":1309:1638   */\n    tag_41:\n        /* \"#utility.yul\":1368:1374   */\n      0x00\n        /* \"#utility.yul\":1417:1419   */\n      0x20\n        /* \"#utility.yul\":1405:1414   */\n      dup3\n        /* \"#utility.yul\":1396:1403   */\n      dup5\n        /* \"#utility.yul\":1392:1415   */\n      sub\n        /* \"#utility.yul\":1388:1420   */\n      slt\n        /* \"#utility.yul\":1385:1504   */\n      iszero\n      tag_118\n      jumpi\n        /* \"#utility.yul\":1423:1502   */\n      tag_119\n      tag_110\n      jump\t// in\n    tag_119:\n        /* \"#utility.yul\":1385:1504   */\n    tag_118:\n        /* \"#utility.yul\":1543:1544   */\n      0x00\n        /* \"#utility.yul\":1568:1621   */\n      tag_120\n        /* \"#utility.yul\":1613:1620   */\n      dup5\n        /* \"#utility.yul\":1604:1610   */\n      dup3\n        /* \"#utility.yul\":1593:1602   */\n      dup6\n        /* \"#utility.yul\":1589:1611   */\n      add\n        /* \"#utility.yul\":1568:1621   */\n      tag_103\n      jump\t// in\n    tag_120:\n        /* \"#utility.yul\":1558:1621   */\n      swap2\n      pop\n        /* \"#utility.yul\":1514:1631   */\n      pop\n        /* \"#utility.yul\":1309:1638   */\n      swap3\n      swap2\n      pop\n      pop\n      jump\t// out\n        /* \"#utility.yul\":1644:1752   */\n    tag_121:\n        /* \"#utility.yul\":1721:1745   */\n      tag_123\n        /* \"#utility.yul\":1739:1744   */\n      dup2\n        /* \"#utility.yul\":1721:1745   */\n      tag_124\n      jump\t// in\n    tag_123:\n        /* \"#utility.yul\":1716:1719   */\n      dup3\n        /* \"#utility.yul\":1709:1746   */\n      mstore\n        /* \"#utility.yul\":1644:1752   */\n      pop\n      pop\n      jump\t// out\n        /* \"#utility.yul\":1758:1876   */\n    tag_125:\n        /* \"#utility.yul\":1845:1869   */\n      tag_127\n        /* \"#utility.yul\":1863:1868   */\n      dup2\n        /* \"#utility.yul\":1845:1869   */\n      tag_124\n      jump\t// in\n    tag_127:\n        /* \"#utility.yul\":1840:1843   */\n      dup3\n        /* \"#utility.yul\":1833:1870   */\n      mstore\n        /* \"#utility.yul\":1758:1876   */\n      pop\n      pop\n      jump\t// out\n        /* \"#utility.yul\":1882:2025   */\n    tag_128:\n        /* \"#utility.yul\":1970:2018   */\n      tag_130\n        /* \"#utility.yul\":2012:2017   */\n      dup2\n        /* \"#utility.yul\":1970:2018   */\n      tag_131\n      jump\t// in\n    tag_130:\n        /* \"#utility.yul\":1965:1968   */\n      dup3\n        /* \"#utility.yul\":1958:2019   */\n      mstore\n        /* \"#utility.yul\":1882:2025   */\n      pop\n      pop\n      jump\t// out\n        /* \"#utility.yul\":2031:2182   */\n    tag_132:\n        /* \"#utility.yul\":2128:2175   */\n      tag_134\n        /* \"#utility.yul\":2169:2174   */\n      dup2\n        /* \"#utility.yul\":2128:2175   */\n      tag_135\n      jump\t// in\n    tag_134:\n        /* \"#utility.yul\":2123:2126   */\n      dup3\n        /* \"#utility.yul\":2116:2176   */\n      mstore\n        /* \"#utility.yul\":2031:2182   */\n      pop\n      pop\n      jump\t// out\n        /* \"#utility.yul\":2188:2554   */\n    tag_136:\n        /* \"#utility.yul\":2330:2333   */\n      0x00\n        /* \"#utility.yul\":2351:2418   */\n      tag_138\n        /* \"#utility.yul\":2415:2417   */\n      0x13\n        /* \"#utility.yul\":2410:2413   */\n      dup4\n        /* \"#utility.yul\":2351:2418   */\n      tag_139\n      jump\t// in\n    tag_138:\n        /* \"#utility.yul\":2344:2418   */\n      swap2\n      pop\n        /* \"#utility.yul\":2427:2520   */\n      tag_140\n        /* \"#utility.yul\":2516:2519   */\n      dup3\n        /* \"#utility.yul\":2427:2520   */\n      tag_141\n      jump\t// in\n    tag_140:\n        /* \"#utility.yul\":2545:2547   */\n      0x20\n        /* \"#utility.yul\":2540:2543   */\n      dup3\n        /* \"#utility.yul\":2536:2548   */\n      add\n        /* \"#utility.yul\":2529:2548   */\n      swap1\n      pop\n        /* \"#utility.yul\":2188:2554   */\n      swap2\n      swap1\n      pop\n      jump\t// out\n        /* \"#utility.yul\":2592:3633   */\n    tag_142:\n        /* \"#utility.yul\":2727:2731   */\n      0xa0\n        /* \"#utility.yul\":2722:2725   */\n      dup3\n        /* \"#utility.yul\":2718:2732   */\n      add\n        /* \"#utility.yul\":2816:2820   */\n      0x00\n        /* \"#utility.yul\":2809:2814   */\n      dup3\n        /* \"#utility.yul\":2805:2821   */\n      add\n        /* \"#utility.yul\":2799:2822   */\n      mload\n        /* \"#utility.yul\":2835:2898   */\n      tag_144\n        /* \"#utility.yul\":2892:2896   */\n      0x00\n        /* \"#utility.yul\":2887:2890   */\n      dup6\n        /* \"#utility.yul\":2883:2897   */\n      add\n        /* \"#utility.yul\":2869:2881   */\n      dup3\n        /* \"#utility.yul\":2835:2898   */\n      tag_121\n      jump\t// in\n    tag_144:\n        /* \"#utility.yul\":2742:2908   */\n      pop\n        /* \"#utility.yul\":2991:2995   */\n      0x20\n        /* \"#utility.yul\":2984:2989   */\n      dup3\n        /* \"#utility.yul\":2980:2996   */\n      add\n        /* \"#utility.yul\":2974:2997   */\n      mload\n        /* \"#utility.yul\":3010:3073   */\n      tag_145\n        /* \"#utility.yul\":3067:3071   */\n      0x20\n        /* \"#utility.yul\":3062:3065   */\n      dup6\n        /* \"#utility.yul\":3058:3072   */\n      add\n        /* \"#utility.yul\":3044:3056   */\n      dup3\n        /* \"#utility.yul\":3010:3073   */\n      tag_146\n      jump\t// in\n    tag_145:\n        /* \"#utility.yul\":2918:3083   */\n      pop\n        /* \"#utility.yul\":3166:3170   */\n      0x40\n        /* \"#utility.yul\":3159:3164   */\n      dup3\n        /* \"#utility.yul\":3155:3171   */\n      add\n        /* \"#utility.yul\":3149:3172   */\n      mload\n        /* \"#utility.yul\":3185:3248   */\n      tag_147\n        /* \"#utility.yul\":3242:3246   */\n      0x40\n        /* \"#utility.yul\":3237:3240   */\n      dup6\n        /* \"#utility.yul\":3233:3247   */\n      add\n        /* \"#utility.yul\":3219:3231   */\n      dup3\n        /* \"#utility.yul\":3185:3248   */\n      tag_146\n      jump\t// in\n    tag_147:\n        /* \"#utility.yul\":3093:3258   */\n      pop\n        /* \"#utility.yul\":3347:3351   */\n      0x60\n        /* \"#utility.yul\":3340:3345   */\n      dup3\n        /* \"#utility.yul\":3336:3352   */\n      add\n        /* \"#utility.yul\":3330:3353   */\n      mload\n        /* \"#utility.yul\":3366:3440   */\n      tag_148\n        /* \"#utility.yul\":3434:3438   */\n      0x60\n        /* \"#utility.yul\":3429:3432   */\n      dup6\n        /* \"#utility.yul\":3425:3439   */\n      add\n        /* \"#utility.yul\":3411:3423   */\n      dup3\n        /* \"#utility.yul\":3366:3440   */\n      tag_128\n      jump\t// in\n    tag_148:\n        /* \"#utility.yul\":3268:3450   */\n      pop\n        /* \"#utility.yul\":3534:3538   */\n      0x80\n        /* \"#utility.yul\":3527:3532   */\n      dup3\n        /* \"#utility.yul\":3523:3539   */\n      add\n        /* \"#utility.yul\":3517:3540   */\n      mload\n        /* \"#utility.yul\":3553:3616   */\n      tag_149\n        /* \"#utility.yul\":3610:3614   */\n      0x80\n        /* \"#utility.yul\":3605:3608   */\n      dup6\n        /* \"#utility.yul\":3601:3615   */\n      add\n        /* \"#utility.yul\":3587:3599   */\n      dup3\n        /* \"#utility.yul\":3553:3616   */\n      tag_146\n      jump\t// in\n    tag_149:\n        /* \"#utility.yul\":3460:3626   */\n      pop\n        /* \"#utility.yul\":2696:3633   */\n      pop\n        /* \"#utility.yul\":2592:3633   */\n      pop\n      pop\n      jump\t// out\n        /* \"#utility.yul\":3639:3747   */\n    tag_146:\n        /* \"#utility.yul\":3716:3740   */\n      tag_151\n        /* \"#utility.yul\":3734:3739   */\n      dup2\n        /* \"#utility.yul\":3716:3740   */\n      tag_152\n      jump\t// in\n    tag_151:\n        /* \"#utility.yul\":3711:3714   */\n      dup3\n        /* \"#utility.yul\":3704:3741   */\n      mstore\n        /* \"#utility.yul\":3639:3747   */\n      pop\n      pop\n      jump\t// out\n        /* \"#utility.yul\":3753:3871   */\n    tag_153:\n        /* \"#utility.yul\":3840:3864   */\n      tag_155\n        /* \"#utility.yul\":3858:3863   */\n      dup2\n        /* \"#utility.yul\":3840:3864   */\n      tag_152\n      jump\t// in\n    tag_155:\n        /* \"#utility.yul\":3835:3838   */\n      dup3\n        /* \"#utility.yul\":3828:3865   */\n      mstore\n        /* \"#utility.yul\":3753:3871   */\n      pop\n      pop\n      jump\t// out\n        /* \"#utility.yul\":3877:4099   */\n    tag_27:\n        /* \"#utility.yul\":3970:3974   */\n      0x00\n        /* \"#utility.yul\":4008:4010   */\n      0x20\n        /* \"#utility.yul\":3997:4006   */\n      dup3\n        /* \"#utility.yul\":3993:4011   */\n      add\n        /* \"#utility.yul\":3985:4011   */\n      swap1\n      pop\n        /* \"#utility.yul\":4021:4092   */\n      tag_157\n        /* \"#utility.yul\":4089:4090   */\n      0x00\n        /* \"#utility.yul\":4078:4087   */\n      dup4\n        /* \"#utility.yul\":4074:4091   */\n      add\n        /* \"#utility.yul\":4065:4071   */\n      dup5\n        /* \"#utility.yul\":4021:4092   */\n      tag_125\n      jump\t// in\n    tag_157:\n        /* \"#utility.yul\":3877:4099   */\n      swap3\n      swap2\n      pop\n      pop\n      jump\t// out\n        /* \"#utility.yul\":4105:4347   */\n    tag_16:\n        /* \"#utility.yul\":4208:4212   */\n      0x00\n        /* \"#utility.yul\":4246:4248   */\n      0x20\n        /* \"#utility.yul\":4235:4244   */\n      dup3\n        /* \"#utility.yul\":4231:4249   */\n      add\n        /* \"#utility.yul\":4223:4249   */\n      swap1\n      pop\n        /* \"#utility.yul\":4259:4340   */\n      tag_159\n        /* \"#utility.yul\":4337:4338   */\n      0x00\n        /* \"#utility.yul\":4326:4335   */\n      dup4\n        /* \"#utility.yul\":4322:4339   */\n      add\n        /* \"#utility.yul\":4313:4319   */\n      dup5\n        /* \"#utility.yul\":4259:4340   */\n      tag_132\n      jump\t// in\n    tag_159:\n        /* \"#utility.yul\":4105:4347   */\n      swap3\n      swap2\n      pop\n      pop\n      jump\t// out\n        /* \"#utility.yul\":4353:4772   */\n    tag_80:\n        /* \"#utility.yul\":4519:4523   */\n      0x00\n        /* \"#utility.yul\":4557:4559   */\n      0x20\n        /* \"#utility.yul\":4546:4555   */\n      dup3\n        /* \"#utility.yul\":4542:4560   */\n      add\n        /* \"#utility.yul\":4534:4560   */\n      swap1\n      pop\n        /* \"#utility.yul\":4606:4615   */\n      dup2\n        /* \"#utility.yul\":4600:4604   */\n      dup2\n        /* \"#utility.yul\":4596:4616   */\n      sub\n        /* \"#utility.yul\":4592:4593   */\n      0x00\n        /* \"#utility.yul\":4581:4590   */\n      dup4\n        /* \"#utility.yul\":4577:4594   */\n      add\n        /* \"#utility.yul\":4570:4617   */\n      mstore\n        /* \"#utility.yul\":4634:4765   */\n      tag_161\n        /* \"#utility.yul\":4760:4764   */\n      dup2\n        /* \"#utility.yul\":4634:4765   */\n      tag_136\n      jump\t// in\n    tag_161:\n        /* \"#utility.yul\":4626:4765   */\n      swap1\n      pop\n        /* \"#utility.yul\":4353:4772   */\n      swap2\n      swap1\n      pop\n      jump\t// out\n        /* \"#utility.yul\":4778:5077   */\n    tag_22:\n        /* \"#utility.yul\":4909:4913   */\n      0x00\n        /* \"#utility.yul\":4947:4950   */\n      0xa0\n        /* \"#utility.yul\":4936:4945   */\n      dup3\n        /* \"#utility.yul\":4932:4951   */\n      add\n        /* \"#utility.yul\":4924:4951   */\n      swap1\n      pop\n        /* \"#utility.yul\":4961:5070   */\n      tag_163\n        /* \"#utility.yul\":5067:5068   */\n      0x00\n        /* \"#utility.yul\":5056:5065   */\n      dup4\n        /* \"#utility.yul\":5052:5069   */\n      add\n        /* \"#utility.yul\":5043:5049   */\n      dup5\n        /* \"#utility.yul\":4961:5070   */\n      tag_142\n      jump\t// in\n    tag_163:\n        /* \"#utility.yul\":4778:5077   */\n      swap3\n      swap2\n      pop\n      pop\n      jump\t// out\n        /* \"#utility.yul\":5083:5305   */\n    tag_32:\n        /* \"#utility.yul\":5176:5180   */\n      0x00\n        /* \"#utility.yul\":5214:5216   */\n      0x20\n        /* \"#utility.yul\":5203:5212   */\n      dup3\n        /* \"#utility.yul\":5199:5217   */\n      add\n        /* \"#utility.yul\":5191:5217   */\n      swap1\n      pop\n        /* \"#utility.yul\":5227:5298   */\n      tag_165\n        /* \"#utility.yul\":5295:5296   */\n      0x00\n        /* \"#utility.yul\":5284:5293   */\n      dup4\n        /* \"#utility.yul\":5280:5297   */\n      add\n        /* \"#utility.yul\":5271:5277   */\n      dup5\n        /* \"#utility.yul\":5227:5298   */\n      tag_153\n      jump\t// in\n    tag_165:\n        /* \"#utility.yul\":5083:5305   */\n      swap3\n      swap2\n      pop\n      pop\n      jump\t// out\n        /* \"#utility.yul\":5392:5561   */\n    tag_139:\n        /* \"#utility.yul\":5476:5487   */\n      0x00\n        /* \"#utility.yul\":5510:5516   */\n      dup3\n        /* \"#utility.yul\":5505:5508   */\n      dup3\n        /* \"#utility.yul\":5498:5517   */\n      mstore\n        /* \"#utility.yul\":5550:5554   */\n      0x20\n        /* \"#utility.yul\":5545:5548   */\n      dup3\n        /* \"#utility.yul\":5541:5555   */\n      add\n        /* \"#utility.yul\":5526:5555   */\n      swap1\n      pop\n        /* \"#utility.yul\":5392:5561   */\n      swap3\n      swap2\n      pop\n      pop\n      jump\t// out\n        /* \"#utility.yul\":5567:5663   */\n    tag_124:\n        /* \"#utility.yul\":5604:5611   */\n      0x00\n        /* \"#utility.yul\":5633:5657   */\n      tag_170\n        /* \"#utility.yul\":5651:5656   */\n      dup3\n        /* \"#utility.yul\":5633:5657   */\n      tag_171\n      jump\t// in\n    tag_170:\n        /* \"#utility.yul\":5622:5657   */\n      swap1\n      pop\n        /* \"#utility.yul\":5567:5663   */\n      swap2\n      swap1\n      pop\n      jump\t// out\n        /* \"#utility.yul\":5669:5806   */\n    tag_172:\n        /* \"#utility.yul\":5719:5726   */\n      0x00\n        /* \"#utility.yul\":5748:5753   */\n      dup2\n        /* \"#utility.yul\":5737:5753   */\n      swap1\n      pop\n        /* \"#utility.yul\":5754:5800   */\n      tag_174\n        /* \"#utility.yul\":5794:5799   */\n      dup3\n        /* \"#utility.yul\":5754:5800   */\n      tag_175\n      jump\t// in\n    tag_174:\n        /* \"#utility.yul\":5669:5806   */\n      swap2\n      swap1\n      pop\n      jump\t// out\n        /* \"#utility.yul\":5812:5947   */\n    tag_176:\n        /* \"#utility.yul\":5861:5868   */\n      0x00\n        /* \"#utility.yul\":5890:5895   */\n      dup2\n        /* \"#utility.yul\":5879:5895   */\n      swap1\n      pop\n        /* \"#utility.yul\":5896:5941   */\n      tag_178\n        /* \"#utility.yul\":5935:5940   */\n      dup3\n        /* \"#utility.yul\":5896:5941   */\n      tag_179\n      jump\t// in\n    tag_178:\n        /* \"#utility.yul\":5812:5947   */\n      swap2\n      swap1\n      pop\n      jump\t// out\n        /* \"#utility.yul\":5953:6079   */\n    tag_171:\n        /* \"#utility.yul\":5990:5997   */\n      0x00\n        /* \"#utility.yul\":6030:6072   */\n      0xffffffffffffffffffffffffffffffffffffffff\n        /* \"#utility.yul\":6023:6028   */\n      dup3\n        /* \"#utility.yul\":6019:6073   */\n      and\n        /* \"#utility.yul\":6008:6073   */\n      swap1\n      pop\n        /* \"#utility.yul\":5953:6079   */\n      swap2\n      swap1\n      pop\n      jump\t// out\n        /* \"#utility.yul\":6085:6162   */\n    tag_152:\n        /* \"#utility.yul\":6122:6129   */\n      0x00\n        /* \"#utility.yul\":6151:6156   */\n      dup2\n        /* \"#utility.yul\":6140:6156   */\n      swap1\n      pop\n        /* \"#utility.yul\":6085:6162   */\n      swap2\n      swap1\n      pop\n      jump\t// out\n        /* \"#utility.yul\":6168:6305   */\n    tag_131:\n        /* \"#utility.yul\":6229:6238   */\n      0x00\n        /* \"#utility.yul\":6262:6299   */\n      tag_183\n        /* \"#utility.yul\":6293:6298   */\n      dup3\n        /* \"#utility.yul\":6262:6299   */\n      tag_172\n      jump\t// in\n    tag_183:\n        /* \"#utility.yul\":6249:6299   */\n      swap1\n      pop\n        /* \"#utility.yul\":6168:6305   */\n      swap2\n      swap1\n      pop\n      jump\t// out\n        /* \"#utility.yul\":6311:6446   */\n    tag_135:\n        /* \"#utility.yul\":6371:6380   */\n      0x00\n        /* \"#utility.yul\":6404:6440   */\n      tag_185\n        /* \"#utility.yul\":6434:6439   */\n      dup3\n        /* \"#utility.yul\":6404:6440   */\n      tag_176\n      jump\t// in\n    tag_185:\n        /* \"#utility.yul\":6391:6440   */\n      swap1\n      pop\n        /* \"#utility.yul\":6311:6446   */\n      swap2\n      swap1\n      pop\n      jump\t// out\n        /* \"#utility.yul\":6452:6632   */\n    tag_71:\n        /* \"#utility.yul\":6500:6577   */\n      0x4e487b7100000000000000000000000000000000000000000000000000000000\n        /* \"#utility.yul\":6497:6498   */\n      0x00\n        /* \"#utility.yul\":6490:6578   */\n      mstore\n        /* \"#utility.yul\":6597:6601   */\n      0x21\n        /* \"#utility.yul\":6594:6595   */\n      0x04\n        /* \"#utility.yul\":6587:6602   */\n      mstore\n        /* \"#utility.yul\":6621:6625   */\n      0x24\n        /* \"#utility.yul\":6618:6619   */\n      0x00\n        /* \"#utility.yul\":6611:6626   */\n      revert\n        /* \"#utility.yul\":6761:6878   */\n    tag_110:\n        /* \"#utility.yul\":6870:6871   */\n      0x00\n        /* \"#utility.yul\":6867:6868   */\n      dup1\n        /* \"#utility.yul\":6860:6872   */\n      revert\n        /* \"#utility.yul\":6884:7053   */\n    tag_141:\n        /* \"#utility.yul\":7024:7045   */\n      0x43616c6c6572206973206e6f74206f776e657200000000000000000000000000\n        /* \"#utility.yul\":7020:7021   */\n      0x00\n        /* \"#utility.yul\":7012:7018   */\n      dup3\n        /* \"#utility.yul\":7008:7022   */\n      add\n        /* \"#utility.yul\":7001:7046   */\n      mstore\n        /* \"#utility.yul\":6884:7053   */\n      pop\n      jump\t// out\n        /* \"#utility.yul\":7059:7177   */\n    tag_175:\n        /* \"#utility.yul\":7145:7146   */\n      0x02\n        /* \"#utility.yul\":7138:7143   */\n      dup2\n        /* \"#utility.yul\":7135:7147   */\n      lt\n        /* \"#utility.yul\":7125:7171   */\n      tag_192\n      jumpi\n        /* \"#utility.yul\":7151:7169   */\n      tag_193\n      tag_71\n      jump\t// in\n    tag_193:\n        /* \"#utility.yul\":7125:7171   */\n    tag_192:\n        /* \"#utility.yul\":7059:7177   */\n      pop\n      jump\t// out\n        /* \"#utility.yul\":7183:7300   */\n    tag_179:\n        /* \"#utility.yul\":7268:7269   */\n      0x04\n        /* \"#utility.yul\":7261:7266   */\n      dup2\n        /* \"#utility.yul\":7258:7270   */\n      lt\n        /* \"#utility.yul\":7248:7294   */\n      tag_195\n      jumpi\n        /* \"#utility.yul\":7274:7292   */\n      tag_196\n      tag_71\n      jump\t// in\n    tag_196:\n        /* \"#utility.yul\":7248:7294   */\n    tag_195:\n        /* \"#utility.yul\":7183:7300   */\n      pop\n      jump\t// out\n        /* \"#utility.yul\":7306:7428   */\n    tag_98:\n        /* \"#utility.yul\":7379:7403   */\n      tag_198\n        /* \"#utility.yul\":7397:7402   */\n      dup2\n        /* \"#utility.yul\":7379:7403   */\n      tag_124\n      jump\t// in\n    tag_198:\n        /* \"#utility.yul\":7372:7377   */\n      dup2\n        /* \"#utility.yul\":7369:7404   */\n      eq\n        /* \"#utility.yul\":7359:7422   */\n      tag_199\n      jumpi\n        /* \"#utility.yul\":7418:7419   */\n      0x00\n        /* \"#utility.yul\":7415:7416   */\n      dup1\n        /* \"#utility.yul\":7408:7420   */\n      revert\n        /* \"#utility.yul\":7359:7422   */\n    tag_199:\n        /* \"#utility.yul\":7306:7428   */\n      pop\n      jump\t// out\n        /* \"#utility.yul\":7434:7546   */\n    tag_102:\n        /* \"#utility.yul\":7520:7521   */\n      0x02\n        /* \"#utility.yul\":7513:7518   */\n      dup2\n        /* \"#utility.yul\":7510:7522   */\n      lt\n        /* \"#utility.yul\":7500:7540   */\n      tag_201\n      jumpi\n        /* \"#utility.yul\":7536:7537   */\n      0x00\n        /* \"#utility.yul\":7533:7534   */\n      dup1\n        /* \"#utility.yul\":7526:7538   */\n      revert\n        /* \"#utility.yul\":7500:7540   */\n    tag_201:\n        /* \"#utility.yul\":7434:7546   */\n      pop\n      jump\t// out\n        /* \"#utility.yul\":7552:7674   */\n    tag_106:\n        /* \"#utility.yul\":7625:7649   */\n      tag_203\n        /* \"#utility.yul\":7643:7648   */\n      dup2\n        /* \"#utility.yul\":7625:7649   */\n      tag_152\n      jump\t// in\n    tag_203:\n        /* \"#utility.yul\":7618:7623   */\n      dup2\n        /* \"#utility.yul\":7615:7650   */\n      eq\n        /* \"#utility.yul\":7605:7668   */\n      tag_204\n      jumpi\n        /* \"#utility.yul\":7664:7665   */\n      0x00\n        /* \"#utility.yul\":7661:7662   */\n      dup1\n        /* \"#utility.yul\":7654:7666   */\n      revert\n        /* \"#utility.yul\":7605:7668   */\n    tag_204:\n        /* \"#utility.yul\":7552:7674   */\n      pop\n      jump\t// out\n\n    auxdata: 0xa2646970667358221220235fb7ee151ac99331573e440451410ddb5a0fa6e386b5bacba22a69dab7c63164736f6c63430008070033\n}\n",
				"bytecode": {
					"linkReferences": {},
					"object": "60806040523480156200001157600080fd5b5060405162000e1438038062000e1483398181016040528101906200003791906200022d565b3373ffffffffffffffffffffffffffffffffffffffff16600073ffffffffffffffffffffffffffffffffffffffff167f342827c97908e5e2f71151c08502a66d44b6f758e3ac2f1de95f02eb95f0a73560405160405180910390a3620000a333620000c860201b60201c565b4260018190555082600281905550816003819055508060048190555050505062000335565b60008054906101000a900473ffffffffffffffffffffffffffffffffffffffff1673ffffffffffffffffffffffffffffffffffffffff163373ffffffffffffffffffffffffffffffffffffffff161462000159576040517f08c379a00000000000000000000000000000000000000000000000000000000081526004016200015090620002b0565b60405180910390fd5b8073ffffffffffffffffffffffffffffffffffffffff1660008054906101000a900473ffffffffffffffffffffffffffffffffffffffff1673ffffffffffffffffffffffffffffffffffffffff167f342827c97908e5e2f71151c08502a66d44b6f758e3ac2f1de95f02eb95f0a73560405160405180910390a3806000806101000a81548173ffffffffffffffffffffffffffffffffffffffff021916908373ffffffffffffffffffffffffffffffffffffffff16021790555050565b60008151905062000227816200031b565b92915050565b600080600060608486031215620002495762000248620002ed565b5b6000620002598682870162000216565b93505060206200026c8682870162000216565b92505060406200027f8682870162000216565b9150509250925092565b600062000298601383620002d2565b9150620002a582620002f2565b602082019050919050565b60006020820190508181036000830152620002cb8162000289565b9050919050565b600082825260208201905092915050565b6000819050919050565b600080fd5b7f43616c6c6572206973206e6f74206f776e657200000000000000000000000000600082015250565b6200032681620002e3565b81146200033257600080fd5b50565b610acf80620003456000396000f3fe6080604052600436106100865760003560e01c8063a6f9dae111610059578063a6f9dae11461013c578063b9d76da914610165578063c828371e146101a2578063f2c3e469146101cd578063fadeaf761461020a57610086565b80631865c57d1461008b578063805f1b80146100b6578063893d20e8146100e65780638ea36d4714610111575b600080fd5b34801561009757600080fd5b506100a0610235565b6040516100ad91906108ce565b60405180910390f35b6100d060048036038101906100cb9190610761565b61029c565b6040516100dd9190610909565b60405180910390f35b3480156100f257600080fd5b506100fb6103c8565b60405161010891906108b3565b60405180910390f35b34801561011d57600080fd5b506101266103f1565b6040516101339190610924565b60405180910390f35b34801561014857600080fd5b50610163600480360381019061015e9190610734565b6103fb565b005b34801561017157600080fd5b5061018c600480360381019061018791906107a1565b610546565b6040516101999190610924565b60405180910390f35b3480156101ae57600080fd5b506101b76105e8565b6040516101c49190610924565b60405180910390f35b3480156101d957600080fd5b506101f460048036038101906101ef91906107a1565b6105f2565b6040516102019190610924565b60405180910390f35b34801561021657600080fd5b5061021f610694565b60405161022c9190610924565b60405180910390f35b60008042905060025481101561024f576000915050610299565b6002548110158015610262575080600354105b15610271576001915050610299565b6003548110158015610284575060045481105b15610293576002915050610299565b60039150505b90565b6102a461069e565b60006040518060a001604052803373ffffffffffffffffffffffffffffffffffffffff168152602001600554815260200160065481526020018560018111156102f0576102ef6109d6565b5b8152602001848152509050600781908060018154018082558091505060019003906000526020600020906005020160009091909190915060008201518160000160006101000a81548173ffffffffffffffffffffffffffffffffffffffff021916908373ffffffffffffffffffffffffffffffffffffffff160217905550602082015181600101556040820151816002015560608201518160030160006101000a81548160ff021916908360018111156103ad576103ac6109d6565b5b02179055506080820151816004015550508091505092915050565b60008060009054906101000a900473ffffffffffffffffffffffffffffffffffffffff16905090565b6000600354905090565b60008054906101000a900473ffffffffffffffffffffffffffffffffffffffff1673ffffffffffffffffffffffffffffffffffffffff163373ffffffffffffffffffffffffffffffffffffffff1614610489576040517f08c379a0000000000000000000000000000000000000000000000000000000008152600401610480906108e9565b60405180910390fd5b8073ffffffffffffffffffffffffffffffffffffffff1660008054906101000a900473ffffffffffffffffffffffffffffffffffffffff1673ffffffffffffffffffffffffffffffffffffffff167f342827c97908e5e2f71151c08502a66d44b6f758e3ac2f1de95f02eb95f0a73560405160405180910390a3806000806101000a81548173ffffffffffffffffffffffffffffffffffffffff021916908373ffffffffffffffffffffffffffffffffffffffff16021790555050565b60008060009054906101000a900473ffffffffffffffffffffffffffffffffffffffff1673ffffffffffffffffffffffffffffffffffffffff163373ffffffffffffffffffffffffffffffffffffffff16146105d7576040517f08c379a00000000000000000000000000000000000000000000000000000000081526004016105ce906108e9565b60405180910390fd5b816005819055506005549050919050565b6000600254905090565b60008060009054906101000a900473ffffffffffffffffffffffffffffffffffffffff1673ffffffffffffffffffffffffffffffffffffffff163373ffffffffffffffffffffffffffffffffffffffff1614610683576040517f08c379a000000000000000000000000000000000000000000000000000000000815260040161067a906108e9565b60405180910390fd5b816006819055506006549050919050565b6000600454905090565b6040518060a00160405280600073ffffffffffffffffffffffffffffffffffffffff1681526020016000815260200160008152602001600060018111156106e8576106e76109d6565b5b8152602001600081525090565b60008135905061070481610a5b565b92915050565b60008135905061071981610a72565b92915050565b60008135905061072e81610a82565b92915050565b60006020828403121561074a57610749610a05565b5b6000610758848285016106f5565b91505092915050565b6000806040838503121561077857610777610a05565b5b60006107868582860161070a565b92505060206107978582860161071f565b9150509250929050565b6000602082840312156107b7576107b6610a05565b5b60006107c58482850161071f565b91505092915050565b6107d781610950565b82525050565b6107e681610950565b82525050565b6107f5816109b2565b82525050565b610804816109c4565b82525050565b600061081760138361093f565b915061082282610a0a565b602082019050919050565b60a08201600082015161084360008501826107ce565b5060208201516108566020850182610895565b5060408201516108696040850182610895565b50606082015161087c60608501826107ec565b50608082015161088f6080850182610895565b50505050565b61089e816109a8565b82525050565b6108ad816109a8565b82525050565b60006020820190506108c860008301846107dd565b92915050565b60006020820190506108e360008301846107fb565b92915050565b600060208201905081810360008301526109028161080a565b9050919050565b600060a08201905061091e600083018461082d565b92915050565b600060208201905061093960008301846108a4565b92915050565b600082825260208201905092915050565b600061095b82610988565b9050919050565b600081905061097082610a33565b919050565b600081905061098382610a47565b919050565b600073ffffffffffffffffffffffffffffffffffffffff82169050919050565b6000819050919050565b60006109bd82610962565b9050919050565b60006109cf82610975565b9050919050565b7f4e487b7100000000000000000000000000000000000000000000000000000000600052602160045260246000fd5b600080fd5b7f43616c6c6572206973206e6f74206f776e657200000000000000000000000000600082015250565b60028110610a4457610a436109d6565b5b50565b60048110610a5857610a576109d6565b5b50565b610a6481610950565b8114610a6f57600080fd5b50565b60028110610a7f57600080fd5b50565b610a8b816109a8565b8114610a9657600080fd5b5056fea2646970667358221220235fb7ee151ac99331573e440451410ddb5a0fa6e386b5bacba22a69dab7c63164736f6c63430008070033",
					"opcodes": "PUSH1 0x80 PUSH1 0x40 MSTORE CALLVALUE DUP1 ISZERO PUSH3 0x11 JUMPI PUSH1 0x0 DUP1 REVERT JUMPDEST POP PUSH1 0x40 MLOAD PUSH3 0xE14 CODESIZE SUB DUP1 PUSH3 0xE14 DUP4 CODECOPY DUP2 DUP2 ADD PUSH1 0x40 MSTORE DUP2 ADD SWAP1 PUSH3 0x37 SWAP2 SWAP1 PUSH3 0x22D JUMP JUMPDEST CALLER PUSH20 0xFFFFFFFFFFFFFFFFFFFFFFFFFFFFFFFFFFFFFFFF AND PUSH1 0x0 PUSH20 0xFFFFFFFFFFFFFFFFFFFFFFFFFFFFFFFFFFFFFFFF AND PUSH32 0x342827C97908E5E2F71151C08502A66D44B6F758E3AC2F1DE95F02EB95F0A735 PUSH1 0x40 MLOAD PUSH1 0x40 MLOAD DUP1 SWAP2 SUB SWAP1 LOG3 PUSH3 0xA3 CALLER PUSH3 0xC8 PUSH1 0x20 SHL PUSH1 0x20 SHR JUMP JUMPDEST TIMESTAMP PUSH1 0x1 DUP2 SWAP1 SSTORE POP DUP3 PUSH1 0x2 DUP2 SWAP1 SSTORE POP DUP2 PUSH1 0x3 DUP2 SWAP1 SSTORE POP DUP1 PUSH1 0x4 DUP2 SWAP1 SSTORE POP POP POP POP PUSH3 0x335 JUMP JUMPDEST PUSH1 0x0 DUP1 SLOAD SWAP1 PUSH2 0x100 EXP SWAP1 DIV PUSH20 0xFFFFFFFFFFFFFFFFFFFFFFFFFFFFFFFFFFFFFFFF AND PUSH20 0xFFFFFFFFFFFFFFFFFFFFFFFFFFFFFFFFFFFFFFFF AND CALLER PUSH20 0xFFFFFFFFFFFFFFFFFFFFFFFFFFFFFFFFFFFFFFFF AND EQ PUSH3 0x159 JUMPI PUSH1 0x40 MLOAD PUSH32 0x8C379A000000000000000000000000000000000000000000000000000000000 DUP2 MSTORE PUSH1 0x4 ADD PUSH3 0x150 SWAP1 PUSH3 0x2B0 JUMP JUMPDEST PUSH1 0x40 MLOAD DUP1 SWAP2 SUB SWAP1 REVERT JUMPDEST DUP1 PUSH20 0xFFFFFFFFFFFFFFFFFFFFFFFFFFFFFFFFFFFFFFFF AND PUSH1 0x0 DUP1 SLOAD SWAP1 PUSH2 0x100 EXP SWAP1 DIV PUSH20 0xFFFFFFFFFFFFFFFFFFFFFFFFFFFFFFFFFFFFFFFF AND PUSH20 0xFFFFFFFFFFFFFFFFFFFFFFFFFFFFFFFFFFFFFFFF AND PUSH32 0x342827C97908E5E2F71151C08502A66D44B6F758E3AC2F1DE95F02EB95F0A735 PUSH1 0x40 MLOAD PUSH1 0x40 MLOAD DUP1 SWAP2 SUB SWAP1 LOG3 DUP1 PUSH1 0x0 DUP1 PUSH2 0x100 EXP DUP2 SLOAD DUP2 PUSH20 0xFFFFFFFFFFFFFFFFFFFFFFFFFFFFFFFFFFFFFFFF MUL NOT AND SWAP1 DUP4 PUSH20 0xFFFFFFFFFFFFFFFFFFFFFFFFFFFFFFFFFFFFFFFF AND MUL OR SWAP1 SSTORE POP POP JUMP JUMPDEST PUSH1 0x0 DUP2 MLOAD SWAP1 POP PUSH3 0x227 DUP2 PUSH3 0x31B JUMP JUMPDEST SWAP3 SWAP2 POP POP JUMP JUMPDEST PUSH1 0x0 DUP1 PUSH1 0x0 PUSH1 0x60 DUP5 DUP7 SUB SLT ISZERO PUSH3 0x249 JUMPI PUSH3 0x248 PUSH3 0x2ED JUMP JUMPDEST JUMPDEST PUSH1 0x0 PUSH3 0x259 DUP7 DUP3 DUP8 ADD PUSH3 0x216 JUMP JUMPDEST SWAP4 POP POP PUSH1 0x20 PUSH3 0x26C DUP7 DUP3 DUP8 ADD PUSH3 0x216 JUMP JUMPDEST SWAP3 POP POP PUSH1 0x40 PUSH3 0x27F DUP7 DUP3 DUP8 ADD PUSH3 0x216 JUMP JUMPDEST SWAP2 POP POP SWAP3 POP SWAP3 POP SWAP3 JUMP JUMPDEST PUSH1 0x0 PUSH3 0x298 PUSH1 0x13 DUP4 PUSH3 0x2D2 JUMP JUMPDEST SWAP2 POP PUSH3 0x2A5 DUP3 PUSH3 0x2F2 JUMP JUMPDEST PUSH1 0x20 DUP3 ADD SWAP1 POP SWAP2 SWAP1 POP JUMP JUMPDEST PUSH1 0x0 PUSH1 0x20 DUP3 ADD SWAP1 POP DUP2 DUP2 SUB PUSH1 0x0 DUP4 ADD MSTORE PUSH3 0x2CB DUP2 PUSH3 0x289 JUMP JUMPDEST SWAP1 POP SWAP2 SWAP1 POP JUMP JUMPDEST PUSH1 0x0 DUP3 DUP3 MSTORE PUSH1 0x20 DUP3 ADD SWAP1 POP SWAP3 SWAP2 POP POP JUMP JUMPDEST PUSH1 0x0 DUP2 SWAP1 POP SWAP2 SWAP1 POP JUMP JUMPDEST PUSH1 0x0 DUP1 REVERT JUMPDEST PUSH32 0x43616C6C6572206973206E6F74206F776E657200000000000000000000000000 PUSH1 0x0 DUP3 ADD MSTORE POP JUMP JUMPDEST PUSH3 0x326 DUP2 PUSH3 0x2E3 JUMP JUMPDEST DUP2 EQ PUSH3 0x332 JUMPI PUSH1 0x0 DUP1 REVERT JUMPDEST POP JUMP JUMPDEST PUSH2 0xACF DUP1 PUSH3 0x345 PUSH1 0x0 CODECOPY PUSH1 0x0 RETURN INVALID PUSH1 0x80 PUSH1 0x40 MSTORE PUSH1 0x4 CALLDATASIZE LT PUSH2 0x86 JUMPI PUSH1 0x0 CALLDATALOAD PUSH1 0xE0 SHR DUP1 PUSH4 0xA6F9DAE1 GT PUSH2 0x59 JUMPI DUP1 PUSH4 0xA6F9DAE1 EQ PUSH2 0x13C JUMPI DUP1 PUSH4 0xB9D76DA9 EQ PUSH2 0x165 JUMPI DUP1 PUSH4 0xC828371E EQ PUSH2 0x1A2 JUMPI DUP1 PUSH4 0xF2C3E469 EQ PUSH2 0x1CD JUMPI DUP1 PUSH4 0xFADEAF76 EQ PUSH2 0x20A JUMPI PUSH2 0x86 JUMP JUMPDEST DUP1 PUSH4 0x1865C57D EQ PUSH2 0x8B JUMPI DUP1 PUSH4 0x805F1B80 EQ PUSH2 0xB6 JUMPI DUP1 PUSH4 0x893D20E8 EQ PUSH2 0xE6 JUMPI DUP1 PUSH4 0x8EA36D47 EQ PUSH2 0x111 JUMPI JUMPDEST PUSH1 0x0 DUP1 REVERT JUMPDEST CALLVALUE DUP1 ISZERO PUSH2 0x97 JUMPI PUSH1 0x0 DUP1 REVERT JUMPDEST POP PUSH2 0xA0 PUSH2 0x235 JUMP JUMPDEST PUSH1 0x40 MLOAD PUSH2 0xAD SWAP2 SWAP1 PUSH2 0x8CE JUMP JUMPDEST PUSH1 0x40 MLOAD DUP1 SWAP2 SUB SWAP1 RETURN JUMPDEST PUSH2 0xD0 PUSH1 0x4 DUP1 CALLDATASIZE SUB DUP2 ADD SWAP1 PUSH2 0xCB SWAP2 SWAP1 PUSH2 0x761 JUMP JUMPDEST PUSH2 0x29C JUMP JUMPDEST PUSH1 0x40 MLOAD PUSH2 0xDD SWAP2 SWAP1 PUSH2 0x909 JUMP JUMPDEST PUSH1 0x40 MLOAD DUP1 SWAP2 SUB SWAP1 RETURN JUMPDEST CALLVALUE DUP1 ISZERO PUSH2 0xF2 JUMPI PUSH1 0x0 DUP1 REVERT JUMPDEST POP PUSH2 0xFB PUSH2 0x3C8 JUMP JUMPDEST PUSH1 0x40 MLOAD PUSH2 0x108 SWAP2 SWAP1 PUSH2 0x8B3 JUMP JUMPDEST PUSH1 0x40 MLOAD DUP1 SWAP2 SUB SWAP1 RETURN JUMPDEST CALLVALUE DUP1 ISZERO PUSH2 0x11D JUMPI PUSH1 0x0 DUP1 REVERT JUMPDEST POP PUSH2 0x126 PUSH2 0x3F1 JUMP JUMPDEST PUSH1 0x40 MLOAD PUSH2 0x133 SWAP2 SWAP1 PUSH2 0x924 JUMP JUMPDEST PUSH1 0x40 MLOAD DUP1 SWAP2 SUB SWAP1 RETURN JUMPDEST CALLVALUE DUP1 ISZERO PUSH2 0x148 JUMPI PUSH1 0x0 DUP1 REVERT JUMPDEST POP PUSH2 0x163 PUSH1 0x4 DUP1 CALLDATASIZE SUB DUP2 ADD SWAP1 PUSH2 0x15E SWAP2 SWAP1 PUSH2 0x734 JUMP JUMPDEST PUSH2 0x3FB JUMP JUMPDEST STOP JUMPDEST CALLVALUE DUP1 ISZERO PUSH2 0x171 JUMPI PUSH1 0x0 DUP1 REVERT JUMPDEST POP PUSH2 0x18C PUSH1 0x4 DUP1 CALLDATASIZE SUB DUP2 ADD SWAP1 PUSH2 0x187 SWAP2 SWAP1 PUSH2 0x7A1 JUMP JUMPDEST PUSH2 0x546 JUMP JUMPDEST PUSH1 0x40 MLOAD PUSH2 0x199 SWAP2 SWAP1 PUSH2 0x924 JUMP JUMPDEST PUSH1 0x40 MLOAD DUP1 SWAP2 SUB SWAP1 RETURN JUMPDEST CALLVALUE DUP1 ISZERO PUSH2 0x1AE JUMPI PUSH1 0x0 DUP1 REVERT JUMPDEST POP PUSH2 0x1B7 PUSH2 0x5E8 JUMP JUMPDEST PUSH1 0x40 MLOAD PUSH2 0x1C4 SWAP2 SWAP1 PUSH2 0x924 JUMP JUMPDEST PUSH1 0x40 MLOAD DUP1 SWAP2 SUB SWAP1 RETURN JUMPDEST CALLVALUE DUP1 ISZERO PUSH2 0x1D9 JUMPI PUSH1 0x0 DUP1 REVERT JUMPDEST POP PUSH2 0x1F4 PUSH1 0x4 DUP1 CALLDATASIZE SUB DUP2 ADD SWAP1 PUSH2 0x1EF SWAP2 SWAP1 PUSH2 0x7A1 JUMP JUMPDEST PUSH2 0x5F2 JUMP JUMPDEST PUSH1 0x40 MLOAD PUSH2 0x201 SWAP2 SWAP1 PUSH2 0x924 JUMP JUMPDEST PUSH1 0x40 MLOAD DUP1 SWAP2 SUB SWAP1 RETURN JUMPDEST CALLVALUE DUP1 ISZERO PUSH2 0x216 JUMPI PUSH1 0x0 DUP1 REVERT JUMPDEST POP PUSH2 0x21F PUSH2 0x694 JUMP JUMPDEST PUSH1 0x40 MLOAD PUSH2 0x22C SWAP2 SWAP1 PUSH2 0x924 JUMP JUMPDEST PUSH1 0x40 MLOAD DUP1 SWAP2 SUB SWAP1 RETURN JUMPDEST PUSH1 0x0 DUP1 TIMESTAMP SWAP1 POP PUSH1 0x2 SLOAD DUP2 LT ISZERO PUSH2 0x24F JUMPI PUSH1 0x0 SWAP2 POP POP PUSH2 0x299 JUMP JUMPDEST PUSH1 0x2 SLOAD DUP2 LT ISZERO DUP1 ISZERO PUSH2 0x262 JUMPI POP DUP1 PUSH1 0x3 SLOAD LT JUMPDEST ISZERO PUSH2 0x271 JUMPI PUSH1 0x1 SWAP2 POP POP PUSH2 0x299 JUMP JUMPDEST PUSH1 0x3 SLOAD DUP2 LT ISZERO DUP1 ISZERO PUSH2 0x284 JUMPI POP PUSH1 0x4 SLOAD DUP2 LT JUMPDEST ISZERO PUSH2 0x293 JUMPI PUSH1 0x2 SWAP2 POP POP PUSH2 0x299 JUMP JUMPDEST PUSH1 0x3 SWAP2 POP POP JUMPDEST SWAP1 JUMP JUMPDEST PUSH2 0x2A4 PUSH2 0x69E JUMP JUMPDEST PUSH1 0x0 PUSH1 0x40 MLOAD DUP1 PUSH1 0xA0 ADD PUSH1 0x40 MSTORE DUP1 CALLER PUSH20 0xFFFFFFFFFFFFFFFFFFFFFFFFFFFFFFFFFFFFFFFF AND DUP2 MSTORE PUSH1 0x20 ADD PUSH1 0x5 SLOAD DUP2 MSTORE PUSH1 0x20 ADD PUSH1 0x6 SLOAD DUP2 MSTORE PUSH1 0x20 ADD DUP6 PUSH1 0x1 DUP2 GT ISZERO PUSH2 0x2F0 JUMPI PUSH2 0x2EF PUSH2 0x9D6 JUMP JUMPDEST JUMPDEST DUP2 MSTORE PUSH1 0x20 ADD DUP5 DUP2 MSTORE POP SWAP1 POP PUSH1 0x7 DUP2 SWAP1 DUP1 PUSH1 0x1 DUP2 SLOAD ADD DUP1 DUP3 SSTORE DUP1 SWAP2 POP POP PUSH1 0x1 SWAP1 SUB SWAP1 PUSH1 0x0 MSTORE PUSH1 0x20 PUSH1 0x0 KECCAK256 SWAP1 PUSH1 0x5 MUL ADD PUSH1 0x0 SWAP1 SWAP2 SWAP1 SWAP2 SWAP1 SWAP2 POP PUSH1 0x0 DUP3 ADD MLOAD DUP2 PUSH1 0x0 ADD PUSH1 0x0 PUSH2 0x100 EXP DUP2 SLOAD DUP2 PUSH20 0xFFFFFFFFFFFFFFFFFFFFFFFFFFFFFFFFFFFFFFFF MUL NOT AND SWAP1 DUP4 PUSH20 0xFFFFFFFFFFFFFFFFFFFFFFFFFFFFFFFFFFFFFFFF AND MUL OR SWAP1 SSTORE POP PUSH1 0x20 DUP3 ADD MLOAD DUP2 PUSH1 0x1 ADD SSTORE PUSH1 0x40 DUP3 ADD MLOAD DUP2 PUSH1 0x2 ADD SSTORE PUSH1 0x60 DUP3 ADD MLOAD DUP2 PUSH1 0x3 ADD PUSH1 0x0 PUSH2 0x100 EXP DUP2 SLOAD DUP2 PUSH1 0xFF MUL NOT AND SWAP1 DUP4 PUSH1 0x1 DUP2 GT ISZERO PUSH2 0x3AD JUMPI PUSH2 0x3AC PUSH2 0x9D6 JUMP JUMPDEST JUMPDEST MUL OR SWAP1 SSTORE POP PUSH1 0x80 DUP3 ADD MLOAD DUP2 PUSH1 0x4 ADD SSTORE POP POP DUP1 SWAP2 POP POP SWAP3 SWAP2 POP POP JUMP JUMPDEST PUSH1 0x0 DUP1 PUSH1 0x0 SWAP1 SLOAD SWAP1 PUSH2 0x100 EXP SWAP1 DIV PUSH20 0xFFFFFFFFFFFFFFFFFFFFFFFFFFFFFFFFFFFFFFFF AND SWAP1 POP SWAP1 JUMP JUMPDEST PUSH1 0x0 PUSH1 0x3 SLOAD SWAP1 POP SWAP1 JUMP JUMPDEST PUSH1 0x0 DUP1 SLOAD SWAP1 PUSH2 0x100 EXP SWAP1 DIV PUSH20 0xFFFFFFFFFFFFFFFFFFFFFFFFFFFFFFFFFFFFFFFF AND PUSH20 0xFFFFFFFFFFFFFFFFFFFFFFFFFFFFFFFFFFFFFFFF AND CALLER PUSH20 0xFFFFFFFFFFFFFFFFFFFFFFFFFFFFFFFFFFFFFFFF AND EQ PUSH2 0x489 JUMPI PUSH1 0x40 MLOAD PUSH32 0x8C379A000000000000000000000000000000000000000000000000000000000 DUP2 MSTORE PUSH1 0x4 ADD PUSH2 0x480 SWAP1 PUSH2 0x8E9 JUMP JUMPDEST PUSH1 0x40 MLOAD DUP1 SWAP2 SUB SWAP1 REVERT JUMPDEST DUP1 PUSH20 0xFFFFFFFFFFFFFFFFFFFFFFFFFFFFFFFFFFFFFFFF AND PUSH1 0x0 DUP1 SLOAD SWAP1 PUSH2 0x100 EXP SWAP1 DIV PUSH20 0xFFFFFFFFFFFFFFFFFFFFFFFFFFFFFFFFFFFFFFFF AND PUSH20 0xFFFFFFFFFFFFFFFFFFFFFFFFFFFFFFFFFFFFFFFF AND PUSH32 0x342827C97908E5E2F71151C08502A66D44B6F758E3AC2F1DE95F02EB95F0A735 PUSH1 0x40 MLOAD PUSH1 0x40 MLOAD DUP1 SWAP2 SUB SWAP1 LOG3 DUP1 PUSH1 0x0 DUP1 PUSH2 0x100 EXP DUP2 SLOAD DUP2 PUSH20 0xFFFFFFFFFFFFFFFFFFFFFFFFFFFFFFFFFFFFFFFF MUL NOT AND SWAP1 DUP4 PUSH20 0xFFFFFFFFFFFFFFFFFFFFFFFFFFFFFFFFFFFFFFFF AND MUL OR SWAP1 SSTORE POP POP JUMP JUMPDEST PUSH1 0x0 DUP1 PUSH1 0x0 SWAP1 SLOAD SWAP1 PUSH2 0x100 EXP SWAP1 DIV PUSH20 0xFFFFFFFFFFFFFFFFFFFFFFFFFFFFFFFFFFFFFFFF AND PUSH20 0xFFFFFFFFFFFFFFFFFFFFFFFFFFFFFFFFFFFFFFFF AND CALLER PUSH20 0xFFFFFFFFFFFFFFFFFFFFFFFFFFFFFFFFFFFFFFFF AND EQ PUSH2 0x5D7 JUMPI PUSH1 0x40 MLOAD PUSH32 0x8C379A000000000000000000000000000000000000000000000000000000000 DUP2 MSTORE PUSH1 0x4 ADD PUSH2 0x5CE SWAP1 PUSH2 0x8E9 JUMP JUMPDEST PUSH1 0x40 MLOAD DUP1 SWAP2 SUB SWAP1 REVERT JUMPDEST DUP2 PUSH1 0x5 DUP2 SWAP1 SSTORE POP PUSH1 0x5 SLOAD SWAP1 POP SWAP2 SWAP1 POP JUMP JUMPDEST PUSH1 0x0 PUSH1 0x2 SLOAD SWAP1 POP SWAP1 JUMP JUMPDEST PUSH1 0x0 DUP1 PUSH1 0x0 SWAP1 SLOAD SWAP1 PUSH2 0x100 EXP SWAP1 DIV PUSH20 0xFFFFFFFFFFFFFFFFFFFFFFFFFFFFFFFFFFFFFFFF AND PUSH20 0xFFFFFFFFFFFFFFFFFFFFFFFFFFFFFFFFFFFFFFFF AND CALLER PUSH20 0xFFFFFFFFFFFFFFFFFFFFFFFFFFFFFFFFFFFFFFFF AND EQ PUSH2 0x683 JUMPI PUSH1 0x40 MLOAD PUSH32 0x8C379A000000000000000000000000000000000000000000000000000000000 DUP2 MSTORE PUSH1 0x4 ADD PUSH2 0x67A SWAP1 PUSH2 0x8E9 JUMP JUMPDEST PUSH1 0x40 MLOAD DUP1 SWAP2 SUB SWAP1 REVERT JUMPDEST DUP2 PUSH1 0x6 DUP2 SWAP1 SSTORE POP PUSH1 0x6 SLOAD SWAP1 POP SWAP2 SWAP1 POP JUMP JUMPDEST PUSH1 0x0 PUSH1 0x4 SLOAD SWAP1 POP SWAP1 JUMP JUMPDEST PUSH1 0x40 MLOAD DUP1 PUSH1 0xA0 ADD PUSH1 0x40 MSTORE DUP1 PUSH1 0x0 PUSH20 0xFFFFFFFFFFFFFFFFFFFFFFFFFFFFFFFFFFFFFFFF AND DUP2 MSTORE PUSH1 0x20 ADD PUSH1 0x0 DUP2 MSTORE PUSH1 0x20 ADD PUSH1 0x0 DUP2 MSTORE PUSH1 0x20 ADD PUSH1 0x0 PUSH1 0x1 DUP2 GT ISZERO PUSH2 0x6E8 JUMPI PUSH2 0x6E7 PUSH2 0x9D6 JUMP JUMPDEST JUMPDEST DUP2 MSTORE PUSH1 0x20 ADD PUSH1 0x0 DUP2 MSTORE POP SWAP1 JUMP JUMPDEST PUSH1 0x0 DUP2 CALLDATALOAD SWAP1 POP PUSH2 0x704 DUP2 PUSH2 0xA5B JUMP JUMPDEST SWAP3 SWAP2 POP POP JUMP JUMPDEST PUSH1 0x0 DUP2 CALLDATALOAD SWAP1 POP PUSH2 0x719 DUP2 PUSH2 0xA72 JUMP JUMPDEST SWAP3 SWAP2 POP POP JUMP JUMPDEST PUSH1 0x0 DUP2 CALLDATALOAD SWAP1 POP PUSH2 0x72E DUP2 PUSH2 0xA82 JUMP JUMPDEST SWAP3 SWAP2 POP POP JUMP JUMPDEST PUSH1 0x0 PUSH1 0x20 DUP3 DUP5 SUB SLT ISZERO PUSH2 0x74A JUMPI PUSH2 0x749 PUSH2 0xA05 JUMP JUMPDEST JUMPDEST PUSH1 0x0 PUSH2 0x758 DUP5 DUP3 DUP6 ADD PUSH2 0x6F5 JUMP JUMPDEST SWAP2 POP POP SWAP3 SWAP2 POP POP JUMP JUMPDEST PUSH1 0x0 DUP1 PUSH1 0x40 DUP4 DUP6 SUB SLT ISZERO PUSH2 0x778 JUMPI PUSH2 0x777 PUSH2 0xA05 JUMP JUMPDEST JUMPDEST PUSH1 0x0 PUSH2 0x786 DUP6 DUP3 DUP7 ADD PUSH2 0x70A JUMP JUMPDEST SWAP3 POP POP PUSH1 0x20 PUSH2 0x797 DUP6 DUP3 DUP7 ADD PUSH2 0x71F JUMP JUMPDEST SWAP2 POP POP SWAP3 POP SWAP3 SWAP1 POP JUMP JUMPDEST PUSH1 0x0 PUSH1 0x20 DUP3 DUP5 SUB SLT ISZERO PUSH2 0x7B7 JUMPI PUSH2 0x7B6 PUSH2 0xA05 JUMP JUMPDEST JUMPDEST PUSH1 0x0 PUSH2 0x7C5 DUP5 DUP3 DUP6 ADD PUSH2 0x71F JUMP JUMPDEST SWAP2 POP POP SWAP3 SWAP2 POP POP JUMP JUMPDEST PUSH2 0x7D7 DUP2 PUSH2 0x950 JUMP JUMPDEST DUP3 MSTORE POP POP JUMP JUMPDEST PUSH2 0x7E6 DUP2 PUSH2 0x950 JUMP JUMPDEST DUP3 MSTORE POP POP JUMP JUMPDEST PUSH2 0x7F5 DUP2 PUSH2 0x9B2 JUMP JUMPDEST DUP3 MSTORE POP POP JUMP JUMPDEST PUSH2 0x804 DUP2 PUSH2 0x9C4 JUMP JUMPDEST DUP3 MSTORE POP POP JUMP JUMPDEST PUSH1 0x0 PUSH2 0x817 PUSH1 0x13 DUP4 PUSH2 0x93F JUMP JUMPDEST SWAP2 POP PUSH2 0x822 DUP3 PUSH2 0xA0A JUMP JUMPDEST PUSH1 0x20 DUP3 ADD SWAP1 POP SWAP2 SWAP1 POP JUMP JUMPDEST PUSH1 0xA0 DUP3 ADD PUSH1 0x0 DUP3 ADD MLOAD PUSH2 0x843 PUSH1 0x0 DUP6 ADD DUP3 PUSH2 0x7CE JUMP JUMPDEST POP PUSH1 0x20 DUP3 ADD MLOAD PUSH2 0x856 PUSH1 0x20 DUP6 ADD DUP3 PUSH2 0x895 JUMP JUMPDEST POP PUSH1 0x40 DUP3 ADD MLOAD PUSH2 0x869 PUSH1 0x40 DUP6 ADD DUP3 PUSH2 0x895 JUMP JUMPDEST POP PUSH1 0x60 DUP3 ADD MLOAD PUSH2 0x87C PUSH1 0x60 DUP6 ADD DUP3 PUSH2 0x7EC JUMP JUMPDEST POP PUSH1 0x80 DUP3 ADD MLOAD PUSH2 0x88F PUSH1 0x80 DUP6 ADD DUP3 PUSH2 0x895 JUMP JUMPDEST POP POP POP POP JUMP JUMPDEST PUSH2 0x89E DUP2 PUSH2 0x9A8 JUMP JUMPDEST DUP3 MSTORE POP POP JUMP JUMPDEST PUSH2 0x8AD DUP2 PUSH2 0x9A8 JUMP JUMPDEST DUP3 MSTORE POP POP JUMP JUMPDEST PUSH1 0x0 PUSH1 0x20 DUP3 ADD SWAP1 POP PUSH2 0x8C8 PUSH1 0x0 DUP4 ADD DUP5 PUSH2 0x7DD JUMP JUMPDEST SWAP3 SWAP2 POP POP JUMP JUMPDEST PUSH1 0x0 PUSH1 0x20 DUP3 ADD SWAP1 POP PUSH2 0x8E3 PUSH1 0x0 DUP4 ADD DUP5 PUSH2 0x7FB JUMP JUMPDEST SWAP3 SWAP2 POP POP JUMP JUMPDEST PUSH1 0x0 PUSH1 0x20 DUP3 ADD SWAP1 POP DUP2 DUP2 SUB PUSH1 0x0 DUP4 ADD MSTORE PUSH2 0x902 DUP2 PUSH2 0x80A JUMP JUMPDEST SWAP1 POP SWAP2 SWAP1 POP JUMP JUMPDEST PUSH1 0x0 PUSH1 0xA0 DUP3 ADD SWAP1 POP PUSH2 0x91E PUSH1 0x0 DUP4 ADD DUP5 PUSH2 0x82D JUMP JUMPDEST SWAP3 SWAP2 POP POP JUMP JUMPDEST PUSH1 0x0 PUSH1 0x20 DUP3 ADD SWAP1 POP PUSH2 0x939 PUSH1 0x0 DUP4 ADD DUP5 PUSH2 0x8A4 JUMP JUMPDEST SWAP3 SWAP2 POP POP JUMP JUMPDEST PUSH1 0x0 DUP3 DUP3 MSTORE PUSH1 0x20 DUP3 ADD SWAP1 POP SWAP3 SWAP2 POP POP JUMP JUMPDEST PUSH1 0x0 PUSH2 0x95B DUP3 PUSH2 0x988 JUMP JUMPDEST SWAP1 POP SWAP2 SWAP1 POP JUMP JUMPDEST PUSH1 0x0 DUP2 SWAP1 POP PUSH2 0x970 DUP3 PUSH2 0xA33 JUMP JUMPDEST SWAP2 SWAP1 POP JUMP JUMPDEST PUSH1 0x0 DUP2 SWAP1 POP PUSH2 0x983 DUP3 PUSH2 0xA47 JUMP JUMPDEST SWAP2 SWAP1 POP JUMP JUMPDEST PUSH1 0x0 PUSH20 0xFFFFFFFFFFFFFFFFFFFFFFFFFFFFFFFFFFFFFFFF DUP3 AND SWAP1 POP SWAP2 SWAP1 POP JUMP JUMPDEST PUSH1 0x0 DUP2 SWAP1 POP SWAP2 SWAP1 POP JUMP JUMPDEST PUSH1 0x0 PUSH2 0x9BD DUP3 PUSH2 0x962 JUMP JUMPDEST SWAP1 POP SWAP2 SWAP1 POP JUMP JUMPDEST PUSH1 0x0 PUSH2 0x9CF DUP3 PUSH2 0x975 JUMP JUMPDEST SWAP1 POP SWAP2 SWAP1 POP JUMP JUMPDEST PUSH32 0x4E487B7100000000000000000000000000000000000000000000000000000000 PUSH1 0x0 MSTORE PUSH1 0x21 PUSH1 0x4 MSTORE PUSH1 0x24 PUSH1 0x0 REVERT JUMPDEST PUSH1 0x0 DUP1 REVERT JUMPDEST PUSH32 0x43616C6C6572206973206E6F74206F776E657200000000000000000000000000 PUSH1 0x0 DUP3 ADD MSTORE POP JUMP JUMPDEST PUSH1 0x2 DUP2 LT PUSH2 0xA44 JUMPI PUSH2 0xA43 PUSH2 0x9D6 JUMP JUMPDEST JUMPDEST POP JUMP JUMPDEST PUSH1 0x4 DUP2 LT PUSH2 0xA58 JUMPI PUSH2 0xA57 PUSH2 0x9D6 JUMP JUMPDEST JUMPDEST POP JUMP JUMPDEST PUSH2 0xA64 DUP2 PUSH2 0x950 JUMP JUMPDEST DUP2 EQ PUSH2 0xA6F JUMPI PUSH1 0x0 DUP1 REVERT JUMPDEST POP JUMP JUMPDEST PUSH1 0x2 DUP2 LT PUSH2 0xA7F JUMPI PUSH1 0x0 DUP1 REVERT JUMPDEST POP JUMP JUMPDEST PUSH2 0xA8B DUP2 PUSH2 0x9A8 JUMP JUMPDEST DUP2 EQ PUSH2 0xA96 JUMPI PUSH1 0x0 DUP1 REVERT JUMPDEST POP JUMP INVALID LOG2 PUSH5 0x6970667358 0x22 SLT KECCAK256 0x23 0x5F 0xB7 0xEE ISZERO BYTE 0xC9 SWAP4 BALANCE JUMPI RETURNDATACOPY DIFFICULTY DIV MLOAD COINBASE 0xD 0xDB GAS 0xF 0xA6 0xE3 DUP7 0xB5 0xBA 0xCB LOG2 0x2A PUSH10 0xDAB7C63164736F6C6343 STOP ADDMOD SMOD STOP CALLER "
				},
				"gasEstimates": {
					"creation": {
						"codeDepositCost": "553400",
						"executionCost": "infinite",
						"totalCost": "infinite"
					},
					"external": {
						"changeOwner(address)": "30567",
						"getBetsEndTime()": "2504",
						"getCloseTime()": "2525",
						"getOwner()": "2567",
						"getStartTime()": "2481",
						"getState()": "11102",
						"takeABet(uint8,uint256)": "infinite",
						"updateOddsA(uint256)": "infinite",
						"updateOddsB(uint256)": "infinite"
					}
				},
				"methodIdentifiers": {
					"changeOwner(address)": "a6f9dae1",
					"getBetsEndTime()": "8ea36d47",
					"getCloseTime()": "fadeaf76",
					"getOwner()": "893d20e8",
					"getStartTime()": "c828371e",
					"getState()": "1865c57d",
					"takeABet(uint8,uint256)": "805f1b80",
					"updateOddsA(uint256)": "b9d76da9",
					"updateOddsB(uint256)": "f2c3e469"
				}
			},
			"userdoc": {
				"kind": "user",
				"methods": {},
				"version": 1
			}
		}
	}
}