{
	"contracts/TheGame.sol": {
		"TheGame": {
			"abi": [
				{
					"inputs": [
						{
							"internalType": "uint256",
							"name": "_startTime",
							"type": "uint256"
						},
						{
							"internalType": "uint256",
							"name": "_betsEndTime",
							"type": "uint256"
						},
						{
							"internalType": "uint256",
							"name": "_closeTime",
							"type": "uint256"
						}
					],
					"stateMutability": "nonpayable",
					"type": "constructor"
				},
				{
					"anonymous": false,
					"inputs": [
						{
							"indexed": true,
							"internalType": "address",
							"name": "oldOwner",
							"type": "address"
						},
						{
							"indexed": true,
							"internalType": "address",
							"name": "newOwner",
							"type": "address"
						}
					],
					"name": "OwnerSet",
					"type": "event"
				},
				{
					"inputs": [
						{
							"internalType": "address",
							"name": "newOwner",
							"type": "address"
						}
					],
					"name": "changeOwner",
					"outputs": [],
					"stateMutability": "nonpayable",
					"type": "function"
				},
				{
					"inputs": [],
					"name": "getBetsEndTime",
					"outputs": [
						{
							"internalType": "uint256",
							"name": "",
							"type": "uint256"
						}
					],
					"stateMutability": "view",
					"type": "function"
				},
				{
					"inputs": [],
					"name": "getCloseTime",
					"outputs": [
						{
							"internalType": "uint256",
							"name": "",
							"type": "uint256"
						}
					],
					"stateMutability": "view",
					"type": "function"
				},
				{
					"inputs": [],
					"name": "getOwner",
					"outputs": [
						{
							"internalType": "address",
							"name": "",
							"type": "address"
						}
					],
					"stateMutability": "view",
					"type": "function"
				},
				{
					"inputs": [],
					"name": "getStartTime",
					"outputs": [
						{
							"internalType": "uint256",
							"name": "",
							"type": "uint256"
						}
					],
					"stateMutability": "view",
					"type": "function"
				},
				{
					"inputs": [],
					"name": "getState",
					"outputs": [
						{
							"internalType": "enum GameState",
							"name": "",
							"type": "uint8"
						}
					],
					"stateMutability": "view",
					"type": "function"
				},
				{
					"inputs": [
						{
							"internalType": "enum BetTakenFor",
							"name": "option",
							"type": "uint8"
						}
					],
					"name": "takeABet",
					"outputs": [
						{
							"components": [
								{
									"internalType": "address",
									"name": "player",
									"type": "address"
								},
								{
									"internalType": "uint256",
									"name": "oddsA",
									"type": "uint256"
								},
								{
									"internalType": "uint256",
									"name": "oddsB",
									"type": "uint256"
								},
								{
									"internalType": "enum BetTakenFor",
									"name": "betTakenFor",
									"type": "uint8"
								},
								{
									"internalType": "uint256",
									"name": "amount",
									"type": "uint256"
								}
							],
							"internalType": "struct Bet",
							"name": "",
							"type": "tuple"
						}
					],
					"stateMutability": "payable",
					"type": "function"
				},
				{
					"inputs": [
						{
							"internalType": "uint256",
							"name": "odds",
							"type": "uint256"
						}
					],
					"name": "updateOddsA",
					"outputs": [
						{
							"internalType": "uint256",
							"name": "",
							"type": "uint256"
						}
					],
					"stateMutability": "nonpayable",
					"type": "function"
				},
				{
					"inputs": [
						{
							"internalType": "uint256",
							"name": "odds",
							"type": "uint256"
						}
					],
					"name": "updateOddsB",
					"outputs": [
						{
							"internalType": "uint256",
							"name": "",
							"type": "uint256"
						}
					],
					"stateMutability": "nonpayable",
					"type": "function"
				}
			],
			"devdoc": {
				"kind": "dev",
				"methods": {
					"changeOwner(address)": {
						"details": "Change owner",
						"params": {
							"newOwner": "address of new owner"
						}
					},
					"getOwner()": {
						"details": "Return owner address ",
						"returns": {
							"_0": "address of owner"
						}
					}
				},
				"version": 1
			},
			"evm": {
				"assembly": "    /* \"contracts/TheGame.sol\":326:2407  contract TheGame is Owner{... */\n  mstore(0x40, 0x80)\n    /* \"contracts/TheGame.sol\":641:1021  constructor(uint256 _startTime, uint256 _betsEndTime, uint256 _closeTime) Owner() {... */\n  callvalue\n  dup1\n  iszero\n  tag_1\n  jumpi\n  0x00\n  dup1\n  revert\ntag_1:\n  pop\n  mload(0x40)\n  sub(codesize, bytecodeSize)\n  dup1\n  bytecodeSize\n  dup4\n  codecopy\n  dup2\n  dup2\n  add\n  0x40\n  mstore\n  dup2\n  add\n  swap1\n  tag_2\n  swap2\n  swap1\n  tag_3\n  jump\t// in\ntag_2:\n    /* \"contracts/Owner.sol\":910:920  msg.sender */\n  caller\n    /* \"contracts/Owner.sol\":889:921  OwnerSet(address(0), msg.sender) */\n  0xffffffffffffffffffffffffffffffffffffffff\n  and\n    /* \"contracts/Owner.sol\":906:907  0 */\n  0x00\n    /* \"contracts/Owner.sol\":889:921  OwnerSet(address(0), msg.sender) */\n  0xffffffffffffffffffffffffffffffffffffffff\n  and\n  0x342827c97908e5e2f71151c08502a66d44b6f758e3ac2f1de95f02eb95f0a735\n  mload(0x40)\n  mload(0x40)\n  dup1\n  swap2\n  sub\n  swap1\n  log3\n    /* \"contracts/Owner.sol\":939:949  msg.sender */\n  caller\n    /* \"contracts/Owner.sol\":931:936  owner */\n  0x00\n  dup1\n    /* \"contracts/Owner.sol\":931:949  owner = msg.sender */\n  0x0100\n  exp\n  dup2\n  sload\n  dup2\n  0xffffffffffffffffffffffffffffffffffffffff\n  mul\n  not\n  and\n  swap1\n  dup4\n  0xffffffffffffffffffffffffffffffffffffffff\n  and\n  mul\n  or\n  swap1\n  sstore\n  pop\n    /* \"contracts/TheGame.sol\":748:763  block.timestamp */\n  timestamp\n    /* \"contracts/TheGame.sol\":733:745  creationTime */\n  0x01\n    /* \"contracts/TheGame.sol\":733:763  creationTime = block.timestamp */\n  dup2\n  swap1\n  sstore\n  pop\n    /* \"contracts/TheGame.sol\":936:946  _startTime */\n  dup3\n    /* \"contracts/TheGame.sol\":924:933  startTime */\n  0x02\n    /* \"contracts/TheGame.sol\":924:946  startTime = _startTime */\n  dup2\n  swap1\n  sstore\n  pop\n    /* \"contracts/TheGame.sol\":970:982  _betsEndTime */\n  dup2\n    /* \"contracts/TheGame.sol\":956:967  betsEndTime */\n  0x03\n    /* \"contracts/TheGame.sol\":956:982  betsEndTime = _betsEndTime */\n  dup2\n  swap1\n  sstore\n  pop\n    /* \"contracts/TheGame.sol\":1004:1014  _closeTime */\n  dup1\n    /* \"contracts/TheGame.sol\":992:1001  closeTime */\n  0x04\n    /* \"contracts/TheGame.sol\":992:1014  closeTime = _closeTime */\n  dup2\n  swap1\n  sstore\n  pop\n    /* \"contracts/TheGame.sol\":641:1021  constructor(uint256 _startTime, uint256 _betsEndTime, uint256 _closeTime) Owner() {... */\n  pop\n  pop\n  pop\n    /* \"contracts/TheGame.sol\":326:2407  contract TheGame is Owner{... */\n  jump(tag_8)\n    /* \"#utility.yul\":7:150   */\ntag_10:\n    /* \"#utility.yul\":64:69   */\n  0x00\n    /* \"#utility.yul\":95:101   */\n  dup2\n    /* \"#utility.yul\":89:102   */\n  mload\n    /* \"#utility.yul\":80:102   */\n  swap1\n  pop\n    /* \"#utility.yul\":111:144   */\n  tag_12\n    /* \"#utility.yul\":138:143   */\n  dup2\n    /* \"#utility.yul\":111:144   */\n  tag_13\n  jump\t// in\ntag_12:\n    /* \"#utility.yul\":7:150   */\n  swap3\n  swap2\n  pop\n  pop\n  jump\t// out\n    /* \"#utility.yul\":156:819   */\ntag_3:\n    /* \"#utility.yul\":244:250   */\n  0x00\n    /* \"#utility.yul\":252:258   */\n  dup1\n    /* \"#utility.yul\":260:266   */\n  0x00\n    /* \"#utility.yul\":309:311   */\n  0x60\n    /* \"#utility.yul\":297:306   */\n  dup5\n    /* \"#utility.yul\":288:295   */\n  dup7\n    /* \"#utility.yul\":284:307   */\n  sub\n    /* \"#utility.yul\":280:312   */\n  slt\n    /* \"#utility.yul\":277:396   */\n  iszero\n  tag_15\n  jumpi\n    /* \"#utility.yul\":315:394   */\n  tag_16\n  tag_17\n  jump\t// in\ntag_16:\n    /* \"#utility.yul\":277:396   */\ntag_15:\n    /* \"#utility.yul\":435:436   */\n  0x00\n    /* \"#utility.yul\":460:524   */\n  tag_18\n    /* \"#utility.yul\":516:523   */\n  dup7\n    /* \"#utility.yul\":507:513   */\n  dup3\n    /* \"#utility.yul\":496:505   */\n  dup8\n    /* \"#utility.yul\":492:514   */\n  add\n    /* \"#utility.yul\":460:524   */\n  tag_10\n  jump\t// in\ntag_18:\n    /* \"#utility.yul\":450:524   */\n  swap4\n  pop\n    /* \"#utility.yul\":406:534   */\n  pop\n    /* \"#utility.yul\":573:575   */\n  0x20\n    /* \"#utility.yul\":599:663   */\n  tag_19\n    /* \"#utility.yul\":655:662   */\n  dup7\n    /* \"#utility.yul\":646:652   */\n  dup3\n    /* \"#utility.yul\":635:644   */\n  dup8\n    /* \"#utility.yul\":631:653   */\n  add\n    /* \"#utility.yul\":599:663   */\n  tag_10\n  jump\t// in\ntag_19:\n    /* \"#utility.yul\":589:663   */\n  swap3\n  pop\n    /* \"#utility.yul\":544:673   */\n  pop\n    /* \"#utility.yul\":712:714   */\n  0x40\n    /* \"#utility.yul\":738:802   */\n  tag_20\n    /* \"#utility.yul\":794:801   */\n  dup7\n    /* \"#utility.yul\":785:791   */\n  dup3\n    /* \"#utility.yul\":774:783   */\n  dup8\n    /* \"#utility.yul\":770:792   */\n  add\n    /* \"#utility.yul\":738:802   */\n  tag_10\n  jump\t// in\ntag_20:\n    /* \"#utility.yul\":728:802   */\n  swap2\n  pop\n    /* \"#utility.yul\":683:812   */\n  pop\n    /* \"#utility.yul\":156:819   */\n  swap3\n  pop\n  swap3\n  pop\n  swap3\n  jump\t// out\n    /* \"#utility.yul\":906:983   */\ntag_23:\n    /* \"#utility.yul\":943:950   */\n  0x00\n    /* \"#utility.yul\":972:977   */\n  dup2\n    /* \"#utility.yul\":961:977   */\n  swap1\n  pop\n    /* \"#utility.yul\":906:983   */\n  swap2\n  swap1\n  pop\n  jump\t// out\n    /* \"#utility.yul\":1112:1229   */\ntag_17:\n    /* \"#utility.yul\":1221:1222   */\n  0x00\n    /* \"#utility.yul\":1218:1219   */\n  dup1\n    /* \"#utility.yul\":1211:1223   */\n  revert\n    /* \"#utility.yul\":1235:1357   */\ntag_13:\n    /* \"#utility.yul\":1308:1332   */\n  tag_29\n    /* \"#utility.yul\":1326:1331   */\n  dup2\n    /* \"#utility.yul\":1308:1332   */\n  tag_23\n  jump\t// in\ntag_29:\n    /* \"#utility.yul\":1301:1306   */\n  dup2\n    /* \"#utility.yul\":1298:1333   */\n  eq\n    /* \"#utility.yul\":1288:1351   */\n  tag_30\n  jumpi\n    /* \"#utility.yul\":1347:1348   */\n  0x00\n    /* \"#utility.yul\":1344:1345   */\n  dup1\n    /* \"#utility.yul\":1337:1349   */\n  revert\n    /* \"#utility.yul\":1288:1351   */\ntag_30:\n    /* \"#utility.yul\":1235:1357   */\n  pop\n  jump\t// out\n    /* \"contracts/TheGame.sol\":326:2407  contract TheGame is Owner{... */\ntag_8:\n  dataSize(sub_0)\n  dup1\n  dataOffset(sub_0)\n  0x00\n  codecopy\n  0x00\n  return\nstop\n\nsub_0: assembly {\n        /* \"contracts/TheGame.sol\":326:2407  contract TheGame is Owner{... */\n      mstore(0x40, 0x80)\n      jumpi(tag_1, lt(calldatasize, 0x04))\n      shr(0xe0, calldataload(0x00))\n      dup1\n      0xa6f9dae1\n      gt\n      tag_11\n      jumpi\n      dup1\n      0xa6f9dae1\n      eq\n      tag_6\n      jumpi\n      dup1\n      0xb9d76da9\n      eq\n      tag_7\n      jumpi\n      dup1\n      0xc828371e\n      eq\n      tag_8\n      jumpi\n      dup1\n      0xf2c3e469\n      eq\n      tag_9\n      jumpi\n      dup1\n      0xfadeaf76\n      eq\n      tag_10\n      jumpi\n      jump(tag_1)\n    tag_11:\n      dup1\n      0x1865c57d\n      eq\n      tag_2\n      jumpi\n      dup1\n      0x35644c7b\n      eq\n      tag_3\n      jumpi\n      dup1\n      0x893d20e8\n      eq\n      tag_4\n      jumpi\n      dup1\n      0x8ea36d47\n      eq\n      tag_5\n      jumpi\n    tag_1:\n      0x00\n      dup1\n      revert\n        /* \"contracts/TheGame.sol\":1310:1710  function getState() public view returns(GameState) {... */\n    tag_2:\n      callvalue\n      dup1\n      iszero\n      tag_12\n      jumpi\n      0x00\n      dup1\n      revert\n    tag_12:\n      pop\n      tag_13\n      tag_14\n      jump\t// in\n    tag_13:\n      mload(0x40)\n      tag_15\n      swap2\n      swap1\n      tag_16\n      jump\t// in\n    tag_15:\n      mload(0x40)\n      dup1\n      swap2\n      sub\n      swap1\n      return\n        /* \"contracts/TheGame.sol\":2144:2405  function takeABet(BetTakenFor option) public payable returns(Bet memory){... */\n    tag_3:\n      tag_17\n      0x04\n      dup1\n      calldatasize\n      sub\n      dup2\n      add\n      swap1\n      tag_18\n      swap2\n      swap1\n      tag_19\n      jump\t// in\n    tag_18:\n      tag_20\n      jump\t// in\n    tag_17:\n      mload(0x40)\n      tag_21\n      swap2\n      swap1\n      tag_22\n      jump\t// in\n    tag_21:\n      mload(0x40)\n      dup1\n      swap2\n      sub\n      swap1\n      return\n        /* \"contracts/Owner.sol\":1262:1343  function getOwner() external view returns (address) {... */\n    tag_4:\n      callvalue\n      dup1\n      iszero\n      tag_23\n      jumpi\n      0x00\n      dup1\n      revert\n    tag_23:\n      pop\n      tag_24\n      tag_25\n      jump\t// in\n    tag_24:\n      mload(0x40)\n      tag_26\n      swap2\n      swap1\n      tag_27\n      jump\t// in\n    tag_26:\n      mload(0x40)\n      dup1\n      swap2\n      sub\n      swap1\n      return\n        /* \"contracts/TheGame.sol\":1120:1211  function getBetsEndTime() public view returns(uint256) {... */\n    tag_5:\n      callvalue\n      dup1\n      iszero\n      tag_28\n      jumpi\n      0x00\n      dup1\n      revert\n    tag_28:\n      pop\n      tag_29\n      tag_30\n      jump\t// in\n    tag_29:\n      mload(0x40)\n      tag_31\n      swap2\n      swap1\n      tag_32\n      jump\t// in\n    tag_31:\n      mload(0x40)\n      dup1\n      swap2\n      sub\n      swap1\n      return\n        /* \"contracts/Owner.sol\":1047:1174  function changeOwner(address newOwner) public isOwner {... */\n    tag_6:\n      callvalue\n      dup1\n      iszero\n      tag_33\n      jumpi\n      0x00\n      dup1\n      revert\n    tag_33:\n      pop\n      tag_34\n      0x04\n      dup1\n      calldatasize\n      sub\n      dup2\n      add\n      swap1\n      tag_35\n      swap2\n      swap1\n      tag_36\n      jump\t// in\n    tag_35:\n      tag_37\n      jump\t// in\n    tag_34:\n      stop\n        /* \"contracts/TheGame.sol\":1790:1922  function updateOddsA(uint256 odds) public isOwner returns(uint256) {... */\n    tag_7:\n      callvalue\n      dup1\n      iszero\n      tag_38\n      jumpi\n      0x00\n      dup1\n      revert\n    tag_38:\n      pop\n      tag_39\n      0x04\n      dup1\n      calldatasize\n      sub\n      dup2\n      add\n      swap1\n      tag_40\n      swap2\n      swap1\n      tag_41\n      jump\t// in\n    tag_40:\n      tag_42\n      jump\t// in\n    tag_39:\n      mload(0x40)\n      tag_43\n      swap2\n      swap1\n      tag_32\n      jump\t// in\n    tag_43:\n      mload(0x40)\n      dup1\n      swap2\n      sub\n      swap1\n      return\n        /* \"contracts/TheGame.sol\":1027:1114  function getStartTime() public view returns(uint256) {... */\n    tag_8:\n      callvalue\n      dup1\n      iszero\n      tag_44\n      jumpi\n      0x00\n      dup1\n      revert\n    tag_44:\n      pop\n      tag_45\n      tag_46\n      jump\t// in\n    tag_45:\n      mload(0x40)\n      tag_47\n      swap2\n      swap1\n      tag_32\n      jump\t// in\n    tag_47:\n      mload(0x40)\n      dup1\n      swap2\n      sub\n      swap1\n      return\n        /* \"contracts/TheGame.sol\":1932:2064  function updateOddsB(uint256 odds) public isOwner returns(uint256) {... */\n    tag_9:\n      callvalue\n      dup1\n      iszero\n      tag_48\n      jumpi\n      0x00\n      dup1\n      revert\n    tag_48:\n      pop\n      tag_49\n      0x04\n      dup1\n      calldatasize\n      sub\n      dup2\n      add\n      swap1\n      tag_50\n      swap2\n      swap1\n      tag_41\n      jump\t// in\n    tag_50:\n      tag_51\n      jump\t// in\n    tag_49:\n      mload(0x40)\n      tag_52\n      swap2\n      swap1\n      tag_32\n      jump\t// in\n    tag_52:\n      mload(0x40)\n      dup1\n      swap2\n      sub\n      swap1\n      return\n        /* \"contracts/TheGame.sol\":1217:1304  function getCloseTime() public view returns(uint256) {... */\n    tag_10:\n      callvalue\n      dup1\n      iszero\n      tag_53\n      jumpi\n      0x00\n      dup1\n      revert\n    tag_53:\n      pop\n      tag_54\n      tag_55\n      jump\t// in\n    tag_54:\n      mload(0x40)\n      tag_56\n      swap2\n      swap1\n      tag_32\n      jump\t// in\n    tag_56:\n      mload(0x40)\n      dup1\n      swap2\n      sub\n      swap1\n      return\n        /* \"contracts/TheGame.sol\":1310:1710  function getState() public view returns(GameState) {... */\n    tag_14:\n        /* \"contracts/TheGame.sol\":1350:1359  GameState */\n      0x00\n        /* \"contracts/TheGame.sol\":1371:1381  uint256 ts */\n      dup1\n        /* \"contracts/TheGame.sol\":1384:1399  block.timestamp */\n      timestamp\n        /* \"contracts/TheGame.sol\":1371:1399  uint256 ts = block.timestamp */\n      swap1\n      pop\n        /* \"contracts/TheGame.sol\":1418:1427  startTime */\n      sload(0x02)\n        /* \"contracts/TheGame.sol\":1413:1415  ts */\n      dup2\n        /* \"contracts/TheGame.sol\":1413:1427  ts < startTime */\n      lt\n        /* \"contracts/TheGame.sol\":1409:1703  if (ts < startTime)... */\n      iszero\n      tag_58\n      jumpi\n        /* \"contracts/TheGame.sol\":1448:1465  GameState.CREATED */\n      0x00\n        /* \"contracts/TheGame.sol\":1441:1465  return GameState.CREATED */\n      swap2\n      pop\n      pop\n      jump(tag_57)\n        /* \"contracts/TheGame.sol\":1409:1703  if (ts < startTime)... */\n    tag_58:\n        /* \"contracts/TheGame.sol\":1490:1499  startTime */\n      sload(0x02)\n        /* \"contracts/TheGame.sol\":1484:1486  ts */\n      dup2\n        /* \"contracts/TheGame.sol\":1484:1499  ts >= startTime */\n      lt\n      iszero\n        /* \"contracts/TheGame.sol\":1484:1519  ts >= startTime && betsEndTime < ts */\n      dup1\n      iszero\n      tag_60\n      jumpi\n      pop\n        /* \"contracts/TheGame.sol\":1517:1519  ts */\n      dup1\n        /* \"contracts/TheGame.sol\":1503:1514  betsEndTime */\n      sload(0x03)\n        /* \"contracts/TheGame.sol\":1503:1519  betsEndTime < ts */\n      lt\n        /* \"contracts/TheGame.sol\":1484:1519  ts >= startTime && betsEndTime < ts */\n    tag_60:\n        /* \"contracts/TheGame.sol\":1480:1703  if (ts >= startTime && betsEndTime < ts)... */\n      iszero\n      tag_61\n      jumpi\n        /* \"contracts/TheGame.sol\":1540:1554  GameState.OPEN */\n      0x01\n        /* \"contracts/TheGame.sol\":1533:1554  return GameState.OPEN */\n      swap2\n      pop\n      pop\n      jump(tag_57)\n        /* \"contracts/TheGame.sol\":1480:1703  if (ts >= startTime && betsEndTime < ts)... */\n    tag_61:\n        /* \"contracts/TheGame.sol\":1579:1590  betsEndTime */\n      sload(0x03)\n        /* \"contracts/TheGame.sol\":1573:1575  ts */\n      dup2\n        /* \"contracts/TheGame.sol\":1573:1590  ts >= betsEndTime */\n      lt\n      iszero\n        /* \"contracts/TheGame.sol\":1573:1608  ts >= betsEndTime && ts < closeTime */\n      dup1\n      iszero\n      tag_63\n      jumpi\n      pop\n        /* \"contracts/TheGame.sol\":1599:1608  closeTime */\n      sload(0x04)\n        /* \"contracts/TheGame.sol\":1594:1596  ts */\n      dup2\n        /* \"contracts/TheGame.sol\":1594:1608  ts < closeTime */\n      lt\n        /* \"contracts/TheGame.sol\":1573:1608  ts >= betsEndTime && ts < closeTime */\n    tag_63:\n        /* \"contracts/TheGame.sol\":1569:1703  if (ts >= betsEndTime && ts < closeTime)... */\n      iszero\n      tag_64\n      jumpi\n        /* \"contracts/TheGame.sol\":1629:1650  GameState.BETS_CLOSED */\n      0x02\n        /* \"contracts/TheGame.sol\":1622:1650  return GameState.BETS_CLOSED */\n      swap2\n      pop\n      pop\n      jump(tag_57)\n        /* \"contracts/TheGame.sol\":1569:1703  if (ts >= betsEndTime && ts < closeTime)... */\n    tag_64:\n        /* \"contracts/TheGame.sol\":1685:1703  GameState.FINISHED */\n      0x03\n        /* \"contracts/TheGame.sol\":1678:1703  return GameState.FINISHED */\n      swap2\n      pop\n      pop\n        /* \"contracts/TheGame.sol\":1310:1710  function getState() public view returns(GameState) {... */\n    tag_57:\n      swap1\n      jump\t// out\n        /* \"contracts/TheGame.sol\":2144:2405  function takeABet(BetTakenFor option) public payable returns(Bet memory){... */\n    tag_20:\n        /* \"contracts/TheGame.sol\":2205:2215  Bet memory */\n      tag_66\n      tag_67\n      jump\t// in\n    tag_66:\n        /* \"contracts/TheGame.sol\":2275:2289  Bet memory bet */\n      0x00\n        /* \"contracts/TheGame.sol\":2292:2354  Bet(msg.sender, currentOddsA, currentOddsB, option, msg.value) */\n      mload(0x40)\n      dup1\n      0xa0\n      add\n      0x40\n      mstore\n      dup1\n        /* \"contracts/TheGame.sol\":2296:2306  msg.sender */\n      caller\n        /* \"contracts/TheGame.sol\":2292:2354  Bet(msg.sender, currentOddsA, currentOddsB, option, msg.value) */\n      0xffffffffffffffffffffffffffffffffffffffff\n      and\n      dup2\n      mstore\n      0x20\n      add\n        /* \"contracts/TheGame.sol\":2308:2320  currentOddsA */\n      sload(0x05)\n        /* \"contracts/TheGame.sol\":2292:2354  Bet(msg.sender, currentOddsA, currentOddsB, option, msg.value) */\n      dup2\n      mstore\n      0x20\n      add\n        /* \"contracts/TheGame.sol\":2322:2334  currentOddsB */\n      sload(0x06)\n        /* \"contracts/TheGame.sol\":2292:2354  Bet(msg.sender, currentOddsA, currentOddsB, option, msg.value) */\n      dup2\n      mstore\n      0x20\n      add\n        /* \"contracts/TheGame.sol\":2336:2342  option */\n      dup5\n        /* \"contracts/TheGame.sol\":2292:2354  Bet(msg.sender, currentOddsA, currentOddsB, option, msg.value) */\n      0x01\n      dup2\n      gt\n      iszero\n      tag_69\n      jumpi\n      tag_70\n      tag_71\n      jump\t// in\n    tag_70:\n    tag_69:\n      dup2\n      mstore\n      0x20\n      add\n        /* \"contracts/TheGame.sol\":2344:2353  msg.value */\n      callvalue\n        /* \"contracts/TheGame.sol\":2292:2354  Bet(msg.sender, currentOddsA, currentOddsB, option, msg.value) */\n      dup2\n      mstore\n      pop\n        /* \"contracts/TheGame.sol\":2275:2354  Bet memory bet = Bet(msg.sender, currentOddsA, currentOddsB, option, msg.value) */\n      swap1\n      pop\n        /* \"contracts/TheGame.sol\":2364:2368  bets */\n      0x07\n        /* \"contracts/TheGame.sol\":2374:2377  bet */\n      dup2\n        /* \"contracts/TheGame.sol\":2364:2378  bets.push(bet) */\n      swap1\n      dup1\n      0x01\n      dup2\n      sload\n      add\n      dup1\n      dup3\n      sstore\n      dup1\n      swap2\n      pop\n      pop\n      0x01\n      swap1\n      sub\n      swap1\n      0x00\n      mstore\n      keccak256(0x00, 0x20)\n      swap1\n      0x05\n      mul\n      add\n      0x00\n      swap1\n      swap2\n      swap1\n      swap2\n      swap1\n      swap2\n      pop\n      0x00\n      dup3\n      add\n      mload\n      dup2\n      0x00\n      add\n      exp(0x0100, 0x00)\n      dup2\n      sload\n      dup2\n      0xffffffffffffffffffffffffffffffffffffffff\n      mul\n      not\n      and\n      swap1\n      dup4\n      0xffffffffffffffffffffffffffffffffffffffff\n      and\n      mul\n      or\n      swap1\n      sstore\n      pop\n      0x20\n      dup3\n      add\n      mload\n      dup2\n      0x01\n      add\n      sstore\n      0x40\n      dup3\n      add\n      mload\n      dup2\n      0x02\n      add\n      sstore\n      0x60\n      dup3\n      add\n      mload\n      dup2\n      0x03\n      add\n      exp(0x0100, 0x00)\n      dup2\n      sload\n      dup2\n      0xff\n      mul\n      not\n      and\n      swap1\n      dup4\n      0x01\n      dup2\n      gt\n      iszero\n      tag_73\n      jumpi\n      tag_74\n      tag_71\n      jump\t// in\n    tag_74:\n    tag_73:\n      mul\n      or\n      swap1\n      sstore\n      pop\n      0x80\n      dup3\n      add\n      mload\n      dup2\n      0x04\n      add\n      sstore\n      pop\n      pop\n        /* \"contracts/TheGame.sol\":2395:2398  bet */\n      dup1\n        /* \"contracts/TheGame.sol\":2388:2398  return bet */\n      swap2\n      pop\n      pop\n        /* \"contracts/TheGame.sol\":2144:2405  function takeABet(BetTakenFor option) public payable returns(Bet memory){... */\n      swap2\n      swap1\n      pop\n      jump\t// out\n        /* \"contracts/Owner.sol\":1262:1343  function getOwner() external view returns (address) {... */\n    tag_25:\n        /* \"contracts/Owner.sol\":1305:1312  address */\n      0x00\n        /* \"contracts/Owner.sol\":1331:1336  owner */\n      dup1\n      0x00\n      swap1\n      sload\n      swap1\n      0x0100\n      exp\n      swap1\n      div\n      0xffffffffffffffffffffffffffffffffffffffff\n      and\n        /* \"contracts/Owner.sol\":1324:1336  return owner */\n      swap1\n      pop\n        /* \"contracts/Owner.sol\":1262:1343  function getOwner() external view returns (address) {... */\n      swap1\n      jump\t// out\n        /* \"contracts/TheGame.sol\":1120:1211  function getBetsEndTime() public view returns(uint256) {... */\n    tag_30:\n        /* \"contracts/TheGame.sol\":1166:1173  uint256 */\n      0x00\n        /* \"contracts/TheGame.sol\":1193:1204  betsEndTime */\n      sload(0x03)\n        /* \"contracts/TheGame.sol\":1186:1204  return betsEndTime */\n      swap1\n      pop\n        /* \"contracts/TheGame.sol\":1120:1211  function getBetsEndTime() public view returns(uint256) {... */\n      swap1\n      jump\t// out\n        /* \"contracts/Owner.sol\":1047:1174  function changeOwner(address newOwner) public isOwner {... */\n    tag_37:\n        /* \"contracts/Owner.sol\":807:812  owner */\n      0x00\n      dup1\n      sload\n      swap1\n      0x0100\n      exp\n      swap1\n      div\n      0xffffffffffffffffffffffffffffffffffffffff\n      and\n        /* \"contracts/Owner.sol\":793:812  msg.sender == owner */\n      0xffffffffffffffffffffffffffffffffffffffff\n      and\n        /* \"contracts/Owner.sol\":793:803  msg.sender */\n      caller\n        /* \"contracts/Owner.sol\":793:812  msg.sender == owner */\n      0xffffffffffffffffffffffffffffffffffffffff\n      and\n      eq\n        /* \"contracts/Owner.sol\":785:836  require(msg.sender == owner, \"Caller is not owner\") */\n      tag_78\n      jumpi\n      mload(0x40)\n      0x08c379a000000000000000000000000000000000000000000000000000000000\n      dup2\n      mstore\n      0x04\n      add\n      tag_79\n      swap1\n      tag_80\n      jump\t// in\n    tag_79:\n      mload(0x40)\n      dup1\n      swap2\n      sub\n      swap1\n      revert\n    tag_78:\n        /* \"contracts/Owner.sol\":1132:1140  newOwner */\n      dup1\n        /* \"contracts/Owner.sol\":1116:1141  OwnerSet(owner, newOwner) */\n      0xffffffffffffffffffffffffffffffffffffffff\n      and\n        /* \"contracts/Owner.sol\":1125:1130  owner */\n      0x00\n      dup1\n      sload\n      swap1\n      0x0100\n      exp\n      swap1\n      div\n      0xffffffffffffffffffffffffffffffffffffffff\n      and\n        /* \"contracts/Owner.sol\":1116:1141  OwnerSet(owner, newOwner) */\n      0xffffffffffffffffffffffffffffffffffffffff\n      and\n      0x342827c97908e5e2f71151c08502a66d44b6f758e3ac2f1de95f02eb95f0a735\n      mload(0x40)\n      mload(0x40)\n      dup1\n      swap2\n      sub\n      swap1\n      log3\n        /* \"contracts/Owner.sol\":1159:1167  newOwner */\n      dup1\n        /* \"contracts/Owner.sol\":1151:1156  owner */\n      0x00\n      dup1\n        /* \"contracts/Owner.sol\":1151:1167  owner = newOwner */\n      0x0100\n      exp\n      dup2\n      sload\n      dup2\n      0xffffffffffffffffffffffffffffffffffffffff\n      mul\n      not\n      and\n      swap1\n      dup4\n      0xffffffffffffffffffffffffffffffffffffffff\n      and\n      mul\n      or\n      swap1\n      sstore\n      pop\n        /* \"contracts/Owner.sol\":1047:1174  function changeOwner(address newOwner) public isOwner {... */\n      pop\n      jump\t// out\n        /* \"contracts/TheGame.sol\":1790:1922  function updateOddsA(uint256 odds) public isOwner returns(uint256) {... */\n    tag_42:\n        /* \"contracts/TheGame.sol\":1848:1855  uint256 */\n      0x00\n        /* \"contracts/Owner.sol\":807:812  owner */\n      dup1\n      0x00\n      swap1\n      sload\n      swap1\n      0x0100\n      exp\n      swap1\n      div\n      0xffffffffffffffffffffffffffffffffffffffff\n      and\n        /* \"contracts/Owner.sol\":793:812  msg.sender == owner */\n      0xffffffffffffffffffffffffffffffffffffffff\n      and\n        /* \"contracts/Owner.sol\":793:803  msg.sender */\n      caller\n        /* \"contracts/Owner.sol\":793:812  msg.sender == owner */\n      0xffffffffffffffffffffffffffffffffffffffff\n      and\n      eq\n        /* \"contracts/Owner.sol\":785:836  require(msg.sender == owner, \"Caller is not owner\") */\n      tag_83\n      jumpi\n      mload(0x40)\n      0x08c379a000000000000000000000000000000000000000000000000000000000\n      dup2\n      mstore\n      0x04\n      add\n      tag_84\n      swap1\n      tag_80\n      jump\t// in\n    tag_84:\n      mload(0x40)\n      dup1\n      swap2\n      sub\n      swap1\n      revert\n    tag_83:\n        /* \"contracts/TheGame.sol\":1882:1886  odds */\n      dup2\n        /* \"contracts/TheGame.sol\":1867:1879  currentOddsA */\n      0x05\n        /* \"contracts/TheGame.sol\":1867:1886  currentOddsA = odds */\n      dup2\n      swap1\n      sstore\n      pop\n        /* \"contracts/TheGame.sol\":1903:1915  currentOddsA */\n      sload(0x05)\n        /* \"contracts/TheGame.sol\":1896:1915  return currentOddsA */\n      swap1\n      pop\n        /* \"contracts/TheGame.sol\":1790:1922  function updateOddsA(uint256 odds) public isOwner returns(uint256) {... */\n      swap2\n      swap1\n      pop\n      jump\t// out\n        /* \"contracts/TheGame.sol\":1027:1114  function getStartTime() public view returns(uint256) {... */\n    tag_46:\n        /* \"contracts/TheGame.sol\":1071:1078  uint256 */\n      0x00\n        /* \"contracts/TheGame.sol\":1098:1107  startTime */\n      sload(0x02)\n        /* \"contracts/TheGame.sol\":1091:1107  return startTime */\n      swap1\n      pop\n        /* \"contracts/TheGame.sol\":1027:1114  function getStartTime() public view returns(uint256) {... */\n      swap1\n      jump\t// out\n        /* \"contracts/TheGame.sol\":1932:2064  function updateOddsB(uint256 odds) public isOwner returns(uint256) {... */\n    tag_51:\n        /* \"contracts/TheGame.sol\":1990:1997  uint256 */\n      0x00\n        /* \"contracts/Owner.sol\":807:812  owner */\n      dup1\n      0x00\n      swap1\n      sload\n      swap1\n      0x0100\n      exp\n      swap1\n      div\n      0xffffffffffffffffffffffffffffffffffffffff\n      and\n        /* \"contracts/Owner.sol\":793:812  msg.sender == owner */\n      0xffffffffffffffffffffffffffffffffffffffff\n      and\n        /* \"contracts/Owner.sol\":793:803  msg.sender */\n      caller\n        /* \"contracts/Owner.sol\":793:812  msg.sender == owner */\n      0xffffffffffffffffffffffffffffffffffffffff\n      and\n      eq\n        /* \"contracts/Owner.sol\":785:836  require(msg.sender == owner, \"Caller is not owner\") */\n      tag_88\n      jumpi\n      mload(0x40)\n      0x08c379a000000000000000000000000000000000000000000000000000000000\n      dup2\n      mstore\n      0x04\n      add\n      tag_89\n      swap1\n      tag_80\n      jump\t// in\n    tag_89:\n      mload(0x40)\n      dup1\n      swap2\n      sub\n      swap1\n      revert\n    tag_88:\n        /* \"contracts/TheGame.sol\":2024:2028  odds */\n      dup2\n        /* \"contracts/TheGame.sol\":2009:2021  currentOddsB */\n      0x06\n        /* \"contracts/TheGame.sol\":2009:2028  currentOddsB = odds */\n      dup2\n      swap1\n      sstore\n      pop\n        /* \"contracts/TheGame.sol\":2045:2057  currentOddsB */\n      sload(0x06)\n        /* \"contracts/TheGame.sol\":2038:2057  return currentOddsB */\n      swap1\n      pop\n        /* \"contracts/TheGame.sol\":1932:2064  function updateOddsB(uint256 odds) public isOwner returns(uint256) {... */\n      swap2\n      swap1\n      pop\n      jump\t// out\n        /* \"contracts/TheGame.sol\":1217:1304  function getCloseTime() public view returns(uint256) {... */\n    tag_55:\n        /* \"contracts/TheGame.sol\":1261:1268  uint256 */\n      0x00\n        /* \"contracts/TheGame.sol\":1288:1297  closeTime */\n      sload(0x04)\n        /* \"contracts/TheGame.sol\":1281:1297  return closeTime */\n      swap1\n      pop\n        /* \"contracts/TheGame.sol\":1217:1304  function getCloseTime() public view returns(uint256) {... */\n      swap1\n      jump\t// out\n    tag_67:\n      mload(0x40)\n      dup1\n      0xa0\n      add\n      0x40\n      mstore\n      dup1\n      and(0xffffffffffffffffffffffffffffffffffffffff, 0x00)\n      dup2\n      mstore\n      0x20\n      add\n      0x00\n      dup2\n      mstore\n      0x20\n      add\n      0x00\n      dup2\n      mstore\n      0x20\n      add\n      0x00\n      0x01\n      dup2\n      gt\n      iszero\n      tag_92\n      jumpi\n      tag_93\n      tag_71\n      jump\t// in\n    tag_93:\n    tag_92:\n      dup2\n      mstore\n      0x20\n      add\n      0x00\n      dup2\n      mstore\n      pop\n      swap1\n      jump\t// out\n        /* \"#utility.yul\":7:146   */\n    tag_95:\n        /* \"#utility.yul\":53:58   */\n      0x00\n        /* \"#utility.yul\":91:97   */\n      dup2\n        /* \"#utility.yul\":78:98   */\n      calldataload\n        /* \"#utility.yul\":69:98   */\n      swap1\n      pop\n        /* \"#utility.yul\":107:140   */\n      tag_97\n        /* \"#utility.yul\":134:139   */\n      dup2\n        /* \"#utility.yul\":107:140   */\n      tag_98\n      jump\t// in\n    tag_97:\n        /* \"#utility.yul\":7:146   */\n      swap3\n      swap2\n      pop\n      pop\n      jump\t// out\n        /* \"#utility.yul\":152:319   */\n    tag_99:\n        /* \"#utility.yul\":212:217   */\n      0x00\n        /* \"#utility.yul\":250:256   */\n      dup2\n        /* \"#utility.yul\":237:257   */\n      calldataload\n        /* \"#utility.yul\":228:257   */\n      swap1\n      pop\n        /* \"#utility.yul\":266:313   */\n      tag_101\n        /* \"#utility.yul\":307:312   */\n      dup2\n        /* \"#utility.yul\":266:313   */\n      tag_102\n      jump\t// in\n    tag_101:\n        /* \"#utility.yul\":152:319   */\n      swap3\n      swap2\n      pop\n      pop\n      jump\t// out\n        /* \"#utility.yul\":325:464   */\n    tag_103:\n        /* \"#utility.yul\":371:376   */\n      0x00\n        /* \"#utility.yul\":409:415   */\n      dup2\n        /* \"#utility.yul\":396:416   */\n      calldataload\n        /* \"#utility.yul\":387:416   */\n      swap1\n      pop\n        /* \"#utility.yul\":425:458   */\n      tag_105\n        /* \"#utility.yul\":452:457   */\n      dup2\n        /* \"#utility.yul\":425:458   */\n      tag_106\n      jump\t// in\n    tag_105:\n        /* \"#utility.yul\":325:464   */\n      swap3\n      swap2\n      pop\n      pop\n      jump\t// out\n        /* \"#utility.yul\":470:799   */\n    tag_36:\n        /* \"#utility.yul\":529:535   */\n      0x00\n        /* \"#utility.yul\":578:580   */\n      0x20\n        /* \"#utility.yul\":566:575   */\n      dup3\n        /* \"#utility.yul\":557:564   */\n      dup5\n        /* \"#utility.yul\":553:576   */\n      sub\n        /* \"#utility.yul\":549:581   */\n      slt\n        /* \"#utility.yul\":546:665   */\n      iszero\n      tag_108\n      jumpi\n        /* \"#utility.yul\":584:663   */\n      tag_109\n      tag_110\n      jump\t// in\n    tag_109:\n        /* \"#utility.yul\":546:665   */\n    tag_108:\n        /* \"#utility.yul\":704:705   */\n      0x00\n        /* \"#utility.yul\":729:782   */\n      tag_111\n        /* \"#utility.yul\":774:781   */\n      dup5\n        /* \"#utility.yul\":765:771   */\n      dup3\n        /* \"#utility.yul\":754:763   */\n      dup6\n        /* \"#utility.yul\":750:772   */\n      add\n        /* \"#utility.yul\":729:782   */\n      tag_95\n      jump\t// in\n    tag_111:\n        /* \"#utility.yul\":719:782   */\n      swap2\n      pop\n        /* \"#utility.yul\":675:792   */\n      pop\n        /* \"#utility.yul\":470:799   */\n      swap3\n      swap2\n      pop\n      pop\n      jump\t// out\n        /* \"#utility.yul\":805:1162   */\n    tag_19:\n        /* \"#utility.yul\":878:884   */\n      0x00\n        /* \"#utility.yul\":927:929   */\n      0x20\n        /* \"#utility.yul\":915:924   */\n      dup3\n        /* \"#utility.yul\":906:913   */\n      dup5\n        /* \"#utility.yul\":902:925   */\n      sub\n        /* \"#utility.yul\":898:930   */\n      slt\n        /* \"#utility.yul\":895:1014   */\n      iszero\n      tag_113\n      jumpi\n        /* \"#utility.yul\":933:1012   */\n      tag_114\n      tag_110\n      jump\t// in\n    tag_114:\n        /* \"#utility.yul\":895:1014   */\n    tag_113:\n        /* \"#utility.yul\":1053:1054   */\n      0x00\n        /* \"#utility.yul\":1078:1145   */\n      tag_115\n        /* \"#utility.yul\":1137:1144   */\n      dup5\n        /* \"#utility.yul\":1128:1134   */\n      dup3\n        /* \"#utility.yul\":1117:1126   */\n      dup6\n        /* \"#utility.yul\":1113:1135   */\n      add\n        /* \"#utility.yul\":1078:1145   */\n      tag_99\n      jump\t// in\n    tag_115:\n        /* \"#utility.yul\":1068:1145   */\n      swap2\n      pop\n        /* \"#utility.yul\":1024:1155   */\n      pop\n        /* \"#utility.yul\":805:1162   */\n      swap3\n      swap2\n      pop\n      pop\n      jump\t// out\n        /* \"#utility.yul\":1168:1497   */\n    tag_41:\n        /* \"#utility.yul\":1227:1233   */\n      0x00\n        /* \"#utility.yul\":1276:1278   */\n      0x20\n        /* \"#utility.yul\":1264:1273   */\n      dup3\n        /* \"#utility.yul\":1255:1262   */\n      dup5\n        /* \"#utility.yul\":1251:1274   */\n      sub\n        /* \"#utility.yul\":1247:1279   */\n      slt\n        /* \"#utility.yul\":1244:1363   */\n      iszero\n      tag_117\n      jumpi\n        /* \"#utility.yul\":1282:1361   */\n      tag_118\n      tag_110\n      jump\t// in\n    tag_118:\n        /* \"#utility.yul\":1244:1363   */\n    tag_117:\n        /* \"#utility.yul\":1402:1403   */\n      0x00\n        /* \"#utility.yul\":1427:1480   */\n      tag_119\n        /* \"#utility.yul\":1472:1479   */\n      dup5\n        /* \"#utility.yul\":1463:1469   */\n      dup3\n        /* \"#utility.yul\":1452:1461   */\n      dup6\n        /* \"#utility.yul\":1448:1470   */\n      add\n        /* \"#utility.yul\":1427:1480   */\n      tag_103\n      jump\t// in\n    tag_119:\n        /* \"#utility.yul\":1417:1480   */\n      swap2\n      pop\n        /* \"#utility.yul\":1373:1490   */\n      pop\n        /* \"#utility.yul\":1168:1497   */\n      swap3\n      swap2\n      pop\n      pop\n      jump\t// out\n        /* \"#utility.yul\":1503:1611   */\n    tag_120:\n        /* \"#utility.yul\":1580:1604   */\n      tag_122\n        /* \"#utility.yul\":1598:1603   */\n      dup2\n        /* \"#utility.yul\":1580:1604   */\n      tag_123\n      jump\t// in\n    tag_122:\n        /* \"#utility.yul\":1575:1578   */\n      dup3\n        /* \"#utility.yul\":1568:1605   */\n      mstore\n        /* \"#utility.yul\":1503:1611   */\n      pop\n      pop\n      jump\t// out\n        /* \"#utility.yul\":1617:1735   */\n    tag_124:\n        /* \"#utility.yul\":1704:1728   */\n      tag_126\n        /* \"#utility.yul\":1722:1727   */\n      dup2\n        /* \"#utility.yul\":1704:1728   */\n      tag_123\n      jump\t// in\n    tag_126:\n        /* \"#utility.yul\":1699:1702   */\n      dup3\n        /* \"#utility.yul\":1692:1729   */\n      mstore\n        /* \"#utility.yul\":1617:1735   */\n      pop\n      pop\n      jump\t// out\n        /* \"#utility.yul\":1741:1886   */\n    tag_127:\n        /* \"#utility.yul\":1830:1879   */\n      tag_129\n        /* \"#utility.yul\":1873:1878   */\n      dup2\n        /* \"#utility.yul\":1830:1879   */\n      tag_130\n      jump\t// in\n    tag_129:\n        /* \"#utility.yul\":1825:1828   */\n      dup3\n        /* \"#utility.yul\":1818:1880   */\n      mstore\n        /* \"#utility.yul\":1741:1886   */\n      pop\n      pop\n      jump\t// out\n        /* \"#utility.yul\":1892:2043   */\n    tag_131:\n        /* \"#utility.yul\":1989:2036   */\n      tag_133\n        /* \"#utility.yul\":2030:2035   */\n      dup2\n        /* \"#utility.yul\":1989:2036   */\n      tag_134\n      jump\t// in\n    tag_133:\n        /* \"#utility.yul\":1984:1987   */\n      dup3\n        /* \"#utility.yul\":1977:2037   */\n      mstore\n        /* \"#utility.yul\":1892:2043   */\n      pop\n      pop\n      jump\t// out\n        /* \"#utility.yul\":2049:2415   */\n    tag_135:\n        /* \"#utility.yul\":2191:2194   */\n      0x00\n        /* \"#utility.yul\":2212:2279   */\n      tag_137\n        /* \"#utility.yul\":2276:2278   */\n      0x13\n        /* \"#utility.yul\":2271:2274   */\n      dup4\n        /* \"#utility.yul\":2212:2279   */\n      tag_138\n      jump\t// in\n    tag_137:\n        /* \"#utility.yul\":2205:2279   */\n      swap2\n      pop\n        /* \"#utility.yul\":2288:2381   */\n      tag_139\n        /* \"#utility.yul\":2377:2380   */\n      dup3\n        /* \"#utility.yul\":2288:2381   */\n      tag_140\n      jump\t// in\n    tag_139:\n        /* \"#utility.yul\":2406:2408   */\n      0x20\n        /* \"#utility.yul\":2401:2404   */\n      dup3\n        /* \"#utility.yul\":2397:2409   */\n      add\n        /* \"#utility.yul\":2390:2409   */\n      swap1\n      pop\n        /* \"#utility.yul\":2049:2415   */\n      swap2\n      swap1\n      pop\n      jump\t// out\n        /* \"#utility.yul\":2453:3495   */\n    tag_141:\n        /* \"#utility.yul\":2588:2592   */\n      0xa0\n        /* \"#utility.yul\":2583:2586   */\n      dup3\n        /* \"#utility.yul\":2579:2593   */\n      add\n        /* \"#utility.yul\":2677:2681   */\n      0x00\n        /* \"#utility.yul\":2670:2675   */\n      dup3\n        /* \"#utility.yul\":2666:2682   */\n      add\n        /* \"#utility.yul\":2660:2683   */\n      mload\n        /* \"#utility.yul\":2696:2759   */\n      tag_143\n        /* \"#utility.yul\":2753:2757   */\n      0x00\n        /* \"#utility.yul\":2748:2751   */\n      dup6\n        /* \"#utility.yul\":2744:2758   */\n      add\n        /* \"#utility.yul\":2730:2742   */\n      dup3\n        /* \"#utility.yul\":2696:2759   */\n      tag_120\n      jump\t// in\n    tag_143:\n        /* \"#utility.yul\":2603:2769   */\n      pop\n        /* \"#utility.yul\":2852:2856   */\n      0x20\n        /* \"#utility.yul\":2845:2850   */\n      dup3\n        /* \"#utility.yul\":2841:2857   */\n      add\n        /* \"#utility.yul\":2835:2858   */\n      mload\n        /* \"#utility.yul\":2871:2934   */\n      tag_144\n        /* \"#utility.yul\":2928:2932   */\n      0x20\n        /* \"#utility.yul\":2923:2926   */\n      dup6\n        /* \"#utility.yul\":2919:2933   */\n      add\n        /* \"#utility.yul\":2905:2917   */\n      dup3\n        /* \"#utility.yul\":2871:2934   */\n      tag_145\n      jump\t// in\n    tag_144:\n        /* \"#utility.yul\":2779:2944   */\n      pop\n        /* \"#utility.yul\":3027:3031   */\n      0x40\n        /* \"#utility.yul\":3020:3025   */\n      dup3\n        /* \"#utility.yul\":3016:3032   */\n      add\n        /* \"#utility.yul\":3010:3033   */\n      mload\n        /* \"#utility.yul\":3046:3109   */\n      tag_146\n        /* \"#utility.yul\":3103:3107   */\n      0x40\n        /* \"#utility.yul\":3098:3101   */\n      dup6\n        /* \"#utility.yul\":3094:3108   */\n      add\n        /* \"#utility.yul\":3080:3092   */\n      dup3\n        /* \"#utility.yul\":3046:3109   */\n      tag_145\n      jump\t// in\n    tag_146:\n        /* \"#utility.yul\":2954:3119   */\n      pop\n        /* \"#utility.yul\":3208:3212   */\n      0x60\n        /* \"#utility.yul\":3201:3206   */\n      dup3\n        /* \"#utility.yul\":3197:3213   */\n      add\n        /* \"#utility.yul\":3191:3214   */\n      mload\n        /* \"#utility.yul\":3227:3302   */\n      tag_147\n        /* \"#utility.yul\":3296:3300   */\n      0x60\n        /* \"#utility.yul\":3291:3294   */\n      dup6\n        /* \"#utility.yul\":3287:3301   */\n      add\n        /* \"#utility.yul\":3273:3285   */\n      dup3\n        /* \"#utility.yul\":3227:3302   */\n      tag_127\n      jump\t// in\n    tag_147:\n        /* \"#utility.yul\":3129:3312   */\n      pop\n        /* \"#utility.yul\":3396:3400   */\n      0x80\n        /* \"#utility.yul\":3389:3394   */\n      dup3\n        /* \"#utility.yul\":3385:3401   */\n      add\n        /* \"#utility.yul\":3379:3402   */\n      mload\n        /* \"#utility.yul\":3415:3478   */\n      tag_148\n        /* \"#utility.yul\":3472:3476   */\n      0x80\n        /* \"#utility.yul\":3467:3470   */\n      dup6\n        /* \"#utility.yul\":3463:3477   */\n      add\n        /* \"#utility.yul\":3449:3461   */\n      dup3\n        /* \"#utility.yul\":3415:3478   */\n      tag_145\n      jump\t// in\n    tag_148:\n        /* \"#utility.yul\":3322:3488   */\n      pop\n        /* \"#utility.yul\":2557:3495   */\n      pop\n        /* \"#utility.yul\":2453:3495   */\n      pop\n      pop\n      jump\t// out\n        /* \"#utility.yul\":3501:3609   */\n    tag_145:\n        /* \"#utility.yul\":3578:3602   */\n      tag_150\n        /* \"#utility.yul\":3596:3601   */\n      dup2\n        /* \"#utility.yul\":3578:3602   */\n      tag_151\n      jump\t// in\n    tag_150:\n        /* \"#utility.yul\":3573:3576   */\n      dup3\n        /* \"#utility.yul\":3566:3603   */\n      mstore\n        /* \"#utility.yul\":3501:3609   */\n      pop\n      pop\n      jump\t// out\n        /* \"#utility.yul\":3615:3733   */\n    tag_152:\n        /* \"#utility.yul\":3702:3726   */\n      tag_154\n        /* \"#utility.yul\":3720:3725   */\n      dup2\n        /* \"#utility.yul\":3702:3726   */\n      tag_151\n      jump\t// in\n    tag_154:\n        /* \"#utility.yul\":3697:3700   */\n      dup3\n        /* \"#utility.yul\":3690:3727   */\n      mstore\n        /* \"#utility.yul\":3615:3733   */\n      pop\n      pop\n      jump\t// out\n        /* \"#utility.yul\":3739:3961   */\n    tag_27:\n        /* \"#utility.yul\":3832:3836   */\n      0x00\n        /* \"#utility.yul\":3870:3872   */\n      0x20\n        /* \"#utility.yul\":3859:3868   */\n      dup3\n        /* \"#utility.yul\":3855:3873   */\n      add\n        /* \"#utility.yul\":3847:3873   */\n      swap1\n      pop\n        /* \"#utility.yul\":3883:3954   */\n      tag_156\n        /* \"#utility.yul\":3951:3952   */\n      0x00\n        /* \"#utility.yul\":3940:3949   */\n      dup4\n        /* \"#utility.yul\":3936:3953   */\n      add\n        /* \"#utility.yul\":3927:3933   */\n      dup5\n        /* \"#utility.yul\":3883:3954   */\n      tag_124\n      jump\t// in\n    tag_156:\n        /* \"#utility.yul\":3739:3961   */\n      swap3\n      swap2\n      pop\n      pop\n      jump\t// out\n        /* \"#utility.yul\":3967:4209   */\n    tag_16:\n        /* \"#utility.yul\":4070:4074   */\n      0x00\n        /* \"#utility.yul\":4108:4110   */\n      0x20\n        /* \"#utility.yul\":4097:4106   */\n      dup3\n        /* \"#utility.yul\":4093:4111   */\n      add\n        /* \"#utility.yul\":4085:4111   */\n      swap1\n      pop\n        /* \"#utility.yul\":4121:4202   */\n      tag_158\n        /* \"#utility.yul\":4199:4200   */\n      0x00\n        /* \"#utility.yul\":4188:4197   */\n      dup4\n        /* \"#utility.yul\":4184:4201   */\n      add\n        /* \"#utility.yul\":4175:4181   */\n      dup5\n        /* \"#utility.yul\":4121:4202   */\n      tag_131\n      jump\t// in\n    tag_158:\n        /* \"#utility.yul\":3967:4209   */\n      swap3\n      swap2\n      pop\n      pop\n      jump\t// out\n        /* \"#utility.yul\":4215:4634   */\n    tag_80:\n        /* \"#utility.yul\":4381:4385   */\n      0x00\n        /* \"#utility.yul\":4419:4421   */\n      0x20\n        /* \"#utility.yul\":4408:4417   */\n      dup3\n        /* \"#utility.yul\":4404:4422   */\n      add\n        /* \"#utility.yul\":4396:4422   */\n      swap1\n      pop\n        /* \"#utility.yul\":4468:4477   */\n      dup2\n        /* \"#utility.yul\":4462:4466   */\n      dup2\n        /* \"#utility.yul\":4458:4478   */\n      sub\n        /* \"#utility.yul\":4454:4455   */\n      0x00\n        /* \"#utility.yul\":4443:4452   */\n      dup4\n        /* \"#utility.yul\":4439:4456   */\n      add\n        /* \"#utility.yul\":4432:4479   */\n      mstore\n        /* \"#utility.yul\":4496:4627   */\n      tag_160\n        /* \"#utility.yul\":4622:4626   */\n      dup2\n        /* \"#utility.yul\":4496:4627   */\n      tag_135\n      jump\t// in\n    tag_160:\n        /* \"#utility.yul\":4488:4627   */\n      swap1\n      pop\n        /* \"#utility.yul\":4215:4634   */\n      swap2\n      swap1\n      pop\n      jump\t// out\n        /* \"#utility.yul\":4640:4939   */\n    tag_22:\n        /* \"#utility.yul\":4771:4775   */\n      0x00\n        /* \"#utility.yul\":4809:4812   */\n      0xa0\n        /* \"#utility.yul\":4798:4807   */\n      dup3\n        /* \"#utility.yul\":4794:4813   */\n      add\n        /* \"#utility.yul\":4786:4813   */\n      swap1\n      pop\n        /* \"#utility.yul\":4823:4932   */\n      tag_162\n        /* \"#utility.yul\":4929:4930   */\n      0x00\n        /* \"#utility.yul\":4918:4927   */\n      dup4\n        /* \"#utility.yul\":4914:4931   */\n      add\n        /* \"#utility.yul\":4905:4911   */\n      dup5\n        /* \"#utility.yul\":4823:4932   */\n      tag_141\n      jump\t// in\n    tag_162:\n        /* \"#utility.yul\":4640:4939   */\n      swap3\n      swap2\n      pop\n      pop\n      jump\t// out\n        /* \"#utility.yul\":4945:5167   */\n    tag_32:\n        /* \"#utility.yul\":5038:5042   */\n      0x00\n        /* \"#utility.yul\":5076:5078   */\n      0x20\n        /* \"#utility.yul\":5065:5074   */\n      dup3\n        /* \"#utility.yul\":5061:5079   */\n      add\n        /* \"#utility.yul\":5053:5079   */\n      swap1\n      pop\n        /* \"#utility.yul\":5089:5160   */\n      tag_164\n        /* \"#utility.yul\":5157:5158   */\n      0x00\n        /* \"#utility.yul\":5146:5155   */\n      dup4\n        /* \"#utility.yul\":5142:5159   */\n      add\n        /* \"#utility.yul\":5133:5139   */\n      dup5\n        /* \"#utility.yul\":5089:5160   */\n      tag_152\n      jump\t// in\n    tag_164:\n        /* \"#utility.yul\":4945:5167   */\n      swap3\n      swap2\n      pop\n      pop\n      jump\t// out\n        /* \"#utility.yul\":5254:5423   */\n    tag_138:\n        /* \"#utility.yul\":5338:5349   */\n      0x00\n        /* \"#utility.yul\":5372:5378   */\n      dup3\n        /* \"#utility.yul\":5367:5370   */\n      dup3\n        /* \"#utility.yul\":5360:5379   */\n      mstore\n        /* \"#utility.yul\":5412:5416   */\n      0x20\n        /* \"#utility.yul\":5407:5410   */\n      dup3\n        /* \"#utility.yul\":5403:5417   */\n      add\n        /* \"#utility.yul\":5388:5417   */\n      swap1\n      pop\n        /* \"#utility.yul\":5254:5423   */\n      swap3\n      swap2\n      pop\n      pop\n      jump\t// out\n        /* \"#utility.yul\":5429:5525   */\n    tag_123:\n        /* \"#utility.yul\":5466:5473   */\n      0x00\n        /* \"#utility.yul\":5495:5519   */\n      tag_169\n        /* \"#utility.yul\":5513:5518   */\n      dup3\n        /* \"#utility.yul\":5495:5519   */\n      tag_170\n      jump\t// in\n    tag_169:\n        /* \"#utility.yul\":5484:5519   */\n      swap1\n      pop\n        /* \"#utility.yul\":5429:5525   */\n      swap2\n      swap1\n      pop\n      jump\t// out\n        /* \"#utility.yul\":5531:5670   */\n    tag_171:\n        /* \"#utility.yul\":5582:5589   */\n      0x00\n        /* \"#utility.yul\":5611:5616   */\n      dup2\n        /* \"#utility.yul\":5600:5616   */\n      swap1\n      pop\n        /* \"#utility.yul\":5617:5664   */\n      tag_173\n        /* \"#utility.yul\":5658:5663   */\n      dup3\n        /* \"#utility.yul\":5617:5664   */\n      tag_174\n      jump\t// in\n    tag_173:\n        /* \"#utility.yul\":5531:5670   */\n      swap2\n      swap1\n      pop\n      jump\t// out\n        /* \"#utility.yul\":5676:5811   */\n    tag_175:\n        /* \"#utility.yul\":5725:5732   */\n      0x00\n        /* \"#utility.yul\":5754:5759   */\n      dup2\n        /* \"#utility.yul\":5743:5759   */\n      swap1\n      pop\n        /* \"#utility.yul\":5760:5805   */\n      tag_177\n        /* \"#utility.yul\":5799:5804   */\n      dup3\n        /* \"#utility.yul\":5760:5805   */\n      tag_178\n      jump\t// in\n    tag_177:\n        /* \"#utility.yul\":5676:5811   */\n      swap2\n      swap1\n      pop\n      jump\t// out\n        /* \"#utility.yul\":5817:5943   */\n    tag_170:\n        /* \"#utility.yul\":5854:5861   */\n      0x00\n        /* \"#utility.yul\":5894:5936   */\n      0xffffffffffffffffffffffffffffffffffffffff\n        /* \"#utility.yul\":5887:5892   */\n      dup3\n        /* \"#utility.yul\":5883:5937   */\n      and\n        /* \"#utility.yul\":5872:5937   */\n      swap1\n      pop\n        /* \"#utility.yul\":5817:5943   */\n      swap2\n      swap1\n      pop\n      jump\t// out\n        /* \"#utility.yul\":5949:6026   */\n    tag_151:\n        /* \"#utility.yul\":5986:5993   */\n      0x00\n        /* \"#utility.yul\":6015:6020   */\n      dup2\n        /* \"#utility.yul\":6004:6020   */\n      swap1\n      pop\n        /* \"#utility.yul\":5949:6026   */\n      swap2\n      swap1\n      pop\n      jump\t// out\n        /* \"#utility.yul\":6032:6171   */\n    tag_130:\n        /* \"#utility.yul\":6094:6103   */\n      0x00\n        /* \"#utility.yul\":6127:6165   */\n      tag_182\n        /* \"#utility.yul\":6159:6164   */\n      dup3\n        /* \"#utility.yul\":6127:6165   */\n      tag_171\n      jump\t// in\n    tag_182:\n        /* \"#utility.yul\":6114:6165   */\n      swap1\n      pop\n        /* \"#utility.yul\":6032:6171   */\n      swap2\n      swap1\n      pop\n      jump\t// out\n        /* \"#utility.yul\":6177:6312   */\n    tag_134:\n        /* \"#utility.yul\":6237:6246   */\n      0x00\n        /* \"#utility.yul\":6270:6306   */\n      tag_184\n        /* \"#utility.yul\":6300:6305   */\n      dup3\n        /* \"#utility.yul\":6270:6306   */\n      tag_175\n      jump\t// in\n    tag_184:\n        /* \"#utility.yul\":6257:6306   */\n      swap1\n      pop\n        /* \"#utility.yul\":6177:6312   */\n      swap2\n      swap1\n      pop\n      jump\t// out\n        /* \"#utility.yul\":6318:6498   */\n    tag_71:\n        /* \"#utility.yul\":6366:6443   */\n      0x4e487b7100000000000000000000000000000000000000000000000000000000\n        /* \"#utility.yul\":6363:6364   */\n      0x00\n        /* \"#utility.yul\":6356:6444   */\n      mstore\n        /* \"#utility.yul\":6463:6467   */\n      0x21\n        /* \"#utility.yul\":6460:6461   */\n      0x04\n        /* \"#utility.yul\":6453:6468   */\n      mstore\n        /* \"#utility.yul\":6487:6491   */\n      0x24\n        /* \"#utility.yul\":6484:6485   */\n      0x00\n        /* \"#utility.yul\":6477:6492   */\n      revert\n        /* \"#utility.yul\":6627:6744   */\n    tag_110:\n        /* \"#utility.yul\":6736:6737   */\n      0x00\n        /* \"#utility.yul\":6733:6734   */\n      dup1\n        /* \"#utility.yul\":6726:6738   */\n      revert\n        /* \"#utility.yul\":6750:6919   */\n    tag_140:\n        /* \"#utility.yul\":6890:6911   */\n      0x43616c6c6572206973206e6f74206f776e657200000000000000000000000000\n        /* \"#utility.yul\":6886:6887   */\n      0x00\n        /* \"#utility.yul\":6878:6884   */\n      dup3\n        /* \"#utility.yul\":6874:6888   */\n      add\n        /* \"#utility.yul\":6867:6912   */\n      mstore\n        /* \"#utility.yul\":6750:6919   */\n      pop\n      jump\t// out\n        /* \"#utility.yul\":6925:7044   */\n    tag_174:\n        /* \"#utility.yul\":7012:7013   */\n      0x02\n        /* \"#utility.yul\":7005:7010   */\n      dup2\n        /* \"#utility.yul\":7002:7014   */\n      lt\n        /* \"#utility.yul\":6992:7038   */\n      tag_191\n      jumpi\n        /* \"#utility.yul\":7018:7036   */\n      tag_192\n      tag_71\n      jump\t// in\n    tag_192:\n        /* \"#utility.yul\":6992:7038   */\n    tag_191:\n        /* \"#utility.yul\":6925:7044   */\n      pop\n      jump\t// out\n        /* \"#utility.yul\":7050:7167   */\n    tag_178:\n        /* \"#utility.yul\":7135:7136   */\n      0x04\n        /* \"#utility.yul\":7128:7133   */\n      dup2\n        /* \"#utility.yul\":7125:7137   */\n      lt\n        /* \"#utility.yul\":7115:7161   */\n      tag_194\n      jumpi\n        /* \"#utility.yul\":7141:7159   */\n      tag_195\n      tag_71\n      jump\t// in\n    tag_195:\n        /* \"#utility.yul\":7115:7161   */\n    tag_194:\n        /* \"#utility.yul\":7050:7167   */\n      pop\n      jump\t// out\n        /* \"#utility.yul\":7173:7295   */\n    tag_98:\n        /* \"#utility.yul\":7246:7270   */\n      tag_197\n        /* \"#utility.yul\":7264:7269   */\n      dup2\n        /* \"#utility.yul\":7246:7270   */\n      tag_123\n      jump\t// in\n    tag_197:\n        /* \"#utility.yul\":7239:7244   */\n      dup2\n        /* \"#utility.yul\":7236:7271   */\n      eq\n        /* \"#utility.yul\":7226:7289   */\n      tag_198\n      jumpi\n        /* \"#utility.yul\":7285:7286   */\n      0x00\n        /* \"#utility.yul\":7282:7283   */\n      dup1\n        /* \"#utility.yul\":7275:7287   */\n      revert\n        /* \"#utility.yul\":7226:7289   */\n    tag_198:\n        /* \"#utility.yul\":7173:7295   */\n      pop\n      jump\t// out\n        /* \"#utility.yul\":7301:7414   */\n    tag_102:\n        /* \"#utility.yul\":7388:7389   */\n      0x02\n        /* \"#utility.yul\":7381:7386   */\n      dup2\n        /* \"#utility.yul\":7378:7390   */\n      lt\n        /* \"#utility.yul\":7368:7408   */\n      tag_200\n      jumpi\n        /* \"#utility.yul\":7404:7405   */\n      0x00\n        /* \"#utility.yul\":7401:7402   */\n      dup1\n        /* \"#utility.yul\":7394:7406   */\n      revert\n        /* \"#utility.yul\":7368:7408   */\n    tag_200:\n        /* \"#utility.yul\":7301:7414   */\n      pop\n      jump\t// out\n        /* \"#utility.yul\":7420:7542   */\n    tag_106:\n        /* \"#utility.yul\":7493:7517   */\n      tag_202\n        /* \"#utility.yul\":7511:7516   */\n      dup2\n        /* \"#utility.yul\":7493:7517   */\n      tag_151\n      jump\t// in\n    tag_202:\n        /* \"#utility.yul\":7486:7491   */\n      dup2\n        /* \"#utility.yul\":7483:7518   */\n      eq\n        /* \"#utility.yul\":7473:7536   */\n      tag_203\n      jumpi\n        /* \"#utility.yul\":7532:7533   */\n      0x00\n        /* \"#utility.yul\":7529:7530   */\n      dup1\n        /* \"#utility.yul\":7522:7534   */\n      revert\n        /* \"#utility.yul\":7473:7536   */\n    tag_203:\n        /* \"#utility.yul\":7420:7542   */\n      pop\n      jump\t// out\n\n    auxdata: 0xa2646970667358221220ed2d1e207b815e3501294be61771c9ed848c81e942a1f683fdb5618cab2aff0364736f6c63430008070033\n}\n",
				"bytecode": {
					"linkReferences": {},
					"object": "608060405234801561001057600080fd5b50604051610c49380380610c4983398181016040528101906100329190610106565b3373ffffffffffffffffffffffffffffffffffffffff16600073ffffffffffffffffffffffffffffffffffffffff167f342827c97908e5e2f71151c08502a66d44b6f758e3ac2f1de95f02eb95f0a73560405160405180910390a3336000806101000a81548173ffffffffffffffffffffffffffffffffffffffff021916908373ffffffffffffffffffffffffffffffffffffffff1602179055504260018190555082600281905550816003819055508060048190555050505061017f565b60008151905061010081610168565b92915050565b60008060006060848603121561011f5761011e610163565b5b600061012d868287016100f1565b935050602061013e868287016100f1565b925050604061014f868287016100f1565b9150509250925092565b6000819050919050565b600080fd5b61017181610159565b811461017c57600080fd5b50565b610abb8061018e6000396000f3fe6080604052600436106100865760003560e01c8063a6f9dae111610059578063a6f9dae11461013c578063b9d76da914610165578063c828371e146101a2578063f2c3e469146101cd578063fadeaf761461020a57610086565b80631865c57d1461008b57806335644c7b146100b6578063893d20e8146100e65780638ea36d4714610111575b600080fd5b34801561009757600080fd5b506100a0610235565b6040516100ad91906108ba565b60405180910390f35b6100d060048036038101906100cb9190610760565b61029c565b6040516100dd91906108f5565b60405180910390f35b3480156100f257600080fd5b506100fb6103c7565b604051610108919061089f565b60405180910390f35b34801561011d57600080fd5b506101266103f0565b6040516101339190610910565b60405180910390f35b34801561014857600080fd5b50610163600480360381019061015e9190610733565b6103fa565b005b34801561017157600080fd5b5061018c6004803603810190610187919061078d565b610545565b6040516101999190610910565b60405180910390f35b3480156101ae57600080fd5b506101b76105e7565b6040516101c49190610910565b60405180910390f35b3480156101d957600080fd5b506101f460048036038101906101ef919061078d565b6105f1565b6040516102019190610910565b60405180910390f35b34801561021657600080fd5b5061021f610693565b60405161022c9190610910565b60405180910390f35b60008042905060025481101561024f576000915050610299565b6002548110158015610262575080600354105b15610271576001915050610299565b6003548110158015610284575060045481105b15610293576002915050610299565b60039150505b90565b6102a461069d565b60006040518060a001604052803373ffffffffffffffffffffffffffffffffffffffff168152602001600554815260200160065481526020018460018111156102f0576102ef6109c2565b5b8152602001348152509050600781908060018154018082558091505060019003906000526020600020906005020160009091909190915060008201518160000160006101000a81548173ffffffffffffffffffffffffffffffffffffffff021916908373ffffffffffffffffffffffffffffffffffffffff160217905550602082015181600101556040820151816002015560608201518160030160006101000a81548160ff021916908360018111156103ad576103ac6109c2565b5b021790555060808201518160040155505080915050919050565b60008060009054906101000a900473ffffffffffffffffffffffffffffffffffffffff16905090565b6000600354905090565b60008054906101000a900473ffffffffffffffffffffffffffffffffffffffff1673ffffffffffffffffffffffffffffffffffffffff163373ffffffffffffffffffffffffffffffffffffffff1614610488576040517f08c379a000000000000000000000000000000000000000000000000000000000815260040161047f906108d5565b60405180910390fd5b8073ffffffffffffffffffffffffffffffffffffffff1660008054906101000a900473ffffffffffffffffffffffffffffffffffffffff1673ffffffffffffffffffffffffffffffffffffffff167f342827c97908e5e2f71151c08502a66d44b6f758e3ac2f1de95f02eb95f0a73560405160405180910390a3806000806101000a81548173ffffffffffffffffffffffffffffffffffffffff021916908373ffffffffffffffffffffffffffffffffffffffff16021790555050565b60008060009054906101000a900473ffffffffffffffffffffffffffffffffffffffff1673ffffffffffffffffffffffffffffffffffffffff163373ffffffffffffffffffffffffffffffffffffffff16146105d6576040517f08c379a00000000000000000000000000000000000000000000000000000000081526004016105cd906108d5565b60405180910390fd5b816005819055506005549050919050565b6000600254905090565b60008060009054906101000a900473ffffffffffffffffffffffffffffffffffffffff1673ffffffffffffffffffffffffffffffffffffffff163373ffffffffffffffffffffffffffffffffffffffff1614610682576040517f08c379a0000000000000000000000000000000000000000000000000000000008152600401610679906108d5565b60405180910390fd5b816006819055506006549050919050565b6000600454905090565b6040518060a00160405280600073ffffffffffffffffffffffffffffffffffffffff1681526020016000815260200160008152602001600060018111156106e7576106e66109c2565b5b8152602001600081525090565b60008135905061070381610a47565b92915050565b60008135905061071881610a5e565b92915050565b60008135905061072d81610a6e565b92915050565b600060208284031215610749576107486109f1565b5b6000610757848285016106f4565b91505092915050565b600060208284031215610776576107756109f1565b5b600061078484828501610709565b91505092915050565b6000602082840312156107a3576107a26109f1565b5b60006107b18482850161071e565b91505092915050565b6107c38161093c565b82525050565b6107d28161093c565b82525050565b6107e18161099e565b82525050565b6107f0816109b0565b82525050565b600061080360138361092b565b915061080e826109f6565b602082019050919050565b60a08201600082015161082f60008501826107ba565b5060208201516108426020850182610881565b5060408201516108556040850182610881565b50606082015161086860608501826107d8565b50608082015161087b6080850182610881565b50505050565b61088a81610994565b82525050565b61089981610994565b82525050565b60006020820190506108b460008301846107c9565b92915050565b60006020820190506108cf60008301846107e7565b92915050565b600060208201905081810360008301526108ee816107f6565b9050919050565b600060a08201905061090a6000830184610819565b92915050565b60006020820190506109256000830184610890565b92915050565b600082825260208201905092915050565b600061094782610974565b9050919050565b600081905061095c82610a1f565b919050565b600081905061096f82610a33565b919050565b600073ffffffffffffffffffffffffffffffffffffffff82169050919050565b6000819050919050565b60006109a98261094e565b9050919050565b60006109bb82610961565b9050919050565b7f4e487b7100000000000000000000000000000000000000000000000000000000600052602160045260246000fd5b600080fd5b7f43616c6c6572206973206e6f74206f776e657200000000000000000000000000600082015250565b60028110610a3057610a2f6109c2565b5b50565b60048110610a4457610a436109c2565b5b50565b610a508161093c565b8114610a5b57600080fd5b50565b60028110610a6b57600080fd5b50565b610a7781610994565b8114610a8257600080fd5b5056fea2646970667358221220ed2d1e207b815e3501294be61771c9ed848c81e942a1f683fdb5618cab2aff0364736f6c63430008070033",
					"opcodes": "PUSH1 0x80 PUSH1 0x40 MSTORE CALLVALUE DUP1 ISZERO PUSH2 0x10 JUMPI PUSH1 0x0 DUP1 REVERT JUMPDEST POP PUSH1 0x40 MLOAD PUSH2 0xC49 CODESIZE SUB DUP1 PUSH2 0xC49 DUP4 CODECOPY DUP2 DUP2 ADD PUSH1 0x40 MSTORE DUP2 ADD SWAP1 PUSH2 0x32 SWAP2 SWAP1 PUSH2 0x106 JUMP JUMPDEST CALLER PUSH20 0xFFFFFFFFFFFFFFFFFFFFFFFFFFFFFFFFFFFFFFFF AND PUSH1 0x0 PUSH20 0xFFFFFFFFFFFFFFFFFFFFFFFFFFFFFFFFFFFFFFFF AND PUSH32 0x342827C97908E5E2F71151C08502A66D44B6F758E3AC2F1DE95F02EB95F0A735 PUSH1 0x40 MLOAD PUSH1 0x40 MLOAD DUP1 SWAP2 SUB SWAP1 LOG3 CALLER PUSH1 0x0 DUP1 PUSH2 0x100 EXP DUP2 SLOAD DUP2 PUSH20 0xFFFFFFFFFFFFFFFFFFFFFFFFFFFFFFFFFFFFFFFF MUL NOT AND SWAP1 DUP4 PUSH20 0xFFFFFFFFFFFFFFFFFFFFFFFFFFFFFFFFFFFFFFFF AND MUL OR SWAP1 SSTORE POP TIMESTAMP PUSH1 0x1 DUP2 SWAP1 SSTORE POP DUP3 PUSH1 0x2 DUP2 SWAP1 SSTORE POP DUP2 PUSH1 0x3 DUP2 SWAP1 SSTORE POP DUP1 PUSH1 0x4 DUP2 SWAP1 SSTORE POP POP POP POP PUSH2 0x17F JUMP JUMPDEST PUSH1 0x0 DUP2 MLOAD SWAP1 POP PUSH2 0x100 DUP2 PUSH2 0x168 JUMP JUMPDEST SWAP3 SWAP2 POP POP JUMP JUMPDEST PUSH1 0x0 DUP1 PUSH1 0x0 PUSH1 0x60 DUP5 DUP7 SUB SLT ISZERO PUSH2 0x11F JUMPI PUSH2 0x11E PUSH2 0x163 JUMP JUMPDEST JUMPDEST PUSH1 0x0 PUSH2 0x12D DUP7 DUP3 DUP8 ADD PUSH2 0xF1 JUMP JUMPDEST SWAP4 POP POP PUSH1 0x20 PUSH2 0x13E DUP7 DUP3 DUP8 ADD PUSH2 0xF1 JUMP JUMPDEST SWAP3 POP POP PUSH1 0x40 PUSH2 0x14F DUP7 DUP3 DUP8 ADD PUSH2 0xF1 JUMP JUMPDEST SWAP2 POP POP SWAP3 POP SWAP3 POP SWAP3 JUMP JUMPDEST PUSH1 0x0 DUP2 SWAP1 POP SWAP2 SWAP1 POP JUMP JUMPDEST PUSH1 0x0 DUP1 REVERT JUMPDEST PUSH2 0x171 DUP2 PUSH2 0x159 JUMP JUMPDEST DUP2 EQ PUSH2 0x17C JUMPI PUSH1 0x0 DUP1 REVERT JUMPDEST POP JUMP JUMPDEST PUSH2 0xABB DUP1 PUSH2 0x18E PUSH1 0x0 CODECOPY PUSH1 0x0 RETURN INVALID PUSH1 0x80 PUSH1 0x40 MSTORE PUSH1 0x4 CALLDATASIZE LT PUSH2 0x86 JUMPI PUSH1 0x0 CALLDATALOAD PUSH1 0xE0 SHR DUP1 PUSH4 0xA6F9DAE1 GT PUSH2 0x59 JUMPI DUP1 PUSH4 0xA6F9DAE1 EQ PUSH2 0x13C JUMPI DUP1 PUSH4 0xB9D76DA9 EQ PUSH2 0x165 JUMPI DUP1 PUSH4 0xC828371E EQ PUSH2 0x1A2 JUMPI DUP1 PUSH4 0xF2C3E469 EQ PUSH2 0x1CD JUMPI DUP1 PUSH4 0xFADEAF76 EQ PUSH2 0x20A JUMPI PUSH2 0x86 JUMP JUMPDEST DUP1 PUSH4 0x1865C57D EQ PUSH2 0x8B JUMPI DUP1 PUSH4 0x35644C7B EQ PUSH2 0xB6 JUMPI DUP1 PUSH4 0x893D20E8 EQ PUSH2 0xE6 JUMPI DUP1 PUSH4 0x8EA36D47 EQ PUSH2 0x111 JUMPI JUMPDEST PUSH1 0x0 DUP1 REVERT JUMPDEST CALLVALUE DUP1 ISZERO PUSH2 0x97 JUMPI PUSH1 0x0 DUP1 REVERT JUMPDEST POP PUSH2 0xA0 PUSH2 0x235 JUMP JUMPDEST PUSH1 0x40 MLOAD PUSH2 0xAD SWAP2 SWAP1 PUSH2 0x8BA JUMP JUMPDEST PUSH1 0x40 MLOAD DUP1 SWAP2 SUB SWAP1 RETURN JUMPDEST PUSH2 0xD0 PUSH1 0x4 DUP1 CALLDATASIZE SUB DUP2 ADD SWAP1 PUSH2 0xCB SWAP2 SWAP1 PUSH2 0x760 JUMP JUMPDEST PUSH2 0x29C JUMP JUMPDEST PUSH1 0x40 MLOAD PUSH2 0xDD SWAP2 SWAP1 PUSH2 0x8F5 JUMP JUMPDEST PUSH1 0x40 MLOAD DUP1 SWAP2 SUB SWAP1 RETURN JUMPDEST CALLVALUE DUP1 ISZERO PUSH2 0xF2 JUMPI PUSH1 0x0 DUP1 REVERT JUMPDEST POP PUSH2 0xFB PUSH2 0x3C7 JUMP JUMPDEST PUSH1 0x40 MLOAD PUSH2 0x108 SWAP2 SWAP1 PUSH2 0x89F JUMP JUMPDEST PUSH1 0x40 MLOAD DUP1 SWAP2 SUB SWAP1 RETURN JUMPDEST CALLVALUE DUP1 ISZERO PUSH2 0x11D JUMPI PUSH1 0x0 DUP1 REVERT JUMPDEST POP PUSH2 0x126 PUSH2 0x3F0 JUMP JUMPDEST PUSH1 0x40 MLOAD PUSH2 0x133 SWAP2 SWAP1 PUSH2 0x910 JUMP JUMPDEST PUSH1 0x40 MLOAD DUP1 SWAP2 SUB SWAP1 RETURN JUMPDEST CALLVALUE DUP1 ISZERO PUSH2 0x148 JUMPI PUSH1 0x0 DUP1 REVERT JUMPDEST POP PUSH2 0x163 PUSH1 0x4 DUP1 CALLDATASIZE SUB DUP2 ADD SWAP1 PUSH2 0x15E SWAP2 SWAP1 PUSH2 0x733 JUMP JUMPDEST PUSH2 0x3FA JUMP JUMPDEST STOP JUMPDEST CALLVALUE DUP1 ISZERO PUSH2 0x171 JUMPI PUSH1 0x0 DUP1 REVERT JUMPDEST POP PUSH2 0x18C PUSH1 0x4 DUP1 CALLDATASIZE SUB DUP2 ADD SWAP1 PUSH2 0x187 SWAP2 SWAP1 PUSH2 0x78D JUMP JUMPDEST PUSH2 0x545 JUMP JUMPDEST PUSH1 0x40 MLOAD PUSH2 0x199 SWAP2 SWAP1 PUSH2 0x910 JUMP JUMPDEST PUSH1 0x40 MLOAD DUP1 SWAP2 SUB SWAP1 RETURN JUMPDEST CALLVALUE DUP1 ISZERO PUSH2 0x1AE JUMPI PUSH1 0x0 DUP1 REVERT JUMPDEST POP PUSH2 0x1B7 PUSH2 0x5E7 JUMP JUMPDEST PUSH1 0x40 MLOAD PUSH2 0x1C4 SWAP2 SWAP1 PUSH2 0x910 JUMP JUMPDEST PUSH1 0x40 MLOAD DUP1 SWAP2 SUB SWAP1 RETURN JUMPDEST CALLVALUE DUP1 ISZERO PUSH2 0x1D9 JUMPI PUSH1 0x0 DUP1 REVERT JUMPDEST POP PUSH2 0x1F4 PUSH1 0x4 DUP1 CALLDATASIZE SUB DUP2 ADD SWAP1 PUSH2 0x1EF SWAP2 SWAP1 PUSH2 0x78D JUMP JUMPDEST PUSH2 0x5F1 JUMP JUMPDEST PUSH1 0x40 MLOAD PUSH2 0x201 SWAP2 SWAP1 PUSH2 0x910 JUMP JUMPDEST PUSH1 0x40 MLOAD DUP1 SWAP2 SUB SWAP1 RETURN JUMPDEST CALLVALUE DUP1 ISZERO PUSH2 0x216 JUMPI PUSH1 0x0 DUP1 REVERT JUMPDEST POP PUSH2 0x21F PUSH2 0x693 JUMP JUMPDEST PUSH1 0x40 MLOAD PUSH2 0x22C SWAP2 SWAP1 PUSH2 0x910 JUMP JUMPDEST PUSH1 0x40 MLOAD DUP1 SWAP2 SUB SWAP1 RETURN JUMPDEST PUSH1 0x0 DUP1 TIMESTAMP SWAP1 POP PUSH1 0x2 SLOAD DUP2 LT ISZERO PUSH2 0x24F JUMPI PUSH1 0x0 SWAP2 POP POP PUSH2 0x299 JUMP JUMPDEST PUSH1 0x2 SLOAD DUP2 LT ISZERO DUP1 ISZERO PUSH2 0x262 JUMPI POP DUP1 PUSH1 0x3 SLOAD LT JUMPDEST ISZERO PUSH2 0x271 JUMPI PUSH1 0x1 SWAP2 POP POP PUSH2 0x299 JUMP JUMPDEST PUSH1 0x3 SLOAD DUP2 LT ISZERO DUP1 ISZERO PUSH2 0x284 JUMPI POP PUSH1 0x4 SLOAD DUP2 LT JUMPDEST ISZERO PUSH2 0x293 JUMPI PUSH1 0x2 SWAP2 POP POP PUSH2 0x299 JUMP JUMPDEST PUSH1 0x3 SWAP2 POP POP JUMPDEST SWAP1 JUMP JUMPDEST PUSH2 0x2A4 PUSH2 0x69D JUMP JUMPDEST PUSH1 0x0 PUSH1 0x40 MLOAD DUP1 PUSH1 0xA0 ADD PUSH1 0x40 MSTORE DUP1 CALLER PUSH20 0xFFFFFFFFFFFFFFFFFFFFFFFFFFFFFFFFFFFFFFFF AND DUP2 MSTORE PUSH1 0x20 ADD PUSH1 0x5 SLOAD DUP2 MSTORE PUSH1 0x20 ADD PUSH1 0x6 SLOAD DUP2 MSTORE PUSH1 0x20 ADD DUP5 PUSH1 0x1 DUP2 GT ISZERO PUSH2 0x2F0 JUMPI PUSH2 0x2EF PUSH2 0x9C2 JUMP JUMPDEST JUMPDEST DUP2 MSTORE PUSH1 0x20 ADD CALLVALUE DUP2 MSTORE POP SWAP1 POP PUSH1 0x7 DUP2 SWAP1 DUP1 PUSH1 0x1 DUP2 SLOAD ADD DUP1 DUP3 SSTORE DUP1 SWAP2 POP POP PUSH1 0x1 SWAP1 SUB SWAP1 PUSH1 0x0 MSTORE PUSH1 0x20 PUSH1 0x0 KECCAK256 SWAP1 PUSH1 0x5 MUL ADD PUSH1 0x0 SWAP1 SWAP2 SWAP1 SWAP2 SWAP1 SWAP2 POP PUSH1 0x0 DUP3 ADD MLOAD DUP2 PUSH1 0x0 ADD PUSH1 0x0 PUSH2 0x100 EXP DUP2 SLOAD DUP2 PUSH20 0xFFFFFFFFFFFFFFFFFFFFFFFFFFFFFFFFFFFFFFFF MUL NOT AND SWAP1 DUP4 PUSH20 0xFFFFFFFFFFFFFFFFFFFFFFFFFFFFFFFFFFFFFFFF AND MUL OR SWAP1 SSTORE POP PUSH1 0x20 DUP3 ADD MLOAD DUP2 PUSH1 0x1 ADD SSTORE PUSH1 0x40 DUP3 ADD MLOAD DUP2 PUSH1 0x2 ADD SSTORE PUSH1 0x60 DUP3 ADD MLOAD DUP2 PUSH1 0x3 ADD PUSH1 0x0 PUSH2 0x100 EXP DUP2 SLOAD DUP2 PUSH1 0xFF MUL NOT AND SWAP1 DUP4 PUSH1 0x1 DUP2 GT ISZERO PUSH2 0x3AD JUMPI PUSH2 0x3AC PUSH2 0x9C2 JUMP JUMPDEST JUMPDEST MUL OR SWAP1 SSTORE POP PUSH1 0x80 DUP3 ADD MLOAD DUP2 PUSH1 0x4 ADD SSTORE POP POP DUP1 SWAP2 POP POP SWAP2 SWAP1 POP JUMP JUMPDEST PUSH1 0x0 DUP1 PUSH1 0x0 SWAP1 SLOAD SWAP1 PUSH2 0x100 EXP SWAP1 DIV PUSH20 0xFFFFFFFFFFFFFFFFFFFFFFFFFFFFFFFFFFFFFFFF AND SWAP1 POP SWAP1 JUMP JUMPDEST PUSH1 0x0 PUSH1 0x3 SLOAD SWAP1 POP SWAP1 JUMP JUMPDEST PUSH1 0x0 DUP1 SLOAD SWAP1 PUSH2 0x100 EXP SWAP1 DIV PUSH20 0xFFFFFFFFFFFFFFFFFFFFFFFFFFFFFFFFFFFFFFFF AND PUSH20 0xFFFFFFFFFFFFFFFFFFFFFFFFFFFFFFFFFFFFFFFF AND CALLER PUSH20 0xFFFFFFFFFFFFFFFFFFFFFFFFFFFFFFFFFFFFFFFF AND EQ PUSH2 0x488 JUMPI PUSH1 0x40 MLOAD PUSH32 0x8C379A000000000000000000000000000000000000000000000000000000000 DUP2 MSTORE PUSH1 0x4 ADD PUSH2 0x47F SWAP1 PUSH2 0x8D5 JUMP JUMPDEST PUSH1 0x40 MLOAD DUP1 SWAP2 SUB SWAP1 REVERT JUMPDEST DUP1 PUSH20 0xFFFFFFFFFFFFFFFFFFFFFFFFFFFFFFFFFFFFFFFF AND PUSH1 0x0 DUP1 SLOAD SWAP1 PUSH2 0x100 EXP SWAP1 DIV PUSH20 0xFFFFFFFFFFFFFFFFFFFFFFFFFFFFFFFFFFFFFFFF AND PUSH20 0xFFFFFFFFFFFFFFFFFFFFFFFFFFFFFFFFFFFFFFFF AND PUSH32 0x342827C97908E5E2F71151C08502A66D44B6F758E3AC2F1DE95F02EB95F0A735 PUSH1 0x40 MLOAD PUSH1 0x40 MLOAD DUP1 SWAP2 SUB SWAP1 LOG3 DUP1 PUSH1 0x0 DUP1 PUSH2 0x100 EXP DUP2 SLOAD DUP2 PUSH20 0xFFFFFFFFFFFFFFFFFFFFFFFFFFFFFFFFFFFFFFFF MUL NOT AND SWAP1 DUP4 PUSH20 0xFFFFFFFFFFFFFFFFFFFFFFFFFFFFFFFFFFFFFFFF AND MUL OR SWAP1 SSTORE POP POP JUMP JUMPDEST PUSH1 0x0 DUP1 PUSH1 0x0 SWAP1 SLOAD SWAP1 PUSH2 0x100 EXP SWAP1 DIV PUSH20 0xFFFFFFFFFFFFFFFFFFFFFFFFFFFFFFFFFFFFFFFF AND PUSH20 0xFFFFFFFFFFFFFFFFFFFFFFFFFFFFFFFFFFFFFFFF AND CALLER PUSH20 0xFFFFFFFFFFFFFFFFFFFFFFFFFFFFFFFFFFFFFFFF AND EQ PUSH2 0x5D6 JUMPI PUSH1 0x40 MLOAD PUSH32 0x8C379A000000000000000000000000000000000000000000000000000000000 DUP2 MSTORE PUSH1 0x4 ADD PUSH2 0x5CD SWAP1 PUSH2 0x8D5 JUMP JUMPDEST PUSH1 0x40 MLOAD DUP1 SWAP2 SUB SWAP1 REVERT JUMPDEST DUP2 PUSH1 0x5 DUP2 SWAP1 SSTORE POP PUSH1 0x5 SLOAD SWAP1 POP SWAP2 SWAP1 POP JUMP JUMPDEST PUSH1 0x0 PUSH1 0x2 SLOAD SWAP1 POP SWAP1 JUMP JUMPDEST PUSH1 0x0 DUP1 PUSH1 0x0 SWAP1 SLOAD SWAP1 PUSH2 0x100 EXP SWAP1 DIV PUSH20 0xFFFFFFFFFFFFFFFFFFFFFFFFFFFFFFFFFFFFFFFF AND PUSH20 0xFFFFFFFFFFFFFFFFFFFFFFFFFFFFFFFFFFFFFFFF AND CALLER PUSH20 0xFFFFFFFFFFFFFFFFFFFFFFFFFFFFFFFFFFFFFFFF AND EQ PUSH2 0x682 JUMPI PUSH1 0x40 MLOAD PUSH32 0x8C379A000000000000000000000000000000000000000000000000000000000 DUP2 MSTORE PUSH1 0x4 ADD PUSH2 0x679 SWAP1 PUSH2 0x8D5 JUMP JUMPDEST PUSH1 0x40 MLOAD DUP1 SWAP2 SUB SWAP1 REVERT JUMPDEST DUP2 PUSH1 0x6 DUP2 SWAP1 SSTORE POP PUSH1 0x6 SLOAD SWAP1 POP SWAP2 SWAP1 POP JUMP JUMPDEST PUSH1 0x0 PUSH1 0x4 SLOAD SWAP1 POP SWAP1 JUMP JUMPDEST PUSH1 0x40 MLOAD DUP1 PUSH1 0xA0 ADD PUSH1 0x40 MSTORE DUP1 PUSH1 0x0 PUSH20 0xFFFFFFFFFFFFFFFFFFFFFFFFFFFFFFFFFFFFFFFF AND DUP2 MSTORE PUSH1 0x20 ADD PUSH1 0x0 DUP2 MSTORE PUSH1 0x20 ADD PUSH1 0x0 DUP2 MSTORE PUSH1 0x20 ADD PUSH1 0x0 PUSH1 0x1 DUP2 GT ISZERO PUSH2 0x6E7 JUMPI PUSH2 0x6E6 PUSH2 0x9C2 JUMP JUMPDEST JUMPDEST DUP2 MSTORE PUSH1 0x20 ADD PUSH1 0x0 DUP2 MSTORE POP SWAP1 JUMP JUMPDEST PUSH1 0x0 DUP2 CALLDATALOAD SWAP1 POP PUSH2 0x703 DUP2 PUSH2 0xA47 JUMP JUMPDEST SWAP3 SWAP2 POP POP JUMP JUMPDEST PUSH1 0x0 DUP2 CALLDATALOAD SWAP1 POP PUSH2 0x718 DUP2 PUSH2 0xA5E JUMP JUMPDEST SWAP3 SWAP2 POP POP JUMP JUMPDEST PUSH1 0x0 DUP2 CALLDATALOAD SWAP1 POP PUSH2 0x72D DUP2 PUSH2 0xA6E JUMP JUMPDEST SWAP3 SWAP2 POP POP JUMP JUMPDEST PUSH1 0x0 PUSH1 0x20 DUP3 DUP5 SUB SLT ISZERO PUSH2 0x749 JUMPI PUSH2 0x748 PUSH2 0x9F1 JUMP JUMPDEST JUMPDEST PUSH1 0x0 PUSH2 0x757 DUP5 DUP3 DUP6 ADD PUSH2 0x6F4 JUMP JUMPDEST SWAP2 POP POP SWAP3 SWAP2 POP POP JUMP JUMPDEST PUSH1 0x0 PUSH1 0x20 DUP3 DUP5 SUB SLT ISZERO PUSH2 0x776 JUMPI PUSH2 0x775 PUSH2 0x9F1 JUMP JUMPDEST JUMPDEST PUSH1 0x0 PUSH2 0x784 DUP5 DUP3 DUP6 ADD PUSH2 0x709 JUMP JUMPDEST SWAP2 POP POP SWAP3 SWAP2 POP POP JUMP JUMPDEST PUSH1 0x0 PUSH1 0x20 DUP3 DUP5 SUB SLT ISZERO PUSH2 0x7A3 JUMPI PUSH2 0x7A2 PUSH2 0x9F1 JUMP JUMPDEST JUMPDEST PUSH1 0x0 PUSH2 0x7B1 DUP5 DUP3 DUP6 ADD PUSH2 0x71E JUMP JUMPDEST SWAP2 POP POP SWAP3 SWAP2 POP POP JUMP JUMPDEST PUSH2 0x7C3 DUP2 PUSH2 0x93C JUMP JUMPDEST DUP3 MSTORE POP POP JUMP JUMPDEST PUSH2 0x7D2 DUP2 PUSH2 0x93C JUMP JUMPDEST DUP3 MSTORE POP POP JUMP JUMPDEST PUSH2 0x7E1 DUP2 PUSH2 0x99E JUMP JUMPDEST DUP3 MSTORE POP POP JUMP JUMPDEST PUSH2 0x7F0 DUP2 PUSH2 0x9B0 JUMP JUMPDEST DUP3 MSTORE POP POP JUMP JUMPDEST PUSH1 0x0 PUSH2 0x803 PUSH1 0x13 DUP4 PUSH2 0x92B JUMP JUMPDEST SWAP2 POP PUSH2 0x80E DUP3 PUSH2 0x9F6 JUMP JUMPDEST PUSH1 0x20 DUP3 ADD SWAP1 POP SWAP2 SWAP1 POP JUMP JUMPDEST PUSH1 0xA0 DUP3 ADD PUSH1 0x0 DUP3 ADD MLOAD PUSH2 0x82F PUSH1 0x0 DUP6 ADD DUP3 PUSH2 0x7BA JUMP JUMPDEST POP PUSH1 0x20 DUP3 ADD MLOAD PUSH2 0x842 PUSH1 0x20 DUP6 ADD DUP3 PUSH2 0x881 JUMP JUMPDEST POP PUSH1 0x40 DUP3 ADD MLOAD PUSH2 0x855 PUSH1 0x40 DUP6 ADD DUP3 PUSH2 0x881 JUMP JUMPDEST POP PUSH1 0x60 DUP3 ADD MLOAD PUSH2 0x868 PUSH1 0x60 DUP6 ADD DUP3 PUSH2 0x7D8 JUMP JUMPDEST POP PUSH1 0x80 DUP3 ADD MLOAD PUSH2 0x87B PUSH1 0x80 DUP6 ADD DUP3 PUSH2 0x881 JUMP JUMPDEST POP POP POP POP JUMP JUMPDEST PUSH2 0x88A DUP2 PUSH2 0x994 JUMP JUMPDEST DUP3 MSTORE POP POP JUMP JUMPDEST PUSH2 0x899 DUP2 PUSH2 0x994 JUMP JUMPDEST DUP3 MSTORE POP POP JUMP JUMPDEST PUSH1 0x0 PUSH1 0x20 DUP3 ADD SWAP1 POP PUSH2 0x8B4 PUSH1 0x0 DUP4 ADD DUP5 PUSH2 0x7C9 JUMP JUMPDEST SWAP3 SWAP2 POP POP JUMP JUMPDEST PUSH1 0x0 PUSH1 0x20 DUP3 ADD SWAP1 POP PUSH2 0x8CF PUSH1 0x0 DUP4 ADD DUP5 PUSH2 0x7E7 JUMP JUMPDEST SWAP3 SWAP2 POP POP JUMP JUMPDEST PUSH1 0x0 PUSH1 0x20 DUP3 ADD SWAP1 POP DUP2 DUP2 SUB PUSH1 0x0 DUP4 ADD MSTORE PUSH2 0x8EE DUP2 PUSH2 0x7F6 JUMP JUMPDEST SWAP1 POP SWAP2 SWAP1 POP JUMP JUMPDEST PUSH1 0x0 PUSH1 0xA0 DUP3 ADD SWAP1 POP PUSH2 0x90A PUSH1 0x0 DUP4 ADD DUP5 PUSH2 0x819 JUMP JUMPDEST SWAP3 SWAP2 POP POP JUMP JUMPDEST PUSH1 0x0 PUSH1 0x20 DUP3 ADD SWAP1 POP PUSH2 0x925 PUSH1 0x0 DUP4 ADD DUP5 PUSH2 0x890 JUMP JUMPDEST SWAP3 SWAP2 POP POP JUMP JUMPDEST PUSH1 0x0 DUP3 DUP3 MSTORE PUSH1 0x20 DUP3 ADD SWAP1 POP SWAP3 SWAP2 POP POP JUMP JUMPDEST PUSH1 0x0 PUSH2 0x947 DUP3 PUSH2 0x974 JUMP JUMPDEST SWAP1 POP SWAP2 SWAP1 POP JUMP JUMPDEST PUSH1 0x0 DUP2 SWAP1 POP PUSH2 0x95C DUP3 PUSH2 0xA1F JUMP JUMPDEST SWAP2 SWAP1 POP JUMP JUMPDEST PUSH1 0x0 DUP2 SWAP1 POP PUSH2 0x96F DUP3 PUSH2 0xA33 JUMP JUMPDEST SWAP2 SWAP1 POP JUMP JUMPDEST PUSH1 0x0 PUSH20 0xFFFFFFFFFFFFFFFFFFFFFFFFFFFFFFFFFFFFFFFF DUP3 AND SWAP1 POP SWAP2 SWAP1 POP JUMP JUMPDEST PUSH1 0x0 DUP2 SWAP1 POP SWAP2 SWAP1 POP JUMP JUMPDEST PUSH1 0x0 PUSH2 0x9A9 DUP3 PUSH2 0x94E JUMP JUMPDEST SWAP1 POP SWAP2 SWAP1 POP JUMP JUMPDEST PUSH1 0x0 PUSH2 0x9BB DUP3 PUSH2 0x961 JUMP JUMPDEST SWAP1 POP SWAP2 SWAP1 POP JUMP JUMPDEST PUSH32 0x4E487B7100000000000000000000000000000000000000000000000000000000 PUSH1 0x0 MSTORE PUSH1 0x21 PUSH1 0x4 MSTORE PUSH1 0x24 PUSH1 0x0 REVERT JUMPDEST PUSH1 0x0 DUP1 REVERT JUMPDEST PUSH32 0x43616C6C6572206973206E6F74206F776E657200000000000000000000000000 PUSH1 0x0 DUP3 ADD MSTORE POP JUMP JUMPDEST PUSH1 0x2 DUP2 LT PUSH2 0xA30 JUMPI PUSH2 0xA2F PUSH2 0x9C2 JUMP JUMPDEST JUMPDEST POP JUMP JUMPDEST PUSH1 0x4 DUP2 LT PUSH2 0xA44 JUMPI PUSH2 0xA43 PUSH2 0x9C2 JUMP JUMPDEST JUMPDEST POP JUMP JUMPDEST PUSH2 0xA50 DUP2 PUSH2 0x93C JUMP JUMPDEST DUP2 EQ PUSH2 0xA5B JUMPI PUSH1 0x0 DUP1 REVERT JUMPDEST POP JUMP JUMPDEST PUSH1 0x2 DUP2 LT PUSH2 0xA6B JUMPI PUSH1 0x0 DUP1 REVERT JUMPDEST POP JUMP JUMPDEST PUSH2 0xA77 DUP2 PUSH2 0x994 JUMP JUMPDEST DUP2 EQ PUSH2 0xA82 JUMPI PUSH1 0x0 DUP1 REVERT JUMPDEST POP JUMP INVALID LOG2 PUSH5 0x6970667358 0x22 SLT KECCAK256 0xED 0x2D 0x1E KECCAK256 PUSH28 0x815E3501294BE61771C9ED848C81E942A1F683FDB5618CAB2AFF0364 PUSH20 0x6F6C634300080700330000000000000000000000 "
				},
				"gasEstimates": {
					"creation": {
						"codeDepositCost": "549400",
						"executionCost": "infinite",
						"totalCost": "infinite"
					},
					"external": {
						"changeOwner(address)": "30567",
						"getBetsEndTime()": "2504",
						"getCloseTime()": "2525",
						"getOwner()": "2567",
						"getStartTime()": "2481",
						"getState()": "11102",
						"takeABet(uint8)": "infinite",
						"updateOddsA(uint256)": "infinite",
						"updateOddsB(uint256)": "infinite"
					}
				},
				"methodIdentifiers": {
					"changeOwner(address)": "a6f9dae1",
					"getBetsEndTime()": "8ea36d47",
					"getCloseTime()": "fadeaf76",
					"getOwner()": "893d20e8",
					"getStartTime()": "c828371e",
					"getState()": "1865c57d",
					"takeABet(uint8)": "35644c7b",
					"updateOddsA(uint256)": "b9d76da9",
					"updateOddsB(uint256)": "f2c3e469"
				}
			},
			"userdoc": {
				"kind": "user",
				"methods": {},
				"version": 1
			}
		}
	}
}