{
	"contracts/TheGame.sol": {
		"TheGame": {
			"abi": [
				{
					"inputs": [
						{
							"internalType": "uint256",
							"name": "_startTime",
							"type": "uint256"
						},
						{
							"internalType": "uint256",
							"name": "_betsEndTime",
							"type": "uint256"
						},
						{
							"internalType": "uint256",
							"name": "_closeTime",
							"type": "uint256"
						}
					],
					"stateMutability": "nonpayable",
					"type": "constructor"
				},
				{
					"anonymous": false,
					"inputs": [
						{
							"indexed": true,
							"internalType": "address",
							"name": "betTaker",
							"type": "address"
						},
						{
							"indexed": true,
							"internalType": "uint256",
							"name": "amount",
							"type": "uint256"
						},
						{
							"indexed": true,
							"internalType": "enum BetOpion",
							"name": "option",
							"type": "uint8"
						}
					],
					"name": "BetTaken",
					"type": "event"
				},
				{
					"anonymous": false,
					"inputs": [
						{
							"indexed": true,
							"internalType": "bytes32",
							"name": "id",
							"type": "bytes32"
						}
					],
					"name": "ChainlinkCancelled",
					"type": "event"
				},
				{
					"anonymous": false,
					"inputs": [
						{
							"indexed": true,
							"internalType": "bytes32",
							"name": "id",
							"type": "bytes32"
						}
					],
					"name": "ChainlinkFulfilled",
					"type": "event"
				},
				{
					"anonymous": false,
					"inputs": [
						{
							"indexed": true,
							"internalType": "bytes32",
							"name": "id",
							"type": "bytes32"
						}
					],
					"name": "ChainlinkRequested",
					"type": "event"
				},
				{
					"anonymous": false,
					"inputs": [
						{
							"indexed": true,
							"internalType": "address",
							"name": "oldOwner",
							"type": "address"
						},
						{
							"indexed": true,
							"internalType": "address",
							"name": "newOwner",
							"type": "address"
						}
					],
					"name": "OwnerSet",
					"type": "event"
				},
				{
					"inputs": [
						{
							"internalType": "address",
							"name": "newOwner",
							"type": "address"
						}
					],
					"name": "changeOwner",
					"outputs": [],
					"stateMutability": "nonpayable",
					"type": "function"
				},
				{
					"inputs": [
						{
							"internalType": "bytes32",
							"name": "_requestId",
							"type": "bytes32"
						},
						{
							"internalType": "uint256",
							"name": "_volume",
							"type": "uint256"
						}
					],
					"name": "fulfill",
					"outputs": [],
					"stateMutability": "nonpayable",
					"type": "function"
				},
				{
					"inputs": [],
					"name": "getBetsEndTime",
					"outputs": [
						{
							"internalType": "uint256",
							"name": "",
							"type": "uint256"
						}
					],
					"stateMutability": "view",
					"type": "function"
				},
				{
					"inputs": [],
					"name": "getCloseTime",
					"outputs": [
						{
							"internalType": "uint256",
							"name": "",
							"type": "uint256"
						}
					],
					"stateMutability": "view",
					"type": "function"
				},
				{
					"inputs": [],
					"name": "getOwner",
					"outputs": [
						{
							"internalType": "address",
							"name": "",
							"type": "address"
						}
					],
					"stateMutability": "view",
					"type": "function"
				},
				{
					"inputs": [],
					"name": "getStartTime",
					"outputs": [
						{
							"internalType": "uint256",
							"name": "",
							"type": "uint256"
						}
					],
					"stateMutability": "view",
					"type": "function"
				},
				{
					"inputs": [],
					"name": "getState",
					"outputs": [
						{
							"internalType": "enum GameState",
							"name": "",
							"type": "uint8"
						}
					],
					"stateMutability": "view",
					"type": "function"
				},
				{
					"inputs": [
						{
							"internalType": "enum BetOpion",
							"name": "option",
							"type": "uint8"
						}
					],
					"name": "setAGameWinner",
					"outputs": [
						{
							"internalType": "enum BetOpion",
							"name": "",
							"type": "uint8"
						}
					],
					"stateMutability": "nonpayable",
					"type": "function"
				},
				{
					"inputs": [
						{
							"internalType": "enum BetOpion",
							"name": "option",
							"type": "uint8"
						}
					],
					"name": "takeABet",
					"outputs": [
						{
							"internalType": "uint256",
							"name": "",
							"type": "uint256"
						}
					],
					"stateMutability": "payable",
					"type": "function"
				},
				{
					"inputs": [
						{
							"internalType": "uint256",
							"name": "odds",
							"type": "uint256"
						}
					],
					"name": "updateOddsA",
					"outputs": [
						{
							"internalType": "uint256",
							"name": "",
							"type": "uint256"
						}
					],
					"stateMutability": "nonpayable",
					"type": "function"
				},
				{
					"inputs": [
						{
							"internalType": "uint256",
							"name": "odds",
							"type": "uint256"
						}
					],
					"name": "updateOddsB",
					"outputs": [
						{
							"internalType": "uint256",
							"name": "",
							"type": "uint256"
						}
					],
					"stateMutability": "nonpayable",
					"type": "function"
				}
			],
			"devdoc": {
				"kind": "dev",
				"methods": {
					"changeOwner(address)": {
						"details": "Change owner",
						"params": {
							"newOwner": "address of new owner"
						}
					},
					"getOwner()": {
						"details": "Return owner address ",
						"returns": {
							"_0": "address of owner"
						}
					}
				},
				"version": 1
			},
			"evm": {
				"assembly": "    /* \"contracts/TheGame.sol\":380:4655  contract TheGame is Owner,  ChainlinkClient{... */\n  mstore(0x40, 0x80)\n    /* \"@chainlink/contracts/src/v0.8/ChainlinkClient.sol\":1291:1292  1 */\n  0x01\n    /* \"@chainlink/contracts/src/v0.8/ChainlinkClient.sol\":1258:1292  uint256 private s_requestCount = 1 */\n  0x05\n  sstore\n    /* \"contracts/TheGame.sol\":876:1380  constructor(uint256 _startTime, uint256 _betsEndTime, uint256 _closeTime) Owner() {... */\n  callvalue\n  dup1\n  iszero\n  tag_1\n  jumpi\n  0x00\n  dup1\n  revert\ntag_1:\n  pop\n  mload(0x40)\n  sub(codesize, bytecodeSize)\n  dup1\n  bytecodeSize\n  dup4\n  codecopy\n  dup2\n  dup2\n  add\n  0x40\n  mstore\n  dup2\n  add\n  swap1\n  tag_2\n  swap2\n  swap1\n  tag_3\n  jump\t// in\ntag_2:\n    /* \"contracts/Owner.sol\":910:920  msg.sender */\n  caller\n    /* \"contracts/Owner.sol\":889:921  OwnerSet(address(0), msg.sender) */\n  0xffffffffffffffffffffffffffffffffffffffff\n  and\n    /* \"contracts/Owner.sol\":906:907  0 */\n  0x00\n    /* \"contracts/Owner.sol\":889:921  OwnerSet(address(0), msg.sender) */\n  0xffffffffffffffffffffffffffffffffffffffff\n  and\n  0x342827c97908e5e2f71151c08502a66d44b6f758e3ac2f1de95f02eb95f0a735\n  mload(0x40)\n  mload(0x40)\n  dup1\n  swap2\n  sub\n  swap1\n  log3\n    /* \"contracts/Owner.sol\":939:949  msg.sender */\n  caller\n    /* \"contracts/Owner.sol\":931:936  owner */\n  0x00\n  dup1\n    /* \"contracts/Owner.sol\":931:949  owner = msg.sender */\n  0x0100\n  exp\n  dup2\n  sload\n  dup2\n  0xffffffffffffffffffffffffffffffffffffffff\n  mul\n  not\n  and\n  swap1\n  dup4\n  0xffffffffffffffffffffffffffffffffffffffff\n  and\n  mul\n  or\n  swap1\n  sstore\n  pop\n    /* \"contracts/TheGame.sol\":983:998  block.timestamp */\n  timestamp\n    /* \"contracts/TheGame.sol\":968:980  creationTime */\n  0x07\n    /* \"contracts/TheGame.sol\":968:998  creationTime = block.timestamp */\n  dup2\n  swap1\n  sstore\n  pop\n    /* \"contracts/TheGame.sol\":1295:1305  _startTime */\n  dup3\n    /* \"contracts/TheGame.sol\":1283:1292  startTime */\n  0x08\n    /* \"contracts/TheGame.sol\":1283:1305  startTime = _startTime */\n  dup2\n  swap1\n  sstore\n  pop\n    /* \"contracts/TheGame.sol\":1329:1341  _betsEndTime */\n  dup2\n    /* \"contracts/TheGame.sol\":1315:1326  betsEndTime */\n  0x09\n    /* \"contracts/TheGame.sol\":1315:1341  betsEndTime = _betsEndTime */\n  dup2\n  swap1\n  sstore\n  pop\n    /* \"contracts/TheGame.sol\":1363:1373  _closeTime */\n  dup1\n    /* \"contracts/TheGame.sol\":1351:1360  closeTime */\n  0x0a\n    /* \"contracts/TheGame.sol\":1351:1373  closeTime = _closeTime */\n  dup2\n  swap1\n  sstore\n  pop\n    /* \"contracts/TheGame.sol\":876:1380  constructor(uint256 _startTime, uint256 _betsEndTime, uint256 _closeTime) Owner() {... */\n  pop\n  pop\n  pop\n    /* \"contracts/TheGame.sol\":380:4655  contract TheGame is Owner,  ChainlinkClient{... */\n  jump(tag_8)\n    /* \"#utility.yul\":7:150   */\ntag_10:\n    /* \"#utility.yul\":64:69   */\n  0x00\n    /* \"#utility.yul\":95:101   */\n  dup2\n    /* \"#utility.yul\":89:102   */\n  mload\n    /* \"#utility.yul\":80:102   */\n  swap1\n  pop\n    /* \"#utility.yul\":111:144   */\n  tag_12\n    /* \"#utility.yul\":138:143   */\n  dup2\n    /* \"#utility.yul\":111:144   */\n  tag_13\n  jump\t// in\ntag_12:\n    /* \"#utility.yul\":7:150   */\n  swap3\n  swap2\n  pop\n  pop\n  jump\t// out\n    /* \"#utility.yul\":156:819   */\ntag_3:\n    /* \"#utility.yul\":244:250   */\n  0x00\n    /* \"#utility.yul\":252:258   */\n  dup1\n    /* \"#utility.yul\":260:266   */\n  0x00\n    /* \"#utility.yul\":309:311   */\n  0x60\n    /* \"#utility.yul\":297:306   */\n  dup5\n    /* \"#utility.yul\":288:295   */\n  dup7\n    /* \"#utility.yul\":284:307   */\n  sub\n    /* \"#utility.yul\":280:312   */\n  slt\n    /* \"#utility.yul\":277:396   */\n  iszero\n  tag_15\n  jumpi\n    /* \"#utility.yul\":315:394   */\n  tag_16\n  tag_17\n  jump\t// in\ntag_16:\n    /* \"#utility.yul\":277:396   */\ntag_15:\n    /* \"#utility.yul\":435:436   */\n  0x00\n    /* \"#utility.yul\":460:524   */\n  tag_18\n    /* \"#utility.yul\":516:523   */\n  dup7\n    /* \"#utility.yul\":507:513   */\n  dup3\n    /* \"#utility.yul\":496:505   */\n  dup8\n    /* \"#utility.yul\":492:514   */\n  add\n    /* \"#utility.yul\":460:524   */\n  tag_10\n  jump\t// in\ntag_18:\n    /* \"#utility.yul\":450:524   */\n  swap4\n  pop\n    /* \"#utility.yul\":406:534   */\n  pop\n    /* \"#utility.yul\":573:575   */\n  0x20\n    /* \"#utility.yul\":599:663   */\n  tag_19\n    /* \"#utility.yul\":655:662   */\n  dup7\n    /* \"#utility.yul\":646:652   */\n  dup3\n    /* \"#utility.yul\":635:644   */\n  dup8\n    /* \"#utility.yul\":631:653   */\n  add\n    /* \"#utility.yul\":599:663   */\n  tag_10\n  jump\t// in\ntag_19:\n    /* \"#utility.yul\":589:663   */\n  swap3\n  pop\n    /* \"#utility.yul\":544:673   */\n  pop\n    /* \"#utility.yul\":712:714   */\n  0x40\n    /* \"#utility.yul\":738:802   */\n  tag_20\n    /* \"#utility.yul\":794:801   */\n  dup7\n    /* \"#utility.yul\":785:791   */\n  dup3\n    /* \"#utility.yul\":774:783   */\n  dup8\n    /* \"#utility.yul\":770:792   */\n  add\n    /* \"#utility.yul\":738:802   */\n  tag_10\n  jump\t// in\ntag_20:\n    /* \"#utility.yul\":728:802   */\n  swap2\n  pop\n    /* \"#utility.yul\":683:812   */\n  pop\n    /* \"#utility.yul\":156:819   */\n  swap3\n  pop\n  swap3\n  pop\n  swap3\n  jump\t// out\n    /* \"#utility.yul\":906:983   */\ntag_23:\n    /* \"#utility.yul\":943:950   */\n  0x00\n    /* \"#utility.yul\":972:977   */\n  dup2\n    /* \"#utility.yul\":961:977   */\n  swap1\n  pop\n    /* \"#utility.yul\":906:983   */\n  swap2\n  swap1\n  pop\n  jump\t// out\n    /* \"#utility.yul\":1112:1229   */\ntag_17:\n    /* \"#utility.yul\":1221:1222   */\n  0x00\n    /* \"#utility.yul\":1218:1219   */\n  dup1\n    /* \"#utility.yul\":1211:1223   */\n  revert\n    /* \"#utility.yul\":1235:1357   */\ntag_13:\n    /* \"#utility.yul\":1308:1332   */\n  tag_29\n    /* \"#utility.yul\":1326:1331   */\n  dup2\n    /* \"#utility.yul\":1308:1332   */\n  tag_23\n  jump\t// in\ntag_29:\n    /* \"#utility.yul\":1301:1306   */\n  dup2\n    /* \"#utility.yul\":1298:1333   */\n  eq\n    /* \"#utility.yul\":1288:1351   */\n  tag_30\n  jumpi\n    /* \"#utility.yul\":1347:1348   */\n  0x00\n    /* \"#utility.yul\":1344:1345   */\n  dup1\n    /* \"#utility.yul\":1337:1349   */\n  revert\n    /* \"#utility.yul\":1288:1351   */\ntag_30:\n    /* \"#utility.yul\":1235:1357   */\n  pop\n  jump\t// out\n    /* \"contracts/TheGame.sol\":380:4655  contract TheGame is Owner,  ChainlinkClient{... */\ntag_8:\n  dataSize(sub_0)\n  dup1\n  dataOffset(sub_0)\n  0x00\n  codecopy\n  0x00\n  return\nstop\n\nsub_0: assembly {\n        /* \"contracts/TheGame.sol\":380:4655  contract TheGame is Owner,  ChainlinkClient{... */\n      mstore(0x40, 0x80)\n      jumpi(tag_1, lt(calldatasize, 0x04))\n      shr(0xe0, calldataload(0x00))\n      dup1\n      0xa6f9dae1\n      gt\n      tag_13\n      jumpi\n      dup1\n      0xa6f9dae1\n      eq\n      tag_7\n      jumpi\n      dup1\n      0xb9d76da9\n      eq\n      tag_8\n      jumpi\n      dup1\n      0xc828371e\n      eq\n      tag_9\n      jumpi\n      dup1\n      0xdd1c828a\n      eq\n      tag_10\n      jumpi\n      dup1\n      0xf2c3e469\n      eq\n      tag_11\n      jumpi\n      dup1\n      0xfadeaf76\n      eq\n      tag_12\n      jumpi\n      jump(tag_1)\n    tag_13:\n      dup1\n      0x1865c57d\n      eq\n      tag_2\n      jumpi\n      dup1\n      0x35644c7b\n      eq\n      tag_3\n      jumpi\n      dup1\n      0x4357855e\n      eq\n      tag_4\n      jumpi\n      dup1\n      0x893d20e8\n      eq\n      tag_5\n      jumpi\n      dup1\n      0x8ea36d47\n      eq\n      tag_6\n      jumpi\n    tag_1:\n      0x00\n      dup1\n      revert\n        /* \"contracts/TheGame.sol\":1669:2091  function getState() public view returns(GameState) {... */\n    tag_2:\n      callvalue\n      dup1\n      iszero\n      tag_14\n      jumpi\n      0x00\n      dup1\n      revert\n    tag_14:\n      pop\n      tag_15\n      tag_16\n      jump\t// in\n    tag_15:\n      mload(0x40)\n      tag_17\n      swap2\n      swap1\n      tag_18\n      jump\t// in\n    tag_17:\n      mload(0x40)\n      dup1\n      swap2\n      sub\n      swap1\n      return\n        /* \"contracts/TheGame.sol\":2714:3041  function takeABet(BetOpion option) public payable returns(uint256){... */\n    tag_3:\n      tag_19\n      0x04\n      dup1\n      calldatasize\n      sub\n      dup2\n      add\n      swap1\n      tag_20\n      swap2\n      swap1\n      tag_21\n      jump\t// in\n    tag_20:\n      tag_22\n      jump\t// in\n    tag_19:\n      mload(0x40)\n      tag_23\n      swap2\n      swap1\n      tag_24\n      jump\t// in\n    tag_23:\n      mload(0x40)\n      dup1\n      swap2\n      sub\n      swap1\n      return\n        /* \"contracts/TheGame.sol\":4376:4502  function fulfill(bytes32 _requestId, uint256 _volume) public recordChainlinkFulfillment(_requestId)... */\n    tag_4:\n      callvalue\n      dup1\n      iszero\n      tag_25\n      jumpi\n      0x00\n      dup1\n      revert\n    tag_25:\n      pop\n      tag_26\n      0x04\n      dup1\n      calldatasize\n      sub\n      dup2\n      add\n      swap1\n      tag_27\n      swap2\n      swap1\n      tag_28\n      jump\t// in\n    tag_27:\n      tag_29\n      jump\t// in\n    tag_26:\n      stop\n        /* \"contracts/Owner.sol\":1262:1343  function getOwner() external view returns (address) {... */\n    tag_5:\n      callvalue\n      dup1\n      iszero\n      tag_30\n      jumpi\n      0x00\n      dup1\n      revert\n    tag_30:\n      pop\n      tag_31\n      tag_32\n      jump\t// in\n    tag_31:\n      mload(0x40)\n      tag_33\n      swap2\n      swap1\n      tag_34\n      jump\t// in\n    tag_33:\n      mload(0x40)\n      dup1\n      swap2\n      sub\n      swap1\n      return\n        /* \"contracts/TheGame.sol\":1479:1570  function getBetsEndTime() public view returns(uint256) {... */\n    tag_6:\n      callvalue\n      dup1\n      iszero\n      tag_35\n      jumpi\n      0x00\n      dup1\n      revert\n    tag_35:\n      pop\n      tag_36\n      tag_37\n      jump\t// in\n    tag_36:\n      mload(0x40)\n      tag_38\n      swap2\n      swap1\n      tag_24\n      jump\t// in\n    tag_38:\n      mload(0x40)\n      dup1\n      swap2\n      sub\n      swap1\n      return\n        /* \"contracts/Owner.sol\":1047:1174  function changeOwner(address newOwner) public isOwner {... */\n    tag_7:\n      callvalue\n      dup1\n      iszero\n      tag_39\n      jumpi\n      0x00\n      dup1\n      revert\n    tag_39:\n      pop\n      tag_40\n      0x04\n      dup1\n      calldatasize\n      sub\n      dup2\n      add\n      swap1\n      tag_41\n      swap2\n      swap1\n      tag_42\n      jump\t// in\n    tag_41:\n      tag_43\n      jump\t// in\n    tag_40:\n      stop\n        /* \"contracts/TheGame.sol\":2171:2398  function updateOddsA(uint256 odds) public isOwner returns(uint256) {... */\n    tag_8:\n      callvalue\n      dup1\n      iszero\n      tag_44\n      jumpi\n      0x00\n      dup1\n      revert\n    tag_44:\n      pop\n      tag_45\n      0x04\n      dup1\n      calldatasize\n      sub\n      dup2\n      add\n      swap1\n      tag_46\n      swap2\n      swap1\n      tag_47\n      jump\t// in\n    tag_46:\n      tag_48\n      jump\t// in\n    tag_45:\n      mload(0x40)\n      tag_49\n      swap2\n      swap1\n      tag_24\n      jump\t// in\n    tag_49:\n      mload(0x40)\n      dup1\n      swap2\n      sub\n      swap1\n      return\n        /* \"contracts/TheGame.sol\":1386:1473  function getStartTime() public view returns(uint256) {... */\n    tag_9:\n      callvalue\n      dup1\n      iszero\n      tag_50\n      jumpi\n      0x00\n      dup1\n      revert\n    tag_50:\n      pop\n      tag_51\n      tag_52\n      jump\t// in\n    tag_51:\n      mload(0x40)\n      tag_53\n      swap2\n      swap1\n      tag_24\n      jump\t// in\n    tag_53:\n      mload(0x40)\n      dup1\n      swap2\n      sub\n      swap1\n      return\n        /* \"contracts/TheGame.sol\":3120:3407  function setAGameWinner(BetOpion option) public isOwner returns(BetOpion){... */\n    tag_10:\n      callvalue\n      dup1\n      iszero\n      tag_54\n      jumpi\n      0x00\n      dup1\n      revert\n    tag_54:\n      pop\n      tag_55\n      0x04\n      dup1\n      calldatasize\n      sub\n      dup2\n      add\n      swap1\n      tag_56\n      swap2\n      swap1\n      tag_21\n      jump\t// in\n    tag_56:\n      tag_57\n      jump\t// in\n    tag_55:\n      mload(0x40)\n      tag_58\n      swap2\n      swap1\n      tag_59\n      jump\t// in\n    tag_58:\n      mload(0x40)\n      dup1\n      swap2\n      sub\n      swap1\n      return\n        /* \"contracts/TheGame.sol\":2408:2635  function updateOddsB(uint256 odds) public isOwner returns(uint256) {... */\n    tag_11:\n      callvalue\n      dup1\n      iszero\n      tag_60\n      jumpi\n      0x00\n      dup1\n      revert\n    tag_60:\n      pop\n      tag_61\n      0x04\n      dup1\n      calldatasize\n      sub\n      dup2\n      add\n      swap1\n      tag_62\n      swap2\n      swap1\n      tag_47\n      jump\t// in\n    tag_62:\n      tag_63\n      jump\t// in\n    tag_61:\n      mload(0x40)\n      tag_64\n      swap2\n      swap1\n      tag_24\n      jump\t// in\n    tag_64:\n      mload(0x40)\n      dup1\n      swap2\n      sub\n      swap1\n      return\n        /* \"contracts/TheGame.sol\":1576:1663  function getCloseTime() public view returns(uint256) {... */\n    tag_12:\n      callvalue\n      dup1\n      iszero\n      tag_65\n      jumpi\n      0x00\n      dup1\n      revert\n    tag_65:\n      pop\n      tag_66\n      tag_67\n      jump\t// in\n    tag_66:\n      mload(0x40)\n      tag_68\n      swap2\n      swap1\n      tag_24\n      jump\t// in\n    tag_68:\n      mload(0x40)\n      dup1\n      swap2\n      sub\n      swap1\n      return\n        /* \"contracts/TheGame.sol\":1669:2091  function getState() public view returns(GameState) {... */\n    tag_16:\n        /* \"contracts/TheGame.sol\":1709:1718  GameState */\n      0x00\n        /* \"contracts/TheGame.sol\":1730:1740  uint256 ts */\n      dup1\n        /* \"contracts/TheGame.sol\":1743:1758  block.timestamp */\n      timestamp\n        /* \"contracts/TheGame.sol\":1730:1758  uint256 ts = block.timestamp */\n      swap1\n      pop\n        /* \"contracts/TheGame.sol\":1777:1786  startTime */\n      sload(0x08)\n        /* \"contracts/TheGame.sol\":1772:1774  ts */\n      dup2\n        /* \"contracts/TheGame.sol\":1772:1786  ts < startTime */\n      lt\n        /* \"contracts/TheGame.sol\":1768:2084  if (ts < startTime)... */\n      iszero\n      tag_70\n      jumpi\n        /* \"contracts/TheGame.sol\":1807:1824  GameState.CREATED */\n      0x00\n        /* \"contracts/TheGame.sol\":1800:1824  return GameState.CREATED */\n      swap2\n      pop\n      pop\n      jump(tag_69)\n        /* \"contracts/TheGame.sol\":1768:2084  if (ts < startTime)... */\n    tag_70:\n        /* \"contracts/TheGame.sol\":1856:1858  ts */\n      dup1\n        /* \"contracts/TheGame.sol\":1843:1852  startTime */\n      sload(0x08)\n        /* \"contracts/TheGame.sol\":1843:1858  startTime <= ts */\n      gt\n      iszero\n        /* \"contracts/TheGame.sol\":1843:1878  startTime <= ts && ts < betsEndTime */\n      dup1\n      iszero\n      tag_72\n      jumpi\n      pop\n        /* \"contracts/TheGame.sol\":1867:1878  betsEndTime */\n      sload(0x09)\n        /* \"contracts/TheGame.sol\":1862:1864  ts */\n      dup2\n        /* \"contracts/TheGame.sol\":1862:1878  ts < betsEndTime */\n      lt\n        /* \"contracts/TheGame.sol\":1843:1878  startTime <= ts && ts < betsEndTime */\n    tag_72:\n        /* \"contracts/TheGame.sol\":1839:2084  if (startTime <= ts && ts < betsEndTime)... */\n      iszero\n      tag_73\n      jumpi\n        /* \"contracts/TheGame.sol\":1899:1913  GameState.OPEN */\n      0x01\n        /* \"contracts/TheGame.sol\":1892:1913  return GameState.OPEN */\n      swap2\n      pop\n      pop\n      jump(tag_69)\n        /* \"contracts/TheGame.sol\":1839:2084  if (startTime <= ts && ts < betsEndTime)... */\n    tag_73:\n        /* \"contracts/TheGame.sol\":1947:1949  ts */\n      dup1\n        /* \"contracts/TheGame.sol\":1932:1943  betsEndTime */\n      sload(0x09)\n        /* \"contracts/TheGame.sol\":1932:1949  betsEndTime <= ts */\n      gt\n      iszero\n        /* \"contracts/TheGame.sol\":1932:1967  betsEndTime <= ts && ts < closeTime */\n      dup1\n      iszero\n      tag_75\n      jumpi\n      pop\n        /* \"contracts/TheGame.sol\":1958:1967  closeTime */\n      sload(0x0a)\n        /* \"contracts/TheGame.sol\":1953:1955  ts */\n      dup2\n        /* \"contracts/TheGame.sol\":1953:1967  ts < closeTime */\n      lt\n        /* \"contracts/TheGame.sol\":1932:1967  betsEndTime <= ts && ts < closeTime */\n    tag_75:\n        /* \"contracts/TheGame.sol\":1928:2084  if (betsEndTime <= ts && ts < closeTime)... */\n      iszero\n      tag_76\n      jumpi\n        /* \"contracts/TheGame.sol\":1988:2009  GameState.BETS_CLOSED */\n      0x02\n        /* \"contracts/TheGame.sol\":1981:2009  return GameState.BETS_CLOSED */\n      swap2\n      pop\n      pop\n      jump(tag_69)\n        /* \"contracts/TheGame.sol\":1928:2084  if (betsEndTime <= ts && ts < closeTime)... */\n    tag_76:\n        /* \"contracts/TheGame.sol\":2066:2084  GameState.FINISHED */\n      0x03\n        /* \"contracts/TheGame.sol\":2059:2084  return GameState.FINISHED */\n      swap2\n      pop\n      pop\n        /* \"contracts/TheGame.sol\":1669:2091  function getState() public view returns(GameState) {... */\n    tag_69:\n      swap1\n      jump\t// out\n        /* \"contracts/TheGame.sol\":2714:3041  function takeABet(BetOpion option) public payable returns(uint256){... */\n    tag_22:\n        /* \"contracts/TheGame.sol\":2772:2779  uint256 */\n      0x00\n        /* \"contracts/TheGame.sol\":2839:2853  Bet memory bet */\n      dup1\n        /* \"contracts/TheGame.sol\":2856:2918  Bet(msg.sender, currentOddsA, currentOddsB, option, msg.value) */\n      mload(0x40)\n      dup1\n      0xa0\n      add\n      0x40\n      mstore\n      dup1\n        /* \"contracts/TheGame.sol\":2860:2870  msg.sender */\n      caller\n        /* \"contracts/TheGame.sol\":2856:2918  Bet(msg.sender, currentOddsA, currentOddsB, option, msg.value) */\n      0xffffffffffffffffffffffffffffffffffffffff\n      and\n      dup2\n      mstore\n      0x20\n      add\n        /* \"contracts/TheGame.sol\":2872:2884  currentOddsA */\n      sload(0x0b)\n        /* \"contracts/TheGame.sol\":2856:2918  Bet(msg.sender, currentOddsA, currentOddsB, option, msg.value) */\n      dup2\n      mstore\n      0x20\n      add\n        /* \"contracts/TheGame.sol\":2886:2898  currentOddsB */\n      sload(0x0c)\n        /* \"contracts/TheGame.sol\":2856:2918  Bet(msg.sender, currentOddsA, currentOddsB, option, msg.value) */\n      dup2\n      mstore\n      0x20\n      add\n        /* \"contracts/TheGame.sol\":2900:2906  option */\n      dup5\n        /* \"contracts/TheGame.sol\":2856:2918  Bet(msg.sender, currentOddsA, currentOddsB, option, msg.value) */\n      0x01\n      dup2\n      gt\n      iszero\n      tag_79\n      jumpi\n      tag_80\n      tag_81\n      jump\t// in\n    tag_80:\n    tag_79:\n      dup2\n      mstore\n      0x20\n      add\n        /* \"contracts/TheGame.sol\":2908:2917  msg.value */\n      callvalue\n        /* \"contracts/TheGame.sol\":2856:2918  Bet(msg.sender, currentOddsA, currentOddsB, option, msg.value) */\n      dup2\n      mstore\n      pop\n        /* \"contracts/TheGame.sol\":2839:2918  Bet memory bet = Bet(msg.sender, currentOddsA, currentOddsB, option, msg.value) */\n      swap1\n      pop\n        /* \"contracts/TheGame.sol\":2928:2932  bets */\n      0x0e\n        /* \"contracts/TheGame.sol\":2938:2941  bet */\n      dup2\n        /* \"contracts/TheGame.sol\":2928:2942  bets.push(bet) */\n      swap1\n      dup1\n      0x01\n      dup2\n      sload\n      add\n      dup1\n      dup3\n      sstore\n      dup1\n      swap2\n      pop\n      pop\n      0x01\n      swap1\n      sub\n      swap1\n      0x00\n      mstore\n      keccak256(0x00, 0x20)\n      swap1\n      0x05\n      mul\n      add\n      0x00\n      swap1\n      swap2\n      swap1\n      swap2\n      swap1\n      swap2\n      pop\n      0x00\n      dup3\n      add\n      mload\n      dup2\n      0x00\n      add\n      exp(0x0100, 0x00)\n      dup2\n      sload\n      dup2\n      0xffffffffffffffffffffffffffffffffffffffff\n      mul\n      not\n      and\n      swap1\n      dup4\n      0xffffffffffffffffffffffffffffffffffffffff\n      and\n      mul\n      or\n      swap1\n      sstore\n      pop\n      0x20\n      dup3\n      add\n      mload\n      dup2\n      0x01\n      add\n      sstore\n      0x40\n      dup3\n      add\n      mload\n      dup2\n      0x02\n      add\n      sstore\n      0x60\n      dup3\n      add\n      mload\n      dup2\n      0x03\n      add\n      exp(0x0100, 0x00)\n      dup2\n      sload\n      dup2\n      0xff\n      mul\n      not\n      and\n      swap1\n      dup4\n      0x01\n      dup2\n      gt\n      iszero\n      tag_83\n      jumpi\n      tag_84\n      tag_81\n      jump\t// in\n    tag_84:\n    tag_83:\n      mul\n      or\n      swap1\n      sstore\n      pop\n      0x80\n      dup3\n      add\n      mload\n      dup2\n      0x04\n      add\n      sstore\n      pop\n      pop\n        /* \"contracts/TheGame.sol\":2990:2993  bet */\n      dup1\n        /* \"contracts/TheGame.sol\":2990:3005  bet.betTakenFor */\n      0x60\n      add\n      mload\n        /* \"contracts/TheGame.sol\":2957:3006  BetTaken(bet.player, bet.amount, bet.betTakenFor) */\n      0x01\n      dup2\n      gt\n      iszero\n      tag_85\n      jumpi\n      tag_86\n      tag_81\n      jump\t// in\n    tag_86:\n    tag_85:\n        /* \"contracts/TheGame.sol\":2978:2981  bet */\n      dup2\n        /* \"contracts/TheGame.sol\":2978:2988  bet.amount */\n      0x80\n      add\n      mload\n        /* \"contracts/TheGame.sol\":2966:2969  bet */\n      dup3\n        /* \"contracts/TheGame.sol\":2966:2976  bet.player */\n      0x00\n      add\n      mload\n        /* \"contracts/TheGame.sol\":2957:3006  BetTaken(bet.player, bet.amount, bet.betTakenFor) */\n      0xffffffffffffffffffffffffffffffffffffffff\n      and\n      0xd0ec3d0f31fea1291096288253382fdc9811dcf678e1e7628eb851cef2ba0a11\n      mload(0x40)\n      mload(0x40)\n      dup1\n      swap2\n      sub\n      swap1\n      log4\n        /* \"contracts/TheGame.sol\":3023:3027  bets */\n      0x0e\n        /* \"contracts/TheGame.sol\":3023:3034  bets.length */\n      dup1\n      sload\n      swap1\n      pop\n        /* \"contracts/TheGame.sol\":3016:3034  return bets.length */\n      swap2\n      pop\n      pop\n        /* \"contracts/TheGame.sol\":2714:3041  function takeABet(BetOpion option) public payable returns(uint256){... */\n      swap2\n      swap1\n      pop\n      jump\t// out\n        /* \"contracts/TheGame.sol\":4376:4502  function fulfill(bytes32 _requestId, uint256 _volume) public recordChainlinkFulfillment(_requestId)... */\n    tag_29:\n        /* \"contracts/TheGame.sol\":4464:4474  _requestId */\n      dup2\n        /* \"@chainlink/contracts/src/v0.8/ChainlinkClient.sol\":11663:11680  s_pendingRequests */\n      0x06\n        /* \"@chainlink/contracts/src/v0.8/ChainlinkClient.sol\":11663:11691  s_pendingRequests[requestId] */\n      0x00\n        /* \"@chainlink/contracts/src/v0.8/ChainlinkClient.sol\":11681:11690  requestId */\n      dup3\n        /* \"@chainlink/contracts/src/v0.8/ChainlinkClient.sol\":11663:11691  s_pendingRequests[requestId] */\n      dup2\n      mstore\n      0x20\n      add\n      swap1\n      dup2\n      mstore\n      0x20\n      add\n      0x00\n      keccak256\n      0x00\n      swap1\n      sload\n      swap1\n      0x0100\n      exp\n      swap1\n      div\n      0xffffffffffffffffffffffffffffffffffffffff\n      and\n        /* \"@chainlink/contracts/src/v0.8/ChainlinkClient.sol\":11649:11691  msg.sender == s_pendingRequests[requestId] */\n      0xffffffffffffffffffffffffffffffffffffffff\n      and\n        /* \"@chainlink/contracts/src/v0.8/ChainlinkClient.sol\":11649:11659  msg.sender */\n      caller\n        /* \"@chainlink/contracts/src/v0.8/ChainlinkClient.sol\":11649:11691  msg.sender == s_pendingRequests[requestId] */\n      0xffffffffffffffffffffffffffffffffffffffff\n      and\n      eq\n        /* \"@chainlink/contracts/src/v0.8/ChainlinkClient.sol\":11641:11736  require(msg.sender == s_pendingRequests[requestId], \"Source must be the oracle of the request\") */\n      tag_88\n      jumpi\n      mload(0x40)\n      0x08c379a000000000000000000000000000000000000000000000000000000000\n      dup2\n      mstore\n      0x04\n      add\n      tag_89\n      swap1\n      tag_90\n      jump\t// in\n    tag_89:\n      mload(0x40)\n      dup1\n      swap2\n      sub\n      swap1\n      revert\n    tag_88:\n        /* \"@chainlink/contracts/src/v0.8/ChainlinkClient.sol\":11749:11766  s_pendingRequests */\n      0x06\n        /* \"@chainlink/contracts/src/v0.8/ChainlinkClient.sol\":11749:11777  s_pendingRequests[requestId] */\n      0x00\n        /* \"@chainlink/contracts/src/v0.8/ChainlinkClient.sol\":11767:11776  requestId */\n      dup3\n        /* \"@chainlink/contracts/src/v0.8/ChainlinkClient.sol\":11749:11777  s_pendingRequests[requestId] */\n      dup2\n      mstore\n      0x20\n      add\n      swap1\n      dup2\n      mstore\n      0x20\n      add\n      0x00\n      keccak256\n      0x00\n        /* \"@chainlink/contracts/src/v0.8/ChainlinkClient.sol\":11742:11777  delete s_pendingRequests[requestId] */\n      0x0100\n      exp\n      dup2\n      sload\n      swap1\n      0xffffffffffffffffffffffffffffffffffffffff\n      mul\n      not\n      and\n      swap1\n      sstore\n        /* \"@chainlink/contracts/src/v0.8/ChainlinkClient.sol\":11807:11816  requestId */\n      dup1\n        /* \"@chainlink/contracts/src/v0.8/ChainlinkClient.sol\":11788:11817  ChainlinkFulfilled(requestId) */\n      0x7cc135e0cebb02c3480ae5d74d377283180a2601f8f644edf7987b009316c63a\n      mload(0x40)\n      mload(0x40)\n      dup1\n      swap2\n      sub\n      swap1\n      log2\n        /* \"contracts/TheGame.sol\":4376:4502  function fulfill(bytes32 _requestId, uint256 _volume) public recordChainlinkFulfillment(_requestId)... */\n      pop\n      pop\n      pop\n      jump\t// out\n        /* \"contracts/Owner.sol\":1262:1343  function getOwner() external view returns (address) {... */\n    tag_32:\n        /* \"contracts/Owner.sol\":1305:1312  address */\n      0x00\n        /* \"contracts/Owner.sol\":1331:1336  owner */\n      dup1\n      0x00\n      swap1\n      sload\n      swap1\n      0x0100\n      exp\n      swap1\n      div\n      0xffffffffffffffffffffffffffffffffffffffff\n      and\n        /* \"contracts/Owner.sol\":1324:1336  return owner */\n      swap1\n      pop\n        /* \"contracts/Owner.sol\":1262:1343  function getOwner() external view returns (address) {... */\n      swap1\n      jump\t// out\n        /* \"contracts/TheGame.sol\":1479:1570  function getBetsEndTime() public view returns(uint256) {... */\n    tag_37:\n        /* \"contracts/TheGame.sol\":1525:1532  uint256 */\n      0x00\n        /* \"contracts/TheGame.sol\":1552:1563  betsEndTime */\n      sload(0x09)\n        /* \"contracts/TheGame.sol\":1545:1563  return betsEndTime */\n      swap1\n      pop\n        /* \"contracts/TheGame.sol\":1479:1570  function getBetsEndTime() public view returns(uint256) {... */\n      swap1\n      jump\t// out\n        /* \"contracts/Owner.sol\":1047:1174  function changeOwner(address newOwner) public isOwner {... */\n    tag_43:\n        /* \"contracts/Owner.sol\":807:812  owner */\n      0x00\n      dup1\n      sload\n      swap1\n      0x0100\n      exp\n      swap1\n      div\n      0xffffffffffffffffffffffffffffffffffffffff\n      and\n        /* \"contracts/Owner.sol\":793:812  msg.sender == owner */\n      0xffffffffffffffffffffffffffffffffffffffff\n      and\n        /* \"contracts/Owner.sol\":793:803  msg.sender */\n      caller\n        /* \"contracts/Owner.sol\":793:812  msg.sender == owner */\n      0xffffffffffffffffffffffffffffffffffffffff\n      and\n      eq\n        /* \"contracts/Owner.sol\":785:836  require(msg.sender == owner, \"Caller is not owner\") */\n      tag_95\n      jumpi\n      mload(0x40)\n      0x08c379a000000000000000000000000000000000000000000000000000000000\n      dup2\n      mstore\n      0x04\n      add\n      tag_96\n      swap1\n      tag_97\n      jump\t// in\n    tag_96:\n      mload(0x40)\n      dup1\n      swap2\n      sub\n      swap1\n      revert\n    tag_95:\n        /* \"contracts/Owner.sol\":1132:1140  newOwner */\n      dup1\n        /* \"contracts/Owner.sol\":1116:1141  OwnerSet(owner, newOwner) */\n      0xffffffffffffffffffffffffffffffffffffffff\n      and\n        /* \"contracts/Owner.sol\":1125:1130  owner */\n      0x00\n      dup1\n      sload\n      swap1\n      0x0100\n      exp\n      swap1\n      div\n      0xffffffffffffffffffffffffffffffffffffffff\n      and\n        /* \"contracts/Owner.sol\":1116:1141  OwnerSet(owner, newOwner) */\n      0xffffffffffffffffffffffffffffffffffffffff\n      and\n      0x342827c97908e5e2f71151c08502a66d44b6f758e3ac2f1de95f02eb95f0a735\n      mload(0x40)\n      mload(0x40)\n      dup1\n      swap2\n      sub\n      swap1\n      log3\n        /* \"contracts/Owner.sol\":1159:1167  newOwner */\n      dup1\n        /* \"contracts/Owner.sol\":1151:1156  owner */\n      0x00\n      dup1\n        /* \"contracts/Owner.sol\":1151:1167  owner = newOwner */\n      0x0100\n      exp\n      dup2\n      sload\n      dup2\n      0xffffffffffffffffffffffffffffffffffffffff\n      mul\n      not\n      and\n      swap1\n      dup4\n      0xffffffffffffffffffffffffffffffffffffffff\n      and\n      mul\n      or\n      swap1\n      sstore\n      pop\n        /* \"contracts/Owner.sol\":1047:1174  function changeOwner(address newOwner) public isOwner {... */\n      pop\n      jump\t// out\n        /* \"contracts/TheGame.sol\":2171:2398  function updateOddsA(uint256 odds) public isOwner returns(uint256) {... */\n    tag_48:\n        /* \"contracts/TheGame.sol\":2229:2236  uint256 */\n      0x00\n        /* \"contracts/Owner.sol\":807:812  owner */\n      dup1\n      0x00\n      swap1\n      sload\n      swap1\n      0x0100\n      exp\n      swap1\n      div\n      0xffffffffffffffffffffffffffffffffffffffff\n      and\n        /* \"contracts/Owner.sol\":793:812  msg.sender == owner */\n      0xffffffffffffffffffffffffffffffffffffffff\n      and\n        /* \"contracts/Owner.sol\":793:803  msg.sender */\n      caller\n        /* \"contracts/Owner.sol\":793:812  msg.sender == owner */\n      0xffffffffffffffffffffffffffffffffffffffff\n      and\n      eq\n        /* \"contracts/Owner.sol\":785:836  require(msg.sender == owner, \"Caller is not owner\") */\n      tag_100\n      jumpi\n      mload(0x40)\n      0x08c379a000000000000000000000000000000000000000000000000000000000\n      dup2\n      mstore\n      0x04\n      add\n      tag_101\n      swap1\n      tag_97\n      jump\t// in\n    tag_101:\n      mload(0x40)\n      dup1\n      swap2\n      sub\n      swap1\n      revert\n    tag_100:\n        /* \"contracts/TheGame.sol\":2270:2288  GameState.FINISHED */\n      0x03\n        /* \"contracts/TheGame.sol\":2256:2288  getState() != GameState.FINISHED */\n      dup1\n      dup2\n      gt\n      iszero\n      tag_103\n      jumpi\n      tag_104\n      tag_81\n      jump\t// in\n    tag_104:\n    tag_103:\n        /* \"contracts/TheGame.sol\":2256:2266  getState() */\n      tag_105\n        /* \"contracts/TheGame.sol\":2256:2264  getState */\n      tag_16\n        /* \"contracts/TheGame.sol\":2256:2266  getState() */\n      jump\t// in\n    tag_105:\n        /* \"contracts/TheGame.sol\":2256:2288  getState() != GameState.FINISHED */\n      0x03\n      dup2\n      gt\n      iszero\n      tag_106\n      jumpi\n      tag_107\n      tag_81\n      jump\t// in\n    tag_107:\n    tag_106:\n      eq\n      iszero\n        /* \"contracts/TheGame.sol\":2248:2333  require(getState() != GameState.FINISHED, \"Odds can be changed only during the game\") */\n      tag_108\n      jumpi\n      mload(0x40)\n      0x08c379a000000000000000000000000000000000000000000000000000000000\n      dup2\n      mstore\n      0x04\n      add\n      tag_109\n      swap1\n      tag_110\n      jump\t// in\n    tag_109:\n      mload(0x40)\n      dup1\n      swap2\n      sub\n      swap1\n      revert\n    tag_108:\n        /* \"contracts/TheGame.sol\":2358:2362  odds */\n      dup2\n        /* \"contracts/TheGame.sol\":2343:2355  currentOddsA */\n      0x0b\n        /* \"contracts/TheGame.sol\":2343:2362  currentOddsA = odds */\n      dup2\n      swap1\n      sstore\n      pop\n        /* \"contracts/TheGame.sol\":2379:2391  currentOddsA */\n      sload(0x0b)\n        /* \"contracts/TheGame.sol\":2372:2391  return currentOddsA */\n      swap1\n      pop\n        /* \"contracts/TheGame.sol\":2171:2398  function updateOddsA(uint256 odds) public isOwner returns(uint256) {... */\n      swap2\n      swap1\n      pop\n      jump\t// out\n        /* \"contracts/TheGame.sol\":1386:1473  function getStartTime() public view returns(uint256) {... */\n    tag_52:\n        /* \"contracts/TheGame.sol\":1430:1437  uint256 */\n      0x00\n        /* \"contracts/TheGame.sol\":1457:1466  startTime */\n      sload(0x08)\n        /* \"contracts/TheGame.sol\":1450:1466  return startTime */\n      swap1\n      pop\n        /* \"contracts/TheGame.sol\":1386:1473  function getStartTime() public view returns(uint256) {... */\n      swap1\n      jump\t// out\n        /* \"contracts/TheGame.sol\":3120:3407  function setAGameWinner(BetOpion option) public isOwner returns(BetOpion){... */\n    tag_57:\n        /* \"contracts/TheGame.sol\":3184:3192  BetOpion */\n      0x00\n        /* \"contracts/Owner.sol\":807:812  owner */\n      dup1\n      0x00\n      swap1\n      sload\n      swap1\n      0x0100\n      exp\n      swap1\n      div\n      0xffffffffffffffffffffffffffffffffffffffff\n      and\n        /* \"contracts/Owner.sol\":793:812  msg.sender == owner */\n      0xffffffffffffffffffffffffffffffffffffffff\n      and\n        /* \"contracts/Owner.sol\":793:803  msg.sender */\n      caller\n        /* \"contracts/Owner.sol\":793:812  msg.sender == owner */\n      0xffffffffffffffffffffffffffffffffffffffff\n      and\n      eq\n        /* \"contracts/Owner.sol\":785:836  require(msg.sender == owner, \"Caller is not owner\") */\n      tag_113\n      jumpi\n      mload(0x40)\n      0x08c379a000000000000000000000000000000000000000000000000000000000\n      dup2\n      mstore\n      0x04\n      add\n      tag_114\n      swap1\n      tag_97\n      jump\t// in\n    tag_114:\n      mload(0x40)\n      dup1\n      swap2\n      sub\n      swap1\n      revert\n    tag_113:\n        /* \"contracts/TheGame.sol\":3278:3296  GameState.FINISHED */\n      0x03\n        /* \"contracts/TheGame.sol\":3264:3296  getState() == GameState.FINISHED */\n      dup1\n      dup2\n      gt\n      iszero\n      tag_116\n      jumpi\n      tag_117\n      tag_81\n      jump\t// in\n    tag_117:\n    tag_116:\n        /* \"contracts/TheGame.sol\":3264:3274  getState() */\n      tag_118\n        /* \"contracts/TheGame.sol\":3264:3272  getState */\n      tag_16\n        /* \"contracts/TheGame.sol\":3264:3274  getState() */\n      jump\t// in\n    tag_118:\n        /* \"contracts/TheGame.sol\":3264:3296  getState() == GameState.FINISHED */\n      0x03\n      dup2\n      gt\n      iszero\n      tag_119\n      jumpi\n      tag_120\n      tag_81\n      jump\t// in\n    tag_120:\n    tag_119:\n      eq\n        /* \"contracts/TheGame.sol\":3255:3352  require (getState() == GameState.FINISHED, \"To announce the winner the game have to be finished\") */\n      tag_121\n      jumpi\n      mload(0x40)\n      0x08c379a000000000000000000000000000000000000000000000000000000000\n      dup2\n      mstore\n      0x04\n      add\n      tag_122\n      swap1\n      tag_123\n      jump\t// in\n    tag_122:\n      mload(0x40)\n      dup1\n      swap2\n      sub\n      swap1\n      revert\n    tag_121:\n        /* \"contracts/TheGame.sol\":3371:3377  option */\n      dup2\n        /* \"contracts/TheGame.sol\":3362:3368  winner */\n      0x0d\n      0x00\n        /* \"contracts/TheGame.sol\":3362:3377  winner = option */\n      0x0100\n      exp\n      dup2\n      sload\n      dup2\n      0xff\n      mul\n      not\n      and\n      swap1\n      dup4\n      0x01\n      dup2\n      gt\n      iszero\n      tag_124\n      jumpi\n      tag_125\n      tag_81\n      jump\t// in\n    tag_125:\n    tag_124:\n      mul\n      or\n      swap1\n      sstore\n      pop\n        /* \"contracts/TheGame.sol\":3394:3400  winner */\n      0x0d\n      0x00\n      swap1\n      sload\n      swap1\n      0x0100\n      exp\n      swap1\n      div\n      0xff\n      and\n        /* \"contracts/TheGame.sol\":3387:3400  return winner */\n      swap1\n      pop\n        /* \"contracts/TheGame.sol\":3120:3407  function setAGameWinner(BetOpion option) public isOwner returns(BetOpion){... */\n      swap2\n      swap1\n      pop\n      jump\t// out\n        /* \"contracts/TheGame.sol\":2408:2635  function updateOddsB(uint256 odds) public isOwner returns(uint256) {... */\n    tag_63:\n        /* \"contracts/TheGame.sol\":2466:2473  uint256 */\n      0x00\n        /* \"contracts/Owner.sol\":807:812  owner */\n      dup1\n      0x00\n      swap1\n      sload\n      swap1\n      0x0100\n      exp\n      swap1\n      div\n      0xffffffffffffffffffffffffffffffffffffffff\n      and\n        /* \"contracts/Owner.sol\":793:812  msg.sender == owner */\n      0xffffffffffffffffffffffffffffffffffffffff\n      and\n        /* \"contracts/Owner.sol\":793:803  msg.sender */\n      caller\n        /* \"contracts/Owner.sol\":793:812  msg.sender == owner */\n      0xffffffffffffffffffffffffffffffffffffffff\n      and\n      eq\n        /* \"contracts/Owner.sol\":785:836  require(msg.sender == owner, \"Caller is not owner\") */\n      tag_127\n      jumpi\n      mload(0x40)\n      0x08c379a000000000000000000000000000000000000000000000000000000000\n      dup2\n      mstore\n      0x04\n      add\n      tag_128\n      swap1\n      tag_97\n      jump\t// in\n    tag_128:\n      mload(0x40)\n      dup1\n      swap2\n      sub\n      swap1\n      revert\n    tag_127:\n        /* \"contracts/TheGame.sol\":2507:2525  GameState.FINISHED */\n      0x03\n        /* \"contracts/TheGame.sol\":2493:2525  getState() != GameState.FINISHED */\n      dup1\n      dup2\n      gt\n      iszero\n      tag_130\n      jumpi\n      tag_131\n      tag_81\n      jump\t// in\n    tag_131:\n    tag_130:\n        /* \"contracts/TheGame.sol\":2493:2503  getState() */\n      tag_132\n        /* \"contracts/TheGame.sol\":2493:2501  getState */\n      tag_16\n        /* \"contracts/TheGame.sol\":2493:2503  getState() */\n      jump\t// in\n    tag_132:\n        /* \"contracts/TheGame.sol\":2493:2525  getState() != GameState.FINISHED */\n      0x03\n      dup2\n      gt\n      iszero\n      tag_133\n      jumpi\n      tag_134\n      tag_81\n      jump\t// in\n    tag_134:\n    tag_133:\n      eq\n      iszero\n        /* \"contracts/TheGame.sol\":2485:2570  require(getState() != GameState.FINISHED, \"Odds can be changed only during the game\") */\n      tag_135\n      jumpi\n      mload(0x40)\n      0x08c379a000000000000000000000000000000000000000000000000000000000\n      dup2\n      mstore\n      0x04\n      add\n      tag_136\n      swap1\n      tag_110\n      jump\t// in\n    tag_136:\n      mload(0x40)\n      dup1\n      swap2\n      sub\n      swap1\n      revert\n    tag_135:\n        /* \"contracts/TheGame.sol\":2595:2599  odds */\n      dup2\n        /* \"contracts/TheGame.sol\":2580:2592  currentOddsB */\n      0x0c\n        /* \"contracts/TheGame.sol\":2580:2599  currentOddsB = odds */\n      dup2\n      swap1\n      sstore\n      pop\n        /* \"contracts/TheGame.sol\":2616:2628  currentOddsB */\n      sload(0x0c)\n        /* \"contracts/TheGame.sol\":2609:2628  return currentOddsB */\n      swap1\n      pop\n        /* \"contracts/TheGame.sol\":2408:2635  function updateOddsB(uint256 odds) public isOwner returns(uint256) {... */\n      swap2\n      swap1\n      pop\n      jump\t// out\n        /* \"contracts/TheGame.sol\":1576:1663  function getCloseTime() public view returns(uint256) {... */\n    tag_67:\n        /* \"contracts/TheGame.sol\":1620:1627  uint256 */\n      0x00\n        /* \"contracts/TheGame.sol\":1647:1656  closeTime */\n      sload(0x0a)\n        /* \"contracts/TheGame.sol\":1640:1656  return closeTime */\n      swap1\n      pop\n        /* \"contracts/TheGame.sol\":1576:1663  function getCloseTime() public view returns(uint256) {... */\n      swap1\n      jump\t// out\n        /* \"#utility.yul\":7:146   */\n    tag_139:\n        /* \"#utility.yul\":53:58   */\n      0x00\n        /* \"#utility.yul\":91:97   */\n      dup2\n        /* \"#utility.yul\":78:98   */\n      calldataload\n        /* \"#utility.yul\":69:98   */\n      swap1\n      pop\n        /* \"#utility.yul\":107:140   */\n      tag_141\n        /* \"#utility.yul\":134:139   */\n      dup2\n        /* \"#utility.yul\":107:140   */\n      tag_142\n      jump\t// in\n    tag_141:\n        /* \"#utility.yul\":7:146   */\n      swap3\n      swap2\n      pop\n      pop\n      jump\t// out\n        /* \"#utility.yul\":152:291   */\n    tag_143:\n        /* \"#utility.yul\":198:203   */\n      0x00\n        /* \"#utility.yul\":236:242   */\n      dup2\n        /* \"#utility.yul\":223:243   */\n      calldataload\n        /* \"#utility.yul\":214:243   */\n      swap1\n      pop\n        /* \"#utility.yul\":252:285   */\n      tag_145\n        /* \"#utility.yul\":279:284   */\n      dup2\n        /* \"#utility.yul\":252:285   */\n      tag_146\n      jump\t// in\n    tag_145:\n        /* \"#utility.yul\":152:291   */\n      swap3\n      swap2\n      pop\n      pop\n      jump\t// out\n        /* \"#utility.yul\":297:462   */\n    tag_147:\n        /* \"#utility.yul\":356:361   */\n      0x00\n        /* \"#utility.yul\":394:400   */\n      dup2\n        /* \"#utility.yul\":381:401   */\n      calldataload\n        /* \"#utility.yul\":372:401   */\n      swap1\n      pop\n        /* \"#utility.yul\":410:456   */\n      tag_149\n        /* \"#utility.yul\":450:455   */\n      dup2\n        /* \"#utility.yul\":410:456   */\n      tag_150\n      jump\t// in\n    tag_149:\n        /* \"#utility.yul\":297:462   */\n      swap3\n      swap2\n      pop\n      pop\n      jump\t// out\n        /* \"#utility.yul\":468:607   */\n    tag_151:\n        /* \"#utility.yul\":514:519   */\n      0x00\n        /* \"#utility.yul\":552:558   */\n      dup2\n        /* \"#utility.yul\":539:559   */\n      calldataload\n        /* \"#utility.yul\":530:559   */\n      swap1\n      pop\n        /* \"#utility.yul\":568:601   */\n      tag_153\n        /* \"#utility.yul\":595:600   */\n      dup2\n        /* \"#utility.yul\":568:601   */\n      tag_154\n      jump\t// in\n    tag_153:\n        /* \"#utility.yul\":468:607   */\n      swap3\n      swap2\n      pop\n      pop\n      jump\t// out\n        /* \"#utility.yul\":613:942   */\n    tag_42:\n        /* \"#utility.yul\":672:678   */\n      0x00\n        /* \"#utility.yul\":721:723   */\n      0x20\n        /* \"#utility.yul\":709:718   */\n      dup3\n        /* \"#utility.yul\":700:707   */\n      dup5\n        /* \"#utility.yul\":696:719   */\n      sub\n        /* \"#utility.yul\":692:724   */\n      slt\n        /* \"#utility.yul\":689:808   */\n      iszero\n      tag_156\n      jumpi\n        /* \"#utility.yul\":727:806   */\n      tag_157\n      tag_158\n      jump\t// in\n    tag_157:\n        /* \"#utility.yul\":689:808   */\n    tag_156:\n        /* \"#utility.yul\":847:848   */\n      0x00\n        /* \"#utility.yul\":872:925   */\n      tag_159\n        /* \"#utility.yul\":917:924   */\n      dup5\n        /* \"#utility.yul\":908:914   */\n      dup3\n        /* \"#utility.yul\":897:906   */\n      dup6\n        /* \"#utility.yul\":893:915   */\n      add\n        /* \"#utility.yul\":872:925   */\n      tag_139\n      jump\t// in\n    tag_159:\n        /* \"#utility.yul\":862:925   */\n      swap2\n      pop\n        /* \"#utility.yul\":818:935   */\n      pop\n        /* \"#utility.yul\":613:942   */\n      swap3\n      swap2\n      pop\n      pop\n      jump\t// out\n        /* \"#utility.yul\":948:1422   */\n    tag_28:\n        /* \"#utility.yul\":1016:1022   */\n      0x00\n        /* \"#utility.yul\":1024:1030   */\n      dup1\n        /* \"#utility.yul\":1073:1075   */\n      0x40\n        /* \"#utility.yul\":1061:1070   */\n      dup4\n        /* \"#utility.yul\":1052:1059   */\n      dup6\n        /* \"#utility.yul\":1048:1071   */\n      sub\n        /* \"#utility.yul\":1044:1076   */\n      slt\n        /* \"#utility.yul\":1041:1160   */\n      iszero\n      tag_161\n      jumpi\n        /* \"#utility.yul\":1079:1158   */\n      tag_162\n      tag_158\n      jump\t// in\n    tag_162:\n        /* \"#utility.yul\":1041:1160   */\n    tag_161:\n        /* \"#utility.yul\":1199:1200   */\n      0x00\n        /* \"#utility.yul\":1224:1277   */\n      tag_163\n        /* \"#utility.yul\":1269:1276   */\n      dup6\n        /* \"#utility.yul\":1260:1266   */\n      dup3\n        /* \"#utility.yul\":1249:1258   */\n      dup7\n        /* \"#utility.yul\":1245:1267   */\n      add\n        /* \"#utility.yul\":1224:1277   */\n      tag_143\n      jump\t// in\n    tag_163:\n        /* \"#utility.yul\":1214:1277   */\n      swap3\n      pop\n        /* \"#utility.yul\":1170:1287   */\n      pop\n        /* \"#utility.yul\":1326:1328   */\n      0x20\n        /* \"#utility.yul\":1352:1405   */\n      tag_164\n        /* \"#utility.yul\":1397:1404   */\n      dup6\n        /* \"#utility.yul\":1388:1394   */\n      dup3\n        /* \"#utility.yul\":1377:1386   */\n      dup7\n        /* \"#utility.yul\":1373:1395   */\n      add\n        /* \"#utility.yul\":1352:1405   */\n      tag_151\n      jump\t// in\n    tag_164:\n        /* \"#utility.yul\":1342:1405   */\n      swap2\n      pop\n        /* \"#utility.yul\":1297:1415   */\n      pop\n        /* \"#utility.yul\":948:1422   */\n      swap3\n      pop\n      swap3\n      swap1\n      pop\n      jump\t// out\n        /* \"#utility.yul\":1428:1783   */\n    tag_21:\n        /* \"#utility.yul\":1500:1506   */\n      0x00\n        /* \"#utility.yul\":1549:1551   */\n      0x20\n        /* \"#utility.yul\":1537:1546   */\n      dup3\n        /* \"#utility.yul\":1528:1535   */\n      dup5\n        /* \"#utility.yul\":1524:1547   */\n      sub\n        /* \"#utility.yul\":1520:1552   */\n      slt\n        /* \"#utility.yul\":1517:1636   */\n      iszero\n      tag_166\n      jumpi\n        /* \"#utility.yul\":1555:1634   */\n      tag_167\n      tag_158\n      jump\t// in\n    tag_167:\n        /* \"#utility.yul\":1517:1636   */\n    tag_166:\n        /* \"#utility.yul\":1675:1676   */\n      0x00\n        /* \"#utility.yul\":1700:1766   */\n      tag_168\n        /* \"#utility.yul\":1758:1765   */\n      dup5\n        /* \"#utility.yul\":1749:1755   */\n      dup3\n        /* \"#utility.yul\":1738:1747   */\n      dup6\n        /* \"#utility.yul\":1734:1756   */\n      add\n        /* \"#utility.yul\":1700:1766   */\n      tag_147\n      jump\t// in\n    tag_168:\n        /* \"#utility.yul\":1690:1766   */\n      swap2\n      pop\n        /* \"#utility.yul\":1646:1776   */\n      pop\n        /* \"#utility.yul\":1428:1783   */\n      swap3\n      swap2\n      pop\n      pop\n      jump\t// out\n        /* \"#utility.yul\":1789:2118   */\n    tag_47:\n        /* \"#utility.yul\":1848:1854   */\n      0x00\n        /* \"#utility.yul\":1897:1899   */\n      0x20\n        /* \"#utility.yul\":1885:1894   */\n      dup3\n        /* \"#utility.yul\":1876:1883   */\n      dup5\n        /* \"#utility.yul\":1872:1895   */\n      sub\n        /* \"#utility.yul\":1868:1900   */\n      slt\n        /* \"#utility.yul\":1865:1984   */\n      iszero\n      tag_170\n      jumpi\n        /* \"#utility.yul\":1903:1982   */\n      tag_171\n      tag_158\n      jump\t// in\n    tag_171:\n        /* \"#utility.yul\":1865:1984   */\n    tag_170:\n        /* \"#utility.yul\":2023:2024   */\n      0x00\n        /* \"#utility.yul\":2048:2101   */\n      tag_172\n        /* \"#utility.yul\":2093:2100   */\n      dup5\n        /* \"#utility.yul\":2084:2090   */\n      dup3\n        /* \"#utility.yul\":2073:2082   */\n      dup6\n        /* \"#utility.yul\":2069:2091   */\n      add\n        /* \"#utility.yul\":2048:2101   */\n      tag_151\n      jump\t// in\n    tag_172:\n        /* \"#utility.yul\":2038:2101   */\n      swap2\n      pop\n        /* \"#utility.yul\":1994:2111   */\n      pop\n        /* \"#utility.yul\":1789:2118   */\n      swap3\n      swap2\n      pop\n      pop\n      jump\t// out\n        /* \"#utility.yul\":2124:2242   */\n    tag_173:\n        /* \"#utility.yul\":2211:2235   */\n      tag_175\n        /* \"#utility.yul\":2229:2234   */\n      dup2\n        /* \"#utility.yul\":2211:2235   */\n      tag_176\n      jump\t// in\n    tag_175:\n        /* \"#utility.yul\":2206:2209   */\n      dup3\n        /* \"#utility.yul\":2199:2236   */\n      mstore\n        /* \"#utility.yul\":2124:2242   */\n      pop\n      pop\n      jump\t// out\n        /* \"#utility.yul\":2248:2401   */\n    tag_177:\n        /* \"#utility.yul\":2346:2394   */\n      tag_179\n        /* \"#utility.yul\":2388:2393   */\n      dup2\n        /* \"#utility.yul\":2346:2394   */\n      tag_180\n      jump\t// in\n    tag_179:\n        /* \"#utility.yul\":2341:2344   */\n      dup3\n        /* \"#utility.yul\":2334:2395   */\n      mstore\n        /* \"#utility.yul\":2248:2401   */\n      pop\n      pop\n      jump\t// out\n        /* \"#utility.yul\":2407:2562   */\n    tag_181:\n        /* \"#utility.yul\":2506:2555   */\n      tag_183\n        /* \"#utility.yul\":2549:2554   */\n      dup2\n        /* \"#utility.yul\":2506:2555   */\n      tag_184\n      jump\t// in\n    tag_183:\n        /* \"#utility.yul\":2501:2504   */\n      dup3\n        /* \"#utility.yul\":2494:2556   */\n      mstore\n        /* \"#utility.yul\":2407:2562   */\n      pop\n      pop\n      jump\t// out\n        /* \"#utility.yul\":2568:2934   */\n    tag_185:\n        /* \"#utility.yul\":2710:2713   */\n      0x00\n        /* \"#utility.yul\":2731:2798   */\n      tag_187\n        /* \"#utility.yul\":2795:2797   */\n      0x13\n        /* \"#utility.yul\":2790:2793   */\n      dup4\n        /* \"#utility.yul\":2731:2798   */\n      tag_188\n      jump\t// in\n    tag_187:\n        /* \"#utility.yul\":2724:2798   */\n      swap2\n      pop\n        /* \"#utility.yul\":2807:2900   */\n      tag_189\n        /* \"#utility.yul\":2896:2899   */\n      dup3\n        /* \"#utility.yul\":2807:2900   */\n      tag_190\n      jump\t// in\n    tag_189:\n        /* \"#utility.yul\":2925:2927   */\n      0x20\n        /* \"#utility.yul\":2920:2923   */\n      dup3\n        /* \"#utility.yul\":2916:2928   */\n      add\n        /* \"#utility.yul\":2909:2928   */\n      swap1\n      pop\n        /* \"#utility.yul\":2568:2934   */\n      swap2\n      swap1\n      pop\n      jump\t// out\n        /* \"#utility.yul\":2940:3306   */\n    tag_191:\n        /* \"#utility.yul\":3082:3085   */\n      0x00\n        /* \"#utility.yul\":3103:3170   */\n      tag_193\n        /* \"#utility.yul\":3167:3169   */\n      0x28\n        /* \"#utility.yul\":3162:3165   */\n      dup4\n        /* \"#utility.yul\":3103:3170   */\n      tag_188\n      jump\t// in\n    tag_193:\n        /* \"#utility.yul\":3096:3170   */\n      swap2\n      pop\n        /* \"#utility.yul\":3179:3272   */\n      tag_194\n        /* \"#utility.yul\":3268:3271   */\n      dup3\n        /* \"#utility.yul\":3179:3272   */\n      tag_195\n      jump\t// in\n    tag_194:\n        /* \"#utility.yul\":3297:3299   */\n      0x40\n        /* \"#utility.yul\":3292:3295   */\n      dup3\n        /* \"#utility.yul\":3288:3300   */\n      add\n        /* \"#utility.yul\":3281:3300   */\n      swap1\n      pop\n        /* \"#utility.yul\":2940:3306   */\n      swap2\n      swap1\n      pop\n      jump\t// out\n        /* \"#utility.yul\":3312:3678   */\n    tag_196:\n        /* \"#utility.yul\":3454:3457   */\n      0x00\n        /* \"#utility.yul\":3475:3542   */\n      tag_198\n        /* \"#utility.yul\":3539:3541   */\n      0x28\n        /* \"#utility.yul\":3534:3537   */\n      dup4\n        /* \"#utility.yul\":3475:3542   */\n      tag_188\n      jump\t// in\n    tag_198:\n        /* \"#utility.yul\":3468:3542   */\n      swap2\n      pop\n        /* \"#utility.yul\":3551:3644   */\n      tag_199\n        /* \"#utility.yul\":3640:3643   */\n      dup3\n        /* \"#utility.yul\":3551:3644   */\n      tag_200\n      jump\t// in\n    tag_199:\n        /* \"#utility.yul\":3669:3671   */\n      0x40\n        /* \"#utility.yul\":3664:3667   */\n      dup3\n        /* \"#utility.yul\":3660:3672   */\n      add\n        /* \"#utility.yul\":3653:3672   */\n      swap1\n      pop\n        /* \"#utility.yul\":3312:3678   */\n      swap2\n      swap1\n      pop\n      jump\t// out\n        /* \"#utility.yul\":3684:4050   */\n    tag_201:\n        /* \"#utility.yul\":3826:3829   */\n      0x00\n        /* \"#utility.yul\":3847:3914   */\n      tag_203\n        /* \"#utility.yul\":3911:3913   */\n      0x33\n        /* \"#utility.yul\":3906:3909   */\n      dup4\n        /* \"#utility.yul\":3847:3914   */\n      tag_188\n      jump\t// in\n    tag_203:\n        /* \"#utility.yul\":3840:3914   */\n      swap2\n      pop\n        /* \"#utility.yul\":3923:4016   */\n      tag_204\n        /* \"#utility.yul\":4012:4015   */\n      dup3\n        /* \"#utility.yul\":3923:4016   */\n      tag_205\n      jump\t// in\n    tag_204:\n        /* \"#utility.yul\":4041:4043   */\n      0x40\n        /* \"#utility.yul\":4036:4039   */\n      dup3\n        /* \"#utility.yul\":4032:4044   */\n      add\n        /* \"#utility.yul\":4025:4044   */\n      swap1\n      pop\n        /* \"#utility.yul\":3684:4050   */\n      swap2\n      swap1\n      pop\n      jump\t// out\n        /* \"#utility.yul\":4056:4174   */\n    tag_206:\n        /* \"#utility.yul\":4143:4167   */\n      tag_208\n        /* \"#utility.yul\":4161:4166   */\n      dup2\n        /* \"#utility.yul\":4143:4167   */\n      tag_209\n      jump\t// in\n    tag_208:\n        /* \"#utility.yul\":4138:4141   */\n      dup3\n        /* \"#utility.yul\":4131:4168   */\n      mstore\n        /* \"#utility.yul\":4056:4174   */\n      pop\n      pop\n      jump\t// out\n        /* \"#utility.yul\":4180:4402   */\n    tag_34:\n        /* \"#utility.yul\":4273:4277   */\n      0x00\n        /* \"#utility.yul\":4311:4313   */\n      0x20\n        /* \"#utility.yul\":4300:4309   */\n      dup3\n        /* \"#utility.yul\":4296:4314   */\n      add\n        /* \"#utility.yul\":4288:4314   */\n      swap1\n      pop\n        /* \"#utility.yul\":4324:4395   */\n      tag_211\n        /* \"#utility.yul\":4392:4393   */\n      0x00\n        /* \"#utility.yul\":4381:4390   */\n      dup4\n        /* \"#utility.yul\":4377:4394   */\n      add\n        /* \"#utility.yul\":4368:4374   */\n      dup5\n        /* \"#utility.yul\":4324:4395   */\n      tag_173\n      jump\t// in\n    tag_211:\n        /* \"#utility.yul\":4180:4402   */\n      swap3\n      swap2\n      pop\n      pop\n      jump\t// out\n        /* \"#utility.yul\":4408:4652   */\n    tag_59:\n        /* \"#utility.yul\":4512:4516   */\n      0x00\n        /* \"#utility.yul\":4550:4552   */\n      0x20\n        /* \"#utility.yul\":4539:4548   */\n      dup3\n        /* \"#utility.yul\":4535:4553   */\n      add\n        /* \"#utility.yul\":4527:4553   */\n      swap1\n      pop\n        /* \"#utility.yul\":4563:4645   */\n      tag_213\n        /* \"#utility.yul\":4642:4643   */\n      0x00\n        /* \"#utility.yul\":4631:4640   */\n      dup4\n        /* \"#utility.yul\":4627:4644   */\n      add\n        /* \"#utility.yul\":4618:4624   */\n      dup5\n        /* \"#utility.yul\":4563:4645   */\n      tag_177\n      jump\t// in\n    tag_213:\n        /* \"#utility.yul\":4408:4652   */\n      swap3\n      swap2\n      pop\n      pop\n      jump\t// out\n        /* \"#utility.yul\":4658:4904   */\n    tag_18:\n        /* \"#utility.yul\":4763:4767   */\n      0x00\n        /* \"#utility.yul\":4801:4803   */\n      0x20\n        /* \"#utility.yul\":4790:4799   */\n      dup3\n        /* \"#utility.yul\":4786:4804   */\n      add\n        /* \"#utility.yul\":4778:4804   */\n      swap1\n      pop\n        /* \"#utility.yul\":4814:4897   */\n      tag_215\n        /* \"#utility.yul\":4894:4895   */\n      0x00\n        /* \"#utility.yul\":4883:4892   */\n      dup4\n        /* \"#utility.yul\":4879:4896   */\n      add\n        /* \"#utility.yul\":4870:4876   */\n      dup5\n        /* \"#utility.yul\":4814:4897   */\n      tag_181\n      jump\t// in\n    tag_215:\n        /* \"#utility.yul\":4658:4904   */\n      swap3\n      swap2\n      pop\n      pop\n      jump\t// out\n        /* \"#utility.yul\":4910:5329   */\n    tag_97:\n        /* \"#utility.yul\":5076:5080   */\n      0x00\n        /* \"#utility.yul\":5114:5116   */\n      0x20\n        /* \"#utility.yul\":5103:5112   */\n      dup3\n        /* \"#utility.yul\":5099:5117   */\n      add\n        /* \"#utility.yul\":5091:5117   */\n      swap1\n      pop\n        /* \"#utility.yul\":5163:5172   */\n      dup2\n        /* \"#utility.yul\":5157:5161   */\n      dup2\n        /* \"#utility.yul\":5153:5173   */\n      sub\n        /* \"#utility.yul\":5149:5150   */\n      0x00\n        /* \"#utility.yul\":5138:5147   */\n      dup4\n        /* \"#utility.yul\":5134:5151   */\n      add\n        /* \"#utility.yul\":5127:5174   */\n      mstore\n        /* \"#utility.yul\":5191:5322   */\n      tag_217\n        /* \"#utility.yul\":5317:5321   */\n      dup2\n        /* \"#utility.yul\":5191:5322   */\n      tag_185\n      jump\t// in\n    tag_217:\n        /* \"#utility.yul\":5183:5322   */\n      swap1\n      pop\n        /* \"#utility.yul\":4910:5329   */\n      swap2\n      swap1\n      pop\n      jump\t// out\n        /* \"#utility.yul\":5335:5754   */\n    tag_110:\n        /* \"#utility.yul\":5501:5505   */\n      0x00\n        /* \"#utility.yul\":5539:5541   */\n      0x20\n        /* \"#utility.yul\":5528:5537   */\n      dup3\n        /* \"#utility.yul\":5524:5542   */\n      add\n        /* \"#utility.yul\":5516:5542   */\n      swap1\n      pop\n        /* \"#utility.yul\":5588:5597   */\n      dup2\n        /* \"#utility.yul\":5582:5586   */\n      dup2\n        /* \"#utility.yul\":5578:5598   */\n      sub\n        /* \"#utility.yul\":5574:5575   */\n      0x00\n        /* \"#utility.yul\":5563:5572   */\n      dup4\n        /* \"#utility.yul\":5559:5576   */\n      add\n        /* \"#utility.yul\":5552:5599   */\n      mstore\n        /* \"#utility.yul\":5616:5747   */\n      tag_219\n        /* \"#utility.yul\":5742:5746   */\n      dup2\n        /* \"#utility.yul\":5616:5747   */\n      tag_191\n      jump\t// in\n    tag_219:\n        /* \"#utility.yul\":5608:5747   */\n      swap1\n      pop\n        /* \"#utility.yul\":5335:5754   */\n      swap2\n      swap1\n      pop\n      jump\t// out\n        /* \"#utility.yul\":5760:6179   */\n    tag_90:\n        /* \"#utility.yul\":5926:5930   */\n      0x00\n        /* \"#utility.yul\":5964:5966   */\n      0x20\n        /* \"#utility.yul\":5953:5962   */\n      dup3\n        /* \"#utility.yul\":5949:5967   */\n      add\n        /* \"#utility.yul\":5941:5967   */\n      swap1\n      pop\n        /* \"#utility.yul\":6013:6022   */\n      dup2\n        /* \"#utility.yul\":6007:6011   */\n      dup2\n        /* \"#utility.yul\":6003:6023   */\n      sub\n        /* \"#utility.yul\":5999:6000   */\n      0x00\n        /* \"#utility.yul\":5988:5997   */\n      dup4\n        /* \"#utility.yul\":5984:6001   */\n      add\n        /* \"#utility.yul\":5977:6024   */\n      mstore\n        /* \"#utility.yul\":6041:6172   */\n      tag_221\n        /* \"#utility.yul\":6167:6171   */\n      dup2\n        /* \"#utility.yul\":6041:6172   */\n      tag_196\n      jump\t// in\n    tag_221:\n        /* \"#utility.yul\":6033:6172   */\n      swap1\n      pop\n        /* \"#utility.yul\":5760:6179   */\n      swap2\n      swap1\n      pop\n      jump\t// out\n        /* \"#utility.yul\":6185:6604   */\n    tag_123:\n        /* \"#utility.yul\":6351:6355   */\n      0x00\n        /* \"#utility.yul\":6389:6391   */\n      0x20\n        /* \"#utility.yul\":6378:6387   */\n      dup3\n        /* \"#utility.yul\":6374:6392   */\n      add\n        /* \"#utility.yul\":6366:6392   */\n      swap1\n      pop\n        /* \"#utility.yul\":6438:6447   */\n      dup2\n        /* \"#utility.yul\":6432:6436   */\n      dup2\n        /* \"#utility.yul\":6428:6448   */\n      sub\n        /* \"#utility.yul\":6424:6425   */\n      0x00\n        /* \"#utility.yul\":6413:6422   */\n      dup4\n        /* \"#utility.yul\":6409:6426   */\n      add\n        /* \"#utility.yul\":6402:6449   */\n      mstore\n        /* \"#utility.yul\":6466:6597   */\n      tag_223\n        /* \"#utility.yul\":6592:6596   */\n      dup2\n        /* \"#utility.yul\":6466:6597   */\n      tag_201\n      jump\t// in\n    tag_223:\n        /* \"#utility.yul\":6458:6597   */\n      swap1\n      pop\n        /* \"#utility.yul\":6185:6604   */\n      swap2\n      swap1\n      pop\n      jump\t// out\n        /* \"#utility.yul\":6610:6832   */\n    tag_24:\n        /* \"#utility.yul\":6703:6707   */\n      0x00\n        /* \"#utility.yul\":6741:6743   */\n      0x20\n        /* \"#utility.yul\":6730:6739   */\n      dup3\n        /* \"#utility.yul\":6726:6744   */\n      add\n        /* \"#utility.yul\":6718:6744   */\n      swap1\n      pop\n        /* \"#utility.yul\":6754:6825   */\n      tag_225\n        /* \"#utility.yul\":6822:6823   */\n      0x00\n        /* \"#utility.yul\":6811:6820   */\n      dup4\n        /* \"#utility.yul\":6807:6824   */\n      add\n        /* \"#utility.yul\":6798:6804   */\n      dup5\n        /* \"#utility.yul\":6754:6825   */\n      tag_206\n      jump\t// in\n    tag_225:\n        /* \"#utility.yul\":6610:6832   */\n      swap3\n      swap2\n      pop\n      pop\n      jump\t// out\n        /* \"#utility.yul\":6919:7088   */\n    tag_188:\n        /* \"#utility.yul\":7003:7014   */\n      0x00\n        /* \"#utility.yul\":7037:7043   */\n      dup3\n        /* \"#utility.yul\":7032:7035   */\n      dup3\n        /* \"#utility.yul\":7025:7044   */\n      mstore\n        /* \"#utility.yul\":7077:7081   */\n      0x20\n        /* \"#utility.yul\":7072:7075   */\n      dup3\n        /* \"#utility.yul\":7068:7082   */\n      add\n        /* \"#utility.yul\":7053:7082   */\n      swap1\n      pop\n        /* \"#utility.yul\":6919:7088   */\n      swap3\n      swap2\n      pop\n      pop\n      jump\t// out\n        /* \"#utility.yul\":7094:7190   */\n    tag_176:\n        /* \"#utility.yul\":7131:7138   */\n      0x00\n        /* \"#utility.yul\":7160:7184   */\n      tag_230\n        /* \"#utility.yul\":7178:7183   */\n      dup3\n        /* \"#utility.yul\":7160:7184   */\n      tag_231\n      jump\t// in\n    tag_230:\n        /* \"#utility.yul\":7149:7184   */\n      swap1\n      pop\n        /* \"#utility.yul\":7094:7190   */\n      swap2\n      swap1\n      pop\n      jump\t// out\n        /* \"#utility.yul\":7196:7273   */\n    tag_232:\n        /* \"#utility.yul\":7233:7240   */\n      0x00\n        /* \"#utility.yul\":7262:7267   */\n      dup2\n        /* \"#utility.yul\":7251:7267   */\n      swap1\n      pop\n        /* \"#utility.yul\":7196:7273   */\n      swap2\n      swap1\n      pop\n      jump\t// out\n        /* \"#utility.yul\":7279:7416   */\n    tag_234:\n        /* \"#utility.yul\":7329:7336   */\n      0x00\n        /* \"#utility.yul\":7358:7363   */\n      dup2\n        /* \"#utility.yul\":7347:7363   */\n      swap1\n      pop\n        /* \"#utility.yul\":7364:7410   */\n      tag_236\n        /* \"#utility.yul\":7404:7409   */\n      dup3\n        /* \"#utility.yul\":7364:7410   */\n      tag_237\n      jump\t// in\n    tag_236:\n        /* \"#utility.yul\":7279:7416   */\n      swap2\n      swap1\n      pop\n      jump\t// out\n        /* \"#utility.yul\":7422:7561   */\n    tag_238:\n        /* \"#utility.yul\":7473:7480   */\n      0x00\n        /* \"#utility.yul\":7502:7507   */\n      dup2\n        /* \"#utility.yul\":7491:7507   */\n      swap1\n      pop\n        /* \"#utility.yul\":7508:7555   */\n      tag_240\n        /* \"#utility.yul\":7549:7554   */\n      dup3\n        /* \"#utility.yul\":7508:7555   */\n      tag_241\n      jump\t// in\n    tag_240:\n        /* \"#utility.yul\":7422:7561   */\n      swap2\n      swap1\n      pop\n      jump\t// out\n        /* \"#utility.yul\":7567:7693   */\n    tag_231:\n        /* \"#utility.yul\":7604:7611   */\n      0x00\n        /* \"#utility.yul\":7644:7686   */\n      0xffffffffffffffffffffffffffffffffffffffff\n        /* \"#utility.yul\":7637:7642   */\n      dup3\n        /* \"#utility.yul\":7633:7687   */\n      and\n        /* \"#utility.yul\":7622:7687   */\n      swap1\n      pop\n        /* \"#utility.yul\":7567:7693   */\n      swap2\n      swap1\n      pop\n      jump\t// out\n        /* \"#utility.yul\":7699:7776   */\n    tag_209:\n        /* \"#utility.yul\":7736:7743   */\n      0x00\n        /* \"#utility.yul\":7765:7770   */\n      dup2\n        /* \"#utility.yul\":7754:7770   */\n      swap1\n      pop\n        /* \"#utility.yul\":7699:7776   */\n      swap2\n      swap1\n      pop\n      jump\t// out\n        /* \"#utility.yul\":7782:7919   */\n    tag_180:\n        /* \"#utility.yul\":7843:7852   */\n      0x00\n        /* \"#utility.yul\":7876:7913   */\n      tag_245\n        /* \"#utility.yul\":7907:7912   */\n      dup3\n        /* \"#utility.yul\":7876:7913   */\n      tag_234\n      jump\t// in\n    tag_245:\n        /* \"#utility.yul\":7863:7913   */\n      swap1\n      pop\n        /* \"#utility.yul\":7782:7919   */\n      swap2\n      swap1\n      pop\n      jump\t// out\n        /* \"#utility.yul\":7925:8064   */\n    tag_184:\n        /* \"#utility.yul\":7987:7996   */\n      0x00\n        /* \"#utility.yul\":8020:8058   */\n      tag_247\n        /* \"#utility.yul\":8052:8057   */\n      dup3\n        /* \"#utility.yul\":8020:8058   */\n      tag_238\n      jump\t// in\n    tag_247:\n        /* \"#utility.yul\":8007:8058   */\n      swap1\n      pop\n        /* \"#utility.yul\":7925:8064   */\n      swap2\n      swap1\n      pop\n      jump\t// out\n        /* \"#utility.yul\":8070:8250   */\n    tag_81:\n        /* \"#utility.yul\":8118:8195   */\n      0x4e487b7100000000000000000000000000000000000000000000000000000000\n        /* \"#utility.yul\":8115:8116   */\n      0x00\n        /* \"#utility.yul\":8108:8196   */\n      mstore\n        /* \"#utility.yul\":8215:8219   */\n      0x21\n        /* \"#utility.yul\":8212:8213   */\n      0x04\n        /* \"#utility.yul\":8205:8220   */\n      mstore\n        /* \"#utility.yul\":8239:8243   */\n      0x24\n        /* \"#utility.yul\":8236:8237   */\n      0x00\n        /* \"#utility.yul\":8229:8244   */\n      revert\n        /* \"#utility.yul\":8379:8496   */\n    tag_158:\n        /* \"#utility.yul\":8488:8489   */\n      0x00\n        /* \"#utility.yul\":8485:8486   */\n      dup1\n        /* \"#utility.yul\":8478:8490   */\n      revert\n        /* \"#utility.yul\":8502:8671   */\n    tag_190:\n        /* \"#utility.yul\":8642:8663   */\n      0x43616c6c6572206973206e6f74206f776e657200000000000000000000000000\n        /* \"#utility.yul\":8638:8639   */\n      0x00\n        /* \"#utility.yul\":8630:8636   */\n      dup3\n        /* \"#utility.yul\":8626:8640   */\n      add\n        /* \"#utility.yul\":8619:8664   */\n      mstore\n        /* \"#utility.yul\":8502:8671   */\n      pop\n      jump\t// out\n        /* \"#utility.yul\":8677:8904   */\n    tag_195:\n        /* \"#utility.yul\":8817:8851   */\n      0x4f6464732063616e206265206368616e676564206f6e6c7920647572696e6720\n        /* \"#utility.yul\":8813:8814   */\n      0x00\n        /* \"#utility.yul\":8805:8811   */\n      dup3\n        /* \"#utility.yul\":8801:8815   */\n      add\n        /* \"#utility.yul\":8794:8852   */\n      mstore\n        /* \"#utility.yul\":8886:8896   */\n      0x7468652067616d65000000000000000000000000000000000000000000000000\n        /* \"#utility.yul\":8881:8883   */\n      0x20\n        /* \"#utility.yul\":8873:8879   */\n      dup3\n        /* \"#utility.yul\":8869:8884   */\n      add\n        /* \"#utility.yul\":8862:8897   */\n      mstore\n        /* \"#utility.yul\":8677:8904   */\n      pop\n      jump\t// out\n        /* \"#utility.yul\":8910:9137   */\n    tag_200:\n        /* \"#utility.yul\":9050:9084   */\n      0x536f75726365206d75737420626520746865206f7261636c65206f6620746865\n        /* \"#utility.yul\":9046:9047   */\n      0x00\n        /* \"#utility.yul\":9038:9044   */\n      dup3\n        /* \"#utility.yul\":9034:9048   */\n      add\n        /* \"#utility.yul\":9027:9085   */\n      mstore\n        /* \"#utility.yul\":9119:9129   */\n      0x2072657175657374000000000000000000000000000000000000000000000000\n        /* \"#utility.yul\":9114:9116   */\n      0x20\n        /* \"#utility.yul\":9106:9112   */\n      dup3\n        /* \"#utility.yul\":9102:9117   */\n      add\n        /* \"#utility.yul\":9095:9130   */\n      mstore\n        /* \"#utility.yul\":8910:9137   */\n      pop\n      jump\t// out\n        /* \"#utility.yul\":9143:9381   */\n    tag_205:\n        /* \"#utility.yul\":9283:9317   */\n      0x546f20616e6e6f756e6365207468652077696e6e6572207468652067616d6520\n        /* \"#utility.yul\":9279:9280   */\n      0x00\n        /* \"#utility.yul\":9271:9277   */\n      dup3\n        /* \"#utility.yul\":9267:9281   */\n      add\n        /* \"#utility.yul\":9260:9318   */\n      mstore\n        /* \"#utility.yul\":9352:9373   */\n      0x6861766520746f2062652066696e697368656400000000000000000000000000\n        /* \"#utility.yul\":9347:9349   */\n      0x20\n        /* \"#utility.yul\":9339:9345   */\n      dup3\n        /* \"#utility.yul\":9335:9350   */\n      add\n        /* \"#utility.yul\":9328:9374   */\n      mstore\n        /* \"#utility.yul\":9143:9381   */\n      pop\n      jump\t// out\n        /* \"#utility.yul\":9387:9505   */\n    tag_237:\n        /* \"#utility.yul\":9473:9474   */\n      0x02\n        /* \"#utility.yul\":9466:9471   */\n      dup2\n        /* \"#utility.yul\":9463:9475   */\n      lt\n        /* \"#utility.yul\":9453:9499   */\n      tag_257\n      jumpi\n        /* \"#utility.yul\":9479:9497   */\n      tag_258\n      tag_81\n      jump\t// in\n    tag_258:\n        /* \"#utility.yul\":9453:9499   */\n    tag_257:\n        /* \"#utility.yul\":9387:9505   */\n      pop\n      jump\t// out\n        /* \"#utility.yul\":9511:9630   */\n    tag_241:\n        /* \"#utility.yul\":9598:9599   */\n      0x04\n        /* \"#utility.yul\":9591:9596   */\n      dup2\n        /* \"#utility.yul\":9588:9600   */\n      lt\n        /* \"#utility.yul\":9578:9624   */\n      tag_260\n      jumpi\n        /* \"#utility.yul\":9604:9622   */\n      tag_261\n      tag_81\n      jump\t// in\n    tag_261:\n        /* \"#utility.yul\":9578:9624   */\n    tag_260:\n        /* \"#utility.yul\":9511:9630   */\n      pop\n      jump\t// out\n        /* \"#utility.yul\":9636:9758   */\n    tag_142:\n        /* \"#utility.yul\":9709:9733   */\n      tag_263\n        /* \"#utility.yul\":9727:9732   */\n      dup2\n        /* \"#utility.yul\":9709:9733   */\n      tag_176\n      jump\t// in\n    tag_263:\n        /* \"#utility.yul\":9702:9707   */\n      dup2\n        /* \"#utility.yul\":9699:9734   */\n      eq\n        /* \"#utility.yul\":9689:9752   */\n      tag_264\n      jumpi\n        /* \"#utility.yul\":9748:9749   */\n      0x00\n        /* \"#utility.yul\":9745:9746   */\n      dup1\n        /* \"#utility.yul\":9738:9750   */\n      revert\n        /* \"#utility.yul\":9689:9752   */\n    tag_264:\n        /* \"#utility.yul\":9636:9758   */\n      pop\n      jump\t// out\n        /* \"#utility.yul\":9764:9886   */\n    tag_146:\n        /* \"#utility.yul\":9837:9861   */\n      tag_266\n        /* \"#utility.yul\":9855:9860   */\n      dup2\n        /* \"#utility.yul\":9837:9861   */\n      tag_232\n      jump\t// in\n    tag_266:\n        /* \"#utility.yul\":9830:9835   */\n      dup2\n        /* \"#utility.yul\":9827:9862   */\n      eq\n        /* \"#utility.yul\":9817:9880   */\n      tag_267\n      jumpi\n        /* \"#utility.yul\":9876:9877   */\n      0x00\n        /* \"#utility.yul\":9873:9874   */\n      dup1\n        /* \"#utility.yul\":9866:9878   */\n      revert\n        /* \"#utility.yul\":9817:9880   */\n    tag_267:\n        /* \"#utility.yul\":9764:9886   */\n      pop\n      jump\t// out\n        /* \"#utility.yul\":9892:10004   */\n    tag_150:\n        /* \"#utility.yul\":9978:9979   */\n      0x02\n        /* \"#utility.yul\":9971:9976   */\n      dup2\n        /* \"#utility.yul\":9968:9980   */\n      lt\n        /* \"#utility.yul\":9958:9998   */\n      tag_269\n      jumpi\n        /* \"#utility.yul\":9994:9995   */\n      0x00\n        /* \"#utility.yul\":9991:9992   */\n      dup1\n        /* \"#utility.yul\":9984:9996   */\n      revert\n        /* \"#utility.yul\":9958:9998   */\n    tag_269:\n        /* \"#utility.yul\":9892:10004   */\n      pop\n      jump\t// out\n        /* \"#utility.yul\":10010:10132   */\n    tag_154:\n        /* \"#utility.yul\":10083:10107   */\n      tag_271\n        /* \"#utility.yul\":10101:10106   */\n      dup2\n        /* \"#utility.yul\":10083:10107   */\n      tag_209\n      jump\t// in\n    tag_271:\n        /* \"#utility.yul\":10076:10081   */\n      dup2\n        /* \"#utility.yul\":10073:10108   */\n      eq\n        /* \"#utility.yul\":10063:10126   */\n      tag_272\n      jumpi\n        /* \"#utility.yul\":10122:10123   */\n      0x00\n        /* \"#utility.yul\":10119:10120   */\n      dup1\n        /* \"#utility.yul\":10112:10124   */\n      revert\n        /* \"#utility.yul\":10063:10126   */\n    tag_272:\n        /* \"#utility.yul\":10010:10132   */\n      pop\n      jump\t// out\n\n    auxdata: 0xa2646970667358221220b14ed7825cdd977472652117e5c0397a6ee59a2b4d6ce81159c35c5c3b50e1b664736f6c63430008070033\n}\n",
				"bytecode": {
					"linkReferences": {},
					"object": "608060405260016005553480156200001657600080fd5b50604051620011b4380380620011b483398181016040528101906200003c919062000113565b3373ffffffffffffffffffffffffffffffffffffffff16600073ffffffffffffffffffffffffffffffffffffffff167f342827c97908e5e2f71151c08502a66d44b6f758e3ac2f1de95f02eb95f0a73560405160405180910390a3336000806101000a81548173ffffffffffffffffffffffffffffffffffffffff021916908373ffffffffffffffffffffffffffffffffffffffff16021790555042600781905550826008819055508160098190555080600a8190555050505062000198565b6000815190506200010d816200017e565b92915050565b6000806000606084860312156200012f576200012e62000179565b5b60006200013f86828701620000fc565b93505060206200015286828701620000fc565b92505060406200016586828701620000fc565b9150509250925092565b6000819050919050565b600080fd5b62000189816200016f565b81146200019557600080fd5b50565b61100c80620001a86000396000f3fe60806040526004361061009c5760003560e01c8063a6f9dae111610064578063a6f9dae11461017b578063b9d76da9146101a4578063c828371e146101e1578063dd1c828a1461020c578063f2c3e46914610249578063fadeaf76146102865761009c565b80631865c57d146100a157806335644c7b146100cc5780634357855e146100fc578063893d20e8146101255780638ea36d4714610150575b600080fd5b3480156100ad57600080fd5b506100b66102b1565b6040516100c39190610cb8565b60405180910390f35b6100e660048036038101906100e19190610b60565b610318565b6040516100f39190610d53565b60405180910390f35b34801561010857600080fd5b50610123600480360381019061011e9190610b20565b6104a4565b005b34801561013157600080fd5b5061013a6105ae565b6040516101479190610c82565b60405180910390f35b34801561015c57600080fd5b506101656105d7565b6040516101729190610d53565b60405180910390f35b34801561018757600080fd5b506101a2600480360381019061019d9190610af3565b6105e1565b005b3480156101b057600080fd5b506101cb60048036038101906101c69190610b8d565b61072c565b6040516101d89190610d53565b60405180910390f35b3480156101ed57600080fd5b506101f661083c565b6040516102039190610d53565b60405180910390f35b34801561021857600080fd5b50610233600480360381019061022e9190610b60565b610846565b6040516102409190610c9d565b60405180910390f35b34801561025557600080fd5b50610270600480360381019061026b9190610b8d565b610985565b60405161027d9190610d53565b60405180910390f35b34801561029257600080fd5b5061029b610a95565b6040516102a89190610d53565b60405180910390f35b6000804290506008548110156102cb576000915050610315565b80600854111580156102de575060095481105b156102ed576001915050610315565b80600954111580156103005750600a5481105b1561030f576002915050610315565b60039150505b90565b6000806040518060a001604052803373ffffffffffffffffffffffffffffffffffffffff168152602001600b548152602001600c54815260200184600181111561036557610364610e0f565b5b8152602001348152509050600e81908060018154018082558091505060019003906000526020600020906005020160009091909190915060008201518160000160006101000a81548173ffffffffffffffffffffffffffffffffffffffff021916908373ffffffffffffffffffffffffffffffffffffffff160217905550602082015181600101556040820151816002015560608201518160030160006101000a81548160ff0219169083600181111561042257610421610e0f565b5b02179055506080820151816004015550508060600151600181111561044a57610449610e0f565b5b8160800151826000015173ffffffffffffffffffffffffffffffffffffffff167fd0ec3d0f31fea1291096288253382fdc9811dcf678e1e7628eb851cef2ba0a1160405160405180910390a4600e80549050915050919050565b816006600082815260200190815260200160002060009054906101000a900473ffffffffffffffffffffffffffffffffffffffff1673ffffffffffffffffffffffffffffffffffffffff163373ffffffffffffffffffffffffffffffffffffffff1614610546576040517f08c379a000000000000000000000000000000000000000000000000000000000815260040161053d90610d13565b60405180910390fd5b6006600082815260200190815260200160002060006101000a81549073ffffffffffffffffffffffffffffffffffffffff0219169055807f7cc135e0cebb02c3480ae5d74d377283180a2601f8f644edf7987b009316c63a60405160405180910390a2505050565b60008060009054906101000a900473ffffffffffffffffffffffffffffffffffffffff16905090565b6000600954905090565b60008054906101000a900473ffffffffffffffffffffffffffffffffffffffff1673ffffffffffffffffffffffffffffffffffffffff163373ffffffffffffffffffffffffffffffffffffffff161461066f576040517f08c379a000000000000000000000000000000000000000000000000000000000815260040161066690610cd3565b60405180910390fd5b8073ffffffffffffffffffffffffffffffffffffffff1660008054906101000a900473ffffffffffffffffffffffffffffffffffffffff1673ffffffffffffffffffffffffffffffffffffffff167f342827c97908e5e2f71151c08502a66d44b6f758e3ac2f1de95f02eb95f0a73560405160405180910390a3806000806101000a81548173ffffffffffffffffffffffffffffffffffffffff021916908373ffffffffffffffffffffffffffffffffffffffff16021790555050565b60008060009054906101000a900473ffffffffffffffffffffffffffffffffffffffff1673ffffffffffffffffffffffffffffffffffffffff163373ffffffffffffffffffffffffffffffffffffffff16146107bd576040517f08c379a00000000000000000000000000000000000000000000000000000000081526004016107b490610cd3565b60405180910390fd5b6003808111156107d0576107cf610e0f565b5b6107d86102b1565b60038111156107ea576107e9610e0f565b5b141561082b576040517f08c379a000000000000000000000000000000000000000000000000000000000815260040161082290610cf3565b60405180910390fd5b81600b81905550600b549050919050565b6000600854905090565b60008060009054906101000a900473ffffffffffffffffffffffffffffffffffffffff1673ffffffffffffffffffffffffffffffffffffffff163373ffffffffffffffffffffffffffffffffffffffff16146108d7576040517f08c379a00000000000000000000000000000000000000000000000000000000081526004016108ce90610cd3565b60405180910390fd5b6003808111156108ea576108e9610e0f565b5b6108f26102b1565b600381111561090457610903610e0f565b5b14610944576040517f08c379a000000000000000000000000000000000000000000000000000000000815260040161093b90610d33565b60405180910390fd5b81600d60006101000a81548160ff0219169083600181111561096957610968610e0f565b5b0217905550600d60009054906101000a900460ff169050919050565b60008060009054906101000a900473ffffffffffffffffffffffffffffffffffffffff1673ffffffffffffffffffffffffffffffffffffffff163373ffffffffffffffffffffffffffffffffffffffff1614610a16576040517f08c379a0000000000000000000000000000000000000000000000000000000008152600401610a0d90610cd3565b60405180910390fd5b600380811115610a2957610a28610e0f565b5b610a316102b1565b6003811115610a4357610a42610e0f565b5b1415610a84576040517f08c379a0000000000000000000000000000000000000000000000000000000008152600401610a7b90610cf3565b60405180910390fd5b81600c81905550600c549050919050565b6000600a54905090565b600081359050610aae81610f81565b92915050565b600081359050610ac381610f98565b92915050565b600081359050610ad881610faf565b92915050565b600081359050610aed81610fbf565b92915050565b600060208284031215610b0957610b08610e3e565b5b6000610b1784828501610a9f565b91505092915050565b60008060408385031215610b3757610b36610e3e565b5b6000610b4585828601610ab4565b9250506020610b5685828601610ade565b9150509250929050565b600060208284031215610b7657610b75610e3e565b5b6000610b8484828501610ac9565b91505092915050565b600060208284031215610ba357610ba2610e3e565b5b6000610bb184828501610ade565b91505092915050565b610bc381610d7f565b82525050565b610bd281610deb565b82525050565b610be181610dfd565b82525050565b6000610bf4601383610d6e565b9150610bff82610e43565b602082019050919050565b6000610c17602883610d6e565b9150610c2282610e6c565b604082019050919050565b6000610c3a602883610d6e565b9150610c4582610ebb565b604082019050919050565b6000610c5d603383610d6e565b9150610c6882610f0a565b604082019050919050565b610c7c81610de1565b82525050565b6000602082019050610c976000830184610bba565b92915050565b6000602082019050610cb26000830184610bc9565b92915050565b6000602082019050610ccd6000830184610bd8565b92915050565b60006020820190508181036000830152610cec81610be7565b9050919050565b60006020820190508181036000830152610d0c81610c0a565b9050919050565b60006020820190508181036000830152610d2c81610c2d565b9050919050565b60006020820190508181036000830152610d4c81610c50565b9050919050565b6000602082019050610d686000830184610c73565b92915050565b600082825260208201905092915050565b6000610d8a82610dc1565b9050919050565b6000819050919050565b6000819050610da982610f59565b919050565b6000819050610dbc82610f6d565b919050565b600073ffffffffffffffffffffffffffffffffffffffff82169050919050565b6000819050919050565b6000610df682610d9b565b9050919050565b6000610e0882610dae565b9050919050565b7f4e487b7100000000000000000000000000000000000000000000000000000000600052602160045260246000fd5b600080fd5b7f43616c6c6572206973206e6f74206f776e657200000000000000000000000000600082015250565b7f4f6464732063616e206265206368616e676564206f6e6c7920647572696e672060008201527f7468652067616d65000000000000000000000000000000000000000000000000602082015250565b7f536f75726365206d75737420626520746865206f7261636c65206f662074686560008201527f2072657175657374000000000000000000000000000000000000000000000000602082015250565b7f546f20616e6e6f756e6365207468652077696e6e6572207468652067616d652060008201527f6861766520746f2062652066696e697368656400000000000000000000000000602082015250565b60028110610f6a57610f69610e0f565b5b50565b60048110610f7e57610f7d610e0f565b5b50565b610f8a81610d7f565b8114610f9557600080fd5b50565b610fa181610d91565b8114610fac57600080fd5b50565b60028110610fbc57600080fd5b50565b610fc881610de1565b8114610fd357600080fd5b5056fea2646970667358221220b14ed7825cdd977472652117e5c0397a6ee59a2b4d6ce81159c35c5c3b50e1b664736f6c63430008070033",
					"opcodes": "PUSH1 0x80 PUSH1 0x40 MSTORE PUSH1 0x1 PUSH1 0x5 SSTORE CALLVALUE DUP1 ISZERO PUSH3 0x16 JUMPI PUSH1 0x0 DUP1 REVERT JUMPDEST POP PUSH1 0x40 MLOAD PUSH3 0x11B4 CODESIZE SUB DUP1 PUSH3 0x11B4 DUP4 CODECOPY DUP2 DUP2 ADD PUSH1 0x40 MSTORE DUP2 ADD SWAP1 PUSH3 0x3C SWAP2 SWAP1 PUSH3 0x113 JUMP JUMPDEST CALLER PUSH20 0xFFFFFFFFFFFFFFFFFFFFFFFFFFFFFFFFFFFFFFFF AND PUSH1 0x0 PUSH20 0xFFFFFFFFFFFFFFFFFFFFFFFFFFFFFFFFFFFFFFFF AND PUSH32 0x342827C97908E5E2F71151C08502A66D44B6F758E3AC2F1DE95F02EB95F0A735 PUSH1 0x40 MLOAD PUSH1 0x40 MLOAD DUP1 SWAP2 SUB SWAP1 LOG3 CALLER PUSH1 0x0 DUP1 PUSH2 0x100 EXP DUP2 SLOAD DUP2 PUSH20 0xFFFFFFFFFFFFFFFFFFFFFFFFFFFFFFFFFFFFFFFF MUL NOT AND SWAP1 DUP4 PUSH20 0xFFFFFFFFFFFFFFFFFFFFFFFFFFFFFFFFFFFFFFFF AND MUL OR SWAP1 SSTORE POP TIMESTAMP PUSH1 0x7 DUP2 SWAP1 SSTORE POP DUP3 PUSH1 0x8 DUP2 SWAP1 SSTORE POP DUP2 PUSH1 0x9 DUP2 SWAP1 SSTORE POP DUP1 PUSH1 0xA DUP2 SWAP1 SSTORE POP POP POP POP PUSH3 0x198 JUMP JUMPDEST PUSH1 0x0 DUP2 MLOAD SWAP1 POP PUSH3 0x10D DUP2 PUSH3 0x17E JUMP JUMPDEST SWAP3 SWAP2 POP POP JUMP JUMPDEST PUSH1 0x0 DUP1 PUSH1 0x0 PUSH1 0x60 DUP5 DUP7 SUB SLT ISZERO PUSH3 0x12F JUMPI PUSH3 0x12E PUSH3 0x179 JUMP JUMPDEST JUMPDEST PUSH1 0x0 PUSH3 0x13F DUP7 DUP3 DUP8 ADD PUSH3 0xFC JUMP JUMPDEST SWAP4 POP POP PUSH1 0x20 PUSH3 0x152 DUP7 DUP3 DUP8 ADD PUSH3 0xFC JUMP JUMPDEST SWAP3 POP POP PUSH1 0x40 PUSH3 0x165 DUP7 DUP3 DUP8 ADD PUSH3 0xFC JUMP JUMPDEST SWAP2 POP POP SWAP3 POP SWAP3 POP SWAP3 JUMP JUMPDEST PUSH1 0x0 DUP2 SWAP1 POP SWAP2 SWAP1 POP JUMP JUMPDEST PUSH1 0x0 DUP1 REVERT JUMPDEST PUSH3 0x189 DUP2 PUSH3 0x16F JUMP JUMPDEST DUP2 EQ PUSH3 0x195 JUMPI PUSH1 0x0 DUP1 REVERT JUMPDEST POP JUMP JUMPDEST PUSH2 0x100C DUP1 PUSH3 0x1A8 PUSH1 0x0 CODECOPY PUSH1 0x0 RETURN INVALID PUSH1 0x80 PUSH1 0x40 MSTORE PUSH1 0x4 CALLDATASIZE LT PUSH2 0x9C JUMPI PUSH1 0x0 CALLDATALOAD PUSH1 0xE0 SHR DUP1 PUSH4 0xA6F9DAE1 GT PUSH2 0x64 JUMPI DUP1 PUSH4 0xA6F9DAE1 EQ PUSH2 0x17B JUMPI DUP1 PUSH4 0xB9D76DA9 EQ PUSH2 0x1A4 JUMPI DUP1 PUSH4 0xC828371E EQ PUSH2 0x1E1 JUMPI DUP1 PUSH4 0xDD1C828A EQ PUSH2 0x20C JUMPI DUP1 PUSH4 0xF2C3E469 EQ PUSH2 0x249 JUMPI DUP1 PUSH4 0xFADEAF76 EQ PUSH2 0x286 JUMPI PUSH2 0x9C JUMP JUMPDEST DUP1 PUSH4 0x1865C57D EQ PUSH2 0xA1 JUMPI DUP1 PUSH4 0x35644C7B EQ PUSH2 0xCC JUMPI DUP1 PUSH4 0x4357855E EQ PUSH2 0xFC JUMPI DUP1 PUSH4 0x893D20E8 EQ PUSH2 0x125 JUMPI DUP1 PUSH4 0x8EA36D47 EQ PUSH2 0x150 JUMPI JUMPDEST PUSH1 0x0 DUP1 REVERT JUMPDEST CALLVALUE DUP1 ISZERO PUSH2 0xAD JUMPI PUSH1 0x0 DUP1 REVERT JUMPDEST POP PUSH2 0xB6 PUSH2 0x2B1 JUMP JUMPDEST PUSH1 0x40 MLOAD PUSH2 0xC3 SWAP2 SWAP1 PUSH2 0xCB8 JUMP JUMPDEST PUSH1 0x40 MLOAD DUP1 SWAP2 SUB SWAP1 RETURN JUMPDEST PUSH2 0xE6 PUSH1 0x4 DUP1 CALLDATASIZE SUB DUP2 ADD SWAP1 PUSH2 0xE1 SWAP2 SWAP1 PUSH2 0xB60 JUMP JUMPDEST PUSH2 0x318 JUMP JUMPDEST PUSH1 0x40 MLOAD PUSH2 0xF3 SWAP2 SWAP1 PUSH2 0xD53 JUMP JUMPDEST PUSH1 0x40 MLOAD DUP1 SWAP2 SUB SWAP1 RETURN JUMPDEST CALLVALUE DUP1 ISZERO PUSH2 0x108 JUMPI PUSH1 0x0 DUP1 REVERT JUMPDEST POP PUSH2 0x123 PUSH1 0x4 DUP1 CALLDATASIZE SUB DUP2 ADD SWAP1 PUSH2 0x11E SWAP2 SWAP1 PUSH2 0xB20 JUMP JUMPDEST PUSH2 0x4A4 JUMP JUMPDEST STOP JUMPDEST CALLVALUE DUP1 ISZERO PUSH2 0x131 JUMPI PUSH1 0x0 DUP1 REVERT JUMPDEST POP PUSH2 0x13A PUSH2 0x5AE JUMP JUMPDEST PUSH1 0x40 MLOAD PUSH2 0x147 SWAP2 SWAP1 PUSH2 0xC82 JUMP JUMPDEST PUSH1 0x40 MLOAD DUP1 SWAP2 SUB SWAP1 RETURN JUMPDEST CALLVALUE DUP1 ISZERO PUSH2 0x15C JUMPI PUSH1 0x0 DUP1 REVERT JUMPDEST POP PUSH2 0x165 PUSH2 0x5D7 JUMP JUMPDEST PUSH1 0x40 MLOAD PUSH2 0x172 SWAP2 SWAP1 PUSH2 0xD53 JUMP JUMPDEST PUSH1 0x40 MLOAD DUP1 SWAP2 SUB SWAP1 RETURN JUMPDEST CALLVALUE DUP1 ISZERO PUSH2 0x187 JUMPI PUSH1 0x0 DUP1 REVERT JUMPDEST POP PUSH2 0x1A2 PUSH1 0x4 DUP1 CALLDATASIZE SUB DUP2 ADD SWAP1 PUSH2 0x19D SWAP2 SWAP1 PUSH2 0xAF3 JUMP JUMPDEST PUSH2 0x5E1 JUMP JUMPDEST STOP JUMPDEST CALLVALUE DUP1 ISZERO PUSH2 0x1B0 JUMPI PUSH1 0x0 DUP1 REVERT JUMPDEST POP PUSH2 0x1CB PUSH1 0x4 DUP1 CALLDATASIZE SUB DUP2 ADD SWAP1 PUSH2 0x1C6 SWAP2 SWAP1 PUSH2 0xB8D JUMP JUMPDEST PUSH2 0x72C JUMP JUMPDEST PUSH1 0x40 MLOAD PUSH2 0x1D8 SWAP2 SWAP1 PUSH2 0xD53 JUMP JUMPDEST PUSH1 0x40 MLOAD DUP1 SWAP2 SUB SWAP1 RETURN JUMPDEST CALLVALUE DUP1 ISZERO PUSH2 0x1ED JUMPI PUSH1 0x0 DUP1 REVERT JUMPDEST POP PUSH2 0x1F6 PUSH2 0x83C JUMP JUMPDEST PUSH1 0x40 MLOAD PUSH2 0x203 SWAP2 SWAP1 PUSH2 0xD53 JUMP JUMPDEST PUSH1 0x40 MLOAD DUP1 SWAP2 SUB SWAP1 RETURN JUMPDEST CALLVALUE DUP1 ISZERO PUSH2 0x218 JUMPI PUSH1 0x0 DUP1 REVERT JUMPDEST POP PUSH2 0x233 PUSH1 0x4 DUP1 CALLDATASIZE SUB DUP2 ADD SWAP1 PUSH2 0x22E SWAP2 SWAP1 PUSH2 0xB60 JUMP JUMPDEST PUSH2 0x846 JUMP JUMPDEST PUSH1 0x40 MLOAD PUSH2 0x240 SWAP2 SWAP1 PUSH2 0xC9D JUMP JUMPDEST PUSH1 0x40 MLOAD DUP1 SWAP2 SUB SWAP1 RETURN JUMPDEST CALLVALUE DUP1 ISZERO PUSH2 0x255 JUMPI PUSH1 0x0 DUP1 REVERT JUMPDEST POP PUSH2 0x270 PUSH1 0x4 DUP1 CALLDATASIZE SUB DUP2 ADD SWAP1 PUSH2 0x26B SWAP2 SWAP1 PUSH2 0xB8D JUMP JUMPDEST PUSH2 0x985 JUMP JUMPDEST PUSH1 0x40 MLOAD PUSH2 0x27D SWAP2 SWAP1 PUSH2 0xD53 JUMP JUMPDEST PUSH1 0x40 MLOAD DUP1 SWAP2 SUB SWAP1 RETURN JUMPDEST CALLVALUE DUP1 ISZERO PUSH2 0x292 JUMPI PUSH1 0x0 DUP1 REVERT JUMPDEST POP PUSH2 0x29B PUSH2 0xA95 JUMP JUMPDEST PUSH1 0x40 MLOAD PUSH2 0x2A8 SWAP2 SWAP1 PUSH2 0xD53 JUMP JUMPDEST PUSH1 0x40 MLOAD DUP1 SWAP2 SUB SWAP1 RETURN JUMPDEST PUSH1 0x0 DUP1 TIMESTAMP SWAP1 POP PUSH1 0x8 SLOAD DUP2 LT ISZERO PUSH2 0x2CB JUMPI PUSH1 0x0 SWAP2 POP POP PUSH2 0x315 JUMP JUMPDEST DUP1 PUSH1 0x8 SLOAD GT ISZERO DUP1 ISZERO PUSH2 0x2DE JUMPI POP PUSH1 0x9 SLOAD DUP2 LT JUMPDEST ISZERO PUSH2 0x2ED JUMPI PUSH1 0x1 SWAP2 POP POP PUSH2 0x315 JUMP JUMPDEST DUP1 PUSH1 0x9 SLOAD GT ISZERO DUP1 ISZERO PUSH2 0x300 JUMPI POP PUSH1 0xA SLOAD DUP2 LT JUMPDEST ISZERO PUSH2 0x30F JUMPI PUSH1 0x2 SWAP2 POP POP PUSH2 0x315 JUMP JUMPDEST PUSH1 0x3 SWAP2 POP POP JUMPDEST SWAP1 JUMP JUMPDEST PUSH1 0x0 DUP1 PUSH1 0x40 MLOAD DUP1 PUSH1 0xA0 ADD PUSH1 0x40 MSTORE DUP1 CALLER PUSH20 0xFFFFFFFFFFFFFFFFFFFFFFFFFFFFFFFFFFFFFFFF AND DUP2 MSTORE PUSH1 0x20 ADD PUSH1 0xB SLOAD DUP2 MSTORE PUSH1 0x20 ADD PUSH1 0xC SLOAD DUP2 MSTORE PUSH1 0x20 ADD DUP5 PUSH1 0x1 DUP2 GT ISZERO PUSH2 0x365 JUMPI PUSH2 0x364 PUSH2 0xE0F JUMP JUMPDEST JUMPDEST DUP2 MSTORE PUSH1 0x20 ADD CALLVALUE DUP2 MSTORE POP SWAP1 POP PUSH1 0xE DUP2 SWAP1 DUP1 PUSH1 0x1 DUP2 SLOAD ADD DUP1 DUP3 SSTORE DUP1 SWAP2 POP POP PUSH1 0x1 SWAP1 SUB SWAP1 PUSH1 0x0 MSTORE PUSH1 0x20 PUSH1 0x0 KECCAK256 SWAP1 PUSH1 0x5 MUL ADD PUSH1 0x0 SWAP1 SWAP2 SWAP1 SWAP2 SWAP1 SWAP2 POP PUSH1 0x0 DUP3 ADD MLOAD DUP2 PUSH1 0x0 ADD PUSH1 0x0 PUSH2 0x100 EXP DUP2 SLOAD DUP2 PUSH20 0xFFFFFFFFFFFFFFFFFFFFFFFFFFFFFFFFFFFFFFFF MUL NOT AND SWAP1 DUP4 PUSH20 0xFFFFFFFFFFFFFFFFFFFFFFFFFFFFFFFFFFFFFFFF AND MUL OR SWAP1 SSTORE POP PUSH1 0x20 DUP3 ADD MLOAD DUP2 PUSH1 0x1 ADD SSTORE PUSH1 0x40 DUP3 ADD MLOAD DUP2 PUSH1 0x2 ADD SSTORE PUSH1 0x60 DUP3 ADD MLOAD DUP2 PUSH1 0x3 ADD PUSH1 0x0 PUSH2 0x100 EXP DUP2 SLOAD DUP2 PUSH1 0xFF MUL NOT AND SWAP1 DUP4 PUSH1 0x1 DUP2 GT ISZERO PUSH2 0x422 JUMPI PUSH2 0x421 PUSH2 0xE0F JUMP JUMPDEST JUMPDEST MUL OR SWAP1 SSTORE POP PUSH1 0x80 DUP3 ADD MLOAD DUP2 PUSH1 0x4 ADD SSTORE POP POP DUP1 PUSH1 0x60 ADD MLOAD PUSH1 0x1 DUP2 GT ISZERO PUSH2 0x44A JUMPI PUSH2 0x449 PUSH2 0xE0F JUMP JUMPDEST JUMPDEST DUP2 PUSH1 0x80 ADD MLOAD DUP3 PUSH1 0x0 ADD MLOAD PUSH20 0xFFFFFFFFFFFFFFFFFFFFFFFFFFFFFFFFFFFFFFFF AND PUSH32 0xD0EC3D0F31FEA1291096288253382FDC9811DCF678E1E7628EB851CEF2BA0A11 PUSH1 0x40 MLOAD PUSH1 0x40 MLOAD DUP1 SWAP2 SUB SWAP1 LOG4 PUSH1 0xE DUP1 SLOAD SWAP1 POP SWAP2 POP POP SWAP2 SWAP1 POP JUMP JUMPDEST DUP2 PUSH1 0x6 PUSH1 0x0 DUP3 DUP2 MSTORE PUSH1 0x20 ADD SWAP1 DUP2 MSTORE PUSH1 0x20 ADD PUSH1 0x0 KECCAK256 PUSH1 0x0 SWAP1 SLOAD SWAP1 PUSH2 0x100 EXP SWAP1 DIV PUSH20 0xFFFFFFFFFFFFFFFFFFFFFFFFFFFFFFFFFFFFFFFF AND PUSH20 0xFFFFFFFFFFFFFFFFFFFFFFFFFFFFFFFFFFFFFFFF AND CALLER PUSH20 0xFFFFFFFFFFFFFFFFFFFFFFFFFFFFFFFFFFFFFFFF AND EQ PUSH2 0x546 JUMPI PUSH1 0x40 MLOAD PUSH32 0x8C379A000000000000000000000000000000000000000000000000000000000 DUP2 MSTORE PUSH1 0x4 ADD PUSH2 0x53D SWAP1 PUSH2 0xD13 JUMP JUMPDEST PUSH1 0x40 MLOAD DUP1 SWAP2 SUB SWAP1 REVERT JUMPDEST PUSH1 0x6 PUSH1 0x0 DUP3 DUP2 MSTORE PUSH1 0x20 ADD SWAP1 DUP2 MSTORE PUSH1 0x20 ADD PUSH1 0x0 KECCAK256 PUSH1 0x0 PUSH2 0x100 EXP DUP2 SLOAD SWAP1 PUSH20 0xFFFFFFFFFFFFFFFFFFFFFFFFFFFFFFFFFFFFFFFF MUL NOT AND SWAP1 SSTORE DUP1 PUSH32 0x7CC135E0CEBB02C3480AE5D74D377283180A2601F8F644EDF7987B009316C63A PUSH1 0x40 MLOAD PUSH1 0x40 MLOAD DUP1 SWAP2 SUB SWAP1 LOG2 POP POP POP JUMP JUMPDEST PUSH1 0x0 DUP1 PUSH1 0x0 SWAP1 SLOAD SWAP1 PUSH2 0x100 EXP SWAP1 DIV PUSH20 0xFFFFFFFFFFFFFFFFFFFFFFFFFFFFFFFFFFFFFFFF AND SWAP1 POP SWAP1 JUMP JUMPDEST PUSH1 0x0 PUSH1 0x9 SLOAD SWAP1 POP SWAP1 JUMP JUMPDEST PUSH1 0x0 DUP1 SLOAD SWAP1 PUSH2 0x100 EXP SWAP1 DIV PUSH20 0xFFFFFFFFFFFFFFFFFFFFFFFFFFFFFFFFFFFFFFFF AND PUSH20 0xFFFFFFFFFFFFFFFFFFFFFFFFFFFFFFFFFFFFFFFF AND CALLER PUSH20 0xFFFFFFFFFFFFFFFFFFFFFFFFFFFFFFFFFFFFFFFF AND EQ PUSH2 0x66F JUMPI PUSH1 0x40 MLOAD PUSH32 0x8C379A000000000000000000000000000000000000000000000000000000000 DUP2 MSTORE PUSH1 0x4 ADD PUSH2 0x666 SWAP1 PUSH2 0xCD3 JUMP JUMPDEST PUSH1 0x40 MLOAD DUP1 SWAP2 SUB SWAP1 REVERT JUMPDEST DUP1 PUSH20 0xFFFFFFFFFFFFFFFFFFFFFFFFFFFFFFFFFFFFFFFF AND PUSH1 0x0 DUP1 SLOAD SWAP1 PUSH2 0x100 EXP SWAP1 DIV PUSH20 0xFFFFFFFFFFFFFFFFFFFFFFFFFFFFFFFFFFFFFFFF AND PUSH20 0xFFFFFFFFFFFFFFFFFFFFFFFFFFFFFFFFFFFFFFFF AND PUSH32 0x342827C97908E5E2F71151C08502A66D44B6F758E3AC2F1DE95F02EB95F0A735 PUSH1 0x40 MLOAD PUSH1 0x40 MLOAD DUP1 SWAP2 SUB SWAP1 LOG3 DUP1 PUSH1 0x0 DUP1 PUSH2 0x100 EXP DUP2 SLOAD DUP2 PUSH20 0xFFFFFFFFFFFFFFFFFFFFFFFFFFFFFFFFFFFFFFFF MUL NOT AND SWAP1 DUP4 PUSH20 0xFFFFFFFFFFFFFFFFFFFFFFFFFFFFFFFFFFFFFFFF AND MUL OR SWAP1 SSTORE POP POP JUMP JUMPDEST PUSH1 0x0 DUP1 PUSH1 0x0 SWAP1 SLOAD SWAP1 PUSH2 0x100 EXP SWAP1 DIV PUSH20 0xFFFFFFFFFFFFFFFFFFFFFFFFFFFFFFFFFFFFFFFF AND PUSH20 0xFFFFFFFFFFFFFFFFFFFFFFFFFFFFFFFFFFFFFFFF AND CALLER PUSH20 0xFFFFFFFFFFFFFFFFFFFFFFFFFFFFFFFFFFFFFFFF AND EQ PUSH2 0x7BD JUMPI PUSH1 0x40 MLOAD PUSH32 0x8C379A000000000000000000000000000000000000000000000000000000000 DUP2 MSTORE PUSH1 0x4 ADD PUSH2 0x7B4 SWAP1 PUSH2 0xCD3 JUMP JUMPDEST PUSH1 0x40 MLOAD DUP1 SWAP2 SUB SWAP1 REVERT JUMPDEST PUSH1 0x3 DUP1 DUP2 GT ISZERO PUSH2 0x7D0 JUMPI PUSH2 0x7CF PUSH2 0xE0F JUMP JUMPDEST JUMPDEST PUSH2 0x7D8 PUSH2 0x2B1 JUMP JUMPDEST PUSH1 0x3 DUP2 GT ISZERO PUSH2 0x7EA JUMPI PUSH2 0x7E9 PUSH2 0xE0F JUMP JUMPDEST JUMPDEST EQ ISZERO PUSH2 0x82B JUMPI PUSH1 0x40 MLOAD PUSH32 0x8C379A000000000000000000000000000000000000000000000000000000000 DUP2 MSTORE PUSH1 0x4 ADD PUSH2 0x822 SWAP1 PUSH2 0xCF3 JUMP JUMPDEST PUSH1 0x40 MLOAD DUP1 SWAP2 SUB SWAP1 REVERT JUMPDEST DUP2 PUSH1 0xB DUP2 SWAP1 SSTORE POP PUSH1 0xB SLOAD SWAP1 POP SWAP2 SWAP1 POP JUMP JUMPDEST PUSH1 0x0 PUSH1 0x8 SLOAD SWAP1 POP SWAP1 JUMP JUMPDEST PUSH1 0x0 DUP1 PUSH1 0x0 SWAP1 SLOAD SWAP1 PUSH2 0x100 EXP SWAP1 DIV PUSH20 0xFFFFFFFFFFFFFFFFFFFFFFFFFFFFFFFFFFFFFFFF AND PUSH20 0xFFFFFFFFFFFFFFFFFFFFFFFFFFFFFFFFFFFFFFFF AND CALLER PUSH20 0xFFFFFFFFFFFFFFFFFFFFFFFFFFFFFFFFFFFFFFFF AND EQ PUSH2 0x8D7 JUMPI PUSH1 0x40 MLOAD PUSH32 0x8C379A000000000000000000000000000000000000000000000000000000000 DUP2 MSTORE PUSH1 0x4 ADD PUSH2 0x8CE SWAP1 PUSH2 0xCD3 JUMP JUMPDEST PUSH1 0x40 MLOAD DUP1 SWAP2 SUB SWAP1 REVERT JUMPDEST PUSH1 0x3 DUP1 DUP2 GT ISZERO PUSH2 0x8EA JUMPI PUSH2 0x8E9 PUSH2 0xE0F JUMP JUMPDEST JUMPDEST PUSH2 0x8F2 PUSH2 0x2B1 JUMP JUMPDEST PUSH1 0x3 DUP2 GT ISZERO PUSH2 0x904 JUMPI PUSH2 0x903 PUSH2 0xE0F JUMP JUMPDEST JUMPDEST EQ PUSH2 0x944 JUMPI PUSH1 0x40 MLOAD PUSH32 0x8C379A000000000000000000000000000000000000000000000000000000000 DUP2 MSTORE PUSH1 0x4 ADD PUSH2 0x93B SWAP1 PUSH2 0xD33 JUMP JUMPDEST PUSH1 0x40 MLOAD DUP1 SWAP2 SUB SWAP1 REVERT JUMPDEST DUP2 PUSH1 0xD PUSH1 0x0 PUSH2 0x100 EXP DUP2 SLOAD DUP2 PUSH1 0xFF MUL NOT AND SWAP1 DUP4 PUSH1 0x1 DUP2 GT ISZERO PUSH2 0x969 JUMPI PUSH2 0x968 PUSH2 0xE0F JUMP JUMPDEST JUMPDEST MUL OR SWAP1 SSTORE POP PUSH1 0xD PUSH1 0x0 SWAP1 SLOAD SWAP1 PUSH2 0x100 EXP SWAP1 DIV PUSH1 0xFF AND SWAP1 POP SWAP2 SWAP1 POP JUMP JUMPDEST PUSH1 0x0 DUP1 PUSH1 0x0 SWAP1 SLOAD SWAP1 PUSH2 0x100 EXP SWAP1 DIV PUSH20 0xFFFFFFFFFFFFFFFFFFFFFFFFFFFFFFFFFFFFFFFF AND PUSH20 0xFFFFFFFFFFFFFFFFFFFFFFFFFFFFFFFFFFFFFFFF AND CALLER PUSH20 0xFFFFFFFFFFFFFFFFFFFFFFFFFFFFFFFFFFFFFFFF AND EQ PUSH2 0xA16 JUMPI PUSH1 0x40 MLOAD PUSH32 0x8C379A000000000000000000000000000000000000000000000000000000000 DUP2 MSTORE PUSH1 0x4 ADD PUSH2 0xA0D SWAP1 PUSH2 0xCD3 JUMP JUMPDEST PUSH1 0x40 MLOAD DUP1 SWAP2 SUB SWAP1 REVERT JUMPDEST PUSH1 0x3 DUP1 DUP2 GT ISZERO PUSH2 0xA29 JUMPI PUSH2 0xA28 PUSH2 0xE0F JUMP JUMPDEST JUMPDEST PUSH2 0xA31 PUSH2 0x2B1 JUMP JUMPDEST PUSH1 0x3 DUP2 GT ISZERO PUSH2 0xA43 JUMPI PUSH2 0xA42 PUSH2 0xE0F JUMP JUMPDEST JUMPDEST EQ ISZERO PUSH2 0xA84 JUMPI PUSH1 0x40 MLOAD PUSH32 0x8C379A000000000000000000000000000000000000000000000000000000000 DUP2 MSTORE PUSH1 0x4 ADD PUSH2 0xA7B SWAP1 PUSH2 0xCF3 JUMP JUMPDEST PUSH1 0x40 MLOAD DUP1 SWAP2 SUB SWAP1 REVERT JUMPDEST DUP2 PUSH1 0xC DUP2 SWAP1 SSTORE POP PUSH1 0xC SLOAD SWAP1 POP SWAP2 SWAP1 POP JUMP JUMPDEST PUSH1 0x0 PUSH1 0xA SLOAD SWAP1 POP SWAP1 JUMP JUMPDEST PUSH1 0x0 DUP2 CALLDATALOAD SWAP1 POP PUSH2 0xAAE DUP2 PUSH2 0xF81 JUMP JUMPDEST SWAP3 SWAP2 POP POP JUMP JUMPDEST PUSH1 0x0 DUP2 CALLDATALOAD SWAP1 POP PUSH2 0xAC3 DUP2 PUSH2 0xF98 JUMP JUMPDEST SWAP3 SWAP2 POP POP JUMP JUMPDEST PUSH1 0x0 DUP2 CALLDATALOAD SWAP1 POP PUSH2 0xAD8 DUP2 PUSH2 0xFAF JUMP JUMPDEST SWAP3 SWAP2 POP POP JUMP JUMPDEST PUSH1 0x0 DUP2 CALLDATALOAD SWAP1 POP PUSH2 0xAED DUP2 PUSH2 0xFBF JUMP JUMPDEST SWAP3 SWAP2 POP POP JUMP JUMPDEST PUSH1 0x0 PUSH1 0x20 DUP3 DUP5 SUB SLT ISZERO PUSH2 0xB09 JUMPI PUSH2 0xB08 PUSH2 0xE3E JUMP JUMPDEST JUMPDEST PUSH1 0x0 PUSH2 0xB17 DUP5 DUP3 DUP6 ADD PUSH2 0xA9F JUMP JUMPDEST SWAP2 POP POP SWAP3 SWAP2 POP POP JUMP JUMPDEST PUSH1 0x0 DUP1 PUSH1 0x40 DUP4 DUP6 SUB SLT ISZERO PUSH2 0xB37 JUMPI PUSH2 0xB36 PUSH2 0xE3E JUMP JUMPDEST JUMPDEST PUSH1 0x0 PUSH2 0xB45 DUP6 DUP3 DUP7 ADD PUSH2 0xAB4 JUMP JUMPDEST SWAP3 POP POP PUSH1 0x20 PUSH2 0xB56 DUP6 DUP3 DUP7 ADD PUSH2 0xADE JUMP JUMPDEST SWAP2 POP POP SWAP3 POP SWAP3 SWAP1 POP JUMP JUMPDEST PUSH1 0x0 PUSH1 0x20 DUP3 DUP5 SUB SLT ISZERO PUSH2 0xB76 JUMPI PUSH2 0xB75 PUSH2 0xE3E JUMP JUMPDEST JUMPDEST PUSH1 0x0 PUSH2 0xB84 DUP5 DUP3 DUP6 ADD PUSH2 0xAC9 JUMP JUMPDEST SWAP2 POP POP SWAP3 SWAP2 POP POP JUMP JUMPDEST PUSH1 0x0 PUSH1 0x20 DUP3 DUP5 SUB SLT ISZERO PUSH2 0xBA3 JUMPI PUSH2 0xBA2 PUSH2 0xE3E JUMP JUMPDEST JUMPDEST PUSH1 0x0 PUSH2 0xBB1 DUP5 DUP3 DUP6 ADD PUSH2 0xADE JUMP JUMPDEST SWAP2 POP POP SWAP3 SWAP2 POP POP JUMP JUMPDEST PUSH2 0xBC3 DUP2 PUSH2 0xD7F JUMP JUMPDEST DUP3 MSTORE POP POP JUMP JUMPDEST PUSH2 0xBD2 DUP2 PUSH2 0xDEB JUMP JUMPDEST DUP3 MSTORE POP POP JUMP JUMPDEST PUSH2 0xBE1 DUP2 PUSH2 0xDFD JUMP JUMPDEST DUP3 MSTORE POP POP JUMP JUMPDEST PUSH1 0x0 PUSH2 0xBF4 PUSH1 0x13 DUP4 PUSH2 0xD6E JUMP JUMPDEST SWAP2 POP PUSH2 0xBFF DUP3 PUSH2 0xE43 JUMP JUMPDEST PUSH1 0x20 DUP3 ADD SWAP1 POP SWAP2 SWAP1 POP JUMP JUMPDEST PUSH1 0x0 PUSH2 0xC17 PUSH1 0x28 DUP4 PUSH2 0xD6E JUMP JUMPDEST SWAP2 POP PUSH2 0xC22 DUP3 PUSH2 0xE6C JUMP JUMPDEST PUSH1 0x40 DUP3 ADD SWAP1 POP SWAP2 SWAP1 POP JUMP JUMPDEST PUSH1 0x0 PUSH2 0xC3A PUSH1 0x28 DUP4 PUSH2 0xD6E JUMP JUMPDEST SWAP2 POP PUSH2 0xC45 DUP3 PUSH2 0xEBB JUMP JUMPDEST PUSH1 0x40 DUP3 ADD SWAP1 POP SWAP2 SWAP1 POP JUMP JUMPDEST PUSH1 0x0 PUSH2 0xC5D PUSH1 0x33 DUP4 PUSH2 0xD6E JUMP JUMPDEST SWAP2 POP PUSH2 0xC68 DUP3 PUSH2 0xF0A JUMP JUMPDEST PUSH1 0x40 DUP3 ADD SWAP1 POP SWAP2 SWAP1 POP JUMP JUMPDEST PUSH2 0xC7C DUP2 PUSH2 0xDE1 JUMP JUMPDEST DUP3 MSTORE POP POP JUMP JUMPDEST PUSH1 0x0 PUSH1 0x20 DUP3 ADD SWAP1 POP PUSH2 0xC97 PUSH1 0x0 DUP4 ADD DUP5 PUSH2 0xBBA JUMP JUMPDEST SWAP3 SWAP2 POP POP JUMP JUMPDEST PUSH1 0x0 PUSH1 0x20 DUP3 ADD SWAP1 POP PUSH2 0xCB2 PUSH1 0x0 DUP4 ADD DUP5 PUSH2 0xBC9 JUMP JUMPDEST SWAP3 SWAP2 POP POP JUMP JUMPDEST PUSH1 0x0 PUSH1 0x20 DUP3 ADD SWAP1 POP PUSH2 0xCCD PUSH1 0x0 DUP4 ADD DUP5 PUSH2 0xBD8 JUMP JUMPDEST SWAP3 SWAP2 POP POP JUMP JUMPDEST PUSH1 0x0 PUSH1 0x20 DUP3 ADD SWAP1 POP DUP2 DUP2 SUB PUSH1 0x0 DUP4 ADD MSTORE PUSH2 0xCEC DUP2 PUSH2 0xBE7 JUMP JUMPDEST SWAP1 POP SWAP2 SWAP1 POP JUMP JUMPDEST PUSH1 0x0 PUSH1 0x20 DUP3 ADD SWAP1 POP DUP2 DUP2 SUB PUSH1 0x0 DUP4 ADD MSTORE PUSH2 0xD0C DUP2 PUSH2 0xC0A JUMP JUMPDEST SWAP1 POP SWAP2 SWAP1 POP JUMP JUMPDEST PUSH1 0x0 PUSH1 0x20 DUP3 ADD SWAP1 POP DUP2 DUP2 SUB PUSH1 0x0 DUP4 ADD MSTORE PUSH2 0xD2C DUP2 PUSH2 0xC2D JUMP JUMPDEST SWAP1 POP SWAP2 SWAP1 POP JUMP JUMPDEST PUSH1 0x0 PUSH1 0x20 DUP3 ADD SWAP1 POP DUP2 DUP2 SUB PUSH1 0x0 DUP4 ADD MSTORE PUSH2 0xD4C DUP2 PUSH2 0xC50 JUMP JUMPDEST SWAP1 POP SWAP2 SWAP1 POP JUMP JUMPDEST PUSH1 0x0 PUSH1 0x20 DUP3 ADD SWAP1 POP PUSH2 0xD68 PUSH1 0x0 DUP4 ADD DUP5 PUSH2 0xC73 JUMP JUMPDEST SWAP3 SWAP2 POP POP JUMP JUMPDEST PUSH1 0x0 DUP3 DUP3 MSTORE PUSH1 0x20 DUP3 ADD SWAP1 POP SWAP3 SWAP2 POP POP JUMP JUMPDEST PUSH1 0x0 PUSH2 0xD8A DUP3 PUSH2 0xDC1 JUMP JUMPDEST SWAP1 POP SWAP2 SWAP1 POP JUMP JUMPDEST PUSH1 0x0 DUP2 SWAP1 POP SWAP2 SWAP1 POP JUMP JUMPDEST PUSH1 0x0 DUP2 SWAP1 POP PUSH2 0xDA9 DUP3 PUSH2 0xF59 JUMP JUMPDEST SWAP2 SWAP1 POP JUMP JUMPDEST PUSH1 0x0 DUP2 SWAP1 POP PUSH2 0xDBC DUP3 PUSH2 0xF6D JUMP JUMPDEST SWAP2 SWAP1 POP JUMP JUMPDEST PUSH1 0x0 PUSH20 0xFFFFFFFFFFFFFFFFFFFFFFFFFFFFFFFFFFFFFFFF DUP3 AND SWAP1 POP SWAP2 SWAP1 POP JUMP JUMPDEST PUSH1 0x0 DUP2 SWAP1 POP SWAP2 SWAP1 POP JUMP JUMPDEST PUSH1 0x0 PUSH2 0xDF6 DUP3 PUSH2 0xD9B JUMP JUMPDEST SWAP1 POP SWAP2 SWAP1 POP JUMP JUMPDEST PUSH1 0x0 PUSH2 0xE08 DUP3 PUSH2 0xDAE JUMP JUMPDEST SWAP1 POP SWAP2 SWAP1 POP JUMP JUMPDEST PUSH32 0x4E487B7100000000000000000000000000000000000000000000000000000000 PUSH1 0x0 MSTORE PUSH1 0x21 PUSH1 0x4 MSTORE PUSH1 0x24 PUSH1 0x0 REVERT JUMPDEST PUSH1 0x0 DUP1 REVERT JUMPDEST PUSH32 0x43616C6C6572206973206E6F74206F776E657200000000000000000000000000 PUSH1 0x0 DUP3 ADD MSTORE POP JUMP JUMPDEST PUSH32 0x4F6464732063616E206265206368616E676564206F6E6C7920647572696E6720 PUSH1 0x0 DUP3 ADD MSTORE PUSH32 0x7468652067616D65000000000000000000000000000000000000000000000000 PUSH1 0x20 DUP3 ADD MSTORE POP JUMP JUMPDEST PUSH32 0x536F75726365206D75737420626520746865206F7261636C65206F6620746865 PUSH1 0x0 DUP3 ADD MSTORE PUSH32 0x2072657175657374000000000000000000000000000000000000000000000000 PUSH1 0x20 DUP3 ADD MSTORE POP JUMP JUMPDEST PUSH32 0x546F20616E6E6F756E6365207468652077696E6E6572207468652067616D6520 PUSH1 0x0 DUP3 ADD MSTORE PUSH32 0x6861766520746F2062652066696E697368656400000000000000000000000000 PUSH1 0x20 DUP3 ADD MSTORE POP JUMP JUMPDEST PUSH1 0x2 DUP2 LT PUSH2 0xF6A JUMPI PUSH2 0xF69 PUSH2 0xE0F JUMP JUMPDEST JUMPDEST POP JUMP JUMPDEST PUSH1 0x4 DUP2 LT PUSH2 0xF7E JUMPI PUSH2 0xF7D PUSH2 0xE0F JUMP JUMPDEST JUMPDEST POP JUMP JUMPDEST PUSH2 0xF8A DUP2 PUSH2 0xD7F JUMP JUMPDEST DUP2 EQ PUSH2 0xF95 JUMPI PUSH1 0x0 DUP1 REVERT JUMPDEST POP JUMP JUMPDEST PUSH2 0xFA1 DUP2 PUSH2 0xD91 JUMP JUMPDEST DUP2 EQ PUSH2 0xFAC JUMPI PUSH1 0x0 DUP1 REVERT JUMPDEST POP JUMP JUMPDEST PUSH1 0x2 DUP2 LT PUSH2 0xFBC JUMPI PUSH1 0x0 DUP1 REVERT JUMPDEST POP JUMP JUMPDEST PUSH2 0xFC8 DUP2 PUSH2 0xDE1 JUMP JUMPDEST DUP2 EQ PUSH2 0xFD3 JUMPI PUSH1 0x0 DUP1 REVERT JUMPDEST POP JUMP INVALID LOG2 PUSH5 0x6970667358 0x22 SLT KECCAK256 0xB1 0x4E 0xD7 DUP3 0x5C 0xDD SWAP8 PUSH21 0x72652117E5C0397A6EE59A2B4D6CE81159C35C5C3B POP 0xE1 0xB6 PUSH5 0x736F6C6343 STOP ADDMOD SMOD STOP CALLER "
				},
				"gasEstimates": {
					"creation": {
						"codeDepositCost": "821600",
						"executionCost": "infinite",
						"totalCost": "infinite"
					},
					"external": {
						"changeOwner(address)": "30567",
						"fulfill(bytes32,uint256)": "28352",
						"getBetsEndTime()": "2526",
						"getCloseTime()": "2547",
						"getOwner()": "2589",
						"getStartTime()": "2481",
						"getState()": "11102",
						"setAGameWinner(uint8)": "13686",
						"takeABet(uint8)": "148271",
						"updateOddsA(uint256)": "infinite",
						"updateOddsB(uint256)": "infinite"
					},
					"internal": {
						"callREST()": "infinite"
					}
				},
				"methodIdentifiers": {
					"changeOwner(address)": "a6f9dae1",
					"fulfill(bytes32,uint256)": "4357855e",
					"getBetsEndTime()": "8ea36d47",
					"getCloseTime()": "fadeaf76",
					"getOwner()": "893d20e8",
					"getStartTime()": "c828371e",
					"getState()": "1865c57d",
					"setAGameWinner(uint8)": "dd1c828a",
					"takeABet(uint8)": "35644c7b",
					"updateOddsA(uint256)": "b9d76da9",
					"updateOddsB(uint256)": "f2c3e469"
				}
			},
			"userdoc": {
				"kind": "user",
				"methods": {},
				"version": 1
			}
		}
	}
}