{
	"contracts/TheGame.sol": {
		"TheGame": {
			"abi": [
				{
					"inputs": [
						{
							"internalType": "uint256",
							"name": "_startTime",
							"type": "uint256"
						},
						{
							"internalType": "uint256",
							"name": "_betsEndTime",
							"type": "uint256"
						},
						{
							"internalType": "uint256",
							"name": "_closeTime",
							"type": "uint256"
						}
					],
					"stateMutability": "nonpayable",
					"type": "constructor"
				},
				{
					"anonymous": false,
					"inputs": [
						{
							"indexed": true,
							"internalType": "address",
							"name": "betTaker",
							"type": "address"
						},
						{
							"indexed": true,
							"internalType": "uint256",
							"name": "amount",
							"type": "uint256"
						},
						{
							"indexed": true,
							"internalType": "enum BetOpion",
							"name": "option",
							"type": "uint8"
						}
					],
					"name": "BetTaken",
					"type": "event"
				},
				{
					"anonymous": false,
					"inputs": [
						{
							"indexed": true,
							"internalType": "address",
							"name": "oldOwner",
							"type": "address"
						},
						{
							"indexed": true,
							"internalType": "address",
							"name": "newOwner",
							"type": "address"
						}
					],
					"name": "OwnerSet",
					"type": "event"
				},
				{
					"inputs": [
						{
							"internalType": "address",
							"name": "newOwner",
							"type": "address"
						}
					],
					"name": "changeOwner",
					"outputs": [],
					"stateMutability": "nonpayable",
					"type": "function"
				},
				{
					"inputs": [],
					"name": "getBetsEndTime",
					"outputs": [
						{
							"internalType": "uint256",
							"name": "",
							"type": "uint256"
						}
					],
					"stateMutability": "view",
					"type": "function"
				},
				{
					"inputs": [],
					"name": "getCloseTime",
					"outputs": [
						{
							"internalType": "uint256",
							"name": "",
							"type": "uint256"
						}
					],
					"stateMutability": "view",
					"type": "function"
				},
				{
					"inputs": [],
					"name": "getOwner",
					"outputs": [
						{
							"internalType": "address",
							"name": "",
							"type": "address"
						}
					],
					"stateMutability": "view",
					"type": "function"
				},
				{
					"inputs": [],
					"name": "getStartTime",
					"outputs": [
						{
							"internalType": "uint256",
							"name": "",
							"type": "uint256"
						}
					],
					"stateMutability": "view",
					"type": "function"
				},
				{
					"inputs": [],
					"name": "getState",
					"outputs": [
						{
							"internalType": "enum GameState",
							"name": "",
							"type": "uint8"
						}
					],
					"stateMutability": "view",
					"type": "function"
				},
				{
					"inputs": [
						{
							"internalType": "enum BetOpion",
							"name": "option",
							"type": "uint8"
						}
					],
					"name": "setAWinner",
					"outputs": [
						{
							"internalType": "enum BetOpion",
							"name": "",
							"type": "uint8"
						}
					],
					"stateMutability": "nonpayable",
					"type": "function"
				},
				{
					"inputs": [
						{
							"internalType": "enum BetOpion",
							"name": "option",
							"type": "uint8"
						}
					],
					"name": "takeABet",
					"outputs": [
						{
							"internalType": "uint256",
							"name": "",
							"type": "uint256"
						}
					],
					"stateMutability": "payable",
					"type": "function"
				},
				{
					"inputs": [
						{
							"internalType": "uint256",
							"name": "odds",
							"type": "uint256"
						}
					],
					"name": "updateOddsA",
					"outputs": [
						{
							"internalType": "uint256",
							"name": "",
							"type": "uint256"
						}
					],
					"stateMutability": "nonpayable",
					"type": "function"
				},
				{
					"inputs": [
						{
							"internalType": "uint256",
							"name": "odds",
							"type": "uint256"
						}
					],
					"name": "updateOddsB",
					"outputs": [
						{
							"internalType": "uint256",
							"name": "",
							"type": "uint256"
						}
					],
					"stateMutability": "nonpayable",
					"type": "function"
				}
			],
			"devdoc": {
				"kind": "dev",
				"methods": {
					"changeOwner(address)": {
						"details": "Change owner",
						"params": {
							"newOwner": "address of new owner"
						}
					},
					"getOwner()": {
						"details": "Return owner address ",
						"returns": {
							"_0": "address of owner"
						}
					}
				},
				"version": 1
			},
			"evm": {
				"assembly": "    /* \"contracts/TheGame.sol\":320:2998  contract TheGame is Owner{... */\n  mstore(0x40, 0x80)\n    /* \"contracts/TheGame.sol\":754:1258  constructor(uint256 _startTime, uint256 _betsEndTime, uint256 _closeTime) Owner() {... */\n  callvalue\n  dup1\n  iszero\n  tag_1\n  jumpi\n  0x00\n  dup1\n  revert\ntag_1:\n  pop\n  mload(0x40)\n  sub(codesize, bytecodeSize)\n  dup1\n  bytecodeSize\n  dup4\n  codecopy\n  dup2\n  dup2\n  add\n  0x40\n  mstore\n  dup2\n  add\n  swap1\n  tag_2\n  swap2\n  swap1\n  tag_3\n  jump\t// in\ntag_2:\n    /* \"contracts/Owner.sol\":910:920  msg.sender */\n  caller\n    /* \"contracts/Owner.sol\":889:921  OwnerSet(address(0), msg.sender) */\n  0xffffffffffffffffffffffffffffffffffffffff\n  and\n    /* \"contracts/Owner.sol\":906:907  0 */\n  0x00\n    /* \"contracts/Owner.sol\":889:921  OwnerSet(address(0), msg.sender) */\n  0xffffffffffffffffffffffffffffffffffffffff\n  and\n  0x342827c97908e5e2f71151c08502a66d44b6f758e3ac2f1de95f02eb95f0a735\n  mload(0x40)\n  mload(0x40)\n  dup1\n  swap2\n  sub\n  swap1\n  log3\n    /* \"contracts/Owner.sol\":939:949  msg.sender */\n  caller\n    /* \"contracts/Owner.sol\":931:936  owner */\n  0x00\n  dup1\n    /* \"contracts/Owner.sol\":931:949  owner = msg.sender */\n  0x0100\n  exp\n  dup2\n  sload\n  dup2\n  0xffffffffffffffffffffffffffffffffffffffff\n  mul\n  not\n  and\n  swap1\n  dup4\n  0xffffffffffffffffffffffffffffffffffffffff\n  and\n  mul\n  or\n  swap1\n  sstore\n  pop\n    /* \"contracts/TheGame.sol\":861:876  block.timestamp */\n  timestamp\n    /* \"contracts/TheGame.sol\":846:858  creationTime */\n  0x01\n    /* \"contracts/TheGame.sol\":846:876  creationTime = block.timestamp */\n  dup2\n  swap1\n  sstore\n  pop\n    /* \"contracts/TheGame.sol\":1173:1183  _startTime */\n  dup3\n    /* \"contracts/TheGame.sol\":1161:1170  startTime */\n  0x02\n    /* \"contracts/TheGame.sol\":1161:1183  startTime = _startTime */\n  dup2\n  swap1\n  sstore\n  pop\n    /* \"contracts/TheGame.sol\":1207:1219  _betsEndTime */\n  dup2\n    /* \"contracts/TheGame.sol\":1193:1204  betsEndTime */\n  0x03\n    /* \"contracts/TheGame.sol\":1193:1219  betsEndTime = _betsEndTime */\n  dup2\n  swap1\n  sstore\n  pop\n    /* \"contracts/TheGame.sol\":1241:1251  _closeTime */\n  dup1\n    /* \"contracts/TheGame.sol\":1229:1238  closeTime */\n  0x04\n    /* \"contracts/TheGame.sol\":1229:1251  closeTime = _closeTime */\n  dup2\n  swap1\n  sstore\n  pop\n    /* \"contracts/TheGame.sol\":754:1258  constructor(uint256 _startTime, uint256 _betsEndTime, uint256 _closeTime) Owner() {... */\n  pop\n  pop\n  pop\n    /* \"contracts/TheGame.sol\":320:2998  contract TheGame is Owner{... */\n  jump(tag_8)\n    /* \"#utility.yul\":7:150   */\ntag_10:\n    /* \"#utility.yul\":64:69   */\n  0x00\n    /* \"#utility.yul\":95:101   */\n  dup2\n    /* \"#utility.yul\":89:102   */\n  mload\n    /* \"#utility.yul\":80:102   */\n  swap1\n  pop\n    /* \"#utility.yul\":111:144   */\n  tag_12\n    /* \"#utility.yul\":138:143   */\n  dup2\n    /* \"#utility.yul\":111:144   */\n  tag_13\n  jump\t// in\ntag_12:\n    /* \"#utility.yul\":7:150   */\n  swap3\n  swap2\n  pop\n  pop\n  jump\t// out\n    /* \"#utility.yul\":156:819   */\ntag_3:\n    /* \"#utility.yul\":244:250   */\n  0x00\n    /* \"#utility.yul\":252:258   */\n  dup1\n    /* \"#utility.yul\":260:266   */\n  0x00\n    /* \"#utility.yul\":309:311   */\n  0x60\n    /* \"#utility.yul\":297:306   */\n  dup5\n    /* \"#utility.yul\":288:295   */\n  dup7\n    /* \"#utility.yul\":284:307   */\n  sub\n    /* \"#utility.yul\":280:312   */\n  slt\n    /* \"#utility.yul\":277:396   */\n  iszero\n  tag_15\n  jumpi\n    /* \"#utility.yul\":315:394   */\n  tag_16\n  tag_17\n  jump\t// in\ntag_16:\n    /* \"#utility.yul\":277:396   */\ntag_15:\n    /* \"#utility.yul\":435:436   */\n  0x00\n    /* \"#utility.yul\":460:524   */\n  tag_18\n    /* \"#utility.yul\":516:523   */\n  dup7\n    /* \"#utility.yul\":507:513   */\n  dup3\n    /* \"#utility.yul\":496:505   */\n  dup8\n    /* \"#utility.yul\":492:514   */\n  add\n    /* \"#utility.yul\":460:524   */\n  tag_10\n  jump\t// in\ntag_18:\n    /* \"#utility.yul\":450:524   */\n  swap4\n  pop\n    /* \"#utility.yul\":406:534   */\n  pop\n    /* \"#utility.yul\":573:575   */\n  0x20\n    /* \"#utility.yul\":599:663   */\n  tag_19\n    /* \"#utility.yul\":655:662   */\n  dup7\n    /* \"#utility.yul\":646:652   */\n  dup3\n    /* \"#utility.yul\":635:644   */\n  dup8\n    /* \"#utility.yul\":631:653   */\n  add\n    /* \"#utility.yul\":599:663   */\n  tag_10\n  jump\t// in\ntag_19:\n    /* \"#utility.yul\":589:663   */\n  swap3\n  pop\n    /* \"#utility.yul\":544:673   */\n  pop\n    /* \"#utility.yul\":712:714   */\n  0x40\n    /* \"#utility.yul\":738:802   */\n  tag_20\n    /* \"#utility.yul\":794:801   */\n  dup7\n    /* \"#utility.yul\":785:791   */\n  dup3\n    /* \"#utility.yul\":774:783   */\n  dup8\n    /* \"#utility.yul\":770:792   */\n  add\n    /* \"#utility.yul\":738:802   */\n  tag_10\n  jump\t// in\ntag_20:\n    /* \"#utility.yul\":728:802   */\n  swap2\n  pop\n    /* \"#utility.yul\":683:812   */\n  pop\n    /* \"#utility.yul\":156:819   */\n  swap3\n  pop\n  swap3\n  pop\n  swap3\n  jump\t// out\n    /* \"#utility.yul\":906:983   */\ntag_23:\n    /* \"#utility.yul\":943:950   */\n  0x00\n    /* \"#utility.yul\":972:977   */\n  dup2\n    /* \"#utility.yul\":961:977   */\n  swap1\n  pop\n    /* \"#utility.yul\":906:983   */\n  swap2\n  swap1\n  pop\n  jump\t// out\n    /* \"#utility.yul\":1112:1229   */\ntag_17:\n    /* \"#utility.yul\":1221:1222   */\n  0x00\n    /* \"#utility.yul\":1218:1219   */\n  dup1\n    /* \"#utility.yul\":1211:1223   */\n  revert\n    /* \"#utility.yul\":1235:1357   */\ntag_13:\n    /* \"#utility.yul\":1308:1332   */\n  tag_29\n    /* \"#utility.yul\":1326:1331   */\n  dup2\n    /* \"#utility.yul\":1308:1332   */\n  tag_23\n  jump\t// in\ntag_29:\n    /* \"#utility.yul\":1301:1306   */\n  dup2\n    /* \"#utility.yul\":1298:1333   */\n  eq\n    /* \"#utility.yul\":1288:1351   */\n  tag_30\n  jumpi\n    /* \"#utility.yul\":1347:1348   */\n  0x00\n    /* \"#utility.yul\":1344:1345   */\n  dup1\n    /* \"#utility.yul\":1337:1349   */\n  revert\n    /* \"#utility.yul\":1288:1351   */\ntag_30:\n    /* \"#utility.yul\":1235:1357   */\n  pop\n  jump\t// out\n    /* \"contracts/TheGame.sol\":320:2998  contract TheGame is Owner{... */\ntag_8:\n  dataSize(sub_0)\n  dup1\n  dataOffset(sub_0)\n  0x00\n  codecopy\n  0x00\n  return\nstop\n\nsub_0: assembly {\n        /* \"contracts/TheGame.sol\":320:2998  contract TheGame is Owner{... */\n      mstore(0x40, 0x80)\n      jumpi(tag_1, lt(calldatasize, 0x04))\n      shr(0xe0, calldataload(0x00))\n      dup1\n      0xa6f9dae1\n      gt\n      tag_12\n      jumpi\n      dup1\n      0xa6f9dae1\n      eq\n      tag_7\n      jumpi\n      dup1\n      0xb9d76da9\n      eq\n      tag_8\n      jumpi\n      dup1\n      0xc828371e\n      eq\n      tag_9\n      jumpi\n      dup1\n      0xf2c3e469\n      eq\n      tag_10\n      jumpi\n      dup1\n      0xfadeaf76\n      eq\n      tag_11\n      jumpi\n      jump(tag_1)\n    tag_12:\n      dup1\n      0x1865c57d\n      eq\n      tag_2\n      jumpi\n      dup1\n      0x35644c7b\n      eq\n      tag_3\n      jumpi\n      dup1\n      0x66646a94\n      eq\n      tag_4\n      jumpi\n      dup1\n      0x893d20e8\n      eq\n      tag_5\n      jumpi\n      dup1\n      0x8ea36d47\n      eq\n      tag_6\n      jumpi\n    tag_1:\n      0x00\n      dup1\n      revert\n        /* \"contracts/TheGame.sol\":1547:1969  function getState() public view returns(GameState) {... */\n    tag_2:\n      callvalue\n      dup1\n      iszero\n      tag_13\n      jumpi\n      0x00\n      dup1\n      revert\n    tag_13:\n      pop\n      tag_14\n      tag_15\n      jump\t// in\n    tag_14:\n      mload(0x40)\n      tag_16\n      swap2\n      swap1\n      tag_17\n      jump\t// in\n    tag_16:\n      mload(0x40)\n      dup1\n      swap2\n      sub\n      swap1\n      return\n        /* \"contracts/TheGame.sol\":2402:2729  function takeABet(BetOpion option) public payable returns(uint256){... */\n    tag_3:\n      tag_18\n      0x04\n      dup1\n      calldatasize\n      sub\n      dup2\n      add\n      swap1\n      tag_19\n      swap2\n      swap1\n      tag_20\n      jump\t// in\n    tag_19:\n      tag_21\n      jump\t// in\n    tag_18:\n      mload(0x40)\n      tag_22\n      swap2\n      swap1\n      tag_23\n      jump\t// in\n    tag_22:\n      mload(0x40)\n      dup1\n      swap2\n      sub\n      swap1\n      return\n        /* \"contracts/TheGame.sol\":2735:2996  function setAWinner(BetOpion option) public isOwner returns(BetOpion){... */\n    tag_4:\n      callvalue\n      dup1\n      iszero\n      tag_24\n      jumpi\n      0x00\n      dup1\n      revert\n    tag_24:\n      pop\n      tag_25\n      0x04\n      dup1\n      calldatasize\n      sub\n      dup2\n      add\n      swap1\n      tag_26\n      swap2\n      swap1\n      tag_20\n      jump\t// in\n    tag_26:\n      tag_27\n      jump\t// in\n    tag_25:\n      mload(0x40)\n      tag_28\n      swap2\n      swap1\n      tag_29\n      jump\t// in\n    tag_28:\n      mload(0x40)\n      dup1\n      swap2\n      sub\n      swap1\n      return\n        /* \"contracts/Owner.sol\":1262:1343  function getOwner() external view returns (address) {... */\n    tag_5:\n      callvalue\n      dup1\n      iszero\n      tag_30\n      jumpi\n      0x00\n      dup1\n      revert\n    tag_30:\n      pop\n      tag_31\n      tag_32\n      jump\t// in\n    tag_31:\n      mload(0x40)\n      tag_33\n      swap2\n      swap1\n      tag_34\n      jump\t// in\n    tag_33:\n      mload(0x40)\n      dup1\n      swap2\n      sub\n      swap1\n      return\n        /* \"contracts/TheGame.sol\":1357:1448  function getBetsEndTime() public view returns(uint256) {... */\n    tag_6:\n      callvalue\n      dup1\n      iszero\n      tag_35\n      jumpi\n      0x00\n      dup1\n      revert\n    tag_35:\n      pop\n      tag_36\n      tag_37\n      jump\t// in\n    tag_36:\n      mload(0x40)\n      tag_38\n      swap2\n      swap1\n      tag_23\n      jump\t// in\n    tag_38:\n      mload(0x40)\n      dup1\n      swap2\n      sub\n      swap1\n      return\n        /* \"contracts/Owner.sol\":1047:1174  function changeOwner(address newOwner) public isOwner {... */\n    tag_7:\n      callvalue\n      dup1\n      iszero\n      tag_39\n      jumpi\n      0x00\n      dup1\n      revert\n    tag_39:\n      pop\n      tag_40\n      0x04\n      dup1\n      calldatasize\n      sub\n      dup2\n      add\n      swap1\n      tag_41\n      swap2\n      swap1\n      tag_42\n      jump\t// in\n    tag_41:\n      tag_43\n      jump\t// in\n    tag_40:\n      stop\n        /* \"contracts/TheGame.sol\":2049:2181  function updateOddsA(uint256 odds) public isOwner returns(uint256) {... */\n    tag_8:\n      callvalue\n      dup1\n      iszero\n      tag_44\n      jumpi\n      0x00\n      dup1\n      revert\n    tag_44:\n      pop\n      tag_45\n      0x04\n      dup1\n      calldatasize\n      sub\n      dup2\n      add\n      swap1\n      tag_46\n      swap2\n      swap1\n      tag_47\n      jump\t// in\n    tag_46:\n      tag_48\n      jump\t// in\n    tag_45:\n      mload(0x40)\n      tag_49\n      swap2\n      swap1\n      tag_23\n      jump\t// in\n    tag_49:\n      mload(0x40)\n      dup1\n      swap2\n      sub\n      swap1\n      return\n        /* \"contracts/TheGame.sol\":1264:1351  function getStartTime() public view returns(uint256) {... */\n    tag_9:\n      callvalue\n      dup1\n      iszero\n      tag_50\n      jumpi\n      0x00\n      dup1\n      revert\n    tag_50:\n      pop\n      tag_51\n      tag_52\n      jump\t// in\n    tag_51:\n      mload(0x40)\n      tag_53\n      swap2\n      swap1\n      tag_23\n      jump\t// in\n    tag_53:\n      mload(0x40)\n      dup1\n      swap2\n      sub\n      swap1\n      return\n        /* \"contracts/TheGame.sol\":2191:2323  function updateOddsB(uint256 odds) public isOwner returns(uint256) {... */\n    tag_10:\n      callvalue\n      dup1\n      iszero\n      tag_54\n      jumpi\n      0x00\n      dup1\n      revert\n    tag_54:\n      pop\n      tag_55\n      0x04\n      dup1\n      calldatasize\n      sub\n      dup2\n      add\n      swap1\n      tag_56\n      swap2\n      swap1\n      tag_47\n      jump\t// in\n    tag_56:\n      tag_57\n      jump\t// in\n    tag_55:\n      mload(0x40)\n      tag_58\n      swap2\n      swap1\n      tag_23\n      jump\t// in\n    tag_58:\n      mload(0x40)\n      dup1\n      swap2\n      sub\n      swap1\n      return\n        /* \"contracts/TheGame.sol\":1454:1541  function getCloseTime() public view returns(uint256) {... */\n    tag_11:\n      callvalue\n      dup1\n      iszero\n      tag_59\n      jumpi\n      0x00\n      dup1\n      revert\n    tag_59:\n      pop\n      tag_60\n      tag_61\n      jump\t// in\n    tag_60:\n      mload(0x40)\n      tag_62\n      swap2\n      swap1\n      tag_23\n      jump\t// in\n    tag_62:\n      mload(0x40)\n      dup1\n      swap2\n      sub\n      swap1\n      return\n        /* \"contracts/TheGame.sol\":1547:1969  function getState() public view returns(GameState) {... */\n    tag_15:\n        /* \"contracts/TheGame.sol\":1587:1596  GameState */\n      0x00\n        /* \"contracts/TheGame.sol\":1608:1618  uint256 ts */\n      dup1\n        /* \"contracts/TheGame.sol\":1621:1636  block.timestamp */\n      timestamp\n        /* \"contracts/TheGame.sol\":1608:1636  uint256 ts = block.timestamp */\n      swap1\n      pop\n        /* \"contracts/TheGame.sol\":1655:1664  startTime */\n      sload(0x02)\n        /* \"contracts/TheGame.sol\":1650:1652  ts */\n      dup2\n        /* \"contracts/TheGame.sol\":1650:1664  ts < startTime */\n      lt\n        /* \"contracts/TheGame.sol\":1646:1962  if (ts < startTime)... */\n      iszero\n      tag_64\n      jumpi\n        /* \"contracts/TheGame.sol\":1685:1702  GameState.CREATED */\n      0x00\n        /* \"contracts/TheGame.sol\":1678:1702  return GameState.CREATED */\n      swap2\n      pop\n      pop\n      jump(tag_63)\n        /* \"contracts/TheGame.sol\":1646:1962  if (ts < startTime)... */\n    tag_64:\n        /* \"contracts/TheGame.sol\":1734:1736  ts */\n      dup1\n        /* \"contracts/TheGame.sol\":1721:1730  startTime */\n      sload(0x02)\n        /* \"contracts/TheGame.sol\":1721:1736  startTime <= ts */\n      gt\n      iszero\n        /* \"contracts/TheGame.sol\":1721:1756  startTime <= ts && ts < betsEndTime */\n      dup1\n      iszero\n      tag_66\n      jumpi\n      pop\n        /* \"contracts/TheGame.sol\":1745:1756  betsEndTime */\n      sload(0x03)\n        /* \"contracts/TheGame.sol\":1740:1742  ts */\n      dup2\n        /* \"contracts/TheGame.sol\":1740:1756  ts < betsEndTime */\n      lt\n        /* \"contracts/TheGame.sol\":1721:1756  startTime <= ts && ts < betsEndTime */\n    tag_66:\n        /* \"contracts/TheGame.sol\":1717:1962  if (startTime <= ts && ts < betsEndTime)... */\n      iszero\n      tag_67\n      jumpi\n        /* \"contracts/TheGame.sol\":1777:1791  GameState.OPEN */\n      0x01\n        /* \"contracts/TheGame.sol\":1770:1791  return GameState.OPEN */\n      swap2\n      pop\n      pop\n      jump(tag_63)\n        /* \"contracts/TheGame.sol\":1717:1962  if (startTime <= ts && ts < betsEndTime)... */\n    tag_67:\n        /* \"contracts/TheGame.sol\":1825:1827  ts */\n      dup1\n        /* \"contracts/TheGame.sol\":1810:1821  betsEndTime */\n      sload(0x03)\n        /* \"contracts/TheGame.sol\":1810:1827  betsEndTime <= ts */\n      gt\n      iszero\n        /* \"contracts/TheGame.sol\":1810:1845  betsEndTime <= ts && ts < closeTime */\n      dup1\n      iszero\n      tag_69\n      jumpi\n      pop\n        /* \"contracts/TheGame.sol\":1836:1845  closeTime */\n      sload(0x04)\n        /* \"contracts/TheGame.sol\":1831:1833  ts */\n      dup2\n        /* \"contracts/TheGame.sol\":1831:1845  ts < closeTime */\n      lt\n        /* \"contracts/TheGame.sol\":1810:1845  betsEndTime <= ts && ts < closeTime */\n    tag_69:\n        /* \"contracts/TheGame.sol\":1806:1962  if (betsEndTime <= ts && ts < closeTime)... */\n      iszero\n      tag_70\n      jumpi\n        /* \"contracts/TheGame.sol\":1866:1887  GameState.BETS_CLOSED */\n      0x02\n        /* \"contracts/TheGame.sol\":1859:1887  return GameState.BETS_CLOSED */\n      swap2\n      pop\n      pop\n      jump(tag_63)\n        /* \"contracts/TheGame.sol\":1806:1962  if (betsEndTime <= ts && ts < closeTime)... */\n    tag_70:\n        /* \"contracts/TheGame.sol\":1944:1962  GameState.FINISHED */\n      0x03\n        /* \"contracts/TheGame.sol\":1937:1962  return GameState.FINISHED */\n      swap2\n      pop\n      pop\n        /* \"contracts/TheGame.sol\":1547:1969  function getState() public view returns(GameState) {... */\n    tag_63:\n      swap1\n      jump\t// out\n        /* \"contracts/TheGame.sol\":2402:2729  function takeABet(BetOpion option) public payable returns(uint256){... */\n    tag_21:\n        /* \"contracts/TheGame.sol\":2460:2467  uint256 */\n      0x00\n        /* \"contracts/TheGame.sol\":2527:2541  Bet memory bet */\n      dup1\n        /* \"contracts/TheGame.sol\":2544:2606  Bet(msg.sender, currentOddsA, currentOddsB, option, msg.value) */\n      mload(0x40)\n      dup1\n      0xa0\n      add\n      0x40\n      mstore\n      dup1\n        /* \"contracts/TheGame.sol\":2548:2558  msg.sender */\n      caller\n        /* \"contracts/TheGame.sol\":2544:2606  Bet(msg.sender, currentOddsA, currentOddsB, option, msg.value) */\n      0xffffffffffffffffffffffffffffffffffffffff\n      and\n      dup2\n      mstore\n      0x20\n      add\n        /* \"contracts/TheGame.sol\":2560:2572  currentOddsA */\n      sload(0x05)\n        /* \"contracts/TheGame.sol\":2544:2606  Bet(msg.sender, currentOddsA, currentOddsB, option, msg.value) */\n      dup2\n      mstore\n      0x20\n      add\n        /* \"contracts/TheGame.sol\":2574:2586  currentOddsB */\n      sload(0x06)\n        /* \"contracts/TheGame.sol\":2544:2606  Bet(msg.sender, currentOddsA, currentOddsB, option, msg.value) */\n      dup2\n      mstore\n      0x20\n      add\n        /* \"contracts/TheGame.sol\":2588:2594  option */\n      dup5\n        /* \"contracts/TheGame.sol\":2544:2606  Bet(msg.sender, currentOddsA, currentOddsB, option, msg.value) */\n      0x01\n      dup2\n      gt\n      iszero\n      tag_73\n      jumpi\n      tag_74\n      tag_75\n      jump\t// in\n    tag_74:\n    tag_73:\n      dup2\n      mstore\n      0x20\n      add\n        /* \"contracts/TheGame.sol\":2596:2605  msg.value */\n      callvalue\n        /* \"contracts/TheGame.sol\":2544:2606  Bet(msg.sender, currentOddsA, currentOddsB, option, msg.value) */\n      dup2\n      mstore\n      pop\n        /* \"contracts/TheGame.sol\":2527:2606  Bet memory bet = Bet(msg.sender, currentOddsA, currentOddsB, option, msg.value) */\n      swap1\n      pop\n        /* \"contracts/TheGame.sol\":2616:2620  bets */\n      0x08\n        /* \"contracts/TheGame.sol\":2626:2629  bet */\n      dup2\n        /* \"contracts/TheGame.sol\":2616:2630  bets.push(bet) */\n      swap1\n      dup1\n      0x01\n      dup2\n      sload\n      add\n      dup1\n      dup3\n      sstore\n      dup1\n      swap2\n      pop\n      pop\n      0x01\n      swap1\n      sub\n      swap1\n      0x00\n      mstore\n      keccak256(0x00, 0x20)\n      swap1\n      0x05\n      mul\n      add\n      0x00\n      swap1\n      swap2\n      swap1\n      swap2\n      swap1\n      swap2\n      pop\n      0x00\n      dup3\n      add\n      mload\n      dup2\n      0x00\n      add\n      exp(0x0100, 0x00)\n      dup2\n      sload\n      dup2\n      0xffffffffffffffffffffffffffffffffffffffff\n      mul\n      not\n      and\n      swap1\n      dup4\n      0xffffffffffffffffffffffffffffffffffffffff\n      and\n      mul\n      or\n      swap1\n      sstore\n      pop\n      0x20\n      dup3\n      add\n      mload\n      dup2\n      0x01\n      add\n      sstore\n      0x40\n      dup3\n      add\n      mload\n      dup2\n      0x02\n      add\n      sstore\n      0x60\n      dup3\n      add\n      mload\n      dup2\n      0x03\n      add\n      exp(0x0100, 0x00)\n      dup2\n      sload\n      dup2\n      0xff\n      mul\n      not\n      and\n      swap1\n      dup4\n      0x01\n      dup2\n      gt\n      iszero\n      tag_77\n      jumpi\n      tag_78\n      tag_75\n      jump\t// in\n    tag_78:\n    tag_77:\n      mul\n      or\n      swap1\n      sstore\n      pop\n      0x80\n      dup3\n      add\n      mload\n      dup2\n      0x04\n      add\n      sstore\n      pop\n      pop\n        /* \"contracts/TheGame.sol\":2678:2681  bet */\n      dup1\n        /* \"contracts/TheGame.sol\":2678:2693  bet.betTakenFor */\n      0x60\n      add\n      mload\n        /* \"contracts/TheGame.sol\":2645:2694  BetTaken(bet.player, bet.amount, bet.betTakenFor) */\n      0x01\n      dup2\n      gt\n      iszero\n      tag_79\n      jumpi\n      tag_80\n      tag_75\n      jump\t// in\n    tag_80:\n    tag_79:\n        /* \"contracts/TheGame.sol\":2666:2669  bet */\n      dup2\n        /* \"contracts/TheGame.sol\":2666:2676  bet.amount */\n      0x80\n      add\n      mload\n        /* \"contracts/TheGame.sol\":2654:2657  bet */\n      dup3\n        /* \"contracts/TheGame.sol\":2654:2664  bet.player */\n      0x00\n      add\n      mload\n        /* \"contracts/TheGame.sol\":2645:2694  BetTaken(bet.player, bet.amount, bet.betTakenFor) */\n      0xffffffffffffffffffffffffffffffffffffffff\n      and\n      0xd0ec3d0f31fea1291096288253382fdc9811dcf678e1e7628eb851cef2ba0a11\n      mload(0x40)\n      mload(0x40)\n      dup1\n      swap2\n      sub\n      swap1\n      log4\n        /* \"contracts/TheGame.sol\":2711:2715  bets */\n      0x08\n        /* \"contracts/TheGame.sol\":2711:2722  bets.length */\n      dup1\n      sload\n      swap1\n      pop\n        /* \"contracts/TheGame.sol\":2704:2722  return bets.length */\n      swap2\n      pop\n      pop\n        /* \"contracts/TheGame.sol\":2402:2729  function takeABet(BetOpion option) public payable returns(uint256){... */\n      swap2\n      swap1\n      pop\n      jump\t// out\n        /* \"contracts/TheGame.sol\":2735:2996  function setAWinner(BetOpion option) public isOwner returns(BetOpion){... */\n    tag_27:\n        /* \"contracts/TheGame.sol\":2795:2803  BetOpion */\n      0x00\n        /* \"contracts/Owner.sol\":807:812  owner */\n      dup1\n      0x00\n      swap1\n      sload\n      swap1\n      0x0100\n      exp\n      swap1\n      div\n      0xffffffffffffffffffffffffffffffffffffffff\n      and\n        /* \"contracts/Owner.sol\":793:812  msg.sender == owner */\n      0xffffffffffffffffffffffffffffffffffffffff\n      and\n        /* \"contracts/Owner.sol\":793:803  msg.sender */\n      caller\n        /* \"contracts/Owner.sol\":793:812  msg.sender == owner */\n      0xffffffffffffffffffffffffffffffffffffffff\n      and\n      eq\n        /* \"contracts/Owner.sol\":785:836  require(msg.sender == owner, \"Caller is not owner\") */\n      tag_82\n      jumpi\n      mload(0x40)\n      0x08c379a000000000000000000000000000000000000000000000000000000000\n      dup2\n      mstore\n      0x04\n      add\n      tag_83\n      swap1\n      tag_84\n      jump\t// in\n    tag_83:\n      mload(0x40)\n      dup1\n      swap2\n      sub\n      swap1\n      revert\n    tag_82:\n        /* \"contracts/TheGame.sol\":2889:2907  GameState.FINISHED */\n      0x03\n        /* \"contracts/TheGame.sol\":2875:2907  getState() == GameState.FINISHED */\n      dup1\n      dup2\n      gt\n      iszero\n      tag_86\n      jumpi\n      tag_87\n      tag_75\n      jump\t// in\n    tag_87:\n    tag_86:\n        /* \"contracts/TheGame.sol\":2875:2885  getState() */\n      tag_88\n        /* \"contracts/TheGame.sol\":2875:2883  getState */\n      tag_15\n        /* \"contracts/TheGame.sol\":2875:2885  getState() */\n      jump\t// in\n    tag_88:\n        /* \"contracts/TheGame.sol\":2875:2907  getState() == GameState.FINISHED */\n      0x03\n      dup2\n      gt\n      iszero\n      tag_89\n      jumpi\n      tag_90\n      tag_75\n      jump\t// in\n    tag_90:\n    tag_89:\n      eq\n        /* \"contracts/TheGame.sol\":2866:2963  require (getState() == GameState.FINISHED, \"To announce the winner the game have to be finished\") */\n      tag_91\n      jumpi\n      mload(0x40)\n      0x08c379a000000000000000000000000000000000000000000000000000000000\n      dup2\n      mstore\n      0x04\n      add\n      tag_92\n      swap1\n      tag_93\n      jump\t// in\n    tag_92:\n      mload(0x40)\n      dup1\n      swap2\n      sub\n      swap1\n      revert\n    tag_91:\n        /* \"contracts/TheGame.sol\":2982:2988  option */\n      dup2\n        /* \"contracts/TheGame.sol\":2973:2979  winner */\n      0x07\n      0x00\n        /* \"contracts/TheGame.sol\":2973:2988  winner = option */\n      0x0100\n      exp\n      dup2\n      sload\n      dup2\n      0xff\n      mul\n      not\n      and\n      swap1\n      dup4\n      0x01\n      dup2\n      gt\n      iszero\n      tag_94\n      jumpi\n      tag_95\n      tag_75\n      jump\t// in\n    tag_95:\n    tag_94:\n      mul\n      or\n      swap1\n      sstore\n      pop\n        /* \"contracts/TheGame.sol\":2735:2996  function setAWinner(BetOpion option) public isOwner returns(BetOpion){... */\n      swap2\n      swap1\n      pop\n      jump\t// out\n        /* \"contracts/Owner.sol\":1262:1343  function getOwner() external view returns (address) {... */\n    tag_32:\n        /* \"contracts/Owner.sol\":1305:1312  address */\n      0x00\n        /* \"contracts/Owner.sol\":1331:1336  owner */\n      dup1\n      0x00\n      swap1\n      sload\n      swap1\n      0x0100\n      exp\n      swap1\n      div\n      0xffffffffffffffffffffffffffffffffffffffff\n      and\n        /* \"contracts/Owner.sol\":1324:1336  return owner */\n      swap1\n      pop\n        /* \"contracts/Owner.sol\":1262:1343  function getOwner() external view returns (address) {... */\n      swap1\n      jump\t// out\n        /* \"contracts/TheGame.sol\":1357:1448  function getBetsEndTime() public view returns(uint256) {... */\n    tag_37:\n        /* \"contracts/TheGame.sol\":1403:1410  uint256 */\n      0x00\n        /* \"contracts/TheGame.sol\":1430:1441  betsEndTime */\n      sload(0x03)\n        /* \"contracts/TheGame.sol\":1423:1441  return betsEndTime */\n      swap1\n      pop\n        /* \"contracts/TheGame.sol\":1357:1448  function getBetsEndTime() public view returns(uint256) {... */\n      swap1\n      jump\t// out\n        /* \"contracts/Owner.sol\":1047:1174  function changeOwner(address newOwner) public isOwner {... */\n    tag_43:\n        /* \"contracts/Owner.sol\":807:812  owner */\n      0x00\n      dup1\n      sload\n      swap1\n      0x0100\n      exp\n      swap1\n      div\n      0xffffffffffffffffffffffffffffffffffffffff\n      and\n        /* \"contracts/Owner.sol\":793:812  msg.sender == owner */\n      0xffffffffffffffffffffffffffffffffffffffff\n      and\n        /* \"contracts/Owner.sol\":793:803  msg.sender */\n      caller\n        /* \"contracts/Owner.sol\":793:812  msg.sender == owner */\n      0xffffffffffffffffffffffffffffffffffffffff\n      and\n      eq\n        /* \"contracts/Owner.sol\":785:836  require(msg.sender == owner, \"Caller is not owner\") */\n      tag_99\n      jumpi\n      mload(0x40)\n      0x08c379a000000000000000000000000000000000000000000000000000000000\n      dup2\n      mstore\n      0x04\n      add\n      tag_100\n      swap1\n      tag_84\n      jump\t// in\n    tag_100:\n      mload(0x40)\n      dup1\n      swap2\n      sub\n      swap1\n      revert\n    tag_99:\n        /* \"contracts/Owner.sol\":1132:1140  newOwner */\n      dup1\n        /* \"contracts/Owner.sol\":1116:1141  OwnerSet(owner, newOwner) */\n      0xffffffffffffffffffffffffffffffffffffffff\n      and\n        /* \"contracts/Owner.sol\":1125:1130  owner */\n      0x00\n      dup1\n      sload\n      swap1\n      0x0100\n      exp\n      swap1\n      div\n      0xffffffffffffffffffffffffffffffffffffffff\n      and\n        /* \"contracts/Owner.sol\":1116:1141  OwnerSet(owner, newOwner) */\n      0xffffffffffffffffffffffffffffffffffffffff\n      and\n      0x342827c97908e5e2f71151c08502a66d44b6f758e3ac2f1de95f02eb95f0a735\n      mload(0x40)\n      mload(0x40)\n      dup1\n      swap2\n      sub\n      swap1\n      log3\n        /* \"contracts/Owner.sol\":1159:1167  newOwner */\n      dup1\n        /* \"contracts/Owner.sol\":1151:1156  owner */\n      0x00\n      dup1\n        /* \"contracts/Owner.sol\":1151:1167  owner = newOwner */\n      0x0100\n      exp\n      dup2\n      sload\n      dup2\n      0xffffffffffffffffffffffffffffffffffffffff\n      mul\n      not\n      and\n      swap1\n      dup4\n      0xffffffffffffffffffffffffffffffffffffffff\n      and\n      mul\n      or\n      swap1\n      sstore\n      pop\n        /* \"contracts/Owner.sol\":1047:1174  function changeOwner(address newOwner) public isOwner {... */\n      pop\n      jump\t// out\n        /* \"contracts/TheGame.sol\":2049:2181  function updateOddsA(uint256 odds) public isOwner returns(uint256) {... */\n    tag_48:\n        /* \"contracts/TheGame.sol\":2107:2114  uint256 */\n      0x00\n        /* \"contracts/Owner.sol\":807:812  owner */\n      dup1\n      0x00\n      swap1\n      sload\n      swap1\n      0x0100\n      exp\n      swap1\n      div\n      0xffffffffffffffffffffffffffffffffffffffff\n      and\n        /* \"contracts/Owner.sol\":793:812  msg.sender == owner */\n      0xffffffffffffffffffffffffffffffffffffffff\n      and\n        /* \"contracts/Owner.sol\":793:803  msg.sender */\n      caller\n        /* \"contracts/Owner.sol\":793:812  msg.sender == owner */\n      0xffffffffffffffffffffffffffffffffffffffff\n      and\n      eq\n        /* \"contracts/Owner.sol\":785:836  require(msg.sender == owner, \"Caller is not owner\") */\n      tag_103\n      jumpi\n      mload(0x40)\n      0x08c379a000000000000000000000000000000000000000000000000000000000\n      dup2\n      mstore\n      0x04\n      add\n      tag_104\n      swap1\n      tag_84\n      jump\t// in\n    tag_104:\n      mload(0x40)\n      dup1\n      swap2\n      sub\n      swap1\n      revert\n    tag_103:\n        /* \"contracts/TheGame.sol\":2141:2145  odds */\n      dup2\n        /* \"contracts/TheGame.sol\":2126:2138  currentOddsA */\n      0x05\n        /* \"contracts/TheGame.sol\":2126:2145  currentOddsA = odds */\n      dup2\n      swap1\n      sstore\n      pop\n        /* \"contracts/TheGame.sol\":2162:2174  currentOddsA */\n      sload(0x05)\n        /* \"contracts/TheGame.sol\":2155:2174  return currentOddsA */\n      swap1\n      pop\n        /* \"contracts/TheGame.sol\":2049:2181  function updateOddsA(uint256 odds) public isOwner returns(uint256) {... */\n      swap2\n      swap1\n      pop\n      jump\t// out\n        /* \"contracts/TheGame.sol\":1264:1351  function getStartTime() public view returns(uint256) {... */\n    tag_52:\n        /* \"contracts/TheGame.sol\":1308:1315  uint256 */\n      0x00\n        /* \"contracts/TheGame.sol\":1335:1344  startTime */\n      sload(0x02)\n        /* \"contracts/TheGame.sol\":1328:1344  return startTime */\n      swap1\n      pop\n        /* \"contracts/TheGame.sol\":1264:1351  function getStartTime() public view returns(uint256) {... */\n      swap1\n      jump\t// out\n        /* \"contracts/TheGame.sol\":2191:2323  function updateOddsB(uint256 odds) public isOwner returns(uint256) {... */\n    tag_57:\n        /* \"contracts/TheGame.sol\":2249:2256  uint256 */\n      0x00\n        /* \"contracts/Owner.sol\":807:812  owner */\n      dup1\n      0x00\n      swap1\n      sload\n      swap1\n      0x0100\n      exp\n      swap1\n      div\n      0xffffffffffffffffffffffffffffffffffffffff\n      and\n        /* \"contracts/Owner.sol\":793:812  msg.sender == owner */\n      0xffffffffffffffffffffffffffffffffffffffff\n      and\n        /* \"contracts/Owner.sol\":793:803  msg.sender */\n      caller\n        /* \"contracts/Owner.sol\":793:812  msg.sender == owner */\n      0xffffffffffffffffffffffffffffffffffffffff\n      and\n      eq\n        /* \"contracts/Owner.sol\":785:836  require(msg.sender == owner, \"Caller is not owner\") */\n      tag_108\n      jumpi\n      mload(0x40)\n      0x08c379a000000000000000000000000000000000000000000000000000000000\n      dup2\n      mstore\n      0x04\n      add\n      tag_109\n      swap1\n      tag_84\n      jump\t// in\n    tag_109:\n      mload(0x40)\n      dup1\n      swap2\n      sub\n      swap1\n      revert\n    tag_108:\n        /* \"contracts/TheGame.sol\":2283:2287  odds */\n      dup2\n        /* \"contracts/TheGame.sol\":2268:2280  currentOddsB */\n      0x06\n        /* \"contracts/TheGame.sol\":2268:2287  currentOddsB = odds */\n      dup2\n      swap1\n      sstore\n      pop\n        /* \"contracts/TheGame.sol\":2304:2316  currentOddsB */\n      sload(0x06)\n        /* \"contracts/TheGame.sol\":2297:2316  return currentOddsB */\n      swap1\n      pop\n        /* \"contracts/TheGame.sol\":2191:2323  function updateOddsB(uint256 odds) public isOwner returns(uint256) {... */\n      swap2\n      swap1\n      pop\n      jump\t// out\n        /* \"contracts/TheGame.sol\":1454:1541  function getCloseTime() public view returns(uint256) {... */\n    tag_61:\n        /* \"contracts/TheGame.sol\":1498:1505  uint256 */\n      0x00\n        /* \"contracts/TheGame.sol\":1525:1534  closeTime */\n      sload(0x04)\n        /* \"contracts/TheGame.sol\":1518:1534  return closeTime */\n      swap1\n      pop\n        /* \"contracts/TheGame.sol\":1454:1541  function getCloseTime() public view returns(uint256) {... */\n      swap1\n      jump\t// out\n        /* \"#utility.yul\":7:146   */\n    tag_113:\n        /* \"#utility.yul\":53:58   */\n      0x00\n        /* \"#utility.yul\":91:97   */\n      dup2\n        /* \"#utility.yul\":78:98   */\n      calldataload\n        /* \"#utility.yul\":69:98   */\n      swap1\n      pop\n        /* \"#utility.yul\":107:140   */\n      tag_115\n        /* \"#utility.yul\":134:139   */\n      dup2\n        /* \"#utility.yul\":107:140   */\n      tag_116\n      jump\t// in\n    tag_115:\n        /* \"#utility.yul\":7:146   */\n      swap3\n      swap2\n      pop\n      pop\n      jump\t// out\n        /* \"#utility.yul\":152:313   */\n    tag_117:\n        /* \"#utility.yul\":209:214   */\n      0x00\n        /* \"#utility.yul\":247:253   */\n      dup2\n        /* \"#utility.yul\":234:254   */\n      calldataload\n        /* \"#utility.yul\":225:254   */\n      swap1\n      pop\n        /* \"#utility.yul\":263:307   */\n      tag_119\n        /* \"#utility.yul\":301:306   */\n      dup2\n        /* \"#utility.yul\":263:307   */\n      tag_120\n      jump\t// in\n    tag_119:\n        /* \"#utility.yul\":152:313   */\n      swap3\n      swap2\n      pop\n      pop\n      jump\t// out\n        /* \"#utility.yul\":319:458   */\n    tag_121:\n        /* \"#utility.yul\":365:370   */\n      0x00\n        /* \"#utility.yul\":403:409   */\n      dup2\n        /* \"#utility.yul\":390:410   */\n      calldataload\n        /* \"#utility.yul\":381:410   */\n      swap1\n      pop\n        /* \"#utility.yul\":419:452   */\n      tag_123\n        /* \"#utility.yul\":446:451   */\n      dup2\n        /* \"#utility.yul\":419:452   */\n      tag_124\n      jump\t// in\n    tag_123:\n        /* \"#utility.yul\":319:458   */\n      swap3\n      swap2\n      pop\n      pop\n      jump\t// out\n        /* \"#utility.yul\":464:793   */\n    tag_42:\n        /* \"#utility.yul\":523:529   */\n      0x00\n        /* \"#utility.yul\":572:574   */\n      0x20\n        /* \"#utility.yul\":560:569   */\n      dup3\n        /* \"#utility.yul\":551:558   */\n      dup5\n        /* \"#utility.yul\":547:570   */\n      sub\n        /* \"#utility.yul\":543:575   */\n      slt\n        /* \"#utility.yul\":540:659   */\n      iszero\n      tag_126\n      jumpi\n        /* \"#utility.yul\":578:657   */\n      tag_127\n      tag_128\n      jump\t// in\n    tag_127:\n        /* \"#utility.yul\":540:659   */\n    tag_126:\n        /* \"#utility.yul\":698:699   */\n      0x00\n        /* \"#utility.yul\":723:776   */\n      tag_129\n        /* \"#utility.yul\":768:775   */\n      dup5\n        /* \"#utility.yul\":759:765   */\n      dup3\n        /* \"#utility.yul\":748:757   */\n      dup6\n        /* \"#utility.yul\":744:766   */\n      add\n        /* \"#utility.yul\":723:776   */\n      tag_113\n      jump\t// in\n    tag_129:\n        /* \"#utility.yul\":713:776   */\n      swap2\n      pop\n        /* \"#utility.yul\":669:786   */\n      pop\n        /* \"#utility.yul\":464:793   */\n      swap3\n      swap2\n      pop\n      pop\n      jump\t// out\n        /* \"#utility.yul\":799:1150   */\n    tag_20:\n        /* \"#utility.yul\":869:875   */\n      0x00\n        /* \"#utility.yul\":918:920   */\n      0x20\n        /* \"#utility.yul\":906:915   */\n      dup3\n        /* \"#utility.yul\":897:904   */\n      dup5\n        /* \"#utility.yul\":893:916   */\n      sub\n        /* \"#utility.yul\":889:921   */\n      slt\n        /* \"#utility.yul\":886:1005   */\n      iszero\n      tag_131\n      jumpi\n        /* \"#utility.yul\":924:1003   */\n      tag_132\n      tag_128\n      jump\t// in\n    tag_132:\n        /* \"#utility.yul\":886:1005   */\n    tag_131:\n        /* \"#utility.yul\":1044:1045   */\n      0x00\n        /* \"#utility.yul\":1069:1133   */\n      tag_133\n        /* \"#utility.yul\":1125:1132   */\n      dup5\n        /* \"#utility.yul\":1116:1122   */\n      dup3\n        /* \"#utility.yul\":1105:1114   */\n      dup6\n        /* \"#utility.yul\":1101:1123   */\n      add\n        /* \"#utility.yul\":1069:1133   */\n      tag_117\n      jump\t// in\n    tag_133:\n        /* \"#utility.yul\":1059:1133   */\n      swap2\n      pop\n        /* \"#utility.yul\":1015:1143   */\n      pop\n        /* \"#utility.yul\":799:1150   */\n      swap3\n      swap2\n      pop\n      pop\n      jump\t// out\n        /* \"#utility.yul\":1156:1485   */\n    tag_47:\n        /* \"#utility.yul\":1215:1221   */\n      0x00\n        /* \"#utility.yul\":1264:1266   */\n      0x20\n        /* \"#utility.yul\":1252:1261   */\n      dup3\n        /* \"#utility.yul\":1243:1250   */\n      dup5\n        /* \"#utility.yul\":1239:1262   */\n      sub\n        /* \"#utility.yul\":1235:1267   */\n      slt\n        /* \"#utility.yul\":1232:1351   */\n      iszero\n      tag_135\n      jumpi\n        /* \"#utility.yul\":1270:1349   */\n      tag_136\n      tag_128\n      jump\t// in\n    tag_136:\n        /* \"#utility.yul\":1232:1351   */\n    tag_135:\n        /* \"#utility.yul\":1390:1391   */\n      0x00\n        /* \"#utility.yul\":1415:1468   */\n      tag_137\n        /* \"#utility.yul\":1460:1467   */\n      dup5\n        /* \"#utility.yul\":1451:1457   */\n      dup3\n        /* \"#utility.yul\":1440:1449   */\n      dup6\n        /* \"#utility.yul\":1436:1458   */\n      add\n        /* \"#utility.yul\":1415:1468   */\n      tag_121\n      jump\t// in\n    tag_137:\n        /* \"#utility.yul\":1405:1468   */\n      swap2\n      pop\n        /* \"#utility.yul\":1361:1478   */\n      pop\n        /* \"#utility.yul\":1156:1485   */\n      swap3\n      swap2\n      pop\n      pop\n      jump\t// out\n        /* \"#utility.yul\":1491:1609   */\n    tag_138:\n        /* \"#utility.yul\":1578:1602   */\n      tag_140\n        /* \"#utility.yul\":1596:1601   */\n      dup2\n        /* \"#utility.yul\":1578:1602   */\n      tag_141\n      jump\t// in\n    tag_140:\n        /* \"#utility.yul\":1573:1576   */\n      dup3\n        /* \"#utility.yul\":1566:1603   */\n      mstore\n        /* \"#utility.yul\":1491:1609   */\n      pop\n      pop\n      jump\t// out\n        /* \"#utility.yul\":1615:1764   */\n    tag_142:\n        /* \"#utility.yul\":1711:1757   */\n      tag_144\n        /* \"#utility.yul\":1751:1756   */\n      dup2\n        /* \"#utility.yul\":1711:1757   */\n      tag_145\n      jump\t// in\n    tag_144:\n        /* \"#utility.yul\":1706:1709   */\n      dup3\n        /* \"#utility.yul\":1699:1758   */\n      mstore\n        /* \"#utility.yul\":1615:1764   */\n      pop\n      pop\n      jump\t// out\n        /* \"#utility.yul\":1770:1921   */\n    tag_146:\n        /* \"#utility.yul\":1867:1914   */\n      tag_148\n        /* \"#utility.yul\":1908:1913   */\n      dup2\n        /* \"#utility.yul\":1867:1914   */\n      tag_149\n      jump\t// in\n    tag_148:\n        /* \"#utility.yul\":1862:1865   */\n      dup3\n        /* \"#utility.yul\":1855:1915   */\n      mstore\n        /* \"#utility.yul\":1770:1921   */\n      pop\n      pop\n      jump\t// out\n        /* \"#utility.yul\":1927:2293   */\n    tag_150:\n        /* \"#utility.yul\":2069:2072   */\n      0x00\n        /* \"#utility.yul\":2090:2157   */\n      tag_152\n        /* \"#utility.yul\":2154:2156   */\n      0x13\n        /* \"#utility.yul\":2149:2152   */\n      dup4\n        /* \"#utility.yul\":2090:2157   */\n      tag_153\n      jump\t// in\n    tag_152:\n        /* \"#utility.yul\":2083:2157   */\n      swap2\n      pop\n        /* \"#utility.yul\":2166:2259   */\n      tag_154\n        /* \"#utility.yul\":2255:2258   */\n      dup3\n        /* \"#utility.yul\":2166:2259   */\n      tag_155\n      jump\t// in\n    tag_154:\n        /* \"#utility.yul\":2284:2286   */\n      0x20\n        /* \"#utility.yul\":2279:2282   */\n      dup3\n        /* \"#utility.yul\":2275:2287   */\n      add\n        /* \"#utility.yul\":2268:2287   */\n      swap1\n      pop\n        /* \"#utility.yul\":1927:2293   */\n      swap2\n      swap1\n      pop\n      jump\t// out\n        /* \"#utility.yul\":2299:2665   */\n    tag_156:\n        /* \"#utility.yul\":2441:2444   */\n      0x00\n        /* \"#utility.yul\":2462:2529   */\n      tag_158\n        /* \"#utility.yul\":2526:2528   */\n      0x33\n        /* \"#utility.yul\":2521:2524   */\n      dup4\n        /* \"#utility.yul\":2462:2529   */\n      tag_153\n      jump\t// in\n    tag_158:\n        /* \"#utility.yul\":2455:2529   */\n      swap2\n      pop\n        /* \"#utility.yul\":2538:2631   */\n      tag_159\n        /* \"#utility.yul\":2627:2630   */\n      dup3\n        /* \"#utility.yul\":2538:2631   */\n      tag_160\n      jump\t// in\n    tag_159:\n        /* \"#utility.yul\":2656:2658   */\n      0x40\n        /* \"#utility.yul\":2651:2654   */\n      dup3\n        /* \"#utility.yul\":2647:2659   */\n      add\n        /* \"#utility.yul\":2640:2659   */\n      swap1\n      pop\n        /* \"#utility.yul\":2299:2665   */\n      swap2\n      swap1\n      pop\n      jump\t// out\n        /* \"#utility.yul\":2671:2789   */\n    tag_161:\n        /* \"#utility.yul\":2758:2782   */\n      tag_163\n        /* \"#utility.yul\":2776:2781   */\n      dup2\n        /* \"#utility.yul\":2758:2782   */\n      tag_164\n      jump\t// in\n    tag_163:\n        /* \"#utility.yul\":2753:2756   */\n      dup3\n        /* \"#utility.yul\":2746:2783   */\n      mstore\n        /* \"#utility.yul\":2671:2789   */\n      pop\n      pop\n      jump\t// out\n        /* \"#utility.yul\":2795:3017   */\n    tag_34:\n        /* \"#utility.yul\":2888:2892   */\n      0x00\n        /* \"#utility.yul\":2926:2928   */\n      0x20\n        /* \"#utility.yul\":2915:2924   */\n      dup3\n        /* \"#utility.yul\":2911:2929   */\n      add\n        /* \"#utility.yul\":2903:2929   */\n      swap1\n      pop\n        /* \"#utility.yul\":2939:3010   */\n      tag_166\n        /* \"#utility.yul\":3007:3008   */\n      0x00\n        /* \"#utility.yul\":2996:3005   */\n      dup4\n        /* \"#utility.yul\":2992:3009   */\n      add\n        /* \"#utility.yul\":2983:2989   */\n      dup5\n        /* \"#utility.yul\":2939:3010   */\n      tag_138\n      jump\t// in\n    tag_166:\n        /* \"#utility.yul\":2795:3017   */\n      swap3\n      swap2\n      pop\n      pop\n      jump\t// out\n        /* \"#utility.yul\":3023:3263   */\n    tag_29:\n        /* \"#utility.yul\":3125:3129   */\n      0x00\n        /* \"#utility.yul\":3163:3165   */\n      0x20\n        /* \"#utility.yul\":3152:3161   */\n      dup3\n        /* \"#utility.yul\":3148:3166   */\n      add\n        /* \"#utility.yul\":3140:3166   */\n      swap1\n      pop\n        /* \"#utility.yul\":3176:3256   */\n      tag_168\n        /* \"#utility.yul\":3253:3254   */\n      0x00\n        /* \"#utility.yul\":3242:3251   */\n      dup4\n        /* \"#utility.yul\":3238:3255   */\n      add\n        /* \"#utility.yul\":3229:3235   */\n      dup5\n        /* \"#utility.yul\":3176:3256   */\n      tag_142\n      jump\t// in\n    tag_168:\n        /* \"#utility.yul\":3023:3263   */\n      swap3\n      swap2\n      pop\n      pop\n      jump\t// out\n        /* \"#utility.yul\":3269:3511   */\n    tag_17:\n        /* \"#utility.yul\":3372:3376   */\n      0x00\n        /* \"#utility.yul\":3410:3412   */\n      0x20\n        /* \"#utility.yul\":3399:3408   */\n      dup3\n        /* \"#utility.yul\":3395:3413   */\n      add\n        /* \"#utility.yul\":3387:3413   */\n      swap1\n      pop\n        /* \"#utility.yul\":3423:3504   */\n      tag_170\n        /* \"#utility.yul\":3501:3502   */\n      0x00\n        /* \"#utility.yul\":3490:3499   */\n      dup4\n        /* \"#utility.yul\":3486:3503   */\n      add\n        /* \"#utility.yul\":3477:3483   */\n      dup5\n        /* \"#utility.yul\":3423:3504   */\n      tag_146\n      jump\t// in\n    tag_170:\n        /* \"#utility.yul\":3269:3511   */\n      swap3\n      swap2\n      pop\n      pop\n      jump\t// out\n        /* \"#utility.yul\":3517:3936   */\n    tag_84:\n        /* \"#utility.yul\":3683:3687   */\n      0x00\n        /* \"#utility.yul\":3721:3723   */\n      0x20\n        /* \"#utility.yul\":3710:3719   */\n      dup3\n        /* \"#utility.yul\":3706:3724   */\n      add\n        /* \"#utility.yul\":3698:3724   */\n      swap1\n      pop\n        /* \"#utility.yul\":3770:3779   */\n      dup2\n        /* \"#utility.yul\":3764:3768   */\n      dup2\n        /* \"#utility.yul\":3760:3780   */\n      sub\n        /* \"#utility.yul\":3756:3757   */\n      0x00\n        /* \"#utility.yul\":3745:3754   */\n      dup4\n        /* \"#utility.yul\":3741:3758   */\n      add\n        /* \"#utility.yul\":3734:3781   */\n      mstore\n        /* \"#utility.yul\":3798:3929   */\n      tag_172\n        /* \"#utility.yul\":3924:3928   */\n      dup2\n        /* \"#utility.yul\":3798:3929   */\n      tag_150\n      jump\t// in\n    tag_172:\n        /* \"#utility.yul\":3790:3929   */\n      swap1\n      pop\n        /* \"#utility.yul\":3517:3936   */\n      swap2\n      swap1\n      pop\n      jump\t// out\n        /* \"#utility.yul\":3942:4361   */\n    tag_93:\n        /* \"#utility.yul\":4108:4112   */\n      0x00\n        /* \"#utility.yul\":4146:4148   */\n      0x20\n        /* \"#utility.yul\":4135:4144   */\n      dup3\n        /* \"#utility.yul\":4131:4149   */\n      add\n        /* \"#utility.yul\":4123:4149   */\n      swap1\n      pop\n        /* \"#utility.yul\":4195:4204   */\n      dup2\n        /* \"#utility.yul\":4189:4193   */\n      dup2\n        /* \"#utility.yul\":4185:4205   */\n      sub\n        /* \"#utility.yul\":4181:4182   */\n      0x00\n        /* \"#utility.yul\":4170:4179   */\n      dup4\n        /* \"#utility.yul\":4166:4183   */\n      add\n        /* \"#utility.yul\":4159:4206   */\n      mstore\n        /* \"#utility.yul\":4223:4354   */\n      tag_174\n        /* \"#utility.yul\":4349:4353   */\n      dup2\n        /* \"#utility.yul\":4223:4354   */\n      tag_156\n      jump\t// in\n    tag_174:\n        /* \"#utility.yul\":4215:4354   */\n      swap1\n      pop\n        /* \"#utility.yul\":3942:4361   */\n      swap2\n      swap1\n      pop\n      jump\t// out\n        /* \"#utility.yul\":4367:4589   */\n    tag_23:\n        /* \"#utility.yul\":4460:4464   */\n      0x00\n        /* \"#utility.yul\":4498:4500   */\n      0x20\n        /* \"#utility.yul\":4487:4496   */\n      dup3\n        /* \"#utility.yul\":4483:4501   */\n      add\n        /* \"#utility.yul\":4475:4501   */\n      swap1\n      pop\n        /* \"#utility.yul\":4511:4582   */\n      tag_176\n        /* \"#utility.yul\":4579:4580   */\n      0x00\n        /* \"#utility.yul\":4568:4577   */\n      dup4\n        /* \"#utility.yul\":4564:4581   */\n      add\n        /* \"#utility.yul\":4555:4561   */\n      dup5\n        /* \"#utility.yul\":4511:4582   */\n      tag_161\n      jump\t// in\n    tag_176:\n        /* \"#utility.yul\":4367:4589   */\n      swap3\n      swap2\n      pop\n      pop\n      jump\t// out\n        /* \"#utility.yul\":4676:4845   */\n    tag_153:\n        /* \"#utility.yul\":4760:4771   */\n      0x00\n        /* \"#utility.yul\":4794:4800   */\n      dup3\n        /* \"#utility.yul\":4789:4792   */\n      dup3\n        /* \"#utility.yul\":4782:4801   */\n      mstore\n        /* \"#utility.yul\":4834:4838   */\n      0x20\n        /* \"#utility.yul\":4829:4832   */\n      dup3\n        /* \"#utility.yul\":4825:4839   */\n      add\n        /* \"#utility.yul\":4810:4839   */\n      swap1\n      pop\n        /* \"#utility.yul\":4676:4845   */\n      swap3\n      swap2\n      pop\n      pop\n      jump\t// out\n        /* \"#utility.yul\":4851:4947   */\n    tag_141:\n        /* \"#utility.yul\":4888:4895   */\n      0x00\n        /* \"#utility.yul\":4917:4941   */\n      tag_181\n        /* \"#utility.yul\":4935:4940   */\n      dup3\n        /* \"#utility.yul\":4917:4941   */\n      tag_182\n      jump\t// in\n    tag_181:\n        /* \"#utility.yul\":4906:4941   */\n      swap1\n      pop\n        /* \"#utility.yul\":4851:4947   */\n      swap2\n      swap1\n      pop\n      jump\t// out\n        /* \"#utility.yul\":4953:5086   */\n    tag_183:\n        /* \"#utility.yul\":5001:5008   */\n      0x00\n        /* \"#utility.yul\":5030:5035   */\n      dup2\n        /* \"#utility.yul\":5019:5035   */\n      swap1\n      pop\n        /* \"#utility.yul\":5036:5080   */\n      tag_185\n        /* \"#utility.yul\":5074:5079   */\n      dup3\n        /* \"#utility.yul\":5036:5080   */\n      tag_186\n      jump\t// in\n    tag_185:\n        /* \"#utility.yul\":4953:5086   */\n      swap2\n      swap1\n      pop\n      jump\t// out\n        /* \"#utility.yul\":5092:5227   */\n    tag_187:\n        /* \"#utility.yul\":5141:5148   */\n      0x00\n        /* \"#utility.yul\":5170:5175   */\n      dup2\n        /* \"#utility.yul\":5159:5175   */\n      swap1\n      pop\n        /* \"#utility.yul\":5176:5221   */\n      tag_189\n        /* \"#utility.yul\":5215:5220   */\n      dup3\n        /* \"#utility.yul\":5176:5221   */\n      tag_190\n      jump\t// in\n    tag_189:\n        /* \"#utility.yul\":5092:5227   */\n      swap2\n      swap1\n      pop\n      jump\t// out\n        /* \"#utility.yul\":5233:5359   */\n    tag_182:\n        /* \"#utility.yul\":5270:5277   */\n      0x00\n        /* \"#utility.yul\":5310:5352   */\n      0xffffffffffffffffffffffffffffffffffffffff\n        /* \"#utility.yul\":5303:5308   */\n      dup3\n        /* \"#utility.yul\":5299:5353   */\n      and\n        /* \"#utility.yul\":5288:5353   */\n      swap1\n      pop\n        /* \"#utility.yul\":5233:5359   */\n      swap2\n      swap1\n      pop\n      jump\t// out\n        /* \"#utility.yul\":5365:5442   */\n    tag_164:\n        /* \"#utility.yul\":5402:5409   */\n      0x00\n        /* \"#utility.yul\":5431:5436   */\n      dup2\n        /* \"#utility.yul\":5420:5436   */\n      swap1\n      pop\n        /* \"#utility.yul\":5365:5442   */\n      swap2\n      swap1\n      pop\n      jump\t// out\n        /* \"#utility.yul\":5448:5581   */\n    tag_145:\n        /* \"#utility.yul\":5507:5516   */\n      0x00\n        /* \"#utility.yul\":5540:5575   */\n      tag_194\n        /* \"#utility.yul\":5569:5574   */\n      dup3\n        /* \"#utility.yul\":5540:5575   */\n      tag_183\n      jump\t// in\n    tag_194:\n        /* \"#utility.yul\":5527:5575   */\n      swap1\n      pop\n        /* \"#utility.yul\":5448:5581   */\n      swap2\n      swap1\n      pop\n      jump\t// out\n        /* \"#utility.yul\":5587:5722   */\n    tag_149:\n        /* \"#utility.yul\":5647:5656   */\n      0x00\n        /* \"#utility.yul\":5680:5716   */\n      tag_196\n        /* \"#utility.yul\":5710:5715   */\n      dup3\n        /* \"#utility.yul\":5680:5716   */\n      tag_187\n      jump\t// in\n    tag_196:\n        /* \"#utility.yul\":5667:5716   */\n      swap1\n      pop\n        /* \"#utility.yul\":5587:5722   */\n      swap2\n      swap1\n      pop\n      jump\t// out\n        /* \"#utility.yul\":5728:5908   */\n    tag_75:\n        /* \"#utility.yul\":5776:5853   */\n      0x4e487b7100000000000000000000000000000000000000000000000000000000\n        /* \"#utility.yul\":5773:5774   */\n      0x00\n        /* \"#utility.yul\":5766:5854   */\n      mstore\n        /* \"#utility.yul\":5873:5877   */\n      0x21\n        /* \"#utility.yul\":5870:5871   */\n      0x04\n        /* \"#utility.yul\":5863:5878   */\n      mstore\n        /* \"#utility.yul\":5897:5901   */\n      0x24\n        /* \"#utility.yul\":5894:5895   */\n      0x00\n        /* \"#utility.yul\":5887:5902   */\n      revert\n        /* \"#utility.yul\":6037:6154   */\n    tag_128:\n        /* \"#utility.yul\":6146:6147   */\n      0x00\n        /* \"#utility.yul\":6143:6144   */\n      dup1\n        /* \"#utility.yul\":6136:6148   */\n      revert\n        /* \"#utility.yul\":6160:6329   */\n    tag_155:\n        /* \"#utility.yul\":6300:6321   */\n      0x43616c6c6572206973206e6f74206f776e657200000000000000000000000000\n        /* \"#utility.yul\":6296:6297   */\n      0x00\n        /* \"#utility.yul\":6288:6294   */\n      dup3\n        /* \"#utility.yul\":6284:6298   */\n      add\n        /* \"#utility.yul\":6277:6322   */\n      mstore\n        /* \"#utility.yul\":6160:6329   */\n      pop\n      jump\t// out\n        /* \"#utility.yul\":6335:6573   */\n    tag_160:\n        /* \"#utility.yul\":6475:6509   */\n      0x546f20616e6e6f756e6365207468652077696e6e6572207468652067616d6520\n        /* \"#utility.yul\":6471:6472   */\n      0x00\n        /* \"#utility.yul\":6463:6469   */\n      dup3\n        /* \"#utility.yul\":6459:6473   */\n      add\n        /* \"#utility.yul\":6452:6510   */\n      mstore\n        /* \"#utility.yul\":6544:6565   */\n      0x6861766520746f2062652066696e697368656400000000000000000000000000\n        /* \"#utility.yul\":6539:6541   */\n      0x20\n        /* \"#utility.yul\":6531:6537   */\n      dup3\n        /* \"#utility.yul\":6527:6542   */\n      add\n        /* \"#utility.yul\":6520:6566   */\n      mstore\n        /* \"#utility.yul\":6335:6573   */\n      pop\n      jump\t// out\n        /* \"#utility.yul\":6579:6695   */\n    tag_186:\n        /* \"#utility.yul\":6663:6664   */\n      0x02\n        /* \"#utility.yul\":6656:6661   */\n      dup2\n        /* \"#utility.yul\":6653:6665   */\n      lt\n        /* \"#utility.yul\":6643:6689   */\n      tag_204\n      jumpi\n        /* \"#utility.yul\":6669:6687   */\n      tag_205\n      tag_75\n      jump\t// in\n    tag_205:\n        /* \"#utility.yul\":6643:6689   */\n    tag_204:\n        /* \"#utility.yul\":6579:6695   */\n      pop\n      jump\t// out\n        /* \"#utility.yul\":6701:6818   */\n    tag_190:\n        /* \"#utility.yul\":6786:6787   */\n      0x04\n        /* \"#utility.yul\":6779:6784   */\n      dup2\n        /* \"#utility.yul\":6776:6788   */\n      lt\n        /* \"#utility.yul\":6766:6812   */\n      tag_207\n      jumpi\n        /* \"#utility.yul\":6792:6810   */\n      tag_208\n      tag_75\n      jump\t// in\n    tag_208:\n        /* \"#utility.yul\":6766:6812   */\n    tag_207:\n        /* \"#utility.yul\":6701:6818   */\n      pop\n      jump\t// out\n        /* \"#utility.yul\":6824:6946   */\n    tag_116:\n        /* \"#utility.yul\":6897:6921   */\n      tag_210\n        /* \"#utility.yul\":6915:6920   */\n      dup2\n        /* \"#utility.yul\":6897:6921   */\n      tag_141\n      jump\t// in\n    tag_210:\n        /* \"#utility.yul\":6890:6895   */\n      dup2\n        /* \"#utility.yul\":6887:6922   */\n      eq\n        /* \"#utility.yul\":6877:6940   */\n      tag_211\n      jumpi\n        /* \"#utility.yul\":6936:6937   */\n      0x00\n        /* \"#utility.yul\":6933:6934   */\n      dup1\n        /* \"#utility.yul\":6926:6938   */\n      revert\n        /* \"#utility.yul\":6877:6940   */\n    tag_211:\n        /* \"#utility.yul\":6824:6946   */\n      pop\n      jump\t// out\n        /* \"#utility.yul\":6952:7062   */\n    tag_120:\n        /* \"#utility.yul\":7036:7037   */\n      0x02\n        /* \"#utility.yul\":7029:7034   */\n      dup2\n        /* \"#utility.yul\":7026:7038   */\n      lt\n        /* \"#utility.yul\":7016:7056   */\n      tag_213\n      jumpi\n        /* \"#utility.yul\":7052:7053   */\n      0x00\n        /* \"#utility.yul\":7049:7050   */\n      dup1\n        /* \"#utility.yul\":7042:7054   */\n      revert\n        /* \"#utility.yul\":7016:7056   */\n    tag_213:\n        /* \"#utility.yul\":6952:7062   */\n      pop\n      jump\t// out\n        /* \"#utility.yul\":7068:7190   */\n    tag_124:\n        /* \"#utility.yul\":7141:7165   */\n      tag_215\n        /* \"#utility.yul\":7159:7164   */\n      dup2\n        /* \"#utility.yul\":7141:7165   */\n      tag_164\n      jump\t// in\n    tag_215:\n        /* \"#utility.yul\":7134:7139   */\n      dup2\n        /* \"#utility.yul\":7131:7166   */\n      eq\n        /* \"#utility.yul\":7121:7184   */\n      tag_216\n      jumpi\n        /* \"#utility.yul\":7180:7181   */\n      0x00\n        /* \"#utility.yul\":7177:7178   */\n      dup1\n        /* \"#utility.yul\":7170:7182   */\n      revert\n        /* \"#utility.yul\":7121:7184   */\n    tag_216:\n        /* \"#utility.yul\":7068:7190   */\n      pop\n      jump\t// out\n\n    auxdata: 0xa2646970667358221220fa7738afef6d20f4b0d25c3a49ce11d0362d2a4ea0ceb689e93135b8a2ea191664736f6c63430008070033\n}\n",
				"bytecode": {
					"linkReferences": {},
					"object": "608060405234801561001057600080fd5b50604051610dd4380380610dd483398181016040528101906100329190610106565b3373ffffffffffffffffffffffffffffffffffffffff16600073ffffffffffffffffffffffffffffffffffffffff167f342827c97908e5e2f71151c08502a66d44b6f758e3ac2f1de95f02eb95f0a73560405160405180910390a3336000806101000a81548173ffffffffffffffffffffffffffffffffffffffff021916908373ffffffffffffffffffffffffffffffffffffffff1602179055504260018190555082600281905550816003819055508060048190555050505061017f565b60008151905061010081610168565b92915050565b60008060006060848603121561011f5761011e610163565b5b600061012d868287016100f1565b935050602061013e868287016100f1565b925050604061014f868287016100f1565b9150509250925092565b6000819050919050565b600080fd5b61017181610159565b811461017c57600080fd5b50565b610c468061018e6000396000f3fe6080604052600436106100915760003560e01c8063a6f9dae111610059578063a6f9dae114610184578063b9d76da9146101ad578063c828371e146101ea578063f2c3e46914610215578063fadeaf761461025257610091565b80631865c57d1461009657806335644c7b146100c157806366646a94146100f1578063893d20e81461012e5780638ea36d4714610159575b600080fd5b3480156100a257600080fd5b506100ab61027d565b6040516100b891906109f1565b60405180910390f35b6100db60048036038101906100d691906108df565b6102e4565b6040516100e89190610a4c565b60405180910390f35b3480156100fd57600080fd5b50610118600480360381019061011391906108df565b610470565b60405161012591906109d6565b60405180910390f35b34801561013a57600080fd5b5061014361059d565b60405161015091906109bb565b60405180910390f35b34801561016557600080fd5b5061016e6105c6565b60405161017b9190610a4c565b60405180910390f35b34801561019057600080fd5b506101ab60048036038101906101a691906108b2565b6105d0565b005b3480156101b957600080fd5b506101d460048036038101906101cf919061090c565b61071b565b6040516101e19190610a4c565b60405180910390f35b3480156101f657600080fd5b506101ff6107bd565b60405161020c9190610a4c565b60405180910390f35b34801561022157600080fd5b5061023c6004803603810190610237919061090c565b6107c7565b6040516102499190610a4c565b60405180910390f35b34801561025e57600080fd5b50610267610869565b6040516102749190610a4c565b60405180910390f35b6000804290506002548110156102975760009150506102e1565b80600254111580156102aa575060035481105b156102b95760019150506102e1565b80600354111580156102cc575060045481105b156102db5760029150506102e1565b60039150505b90565b6000806040518060a001604052803373ffffffffffffffffffffffffffffffffffffffff1681526020016005548152602001600654815260200184600181111561033157610330610afe565b5b8152602001348152509050600881908060018154018082558091505060019003906000526020600020906005020160009091909190915060008201518160000160006101000a81548173ffffffffffffffffffffffffffffffffffffffff021916908373ffffffffffffffffffffffffffffffffffffffff160217905550602082015181600101556040820151816002015560608201518160030160006101000a81548160ff021916908360018111156103ee576103ed610afe565b5b02179055506080820151816004015550508060600151600181111561041657610415610afe565b5b8160800151826000015173ffffffffffffffffffffffffffffffffffffffff167fd0ec3d0f31fea1291096288253382fdc9811dcf678e1e7628eb851cef2ba0a1160405160405180910390a4600880549050915050919050565b60008060009054906101000a900473ffffffffffffffffffffffffffffffffffffffff1673ffffffffffffffffffffffffffffffffffffffff163373ffffffffffffffffffffffffffffffffffffffff1614610501576040517f08c379a00000000000000000000000000000000000000000000000000000000081526004016104f890610a0c565b60405180910390fd5b60038081111561051457610513610afe565b5b61051c61027d565b600381111561052e5761052d610afe565b5b1461056e576040517f08c379a000000000000000000000000000000000000000000000000000000000815260040161056590610a2c565b60405180910390fd5b81600760006101000a81548160ff0219169083600181111561059357610592610afe565b5b0217905550919050565b60008060009054906101000a900473ffffffffffffffffffffffffffffffffffffffff16905090565b6000600354905090565b60008054906101000a900473ffffffffffffffffffffffffffffffffffffffff1673ffffffffffffffffffffffffffffffffffffffff163373ffffffffffffffffffffffffffffffffffffffff161461065e576040517f08c379a000000000000000000000000000000000000000000000000000000000815260040161065590610a0c565b60405180910390fd5b8073ffffffffffffffffffffffffffffffffffffffff1660008054906101000a900473ffffffffffffffffffffffffffffffffffffffff1673ffffffffffffffffffffffffffffffffffffffff167f342827c97908e5e2f71151c08502a66d44b6f758e3ac2f1de95f02eb95f0a73560405160405180910390a3806000806101000a81548173ffffffffffffffffffffffffffffffffffffffff021916908373ffffffffffffffffffffffffffffffffffffffff16021790555050565b60008060009054906101000a900473ffffffffffffffffffffffffffffffffffffffff1673ffffffffffffffffffffffffffffffffffffffff163373ffffffffffffffffffffffffffffffffffffffff16146107ac576040517f08c379a00000000000000000000000000000000000000000000000000000000081526004016107a390610a0c565b60405180910390fd5b816005819055506005549050919050565b6000600254905090565b60008060009054906101000a900473ffffffffffffffffffffffffffffffffffffffff1673ffffffffffffffffffffffffffffffffffffffff163373ffffffffffffffffffffffffffffffffffffffff1614610858576040517f08c379a000000000000000000000000000000000000000000000000000000000815260040161084f90610a0c565b60405180910390fd5b816006819055506006549050919050565b6000600454905090565b60008135905061088281610bd2565b92915050565b60008135905061089781610be9565b92915050565b6000813590506108ac81610bf9565b92915050565b6000602082840312156108c8576108c7610b2d565b5b60006108d684828501610873565b91505092915050565b6000602082840312156108f5576108f4610b2d565b5b600061090384828501610888565b91505092915050565b60006020828403121561092257610921610b2d565b5b60006109308482850161089d565b91505092915050565b61094281610a78565b82525050565b61095181610ada565b82525050565b61096081610aec565b82525050565b6000610973601383610a67565b915061097e82610b32565b602082019050919050565b6000610996603383610a67565b91506109a182610b5b565b604082019050919050565b6109b581610ad0565b82525050565b60006020820190506109d06000830184610939565b92915050565b60006020820190506109eb6000830184610948565b92915050565b6000602082019050610a066000830184610957565b92915050565b60006020820190508181036000830152610a2581610966565b9050919050565b60006020820190508181036000830152610a4581610989565b9050919050565b6000602082019050610a6160008301846109ac565b92915050565b600082825260208201905092915050565b6000610a8382610ab0565b9050919050565b6000819050610a9882610baa565b919050565b6000819050610aab82610bbe565b919050565b600073ffffffffffffffffffffffffffffffffffffffff82169050919050565b6000819050919050565b6000610ae582610a8a565b9050919050565b6000610af782610a9d565b9050919050565b7f4e487b7100000000000000000000000000000000000000000000000000000000600052602160045260246000fd5b600080fd5b7f43616c6c6572206973206e6f74206f776e657200000000000000000000000000600082015250565b7f546f20616e6e6f756e6365207468652077696e6e6572207468652067616d652060008201527f6861766520746f2062652066696e697368656400000000000000000000000000602082015250565b60028110610bbb57610bba610afe565b5b50565b60048110610bcf57610bce610afe565b5b50565b610bdb81610a78565b8114610be657600080fd5b50565b60028110610bf657600080fd5b50565b610c0281610ad0565b8114610c0d57600080fd5b5056fea2646970667358221220fa7738afef6d20f4b0d25c3a49ce11d0362d2a4ea0ceb689e93135b8a2ea191664736f6c63430008070033",
					"opcodes": "PUSH1 0x80 PUSH1 0x40 MSTORE CALLVALUE DUP1 ISZERO PUSH2 0x10 JUMPI PUSH1 0x0 DUP1 REVERT JUMPDEST POP PUSH1 0x40 MLOAD PUSH2 0xDD4 CODESIZE SUB DUP1 PUSH2 0xDD4 DUP4 CODECOPY DUP2 DUP2 ADD PUSH1 0x40 MSTORE DUP2 ADD SWAP1 PUSH2 0x32 SWAP2 SWAP1 PUSH2 0x106 JUMP JUMPDEST CALLER PUSH20 0xFFFFFFFFFFFFFFFFFFFFFFFFFFFFFFFFFFFFFFFF AND PUSH1 0x0 PUSH20 0xFFFFFFFFFFFFFFFFFFFFFFFFFFFFFFFFFFFFFFFF AND PUSH32 0x342827C97908E5E2F71151C08502A66D44B6F758E3AC2F1DE95F02EB95F0A735 PUSH1 0x40 MLOAD PUSH1 0x40 MLOAD DUP1 SWAP2 SUB SWAP1 LOG3 CALLER PUSH1 0x0 DUP1 PUSH2 0x100 EXP DUP2 SLOAD DUP2 PUSH20 0xFFFFFFFFFFFFFFFFFFFFFFFFFFFFFFFFFFFFFFFF MUL NOT AND SWAP1 DUP4 PUSH20 0xFFFFFFFFFFFFFFFFFFFFFFFFFFFFFFFFFFFFFFFF AND MUL OR SWAP1 SSTORE POP TIMESTAMP PUSH1 0x1 DUP2 SWAP1 SSTORE POP DUP3 PUSH1 0x2 DUP2 SWAP1 SSTORE POP DUP2 PUSH1 0x3 DUP2 SWAP1 SSTORE POP DUP1 PUSH1 0x4 DUP2 SWAP1 SSTORE POP POP POP POP PUSH2 0x17F JUMP JUMPDEST PUSH1 0x0 DUP2 MLOAD SWAP1 POP PUSH2 0x100 DUP2 PUSH2 0x168 JUMP JUMPDEST SWAP3 SWAP2 POP POP JUMP JUMPDEST PUSH1 0x0 DUP1 PUSH1 0x0 PUSH1 0x60 DUP5 DUP7 SUB SLT ISZERO PUSH2 0x11F JUMPI PUSH2 0x11E PUSH2 0x163 JUMP JUMPDEST JUMPDEST PUSH1 0x0 PUSH2 0x12D DUP7 DUP3 DUP8 ADD PUSH2 0xF1 JUMP JUMPDEST SWAP4 POP POP PUSH1 0x20 PUSH2 0x13E DUP7 DUP3 DUP8 ADD PUSH2 0xF1 JUMP JUMPDEST SWAP3 POP POP PUSH1 0x40 PUSH2 0x14F DUP7 DUP3 DUP8 ADD PUSH2 0xF1 JUMP JUMPDEST SWAP2 POP POP SWAP3 POP SWAP3 POP SWAP3 JUMP JUMPDEST PUSH1 0x0 DUP2 SWAP1 POP SWAP2 SWAP1 POP JUMP JUMPDEST PUSH1 0x0 DUP1 REVERT JUMPDEST PUSH2 0x171 DUP2 PUSH2 0x159 JUMP JUMPDEST DUP2 EQ PUSH2 0x17C JUMPI PUSH1 0x0 DUP1 REVERT JUMPDEST POP JUMP JUMPDEST PUSH2 0xC46 DUP1 PUSH2 0x18E PUSH1 0x0 CODECOPY PUSH1 0x0 RETURN INVALID PUSH1 0x80 PUSH1 0x40 MSTORE PUSH1 0x4 CALLDATASIZE LT PUSH2 0x91 JUMPI PUSH1 0x0 CALLDATALOAD PUSH1 0xE0 SHR DUP1 PUSH4 0xA6F9DAE1 GT PUSH2 0x59 JUMPI DUP1 PUSH4 0xA6F9DAE1 EQ PUSH2 0x184 JUMPI DUP1 PUSH4 0xB9D76DA9 EQ PUSH2 0x1AD JUMPI DUP1 PUSH4 0xC828371E EQ PUSH2 0x1EA JUMPI DUP1 PUSH4 0xF2C3E469 EQ PUSH2 0x215 JUMPI DUP1 PUSH4 0xFADEAF76 EQ PUSH2 0x252 JUMPI PUSH2 0x91 JUMP JUMPDEST DUP1 PUSH4 0x1865C57D EQ PUSH2 0x96 JUMPI DUP1 PUSH4 0x35644C7B EQ PUSH2 0xC1 JUMPI DUP1 PUSH4 0x66646A94 EQ PUSH2 0xF1 JUMPI DUP1 PUSH4 0x893D20E8 EQ PUSH2 0x12E JUMPI DUP1 PUSH4 0x8EA36D47 EQ PUSH2 0x159 JUMPI JUMPDEST PUSH1 0x0 DUP1 REVERT JUMPDEST CALLVALUE DUP1 ISZERO PUSH2 0xA2 JUMPI PUSH1 0x0 DUP1 REVERT JUMPDEST POP PUSH2 0xAB PUSH2 0x27D JUMP JUMPDEST PUSH1 0x40 MLOAD PUSH2 0xB8 SWAP2 SWAP1 PUSH2 0x9F1 JUMP JUMPDEST PUSH1 0x40 MLOAD DUP1 SWAP2 SUB SWAP1 RETURN JUMPDEST PUSH2 0xDB PUSH1 0x4 DUP1 CALLDATASIZE SUB DUP2 ADD SWAP1 PUSH2 0xD6 SWAP2 SWAP1 PUSH2 0x8DF JUMP JUMPDEST PUSH2 0x2E4 JUMP JUMPDEST PUSH1 0x40 MLOAD PUSH2 0xE8 SWAP2 SWAP1 PUSH2 0xA4C JUMP JUMPDEST PUSH1 0x40 MLOAD DUP1 SWAP2 SUB SWAP1 RETURN JUMPDEST CALLVALUE DUP1 ISZERO PUSH2 0xFD JUMPI PUSH1 0x0 DUP1 REVERT JUMPDEST POP PUSH2 0x118 PUSH1 0x4 DUP1 CALLDATASIZE SUB DUP2 ADD SWAP1 PUSH2 0x113 SWAP2 SWAP1 PUSH2 0x8DF JUMP JUMPDEST PUSH2 0x470 JUMP JUMPDEST PUSH1 0x40 MLOAD PUSH2 0x125 SWAP2 SWAP1 PUSH2 0x9D6 JUMP JUMPDEST PUSH1 0x40 MLOAD DUP1 SWAP2 SUB SWAP1 RETURN JUMPDEST CALLVALUE DUP1 ISZERO PUSH2 0x13A JUMPI PUSH1 0x0 DUP1 REVERT JUMPDEST POP PUSH2 0x143 PUSH2 0x59D JUMP JUMPDEST PUSH1 0x40 MLOAD PUSH2 0x150 SWAP2 SWAP1 PUSH2 0x9BB JUMP JUMPDEST PUSH1 0x40 MLOAD DUP1 SWAP2 SUB SWAP1 RETURN JUMPDEST CALLVALUE DUP1 ISZERO PUSH2 0x165 JUMPI PUSH1 0x0 DUP1 REVERT JUMPDEST POP PUSH2 0x16E PUSH2 0x5C6 JUMP JUMPDEST PUSH1 0x40 MLOAD PUSH2 0x17B SWAP2 SWAP1 PUSH2 0xA4C JUMP JUMPDEST PUSH1 0x40 MLOAD DUP1 SWAP2 SUB SWAP1 RETURN JUMPDEST CALLVALUE DUP1 ISZERO PUSH2 0x190 JUMPI PUSH1 0x0 DUP1 REVERT JUMPDEST POP PUSH2 0x1AB PUSH1 0x4 DUP1 CALLDATASIZE SUB DUP2 ADD SWAP1 PUSH2 0x1A6 SWAP2 SWAP1 PUSH2 0x8B2 JUMP JUMPDEST PUSH2 0x5D0 JUMP JUMPDEST STOP JUMPDEST CALLVALUE DUP1 ISZERO PUSH2 0x1B9 JUMPI PUSH1 0x0 DUP1 REVERT JUMPDEST POP PUSH2 0x1D4 PUSH1 0x4 DUP1 CALLDATASIZE SUB DUP2 ADD SWAP1 PUSH2 0x1CF SWAP2 SWAP1 PUSH2 0x90C JUMP JUMPDEST PUSH2 0x71B JUMP JUMPDEST PUSH1 0x40 MLOAD PUSH2 0x1E1 SWAP2 SWAP1 PUSH2 0xA4C JUMP JUMPDEST PUSH1 0x40 MLOAD DUP1 SWAP2 SUB SWAP1 RETURN JUMPDEST CALLVALUE DUP1 ISZERO PUSH2 0x1F6 JUMPI PUSH1 0x0 DUP1 REVERT JUMPDEST POP PUSH2 0x1FF PUSH2 0x7BD JUMP JUMPDEST PUSH1 0x40 MLOAD PUSH2 0x20C SWAP2 SWAP1 PUSH2 0xA4C JUMP JUMPDEST PUSH1 0x40 MLOAD DUP1 SWAP2 SUB SWAP1 RETURN JUMPDEST CALLVALUE DUP1 ISZERO PUSH2 0x221 JUMPI PUSH1 0x0 DUP1 REVERT JUMPDEST POP PUSH2 0x23C PUSH1 0x4 DUP1 CALLDATASIZE SUB DUP2 ADD SWAP1 PUSH2 0x237 SWAP2 SWAP1 PUSH2 0x90C JUMP JUMPDEST PUSH2 0x7C7 JUMP JUMPDEST PUSH1 0x40 MLOAD PUSH2 0x249 SWAP2 SWAP1 PUSH2 0xA4C JUMP JUMPDEST PUSH1 0x40 MLOAD DUP1 SWAP2 SUB SWAP1 RETURN JUMPDEST CALLVALUE DUP1 ISZERO PUSH2 0x25E JUMPI PUSH1 0x0 DUP1 REVERT JUMPDEST POP PUSH2 0x267 PUSH2 0x869 JUMP JUMPDEST PUSH1 0x40 MLOAD PUSH2 0x274 SWAP2 SWAP1 PUSH2 0xA4C JUMP JUMPDEST PUSH1 0x40 MLOAD DUP1 SWAP2 SUB SWAP1 RETURN JUMPDEST PUSH1 0x0 DUP1 TIMESTAMP SWAP1 POP PUSH1 0x2 SLOAD DUP2 LT ISZERO PUSH2 0x297 JUMPI PUSH1 0x0 SWAP2 POP POP PUSH2 0x2E1 JUMP JUMPDEST DUP1 PUSH1 0x2 SLOAD GT ISZERO DUP1 ISZERO PUSH2 0x2AA JUMPI POP PUSH1 0x3 SLOAD DUP2 LT JUMPDEST ISZERO PUSH2 0x2B9 JUMPI PUSH1 0x1 SWAP2 POP POP PUSH2 0x2E1 JUMP JUMPDEST DUP1 PUSH1 0x3 SLOAD GT ISZERO DUP1 ISZERO PUSH2 0x2CC JUMPI POP PUSH1 0x4 SLOAD DUP2 LT JUMPDEST ISZERO PUSH2 0x2DB JUMPI PUSH1 0x2 SWAP2 POP POP PUSH2 0x2E1 JUMP JUMPDEST PUSH1 0x3 SWAP2 POP POP JUMPDEST SWAP1 JUMP JUMPDEST PUSH1 0x0 DUP1 PUSH1 0x40 MLOAD DUP1 PUSH1 0xA0 ADD PUSH1 0x40 MSTORE DUP1 CALLER PUSH20 0xFFFFFFFFFFFFFFFFFFFFFFFFFFFFFFFFFFFFFFFF AND DUP2 MSTORE PUSH1 0x20 ADD PUSH1 0x5 SLOAD DUP2 MSTORE PUSH1 0x20 ADD PUSH1 0x6 SLOAD DUP2 MSTORE PUSH1 0x20 ADD DUP5 PUSH1 0x1 DUP2 GT ISZERO PUSH2 0x331 JUMPI PUSH2 0x330 PUSH2 0xAFE JUMP JUMPDEST JUMPDEST DUP2 MSTORE PUSH1 0x20 ADD CALLVALUE DUP2 MSTORE POP SWAP1 POP PUSH1 0x8 DUP2 SWAP1 DUP1 PUSH1 0x1 DUP2 SLOAD ADD DUP1 DUP3 SSTORE DUP1 SWAP2 POP POP PUSH1 0x1 SWAP1 SUB SWAP1 PUSH1 0x0 MSTORE PUSH1 0x20 PUSH1 0x0 KECCAK256 SWAP1 PUSH1 0x5 MUL ADD PUSH1 0x0 SWAP1 SWAP2 SWAP1 SWAP2 SWAP1 SWAP2 POP PUSH1 0x0 DUP3 ADD MLOAD DUP2 PUSH1 0x0 ADD PUSH1 0x0 PUSH2 0x100 EXP DUP2 SLOAD DUP2 PUSH20 0xFFFFFFFFFFFFFFFFFFFFFFFFFFFFFFFFFFFFFFFF MUL NOT AND SWAP1 DUP4 PUSH20 0xFFFFFFFFFFFFFFFFFFFFFFFFFFFFFFFFFFFFFFFF AND MUL OR SWAP1 SSTORE POP PUSH1 0x20 DUP3 ADD MLOAD DUP2 PUSH1 0x1 ADD SSTORE PUSH1 0x40 DUP3 ADD MLOAD DUP2 PUSH1 0x2 ADD SSTORE PUSH1 0x60 DUP3 ADD MLOAD DUP2 PUSH1 0x3 ADD PUSH1 0x0 PUSH2 0x100 EXP DUP2 SLOAD DUP2 PUSH1 0xFF MUL NOT AND SWAP1 DUP4 PUSH1 0x1 DUP2 GT ISZERO PUSH2 0x3EE JUMPI PUSH2 0x3ED PUSH2 0xAFE JUMP JUMPDEST JUMPDEST MUL OR SWAP1 SSTORE POP PUSH1 0x80 DUP3 ADD MLOAD DUP2 PUSH1 0x4 ADD SSTORE POP POP DUP1 PUSH1 0x60 ADD MLOAD PUSH1 0x1 DUP2 GT ISZERO PUSH2 0x416 JUMPI PUSH2 0x415 PUSH2 0xAFE JUMP JUMPDEST JUMPDEST DUP2 PUSH1 0x80 ADD MLOAD DUP3 PUSH1 0x0 ADD MLOAD PUSH20 0xFFFFFFFFFFFFFFFFFFFFFFFFFFFFFFFFFFFFFFFF AND PUSH32 0xD0EC3D0F31FEA1291096288253382FDC9811DCF678E1E7628EB851CEF2BA0A11 PUSH1 0x40 MLOAD PUSH1 0x40 MLOAD DUP1 SWAP2 SUB SWAP1 LOG4 PUSH1 0x8 DUP1 SLOAD SWAP1 POP SWAP2 POP POP SWAP2 SWAP1 POP JUMP JUMPDEST PUSH1 0x0 DUP1 PUSH1 0x0 SWAP1 SLOAD SWAP1 PUSH2 0x100 EXP SWAP1 DIV PUSH20 0xFFFFFFFFFFFFFFFFFFFFFFFFFFFFFFFFFFFFFFFF AND PUSH20 0xFFFFFFFFFFFFFFFFFFFFFFFFFFFFFFFFFFFFFFFF AND CALLER PUSH20 0xFFFFFFFFFFFFFFFFFFFFFFFFFFFFFFFFFFFFFFFF AND EQ PUSH2 0x501 JUMPI PUSH1 0x40 MLOAD PUSH32 0x8C379A000000000000000000000000000000000000000000000000000000000 DUP2 MSTORE PUSH1 0x4 ADD PUSH2 0x4F8 SWAP1 PUSH2 0xA0C JUMP JUMPDEST PUSH1 0x40 MLOAD DUP1 SWAP2 SUB SWAP1 REVERT JUMPDEST PUSH1 0x3 DUP1 DUP2 GT ISZERO PUSH2 0x514 JUMPI PUSH2 0x513 PUSH2 0xAFE JUMP JUMPDEST JUMPDEST PUSH2 0x51C PUSH2 0x27D JUMP JUMPDEST PUSH1 0x3 DUP2 GT ISZERO PUSH2 0x52E JUMPI PUSH2 0x52D PUSH2 0xAFE JUMP JUMPDEST JUMPDEST EQ PUSH2 0x56E JUMPI PUSH1 0x40 MLOAD PUSH32 0x8C379A000000000000000000000000000000000000000000000000000000000 DUP2 MSTORE PUSH1 0x4 ADD PUSH2 0x565 SWAP1 PUSH2 0xA2C JUMP JUMPDEST PUSH1 0x40 MLOAD DUP1 SWAP2 SUB SWAP1 REVERT JUMPDEST DUP2 PUSH1 0x7 PUSH1 0x0 PUSH2 0x100 EXP DUP2 SLOAD DUP2 PUSH1 0xFF MUL NOT AND SWAP1 DUP4 PUSH1 0x1 DUP2 GT ISZERO PUSH2 0x593 JUMPI PUSH2 0x592 PUSH2 0xAFE JUMP JUMPDEST JUMPDEST MUL OR SWAP1 SSTORE POP SWAP2 SWAP1 POP JUMP JUMPDEST PUSH1 0x0 DUP1 PUSH1 0x0 SWAP1 SLOAD SWAP1 PUSH2 0x100 EXP SWAP1 DIV PUSH20 0xFFFFFFFFFFFFFFFFFFFFFFFFFFFFFFFFFFFFFFFF AND SWAP1 POP SWAP1 JUMP JUMPDEST PUSH1 0x0 PUSH1 0x3 SLOAD SWAP1 POP SWAP1 JUMP JUMPDEST PUSH1 0x0 DUP1 SLOAD SWAP1 PUSH2 0x100 EXP SWAP1 DIV PUSH20 0xFFFFFFFFFFFFFFFFFFFFFFFFFFFFFFFFFFFFFFFF AND PUSH20 0xFFFFFFFFFFFFFFFFFFFFFFFFFFFFFFFFFFFFFFFF AND CALLER PUSH20 0xFFFFFFFFFFFFFFFFFFFFFFFFFFFFFFFFFFFFFFFF AND EQ PUSH2 0x65E JUMPI PUSH1 0x40 MLOAD PUSH32 0x8C379A000000000000000000000000000000000000000000000000000000000 DUP2 MSTORE PUSH1 0x4 ADD PUSH2 0x655 SWAP1 PUSH2 0xA0C JUMP JUMPDEST PUSH1 0x40 MLOAD DUP1 SWAP2 SUB SWAP1 REVERT JUMPDEST DUP1 PUSH20 0xFFFFFFFFFFFFFFFFFFFFFFFFFFFFFFFFFFFFFFFF AND PUSH1 0x0 DUP1 SLOAD SWAP1 PUSH2 0x100 EXP SWAP1 DIV PUSH20 0xFFFFFFFFFFFFFFFFFFFFFFFFFFFFFFFFFFFFFFFF AND PUSH20 0xFFFFFFFFFFFFFFFFFFFFFFFFFFFFFFFFFFFFFFFF AND PUSH32 0x342827C97908E5E2F71151C08502A66D44B6F758E3AC2F1DE95F02EB95F0A735 PUSH1 0x40 MLOAD PUSH1 0x40 MLOAD DUP1 SWAP2 SUB SWAP1 LOG3 DUP1 PUSH1 0x0 DUP1 PUSH2 0x100 EXP DUP2 SLOAD DUP2 PUSH20 0xFFFFFFFFFFFFFFFFFFFFFFFFFFFFFFFFFFFFFFFF MUL NOT AND SWAP1 DUP4 PUSH20 0xFFFFFFFFFFFFFFFFFFFFFFFFFFFFFFFFFFFFFFFF AND MUL OR SWAP1 SSTORE POP POP JUMP JUMPDEST PUSH1 0x0 DUP1 PUSH1 0x0 SWAP1 SLOAD SWAP1 PUSH2 0x100 EXP SWAP1 DIV PUSH20 0xFFFFFFFFFFFFFFFFFFFFFFFFFFFFFFFFFFFFFFFF AND PUSH20 0xFFFFFFFFFFFFFFFFFFFFFFFFFFFFFFFFFFFFFFFF AND CALLER PUSH20 0xFFFFFFFFFFFFFFFFFFFFFFFFFFFFFFFFFFFFFFFF AND EQ PUSH2 0x7AC JUMPI PUSH1 0x40 MLOAD PUSH32 0x8C379A000000000000000000000000000000000000000000000000000000000 DUP2 MSTORE PUSH1 0x4 ADD PUSH2 0x7A3 SWAP1 PUSH2 0xA0C JUMP JUMPDEST PUSH1 0x40 MLOAD DUP1 SWAP2 SUB SWAP1 REVERT JUMPDEST DUP2 PUSH1 0x5 DUP2 SWAP1 SSTORE POP PUSH1 0x5 SLOAD SWAP1 POP SWAP2 SWAP1 POP JUMP JUMPDEST PUSH1 0x0 PUSH1 0x2 SLOAD SWAP1 POP SWAP1 JUMP JUMPDEST PUSH1 0x0 DUP1 PUSH1 0x0 SWAP1 SLOAD SWAP1 PUSH2 0x100 EXP SWAP1 DIV PUSH20 0xFFFFFFFFFFFFFFFFFFFFFFFFFFFFFFFFFFFFFFFF AND PUSH20 0xFFFFFFFFFFFFFFFFFFFFFFFFFFFFFFFFFFFFFFFF AND CALLER PUSH20 0xFFFFFFFFFFFFFFFFFFFFFFFFFFFFFFFFFFFFFFFF AND EQ PUSH2 0x858 JUMPI PUSH1 0x40 MLOAD PUSH32 0x8C379A000000000000000000000000000000000000000000000000000000000 DUP2 MSTORE PUSH1 0x4 ADD PUSH2 0x84F SWAP1 PUSH2 0xA0C JUMP JUMPDEST PUSH1 0x40 MLOAD DUP1 SWAP2 SUB SWAP1 REVERT JUMPDEST DUP2 PUSH1 0x6 DUP2 SWAP1 SSTORE POP PUSH1 0x6 SLOAD SWAP1 POP SWAP2 SWAP1 POP JUMP JUMPDEST PUSH1 0x0 PUSH1 0x4 SLOAD SWAP1 POP SWAP1 JUMP JUMPDEST PUSH1 0x0 DUP2 CALLDATALOAD SWAP1 POP PUSH2 0x882 DUP2 PUSH2 0xBD2 JUMP JUMPDEST SWAP3 SWAP2 POP POP JUMP JUMPDEST PUSH1 0x0 DUP2 CALLDATALOAD SWAP1 POP PUSH2 0x897 DUP2 PUSH2 0xBE9 JUMP JUMPDEST SWAP3 SWAP2 POP POP JUMP JUMPDEST PUSH1 0x0 DUP2 CALLDATALOAD SWAP1 POP PUSH2 0x8AC DUP2 PUSH2 0xBF9 JUMP JUMPDEST SWAP3 SWAP2 POP POP JUMP JUMPDEST PUSH1 0x0 PUSH1 0x20 DUP3 DUP5 SUB SLT ISZERO PUSH2 0x8C8 JUMPI PUSH2 0x8C7 PUSH2 0xB2D JUMP JUMPDEST JUMPDEST PUSH1 0x0 PUSH2 0x8D6 DUP5 DUP3 DUP6 ADD PUSH2 0x873 JUMP JUMPDEST SWAP2 POP POP SWAP3 SWAP2 POP POP JUMP JUMPDEST PUSH1 0x0 PUSH1 0x20 DUP3 DUP5 SUB SLT ISZERO PUSH2 0x8F5 JUMPI PUSH2 0x8F4 PUSH2 0xB2D JUMP JUMPDEST JUMPDEST PUSH1 0x0 PUSH2 0x903 DUP5 DUP3 DUP6 ADD PUSH2 0x888 JUMP JUMPDEST SWAP2 POP POP SWAP3 SWAP2 POP POP JUMP JUMPDEST PUSH1 0x0 PUSH1 0x20 DUP3 DUP5 SUB SLT ISZERO PUSH2 0x922 JUMPI PUSH2 0x921 PUSH2 0xB2D JUMP JUMPDEST JUMPDEST PUSH1 0x0 PUSH2 0x930 DUP5 DUP3 DUP6 ADD PUSH2 0x89D JUMP JUMPDEST SWAP2 POP POP SWAP3 SWAP2 POP POP JUMP JUMPDEST PUSH2 0x942 DUP2 PUSH2 0xA78 JUMP JUMPDEST DUP3 MSTORE POP POP JUMP JUMPDEST PUSH2 0x951 DUP2 PUSH2 0xADA JUMP JUMPDEST DUP3 MSTORE POP POP JUMP JUMPDEST PUSH2 0x960 DUP2 PUSH2 0xAEC JUMP JUMPDEST DUP3 MSTORE POP POP JUMP JUMPDEST PUSH1 0x0 PUSH2 0x973 PUSH1 0x13 DUP4 PUSH2 0xA67 JUMP JUMPDEST SWAP2 POP PUSH2 0x97E DUP3 PUSH2 0xB32 JUMP JUMPDEST PUSH1 0x20 DUP3 ADD SWAP1 POP SWAP2 SWAP1 POP JUMP JUMPDEST PUSH1 0x0 PUSH2 0x996 PUSH1 0x33 DUP4 PUSH2 0xA67 JUMP JUMPDEST SWAP2 POP PUSH2 0x9A1 DUP3 PUSH2 0xB5B JUMP JUMPDEST PUSH1 0x40 DUP3 ADD SWAP1 POP SWAP2 SWAP1 POP JUMP JUMPDEST PUSH2 0x9B5 DUP2 PUSH2 0xAD0 JUMP JUMPDEST DUP3 MSTORE POP POP JUMP JUMPDEST PUSH1 0x0 PUSH1 0x20 DUP3 ADD SWAP1 POP PUSH2 0x9D0 PUSH1 0x0 DUP4 ADD DUP5 PUSH2 0x939 JUMP JUMPDEST SWAP3 SWAP2 POP POP JUMP JUMPDEST PUSH1 0x0 PUSH1 0x20 DUP3 ADD SWAP1 POP PUSH2 0x9EB PUSH1 0x0 DUP4 ADD DUP5 PUSH2 0x948 JUMP JUMPDEST SWAP3 SWAP2 POP POP JUMP JUMPDEST PUSH1 0x0 PUSH1 0x20 DUP3 ADD SWAP1 POP PUSH2 0xA06 PUSH1 0x0 DUP4 ADD DUP5 PUSH2 0x957 JUMP JUMPDEST SWAP3 SWAP2 POP POP JUMP JUMPDEST PUSH1 0x0 PUSH1 0x20 DUP3 ADD SWAP1 POP DUP2 DUP2 SUB PUSH1 0x0 DUP4 ADD MSTORE PUSH2 0xA25 DUP2 PUSH2 0x966 JUMP JUMPDEST SWAP1 POP SWAP2 SWAP1 POP JUMP JUMPDEST PUSH1 0x0 PUSH1 0x20 DUP3 ADD SWAP1 POP DUP2 DUP2 SUB PUSH1 0x0 DUP4 ADD MSTORE PUSH2 0xA45 DUP2 PUSH2 0x989 JUMP JUMPDEST SWAP1 POP SWAP2 SWAP1 POP JUMP JUMPDEST PUSH1 0x0 PUSH1 0x20 DUP3 ADD SWAP1 POP PUSH2 0xA61 PUSH1 0x0 DUP4 ADD DUP5 PUSH2 0x9AC JUMP JUMPDEST SWAP3 SWAP2 POP POP JUMP JUMPDEST PUSH1 0x0 DUP3 DUP3 MSTORE PUSH1 0x20 DUP3 ADD SWAP1 POP SWAP3 SWAP2 POP POP JUMP JUMPDEST PUSH1 0x0 PUSH2 0xA83 DUP3 PUSH2 0xAB0 JUMP JUMPDEST SWAP1 POP SWAP2 SWAP1 POP JUMP JUMPDEST PUSH1 0x0 DUP2 SWAP1 POP PUSH2 0xA98 DUP3 PUSH2 0xBAA JUMP JUMPDEST SWAP2 SWAP1 POP JUMP JUMPDEST PUSH1 0x0 DUP2 SWAP1 POP PUSH2 0xAAB DUP3 PUSH2 0xBBE JUMP JUMPDEST SWAP2 SWAP1 POP JUMP JUMPDEST PUSH1 0x0 PUSH20 0xFFFFFFFFFFFFFFFFFFFFFFFFFFFFFFFFFFFFFFFF DUP3 AND SWAP1 POP SWAP2 SWAP1 POP JUMP JUMPDEST PUSH1 0x0 DUP2 SWAP1 POP SWAP2 SWAP1 POP JUMP JUMPDEST PUSH1 0x0 PUSH2 0xAE5 DUP3 PUSH2 0xA8A JUMP JUMPDEST SWAP1 POP SWAP2 SWAP1 POP JUMP JUMPDEST PUSH1 0x0 PUSH2 0xAF7 DUP3 PUSH2 0xA9D JUMP JUMPDEST SWAP1 POP SWAP2 SWAP1 POP JUMP JUMPDEST PUSH32 0x4E487B7100000000000000000000000000000000000000000000000000000000 PUSH1 0x0 MSTORE PUSH1 0x21 PUSH1 0x4 MSTORE PUSH1 0x24 PUSH1 0x0 REVERT JUMPDEST PUSH1 0x0 DUP1 REVERT JUMPDEST PUSH32 0x43616C6C6572206973206E6F74206F776E657200000000000000000000000000 PUSH1 0x0 DUP3 ADD MSTORE POP JUMP JUMPDEST PUSH32 0x546F20616E6E6F756E6365207468652077696E6E6572207468652067616D6520 PUSH1 0x0 DUP3 ADD MSTORE PUSH32 0x6861766520746F2062652066696E697368656400000000000000000000000000 PUSH1 0x20 DUP3 ADD MSTORE POP JUMP JUMPDEST PUSH1 0x2 DUP2 LT PUSH2 0xBBB JUMPI PUSH2 0xBBA PUSH2 0xAFE JUMP JUMPDEST JUMPDEST POP JUMP JUMPDEST PUSH1 0x4 DUP2 LT PUSH2 0xBCF JUMPI PUSH2 0xBCE PUSH2 0xAFE JUMP JUMPDEST JUMPDEST POP JUMP JUMPDEST PUSH2 0xBDB DUP2 PUSH2 0xA78 JUMP JUMPDEST DUP2 EQ PUSH2 0xBE6 JUMPI PUSH1 0x0 DUP1 REVERT JUMPDEST POP JUMP JUMPDEST PUSH1 0x2 DUP2 LT PUSH2 0xBF6 JUMPI PUSH1 0x0 DUP1 REVERT JUMPDEST POP JUMP JUMPDEST PUSH2 0xC02 DUP2 PUSH2 0xAD0 JUMP JUMPDEST DUP2 EQ PUSH2 0xC0D JUMPI PUSH1 0x0 DUP1 REVERT JUMPDEST POP JUMP INVALID LOG2 PUSH5 0x6970667358 0x22 SLT KECCAK256 STATICCALL PUSH24 0x38AFEF6D20F4B0D25C3A49CE11D0362D2A4EA0CEB689E931 CALLDATALOAD 0xB8 LOG2 0xEA NOT AND PUSH5 0x736F6C6343 STOP ADDMOD SMOD STOP CALLER "
				},
				"gasEstimates": {
					"creation": {
						"codeDepositCost": "628400",
						"executionCost": "infinite",
						"totalCost": "infinite"
					},
					"external": {
						"changeOwner(address)": "30567",
						"getBetsEndTime()": "2526",
						"getCloseTime()": "2525",
						"getOwner()": "2589",
						"getStartTime()": "2481",
						"getState()": "11102",
						"setAWinner(uint8)": "13665",
						"takeABet(uint8)": "148271",
						"updateOddsA(uint256)": "infinite",
						"updateOddsB(uint256)": "infinite"
					}
				},
				"methodIdentifiers": {
					"changeOwner(address)": "a6f9dae1",
					"getBetsEndTime()": "8ea36d47",
					"getCloseTime()": "fadeaf76",
					"getOwner()": "893d20e8",
					"getStartTime()": "c828371e",
					"getState()": "1865c57d",
					"setAWinner(uint8)": "66646a94",
					"takeABet(uint8)": "35644c7b",
					"updateOddsA(uint256)": "b9d76da9",
					"updateOddsB(uint256)": "f2c3e469"
				}
			},
			"userdoc": {
				"kind": "user",
				"methods": {},
				"version": 1
			}
		}
	}
}