{
	"contracts/TheGame.sol": {
		"TheGame": {
			"abi": [
				{
					"inputs": [
						{
							"internalType": "uint256",
							"name": "_startTime",
							"type": "uint256"
						},
						{
							"internalType": "uint256",
							"name": "_betsEndTime",
							"type": "uint256"
						},
						{
							"internalType": "uint256",
							"name": "_closeTime",
							"type": "uint256"
						}
					],
					"stateMutability": "nonpayable",
					"type": "constructor"
				},
				{
					"anonymous": false,
					"inputs": [
						{
							"indexed": true,
							"internalType": "address",
							"name": "oldOwner",
							"type": "address"
						},
						{
							"indexed": true,
							"internalType": "address",
							"name": "newOwner",
							"type": "address"
						}
					],
					"name": "OwnerSet",
					"type": "event"
				},
				{
					"inputs": [
						{
							"internalType": "address",
							"name": "newOwner",
							"type": "address"
						}
					],
					"name": "changeOwner",
					"outputs": [],
					"stateMutability": "nonpayable",
					"type": "function"
				},
				{
					"inputs": [],
					"name": "getBetsEndTime",
					"outputs": [
						{
							"internalType": "uint256",
							"name": "",
							"type": "uint256"
						}
					],
					"stateMutability": "view",
					"type": "function"
				},
				{
					"inputs": [],
					"name": "getCloseTime",
					"outputs": [
						{
							"internalType": "uint256",
							"name": "",
							"type": "uint256"
						}
					],
					"stateMutability": "view",
					"type": "function"
				},
				{
					"inputs": [],
					"name": "getOwner",
					"outputs": [
						{
							"internalType": "address",
							"name": "",
							"type": "address"
						}
					],
					"stateMutability": "view",
					"type": "function"
				},
				{
					"inputs": [],
					"name": "getStartTime",
					"outputs": [
						{
							"internalType": "uint256",
							"name": "",
							"type": "uint256"
						}
					],
					"stateMutability": "view",
					"type": "function"
				},
				{
					"inputs": [],
					"name": "getState",
					"outputs": [
						{
							"internalType": "enum GameState",
							"name": "",
							"type": "uint8"
						}
					],
					"stateMutability": "view",
					"type": "function"
				},
				{
					"inputs": [
						{
							"internalType": "enum BetTakenFor",
							"name": "option",
							"type": "uint8"
						},
						{
							"internalType": "uint256",
							"name": "amount",
							"type": "uint256"
						}
					],
					"name": "takeABet",
					"outputs": [
						{
							"components": [
								{
									"internalType": "address",
									"name": "player",
									"type": "address"
								},
								{
									"internalType": "uint256",
									"name": "oddsA",
									"type": "uint256"
								},
								{
									"internalType": "uint256",
									"name": "oddsB",
									"type": "uint256"
								},
								{
									"internalType": "enum BetTakenFor",
									"name": "betTakenFor",
									"type": "uint8"
								},
								{
									"internalType": "uint256",
									"name": "amount",
									"type": "uint256"
								}
							],
							"internalType": "struct Bet",
							"name": "",
							"type": "tuple"
						}
					],
					"stateMutability": "payable",
					"type": "function"
				},
				{
					"inputs": [
						{
							"internalType": "uint256",
							"name": "odds",
							"type": "uint256"
						}
					],
					"name": "updateOddsA",
					"outputs": [
						{
							"internalType": "uint256",
							"name": "",
							"type": "uint256"
						}
					],
					"stateMutability": "nonpayable",
					"type": "function"
				},
				{
					"inputs": [
						{
							"internalType": "uint256",
							"name": "odds",
							"type": "uint256"
						}
					],
					"name": "updateOddsB",
					"outputs": [
						{
							"internalType": "uint256",
							"name": "",
							"type": "uint256"
						}
					],
					"stateMutability": "nonpayable",
					"type": "function"
				}
			],
			"devdoc": {
				"kind": "dev",
				"methods": {
					"changeOwner(address)": {
						"details": "Change owner",
						"params": {
							"newOwner": "address of new owner"
						}
					},
					"getOwner()": {
						"details": "Return owner address ",
						"returns": {
							"_0": "address of owner"
						}
					}
				},
				"version": 1
			},
			"evm": {
				"assembly": "    /* \"contracts/TheGame.sol\":326:2452  contract TheGame is Owner{... */\n  mstore(0x40, 0x80)\n    /* \"contracts/TheGame.sol\":641:1021  constructor(uint256 _startTime, uint256 _betsEndTime, uint256 _closeTime) Owner() {... */\n  callvalue\n  dup1\n  iszero\n  tag_1\n  jumpi\n  0x00\n  dup1\n  revert\ntag_1:\n  pop\n  mload(0x40)\n  sub(codesize, bytecodeSize)\n  dup1\n  bytecodeSize\n  dup4\n  codecopy\n  dup2\n  dup2\n  add\n  0x40\n  mstore\n  dup2\n  add\n  swap1\n  tag_2\n  swap2\n  swap1\n  tag_3\n  jump\t// in\ntag_2:\n    /* \"contracts/Owner.sol\":910:920  msg.sender */\n  caller\n    /* \"contracts/Owner.sol\":889:921  OwnerSet(address(0), msg.sender) */\n  0xffffffffffffffffffffffffffffffffffffffff\n  and\n    /* \"contracts/Owner.sol\":906:907  0 */\n  0x00\n    /* \"contracts/Owner.sol\":889:921  OwnerSet(address(0), msg.sender) */\n  0xffffffffffffffffffffffffffffffffffffffff\n  and\n  0x342827c97908e5e2f71151c08502a66d44b6f758e3ac2f1de95f02eb95f0a735\n  mload(0x40)\n  mload(0x40)\n  dup1\n  swap2\n  sub\n  swap1\n  log3\n    /* \"contracts/Owner.sol\":939:949  msg.sender */\n  caller\n    /* \"contracts/Owner.sol\":931:936  owner */\n  0x00\n  dup1\n    /* \"contracts/Owner.sol\":931:949  owner = msg.sender */\n  0x0100\n  exp\n  dup2\n  sload\n  dup2\n  0xffffffffffffffffffffffffffffffffffffffff\n  mul\n  not\n  and\n  swap1\n  dup4\n  0xffffffffffffffffffffffffffffffffffffffff\n  and\n  mul\n  or\n  swap1\n  sstore\n  pop\n    /* \"contracts/TheGame.sol\":748:763  block.timestamp */\n  timestamp\n    /* \"contracts/TheGame.sol\":733:745  creationTime */\n  0x01\n    /* \"contracts/TheGame.sol\":733:763  creationTime = block.timestamp */\n  dup2\n  swap1\n  sstore\n  pop\n    /* \"contracts/TheGame.sol\":936:946  _startTime */\n  dup3\n    /* \"contracts/TheGame.sol\":924:933  startTime */\n  0x02\n    /* \"contracts/TheGame.sol\":924:946  startTime = _startTime */\n  dup2\n  swap1\n  sstore\n  pop\n    /* \"contracts/TheGame.sol\":970:982  _betsEndTime */\n  dup2\n    /* \"contracts/TheGame.sol\":956:967  betsEndTime */\n  0x03\n    /* \"contracts/TheGame.sol\":956:982  betsEndTime = _betsEndTime */\n  dup2\n  swap1\n  sstore\n  pop\n    /* \"contracts/TheGame.sol\":1004:1014  _closeTime */\n  dup1\n    /* \"contracts/TheGame.sol\":992:1001  closeTime */\n  0x04\n    /* \"contracts/TheGame.sol\":992:1014  closeTime = _closeTime */\n  dup2\n  swap1\n  sstore\n  pop\n    /* \"contracts/TheGame.sol\":641:1021  constructor(uint256 _startTime, uint256 _betsEndTime, uint256 _closeTime) Owner() {... */\n  pop\n  pop\n  pop\n    /* \"contracts/TheGame.sol\":326:2452  contract TheGame is Owner{... */\n  jump(tag_8)\n    /* \"#utility.yul\":7:150   */\ntag_10:\n    /* \"#utility.yul\":64:69   */\n  0x00\n    /* \"#utility.yul\":95:101   */\n  dup2\n    /* \"#utility.yul\":89:102   */\n  mload\n    /* \"#utility.yul\":80:102   */\n  swap1\n  pop\n    /* \"#utility.yul\":111:144   */\n  tag_12\n    /* \"#utility.yul\":138:143   */\n  dup2\n    /* \"#utility.yul\":111:144   */\n  tag_13\n  jump\t// in\ntag_12:\n    /* \"#utility.yul\":7:150   */\n  swap3\n  swap2\n  pop\n  pop\n  jump\t// out\n    /* \"#utility.yul\":156:819   */\ntag_3:\n    /* \"#utility.yul\":244:250   */\n  0x00\n    /* \"#utility.yul\":252:258   */\n  dup1\n    /* \"#utility.yul\":260:266   */\n  0x00\n    /* \"#utility.yul\":309:311   */\n  0x60\n    /* \"#utility.yul\":297:306   */\n  dup5\n    /* \"#utility.yul\":288:295   */\n  dup7\n    /* \"#utility.yul\":284:307   */\n  sub\n    /* \"#utility.yul\":280:312   */\n  slt\n    /* \"#utility.yul\":277:396   */\n  iszero\n  tag_15\n  jumpi\n    /* \"#utility.yul\":315:394   */\n  tag_16\n  tag_17\n  jump\t// in\ntag_16:\n    /* \"#utility.yul\":277:396   */\ntag_15:\n    /* \"#utility.yul\":435:436   */\n  0x00\n    /* \"#utility.yul\":460:524   */\n  tag_18\n    /* \"#utility.yul\":516:523   */\n  dup7\n    /* \"#utility.yul\":507:513   */\n  dup3\n    /* \"#utility.yul\":496:505   */\n  dup8\n    /* \"#utility.yul\":492:514   */\n  add\n    /* \"#utility.yul\":460:524   */\n  tag_10\n  jump\t// in\ntag_18:\n    /* \"#utility.yul\":450:524   */\n  swap4\n  pop\n    /* \"#utility.yul\":406:534   */\n  pop\n    /* \"#utility.yul\":573:575   */\n  0x20\n    /* \"#utility.yul\":599:663   */\n  tag_19\n    /* \"#utility.yul\":655:662   */\n  dup7\n    /* \"#utility.yul\":646:652   */\n  dup3\n    /* \"#utility.yul\":635:644   */\n  dup8\n    /* \"#utility.yul\":631:653   */\n  add\n    /* \"#utility.yul\":599:663   */\n  tag_10\n  jump\t// in\ntag_19:\n    /* \"#utility.yul\":589:663   */\n  swap3\n  pop\n    /* \"#utility.yul\":544:673   */\n  pop\n    /* \"#utility.yul\":712:714   */\n  0x40\n    /* \"#utility.yul\":738:802   */\n  tag_20\n    /* \"#utility.yul\":794:801   */\n  dup7\n    /* \"#utility.yul\":785:791   */\n  dup3\n    /* \"#utility.yul\":774:783   */\n  dup8\n    /* \"#utility.yul\":770:792   */\n  add\n    /* \"#utility.yul\":738:802   */\n  tag_10\n  jump\t// in\ntag_20:\n    /* \"#utility.yul\":728:802   */\n  swap2\n  pop\n    /* \"#utility.yul\":683:812   */\n  pop\n    /* \"#utility.yul\":156:819   */\n  swap3\n  pop\n  swap3\n  pop\n  swap3\n  jump\t// out\n    /* \"#utility.yul\":906:983   */\ntag_23:\n    /* \"#utility.yul\":943:950   */\n  0x00\n    /* \"#utility.yul\":972:977   */\n  dup2\n    /* \"#utility.yul\":961:977   */\n  swap1\n  pop\n    /* \"#utility.yul\":906:983   */\n  swap2\n  swap1\n  pop\n  jump\t// out\n    /* \"#utility.yul\":1112:1229   */\ntag_17:\n    /* \"#utility.yul\":1221:1222   */\n  0x00\n    /* \"#utility.yul\":1218:1219   */\n  dup1\n    /* \"#utility.yul\":1211:1223   */\n  revert\n    /* \"#utility.yul\":1235:1357   */\ntag_13:\n    /* \"#utility.yul\":1308:1332   */\n  tag_29\n    /* \"#utility.yul\":1326:1331   */\n  dup2\n    /* \"#utility.yul\":1308:1332   */\n  tag_23\n  jump\t// in\ntag_29:\n    /* \"#utility.yul\":1301:1306   */\n  dup2\n    /* \"#utility.yul\":1298:1333   */\n  eq\n    /* \"#utility.yul\":1288:1351   */\n  tag_30\n  jumpi\n    /* \"#utility.yul\":1347:1348   */\n  0x00\n    /* \"#utility.yul\":1344:1345   */\n  dup1\n    /* \"#utility.yul\":1337:1349   */\n  revert\n    /* \"#utility.yul\":1288:1351   */\ntag_30:\n    /* \"#utility.yul\":1235:1357   */\n  pop\n  jump\t// out\n    /* \"contracts/TheGame.sol\":326:2452  contract TheGame is Owner{... */\ntag_8:\n  dataSize(sub_0)\n  dup1\n  dataOffset(sub_0)\n  0x00\n  codecopy\n  0x00\n  return\nstop\n\nsub_0: assembly {\n        /* \"contracts/TheGame.sol\":326:2452  contract TheGame is Owner{... */\n      mstore(0x40, 0x80)\n      jumpi(tag_1, lt(calldatasize, 0x04))\n      shr(0xe0, calldataload(0x00))\n      dup1\n      0xa6f9dae1\n      gt\n      tag_11\n      jumpi\n      dup1\n      0xa6f9dae1\n      eq\n      tag_6\n      jumpi\n      dup1\n      0xb9d76da9\n      eq\n      tag_7\n      jumpi\n      dup1\n      0xc828371e\n      eq\n      tag_8\n      jumpi\n      dup1\n      0xf2c3e469\n      eq\n      tag_9\n      jumpi\n      dup1\n      0xfadeaf76\n      eq\n      tag_10\n      jumpi\n      jump(tag_1)\n    tag_11:\n      dup1\n      0x1865c57d\n      eq\n      tag_2\n      jumpi\n      dup1\n      0x805f1b80\n      eq\n      tag_3\n      jumpi\n      dup1\n      0x893d20e8\n      eq\n      tag_4\n      jumpi\n      dup1\n      0x8ea36d47\n      eq\n      tag_5\n      jumpi\n    tag_1:\n      0x00\n      dup1\n      revert\n        /* \"contracts/TheGame.sol\":1310:1710  function getState() public view returns(GameState) {... */\n    tag_2:\n      callvalue\n      dup1\n      iszero\n      tag_12\n      jumpi\n      0x00\n      dup1\n      revert\n    tag_12:\n      pop\n      tag_13\n      tag_14\n      jump\t// in\n    tag_13:\n      mload(0x40)\n      tag_15\n      swap2\n      swap1\n      tag_16\n      jump\t// in\n    tag_15:\n      mload(0x40)\n      dup1\n      swap2\n      sub\n      swap1\n      return\n        /* \"contracts/TheGame.sol\":2144:2450  function takeABet(BetTakenFor option, uint256 amount) public payable returns(Bet memory){... */\n    tag_3:\n      tag_17\n      0x04\n      dup1\n      calldatasize\n      sub\n      dup2\n      add\n      swap1\n      tag_18\n      swap2\n      swap1\n      tag_19\n      jump\t// in\n    tag_18:\n      tag_20\n      jump\t// in\n    tag_17:\n      mload(0x40)\n      tag_21\n      swap2\n      swap1\n      tag_22\n      jump\t// in\n    tag_21:\n      mload(0x40)\n      dup1\n      swap2\n      sub\n      swap1\n      return\n        /* \"contracts/Owner.sol\":1262:1343  function getOwner() external view returns (address) {... */\n    tag_4:\n      callvalue\n      dup1\n      iszero\n      tag_23\n      jumpi\n      0x00\n      dup1\n      revert\n    tag_23:\n      pop\n      tag_24\n      tag_25\n      jump\t// in\n    tag_24:\n      mload(0x40)\n      tag_26\n      swap2\n      swap1\n      tag_27\n      jump\t// in\n    tag_26:\n      mload(0x40)\n      dup1\n      swap2\n      sub\n      swap1\n      return\n        /* \"contracts/TheGame.sol\":1120:1211  function getBetsEndTime() public view returns(uint256) {... */\n    tag_5:\n      callvalue\n      dup1\n      iszero\n      tag_28\n      jumpi\n      0x00\n      dup1\n      revert\n    tag_28:\n      pop\n      tag_29\n      tag_30\n      jump\t// in\n    tag_29:\n      mload(0x40)\n      tag_31\n      swap2\n      swap1\n      tag_32\n      jump\t// in\n    tag_31:\n      mload(0x40)\n      dup1\n      swap2\n      sub\n      swap1\n      return\n        /* \"contracts/Owner.sol\":1047:1174  function changeOwner(address newOwner) public isOwner {... */\n    tag_6:\n      callvalue\n      dup1\n      iszero\n      tag_33\n      jumpi\n      0x00\n      dup1\n      revert\n    tag_33:\n      pop\n      tag_34\n      0x04\n      dup1\n      calldatasize\n      sub\n      dup2\n      add\n      swap1\n      tag_35\n      swap2\n      swap1\n      tag_36\n      jump\t// in\n    tag_35:\n      tag_37\n      jump\t// in\n    tag_34:\n      stop\n        /* \"contracts/TheGame.sol\":1790:1922  function updateOddsA(uint256 odds) public isOwner returns(uint256) {... */\n    tag_7:\n      callvalue\n      dup1\n      iszero\n      tag_38\n      jumpi\n      0x00\n      dup1\n      revert\n    tag_38:\n      pop\n      tag_39\n      0x04\n      dup1\n      calldatasize\n      sub\n      dup2\n      add\n      swap1\n      tag_40\n      swap2\n      swap1\n      tag_41\n      jump\t// in\n    tag_40:\n      tag_42\n      jump\t// in\n    tag_39:\n      mload(0x40)\n      tag_43\n      swap2\n      swap1\n      tag_32\n      jump\t// in\n    tag_43:\n      mload(0x40)\n      dup1\n      swap2\n      sub\n      swap1\n      return\n        /* \"contracts/TheGame.sol\":1027:1114  function getStartTime() public view returns(uint256) {... */\n    tag_8:\n      callvalue\n      dup1\n      iszero\n      tag_44\n      jumpi\n      0x00\n      dup1\n      revert\n    tag_44:\n      pop\n      tag_45\n      tag_46\n      jump\t// in\n    tag_45:\n      mload(0x40)\n      tag_47\n      swap2\n      swap1\n      tag_32\n      jump\t// in\n    tag_47:\n      mload(0x40)\n      dup1\n      swap2\n      sub\n      swap1\n      return\n        /* \"contracts/TheGame.sol\":1932:2064  function updateOddsB(uint256 odds) public isOwner returns(uint256) {... */\n    tag_9:\n      callvalue\n      dup1\n      iszero\n      tag_48\n      jumpi\n      0x00\n      dup1\n      revert\n    tag_48:\n      pop\n      tag_49\n      0x04\n      dup1\n      calldatasize\n      sub\n      dup2\n      add\n      swap1\n      tag_50\n      swap2\n      swap1\n      tag_41\n      jump\t// in\n    tag_50:\n      tag_51\n      jump\t// in\n    tag_49:\n      mload(0x40)\n      tag_52\n      swap2\n      swap1\n      tag_32\n      jump\t// in\n    tag_52:\n      mload(0x40)\n      dup1\n      swap2\n      sub\n      swap1\n      return\n        /* \"contracts/TheGame.sol\":1217:1304  function getCloseTime() public view returns(uint256) {... */\n    tag_10:\n      callvalue\n      dup1\n      iszero\n      tag_53\n      jumpi\n      0x00\n      dup1\n      revert\n    tag_53:\n      pop\n      tag_54\n      tag_55\n      jump\t// in\n    tag_54:\n      mload(0x40)\n      tag_56\n      swap2\n      swap1\n      tag_32\n      jump\t// in\n    tag_56:\n      mload(0x40)\n      dup1\n      swap2\n      sub\n      swap1\n      return\n        /* \"contracts/TheGame.sol\":1310:1710  function getState() public view returns(GameState) {... */\n    tag_14:\n        /* \"contracts/TheGame.sol\":1350:1359  GameState */\n      0x00\n        /* \"contracts/TheGame.sol\":1371:1381  uint256 ts */\n      dup1\n        /* \"contracts/TheGame.sol\":1384:1399  block.timestamp */\n      timestamp\n        /* \"contracts/TheGame.sol\":1371:1399  uint256 ts = block.timestamp */\n      swap1\n      pop\n        /* \"contracts/TheGame.sol\":1418:1427  startTime */\n      sload(0x02)\n        /* \"contracts/TheGame.sol\":1413:1415  ts */\n      dup2\n        /* \"contracts/TheGame.sol\":1413:1427  ts < startTime */\n      lt\n        /* \"contracts/TheGame.sol\":1409:1703  if (ts < startTime)... */\n      iszero\n      tag_58\n      jumpi\n        /* \"contracts/TheGame.sol\":1448:1465  GameState.CREATED */\n      0x00\n        /* \"contracts/TheGame.sol\":1441:1465  return GameState.CREATED */\n      swap2\n      pop\n      pop\n      jump(tag_57)\n        /* \"contracts/TheGame.sol\":1409:1703  if (ts < startTime)... */\n    tag_58:\n        /* \"contracts/TheGame.sol\":1490:1499  startTime */\n      sload(0x02)\n        /* \"contracts/TheGame.sol\":1484:1486  ts */\n      dup2\n        /* \"contracts/TheGame.sol\":1484:1499  ts >= startTime */\n      lt\n      iszero\n        /* \"contracts/TheGame.sol\":1484:1519  ts >= startTime && betsEndTime < ts */\n      dup1\n      iszero\n      tag_60\n      jumpi\n      pop\n        /* \"contracts/TheGame.sol\":1517:1519  ts */\n      dup1\n        /* \"contracts/TheGame.sol\":1503:1514  betsEndTime */\n      sload(0x03)\n        /* \"contracts/TheGame.sol\":1503:1519  betsEndTime < ts */\n      lt\n        /* \"contracts/TheGame.sol\":1484:1519  ts >= startTime && betsEndTime < ts */\n    tag_60:\n        /* \"contracts/TheGame.sol\":1480:1703  if (ts >= startTime && betsEndTime < ts)... */\n      iszero\n      tag_61\n      jumpi\n        /* \"contracts/TheGame.sol\":1540:1554  GameState.OPEN */\n      0x01\n        /* \"contracts/TheGame.sol\":1533:1554  return GameState.OPEN */\n      swap2\n      pop\n      pop\n      jump(tag_57)\n        /* \"contracts/TheGame.sol\":1480:1703  if (ts >= startTime && betsEndTime < ts)... */\n    tag_61:\n        /* \"contracts/TheGame.sol\":1579:1590  betsEndTime */\n      sload(0x03)\n        /* \"contracts/TheGame.sol\":1573:1575  ts */\n      dup2\n        /* \"contracts/TheGame.sol\":1573:1590  ts >= betsEndTime */\n      lt\n      iszero\n        /* \"contracts/TheGame.sol\":1573:1608  ts >= betsEndTime && ts < closeTime */\n      dup1\n      iszero\n      tag_63\n      jumpi\n      pop\n        /* \"contracts/TheGame.sol\":1599:1608  closeTime */\n      sload(0x04)\n        /* \"contracts/TheGame.sol\":1594:1596  ts */\n      dup2\n        /* \"contracts/TheGame.sol\":1594:1608  ts < closeTime */\n      lt\n        /* \"contracts/TheGame.sol\":1573:1608  ts >= betsEndTime && ts < closeTime */\n    tag_63:\n        /* \"contracts/TheGame.sol\":1569:1703  if (ts >= betsEndTime && ts < closeTime)... */\n      iszero\n      tag_64\n      jumpi\n        /* \"contracts/TheGame.sol\":1629:1650  GameState.BETS_CLOSED */\n      0x02\n        /* \"contracts/TheGame.sol\":1622:1650  return GameState.BETS_CLOSED */\n      swap2\n      pop\n      pop\n      jump(tag_57)\n        /* \"contracts/TheGame.sol\":1569:1703  if (ts >= betsEndTime && ts < closeTime)... */\n    tag_64:\n        /* \"contracts/TheGame.sol\":1685:1703  GameState.FINISHED */\n      0x03\n        /* \"contracts/TheGame.sol\":1678:1703  return GameState.FINISHED */\n      swap2\n      pop\n      pop\n        /* \"contracts/TheGame.sol\":1310:1710  function getState() public view returns(GameState) {... */\n    tag_57:\n      swap1\n      jump\t// out\n        /* \"contracts/TheGame.sol\":2144:2450  function takeABet(BetTakenFor option, uint256 amount) public payable returns(Bet memory){... */\n    tag_20:\n        /* \"contracts/TheGame.sol\":2221:2231  Bet memory */\n      tag_66\n      tag_67\n      jump\t// in\n    tag_66:\n        /* \"contracts/TheGame.sol\":2320:2334  Bet memory bet */\n      0x00\n        /* \"contracts/TheGame.sol\":2337:2399  Bet(msg.sender, currentOddsA, currentOddsB, option, msg.value) */\n      mload(0x40)\n      dup1\n      0xa0\n      add\n      0x40\n      mstore\n      dup1\n        /* \"contracts/TheGame.sol\":2341:2351  msg.sender */\n      caller\n        /* \"contracts/TheGame.sol\":2337:2399  Bet(msg.sender, currentOddsA, currentOddsB, option, msg.value) */\n      0xffffffffffffffffffffffffffffffffffffffff\n      and\n      dup2\n      mstore\n      0x20\n      add\n        /* \"contracts/TheGame.sol\":2353:2365  currentOddsA */\n      sload(0x05)\n        /* \"contracts/TheGame.sol\":2337:2399  Bet(msg.sender, currentOddsA, currentOddsB, option, msg.value) */\n      dup2\n      mstore\n      0x20\n      add\n        /* \"contracts/TheGame.sol\":2367:2379  currentOddsB */\n      sload(0x06)\n        /* \"contracts/TheGame.sol\":2337:2399  Bet(msg.sender, currentOddsA, currentOddsB, option, msg.value) */\n      dup2\n      mstore\n      0x20\n      add\n        /* \"contracts/TheGame.sol\":2381:2387  option */\n      dup6\n        /* \"contracts/TheGame.sol\":2337:2399  Bet(msg.sender, currentOddsA, currentOddsB, option, msg.value) */\n      0x01\n      dup2\n      gt\n      iszero\n      tag_69\n      jumpi\n      tag_70\n      tag_71\n      jump\t// in\n    tag_70:\n    tag_69:\n      dup2\n      mstore\n      0x20\n      add\n        /* \"contracts/TheGame.sol\":2389:2398  msg.value */\n      callvalue\n        /* \"contracts/TheGame.sol\":2337:2399  Bet(msg.sender, currentOddsA, currentOddsB, option, msg.value) */\n      dup2\n      mstore\n      pop\n        /* \"contracts/TheGame.sol\":2320:2399  Bet memory bet = Bet(msg.sender, currentOddsA, currentOddsB, option, msg.value) */\n      swap1\n      pop\n        /* \"contracts/TheGame.sol\":2409:2413  bets */\n      0x07\n        /* \"contracts/TheGame.sol\":2419:2422  bet */\n      dup2\n        /* \"contracts/TheGame.sol\":2409:2423  bets.push(bet) */\n      swap1\n      dup1\n      0x01\n      dup2\n      sload\n      add\n      dup1\n      dup3\n      sstore\n      dup1\n      swap2\n      pop\n      pop\n      0x01\n      swap1\n      sub\n      swap1\n      0x00\n      mstore\n      keccak256(0x00, 0x20)\n      swap1\n      0x05\n      mul\n      add\n      0x00\n      swap1\n      swap2\n      swap1\n      swap2\n      swap1\n      swap2\n      pop\n      0x00\n      dup3\n      add\n      mload\n      dup2\n      0x00\n      add\n      exp(0x0100, 0x00)\n      dup2\n      sload\n      dup2\n      0xffffffffffffffffffffffffffffffffffffffff\n      mul\n      not\n      and\n      swap1\n      dup4\n      0xffffffffffffffffffffffffffffffffffffffff\n      and\n      mul\n      or\n      swap1\n      sstore\n      pop\n      0x20\n      dup3\n      add\n      mload\n      dup2\n      0x01\n      add\n      sstore\n      0x40\n      dup3\n      add\n      mload\n      dup2\n      0x02\n      add\n      sstore\n      0x60\n      dup3\n      add\n      mload\n      dup2\n      0x03\n      add\n      exp(0x0100, 0x00)\n      dup2\n      sload\n      dup2\n      0xff\n      mul\n      not\n      and\n      swap1\n      dup4\n      0x01\n      dup2\n      gt\n      iszero\n      tag_73\n      jumpi\n      tag_74\n      tag_71\n      jump\t// in\n    tag_74:\n    tag_73:\n      mul\n      or\n      swap1\n      sstore\n      pop\n      0x80\n      dup3\n      add\n      mload\n      dup2\n      0x04\n      add\n      sstore\n      pop\n      pop\n        /* \"contracts/TheGame.sol\":2440:2443  bet */\n      dup1\n        /* \"contracts/TheGame.sol\":2433:2443  return bet */\n      swap2\n      pop\n      pop\n        /* \"contracts/TheGame.sol\":2144:2450  function takeABet(BetTakenFor option, uint256 amount) public payable returns(Bet memory){... */\n      swap3\n      swap2\n      pop\n      pop\n      jump\t// out\n        /* \"contracts/Owner.sol\":1262:1343  function getOwner() external view returns (address) {... */\n    tag_25:\n        /* \"contracts/Owner.sol\":1305:1312  address */\n      0x00\n        /* \"contracts/Owner.sol\":1331:1336  owner */\n      dup1\n      0x00\n      swap1\n      sload\n      swap1\n      0x0100\n      exp\n      swap1\n      div\n      0xffffffffffffffffffffffffffffffffffffffff\n      and\n        /* \"contracts/Owner.sol\":1324:1336  return owner */\n      swap1\n      pop\n        /* \"contracts/Owner.sol\":1262:1343  function getOwner() external view returns (address) {... */\n      swap1\n      jump\t// out\n        /* \"contracts/TheGame.sol\":1120:1211  function getBetsEndTime() public view returns(uint256) {... */\n    tag_30:\n        /* \"contracts/TheGame.sol\":1166:1173  uint256 */\n      0x00\n        /* \"contracts/TheGame.sol\":1193:1204  betsEndTime */\n      sload(0x03)\n        /* \"contracts/TheGame.sol\":1186:1204  return betsEndTime */\n      swap1\n      pop\n        /* \"contracts/TheGame.sol\":1120:1211  function getBetsEndTime() public view returns(uint256) {... */\n      swap1\n      jump\t// out\n        /* \"contracts/Owner.sol\":1047:1174  function changeOwner(address newOwner) public isOwner {... */\n    tag_37:\n        /* \"contracts/Owner.sol\":807:812  owner */\n      0x00\n      dup1\n      sload\n      swap1\n      0x0100\n      exp\n      swap1\n      div\n      0xffffffffffffffffffffffffffffffffffffffff\n      and\n        /* \"contracts/Owner.sol\":793:812  msg.sender == owner */\n      0xffffffffffffffffffffffffffffffffffffffff\n      and\n        /* \"contracts/Owner.sol\":793:803  msg.sender */\n      caller\n        /* \"contracts/Owner.sol\":793:812  msg.sender == owner */\n      0xffffffffffffffffffffffffffffffffffffffff\n      and\n      eq\n        /* \"contracts/Owner.sol\":785:836  require(msg.sender == owner, \"Caller is not owner\") */\n      tag_78\n      jumpi\n      mload(0x40)\n      0x08c379a000000000000000000000000000000000000000000000000000000000\n      dup2\n      mstore\n      0x04\n      add\n      tag_79\n      swap1\n      tag_80\n      jump\t// in\n    tag_79:\n      mload(0x40)\n      dup1\n      swap2\n      sub\n      swap1\n      revert\n    tag_78:\n        /* \"contracts/Owner.sol\":1132:1140  newOwner */\n      dup1\n        /* \"contracts/Owner.sol\":1116:1141  OwnerSet(owner, newOwner) */\n      0xffffffffffffffffffffffffffffffffffffffff\n      and\n        /* \"contracts/Owner.sol\":1125:1130  owner */\n      0x00\n      dup1\n      sload\n      swap1\n      0x0100\n      exp\n      swap1\n      div\n      0xffffffffffffffffffffffffffffffffffffffff\n      and\n        /* \"contracts/Owner.sol\":1116:1141  OwnerSet(owner, newOwner) */\n      0xffffffffffffffffffffffffffffffffffffffff\n      and\n      0x342827c97908e5e2f71151c08502a66d44b6f758e3ac2f1de95f02eb95f0a735\n      mload(0x40)\n      mload(0x40)\n      dup1\n      swap2\n      sub\n      swap1\n      log3\n        /* \"contracts/Owner.sol\":1159:1167  newOwner */\n      dup1\n        /* \"contracts/Owner.sol\":1151:1156  owner */\n      0x00\n      dup1\n        /* \"contracts/Owner.sol\":1151:1167  owner = newOwner */\n      0x0100\n      exp\n      dup2\n      sload\n      dup2\n      0xffffffffffffffffffffffffffffffffffffffff\n      mul\n      not\n      and\n      swap1\n      dup4\n      0xffffffffffffffffffffffffffffffffffffffff\n      and\n      mul\n      or\n      swap1\n      sstore\n      pop\n        /* \"contracts/Owner.sol\":1047:1174  function changeOwner(address newOwner) public isOwner {... */\n      pop\n      jump\t// out\n        /* \"contracts/TheGame.sol\":1790:1922  function updateOddsA(uint256 odds) public isOwner returns(uint256) {... */\n    tag_42:\n        /* \"contracts/TheGame.sol\":1848:1855  uint256 */\n      0x00\n        /* \"contracts/Owner.sol\":807:812  owner */\n      dup1\n      0x00\n      swap1\n      sload\n      swap1\n      0x0100\n      exp\n      swap1\n      div\n      0xffffffffffffffffffffffffffffffffffffffff\n      and\n        /* \"contracts/Owner.sol\":793:812  msg.sender == owner */\n      0xffffffffffffffffffffffffffffffffffffffff\n      and\n        /* \"contracts/Owner.sol\":793:803  msg.sender */\n      caller\n        /* \"contracts/Owner.sol\":793:812  msg.sender == owner */\n      0xffffffffffffffffffffffffffffffffffffffff\n      and\n      eq\n        /* \"contracts/Owner.sol\":785:836  require(msg.sender == owner, \"Caller is not owner\") */\n      tag_83\n      jumpi\n      mload(0x40)\n      0x08c379a000000000000000000000000000000000000000000000000000000000\n      dup2\n      mstore\n      0x04\n      add\n      tag_84\n      swap1\n      tag_80\n      jump\t// in\n    tag_84:\n      mload(0x40)\n      dup1\n      swap2\n      sub\n      swap1\n      revert\n    tag_83:\n        /* \"contracts/TheGame.sol\":1882:1886  odds */\n      dup2\n        /* \"contracts/TheGame.sol\":1867:1879  currentOddsA */\n      0x05\n        /* \"contracts/TheGame.sol\":1867:1886  currentOddsA = odds */\n      dup2\n      swap1\n      sstore\n      pop\n        /* \"contracts/TheGame.sol\":1903:1915  currentOddsA */\n      sload(0x05)\n        /* \"contracts/TheGame.sol\":1896:1915  return currentOddsA */\n      swap1\n      pop\n        /* \"contracts/TheGame.sol\":1790:1922  function updateOddsA(uint256 odds) public isOwner returns(uint256) {... */\n      swap2\n      swap1\n      pop\n      jump\t// out\n        /* \"contracts/TheGame.sol\":1027:1114  function getStartTime() public view returns(uint256) {... */\n    tag_46:\n        /* \"contracts/TheGame.sol\":1071:1078  uint256 */\n      0x00\n        /* \"contracts/TheGame.sol\":1098:1107  startTime */\n      sload(0x02)\n        /* \"contracts/TheGame.sol\":1091:1107  return startTime */\n      swap1\n      pop\n        /* \"contracts/TheGame.sol\":1027:1114  function getStartTime() public view returns(uint256) {... */\n      swap1\n      jump\t// out\n        /* \"contracts/TheGame.sol\":1932:2064  function updateOddsB(uint256 odds) public isOwner returns(uint256) {... */\n    tag_51:\n        /* \"contracts/TheGame.sol\":1990:1997  uint256 */\n      0x00\n        /* \"contracts/Owner.sol\":807:812  owner */\n      dup1\n      0x00\n      swap1\n      sload\n      swap1\n      0x0100\n      exp\n      swap1\n      div\n      0xffffffffffffffffffffffffffffffffffffffff\n      and\n        /* \"contracts/Owner.sol\":793:812  msg.sender == owner */\n      0xffffffffffffffffffffffffffffffffffffffff\n      and\n        /* \"contracts/Owner.sol\":793:803  msg.sender */\n      caller\n        /* \"contracts/Owner.sol\":793:812  msg.sender == owner */\n      0xffffffffffffffffffffffffffffffffffffffff\n      and\n      eq\n        /* \"contracts/Owner.sol\":785:836  require(msg.sender == owner, \"Caller is not owner\") */\n      tag_88\n      jumpi\n      mload(0x40)\n      0x08c379a000000000000000000000000000000000000000000000000000000000\n      dup2\n      mstore\n      0x04\n      add\n      tag_89\n      swap1\n      tag_80\n      jump\t// in\n    tag_89:\n      mload(0x40)\n      dup1\n      swap2\n      sub\n      swap1\n      revert\n    tag_88:\n        /* \"contracts/TheGame.sol\":2024:2028  odds */\n      dup2\n        /* \"contracts/TheGame.sol\":2009:2021  currentOddsB */\n      0x06\n        /* \"contracts/TheGame.sol\":2009:2028  currentOddsB = odds */\n      dup2\n      swap1\n      sstore\n      pop\n        /* \"contracts/TheGame.sol\":2045:2057  currentOddsB */\n      sload(0x06)\n        /* \"contracts/TheGame.sol\":2038:2057  return currentOddsB */\n      swap1\n      pop\n        /* \"contracts/TheGame.sol\":1932:2064  function updateOddsB(uint256 odds) public isOwner returns(uint256) {... */\n      swap2\n      swap1\n      pop\n      jump\t// out\n        /* \"contracts/TheGame.sol\":1217:1304  function getCloseTime() public view returns(uint256) {... */\n    tag_55:\n        /* \"contracts/TheGame.sol\":1261:1268  uint256 */\n      0x00\n        /* \"contracts/TheGame.sol\":1288:1297  closeTime */\n      sload(0x04)\n        /* \"contracts/TheGame.sol\":1281:1297  return closeTime */\n      swap1\n      pop\n        /* \"contracts/TheGame.sol\":1217:1304  function getCloseTime() public view returns(uint256) {... */\n      swap1\n      jump\t// out\n    tag_67:\n      mload(0x40)\n      dup1\n      0xa0\n      add\n      0x40\n      mstore\n      dup1\n      and(0xffffffffffffffffffffffffffffffffffffffff, 0x00)\n      dup2\n      mstore\n      0x20\n      add\n      0x00\n      dup2\n      mstore\n      0x20\n      add\n      0x00\n      dup2\n      mstore\n      0x20\n      add\n      0x00\n      0x01\n      dup2\n      gt\n      iszero\n      tag_92\n      jumpi\n      tag_93\n      tag_71\n      jump\t// in\n    tag_93:\n    tag_92:\n      dup2\n      mstore\n      0x20\n      add\n      0x00\n      dup2\n      mstore\n      pop\n      swap1\n      jump\t// out\n        /* \"#utility.yul\":7:146   */\n    tag_95:\n        /* \"#utility.yul\":53:58   */\n      0x00\n        /* \"#utility.yul\":91:97   */\n      dup2\n        /* \"#utility.yul\":78:98   */\n      calldataload\n        /* \"#utility.yul\":69:98   */\n      swap1\n      pop\n        /* \"#utility.yul\":107:140   */\n      tag_97\n        /* \"#utility.yul\":134:139   */\n      dup2\n        /* \"#utility.yul\":107:140   */\n      tag_98\n      jump\t// in\n    tag_97:\n        /* \"#utility.yul\":7:146   */\n      swap3\n      swap2\n      pop\n      pop\n      jump\t// out\n        /* \"#utility.yul\":152:319   */\n    tag_99:\n        /* \"#utility.yul\":212:217   */\n      0x00\n        /* \"#utility.yul\":250:256   */\n      dup2\n        /* \"#utility.yul\":237:257   */\n      calldataload\n        /* \"#utility.yul\":228:257   */\n      swap1\n      pop\n        /* \"#utility.yul\":266:313   */\n      tag_101\n        /* \"#utility.yul\":307:312   */\n      dup2\n        /* \"#utility.yul\":266:313   */\n      tag_102\n      jump\t// in\n    tag_101:\n        /* \"#utility.yul\":152:319   */\n      swap3\n      swap2\n      pop\n      pop\n      jump\t// out\n        /* \"#utility.yul\":325:464   */\n    tag_103:\n        /* \"#utility.yul\":371:376   */\n      0x00\n        /* \"#utility.yul\":409:415   */\n      dup2\n        /* \"#utility.yul\":396:416   */\n      calldataload\n        /* \"#utility.yul\":387:416   */\n      swap1\n      pop\n        /* \"#utility.yul\":425:458   */\n      tag_105\n        /* \"#utility.yul\":452:457   */\n      dup2\n        /* \"#utility.yul\":425:458   */\n      tag_106\n      jump\t// in\n    tag_105:\n        /* \"#utility.yul\":325:464   */\n      swap3\n      swap2\n      pop\n      pop\n      jump\t// out\n        /* \"#utility.yul\":470:799   */\n    tag_36:\n        /* \"#utility.yul\":529:535   */\n      0x00\n        /* \"#utility.yul\":578:580   */\n      0x20\n        /* \"#utility.yul\":566:575   */\n      dup3\n        /* \"#utility.yul\":557:564   */\n      dup5\n        /* \"#utility.yul\":553:576   */\n      sub\n        /* \"#utility.yul\":549:581   */\n      slt\n        /* \"#utility.yul\":546:665   */\n      iszero\n      tag_108\n      jumpi\n        /* \"#utility.yul\":584:663   */\n      tag_109\n      tag_110\n      jump\t// in\n    tag_109:\n        /* \"#utility.yul\":546:665   */\n    tag_108:\n        /* \"#utility.yul\":704:705   */\n      0x00\n        /* \"#utility.yul\":729:782   */\n      tag_111\n        /* \"#utility.yul\":774:781   */\n      dup5\n        /* \"#utility.yul\":765:771   */\n      dup3\n        /* \"#utility.yul\":754:763   */\n      dup6\n        /* \"#utility.yul\":750:772   */\n      add\n        /* \"#utility.yul\":729:782   */\n      tag_95\n      jump\t// in\n    tag_111:\n        /* \"#utility.yul\":719:782   */\n      swap2\n      pop\n        /* \"#utility.yul\":675:792   */\n      pop\n        /* \"#utility.yul\":470:799   */\n      swap3\n      swap2\n      pop\n      pop\n      jump\t// out\n        /* \"#utility.yul\":805:1307   */\n    tag_19:\n        /* \"#utility.yul\":887:893   */\n      0x00\n        /* \"#utility.yul\":895:901   */\n      dup1\n        /* \"#utility.yul\":944:946   */\n      0x40\n        /* \"#utility.yul\":932:941   */\n      dup4\n        /* \"#utility.yul\":923:930   */\n      dup6\n        /* \"#utility.yul\":919:942   */\n      sub\n        /* \"#utility.yul\":915:947   */\n      slt\n        /* \"#utility.yul\":912:1031   */\n      iszero\n      tag_113\n      jumpi\n        /* \"#utility.yul\":950:1029   */\n      tag_114\n      tag_110\n      jump\t// in\n    tag_114:\n        /* \"#utility.yul\":912:1031   */\n    tag_113:\n        /* \"#utility.yul\":1070:1071   */\n      0x00\n        /* \"#utility.yul\":1095:1162   */\n      tag_115\n        /* \"#utility.yul\":1154:1161   */\n      dup6\n        /* \"#utility.yul\":1145:1151   */\n      dup3\n        /* \"#utility.yul\":1134:1143   */\n      dup7\n        /* \"#utility.yul\":1130:1152   */\n      add\n        /* \"#utility.yul\":1095:1162   */\n      tag_99\n      jump\t// in\n    tag_115:\n        /* \"#utility.yul\":1085:1162   */\n      swap3\n      pop\n        /* \"#utility.yul\":1041:1172   */\n      pop\n        /* \"#utility.yul\":1211:1213   */\n      0x20\n        /* \"#utility.yul\":1237:1290   */\n      tag_116\n        /* \"#utility.yul\":1282:1289   */\n      dup6\n        /* \"#utility.yul\":1273:1279   */\n      dup3\n        /* \"#utility.yul\":1262:1271   */\n      dup7\n        /* \"#utility.yul\":1258:1280   */\n      add\n        /* \"#utility.yul\":1237:1290   */\n      tag_103\n      jump\t// in\n    tag_116:\n        /* \"#utility.yul\":1227:1290   */\n      swap2\n      pop\n        /* \"#utility.yul\":1182:1300   */\n      pop\n        /* \"#utility.yul\":805:1307   */\n      swap3\n      pop\n      swap3\n      swap1\n      pop\n      jump\t// out\n        /* \"#utility.yul\":1313:1642   */\n    tag_41:\n        /* \"#utility.yul\":1372:1378   */\n      0x00\n        /* \"#utility.yul\":1421:1423   */\n      0x20\n        /* \"#utility.yul\":1409:1418   */\n      dup3\n        /* \"#utility.yul\":1400:1407   */\n      dup5\n        /* \"#utility.yul\":1396:1419   */\n      sub\n        /* \"#utility.yul\":1392:1424   */\n      slt\n        /* \"#utility.yul\":1389:1508   */\n      iszero\n      tag_118\n      jumpi\n        /* \"#utility.yul\":1427:1506   */\n      tag_119\n      tag_110\n      jump\t// in\n    tag_119:\n        /* \"#utility.yul\":1389:1508   */\n    tag_118:\n        /* \"#utility.yul\":1547:1548   */\n      0x00\n        /* \"#utility.yul\":1572:1625   */\n      tag_120\n        /* \"#utility.yul\":1617:1624   */\n      dup5\n        /* \"#utility.yul\":1608:1614   */\n      dup3\n        /* \"#utility.yul\":1597:1606   */\n      dup6\n        /* \"#utility.yul\":1593:1615   */\n      add\n        /* \"#utility.yul\":1572:1625   */\n      tag_103\n      jump\t// in\n    tag_120:\n        /* \"#utility.yul\":1562:1625   */\n      swap2\n      pop\n        /* \"#utility.yul\":1518:1635   */\n      pop\n        /* \"#utility.yul\":1313:1642   */\n      swap3\n      swap2\n      pop\n      pop\n      jump\t// out\n        /* \"#utility.yul\":1648:1756   */\n    tag_121:\n        /* \"#utility.yul\":1725:1749   */\n      tag_123\n        /* \"#utility.yul\":1743:1748   */\n      dup2\n        /* \"#utility.yul\":1725:1749   */\n      tag_124\n      jump\t// in\n    tag_123:\n        /* \"#utility.yul\":1720:1723   */\n      dup3\n        /* \"#utility.yul\":1713:1750   */\n      mstore\n        /* \"#utility.yul\":1648:1756   */\n      pop\n      pop\n      jump\t// out\n        /* \"#utility.yul\":1762:1880   */\n    tag_125:\n        /* \"#utility.yul\":1849:1873   */\n      tag_127\n        /* \"#utility.yul\":1867:1872   */\n      dup2\n        /* \"#utility.yul\":1849:1873   */\n      tag_124\n      jump\t// in\n    tag_127:\n        /* \"#utility.yul\":1844:1847   */\n      dup3\n        /* \"#utility.yul\":1837:1874   */\n      mstore\n        /* \"#utility.yul\":1762:1880   */\n      pop\n      pop\n      jump\t// out\n        /* \"#utility.yul\":1886:2031   */\n    tag_128:\n        /* \"#utility.yul\":1975:2024   */\n      tag_130\n        /* \"#utility.yul\":2018:2023   */\n      dup2\n        /* \"#utility.yul\":1975:2024   */\n      tag_131\n      jump\t// in\n    tag_130:\n        /* \"#utility.yul\":1970:1973   */\n      dup3\n        /* \"#utility.yul\":1963:2025   */\n      mstore\n        /* \"#utility.yul\":1886:2031   */\n      pop\n      pop\n      jump\t// out\n        /* \"#utility.yul\":2037:2188   */\n    tag_132:\n        /* \"#utility.yul\":2134:2181   */\n      tag_134\n        /* \"#utility.yul\":2175:2180   */\n      dup2\n        /* \"#utility.yul\":2134:2181   */\n      tag_135\n      jump\t// in\n    tag_134:\n        /* \"#utility.yul\":2129:2132   */\n      dup3\n        /* \"#utility.yul\":2122:2182   */\n      mstore\n        /* \"#utility.yul\":2037:2188   */\n      pop\n      pop\n      jump\t// out\n        /* \"#utility.yul\":2194:2560   */\n    tag_136:\n        /* \"#utility.yul\":2336:2339   */\n      0x00\n        /* \"#utility.yul\":2357:2424   */\n      tag_138\n        /* \"#utility.yul\":2421:2423   */\n      0x13\n        /* \"#utility.yul\":2416:2419   */\n      dup4\n        /* \"#utility.yul\":2357:2424   */\n      tag_139\n      jump\t// in\n    tag_138:\n        /* \"#utility.yul\":2350:2424   */\n      swap2\n      pop\n        /* \"#utility.yul\":2433:2526   */\n      tag_140\n        /* \"#utility.yul\":2522:2525   */\n      dup3\n        /* \"#utility.yul\":2433:2526   */\n      tag_141\n      jump\t// in\n    tag_140:\n        /* \"#utility.yul\":2551:2553   */\n      0x20\n        /* \"#utility.yul\":2546:2549   */\n      dup3\n        /* \"#utility.yul\":2542:2554   */\n      add\n        /* \"#utility.yul\":2535:2554   */\n      swap1\n      pop\n        /* \"#utility.yul\":2194:2560   */\n      swap2\n      swap1\n      pop\n      jump\t// out\n        /* \"#utility.yul\":2598:3640   */\n    tag_142:\n        /* \"#utility.yul\":2733:2737   */\n      0xa0\n        /* \"#utility.yul\":2728:2731   */\n      dup3\n        /* \"#utility.yul\":2724:2738   */\n      add\n        /* \"#utility.yul\":2822:2826   */\n      0x00\n        /* \"#utility.yul\":2815:2820   */\n      dup3\n        /* \"#utility.yul\":2811:2827   */\n      add\n        /* \"#utility.yul\":2805:2828   */\n      mload\n        /* \"#utility.yul\":2841:2904   */\n      tag_144\n        /* \"#utility.yul\":2898:2902   */\n      0x00\n        /* \"#utility.yul\":2893:2896   */\n      dup6\n        /* \"#utility.yul\":2889:2903   */\n      add\n        /* \"#utility.yul\":2875:2887   */\n      dup3\n        /* \"#utility.yul\":2841:2904   */\n      tag_121\n      jump\t// in\n    tag_144:\n        /* \"#utility.yul\":2748:2914   */\n      pop\n        /* \"#utility.yul\":2997:3001   */\n      0x20\n        /* \"#utility.yul\":2990:2995   */\n      dup3\n        /* \"#utility.yul\":2986:3002   */\n      add\n        /* \"#utility.yul\":2980:3003   */\n      mload\n        /* \"#utility.yul\":3016:3079   */\n      tag_145\n        /* \"#utility.yul\":3073:3077   */\n      0x20\n        /* \"#utility.yul\":3068:3071   */\n      dup6\n        /* \"#utility.yul\":3064:3078   */\n      add\n        /* \"#utility.yul\":3050:3062   */\n      dup3\n        /* \"#utility.yul\":3016:3079   */\n      tag_146\n      jump\t// in\n    tag_145:\n        /* \"#utility.yul\":2924:3089   */\n      pop\n        /* \"#utility.yul\":3172:3176   */\n      0x40\n        /* \"#utility.yul\":3165:3170   */\n      dup3\n        /* \"#utility.yul\":3161:3177   */\n      add\n        /* \"#utility.yul\":3155:3178   */\n      mload\n        /* \"#utility.yul\":3191:3254   */\n      tag_147\n        /* \"#utility.yul\":3248:3252   */\n      0x40\n        /* \"#utility.yul\":3243:3246   */\n      dup6\n        /* \"#utility.yul\":3239:3253   */\n      add\n        /* \"#utility.yul\":3225:3237   */\n      dup3\n        /* \"#utility.yul\":3191:3254   */\n      tag_146\n      jump\t// in\n    tag_147:\n        /* \"#utility.yul\":3099:3264   */\n      pop\n        /* \"#utility.yul\":3353:3357   */\n      0x60\n        /* \"#utility.yul\":3346:3351   */\n      dup3\n        /* \"#utility.yul\":3342:3358   */\n      add\n        /* \"#utility.yul\":3336:3359   */\n      mload\n        /* \"#utility.yul\":3372:3447   */\n      tag_148\n        /* \"#utility.yul\":3441:3445   */\n      0x60\n        /* \"#utility.yul\":3436:3439   */\n      dup6\n        /* \"#utility.yul\":3432:3446   */\n      add\n        /* \"#utility.yul\":3418:3430   */\n      dup3\n        /* \"#utility.yul\":3372:3447   */\n      tag_128\n      jump\t// in\n    tag_148:\n        /* \"#utility.yul\":3274:3457   */\n      pop\n        /* \"#utility.yul\":3541:3545   */\n      0x80\n        /* \"#utility.yul\":3534:3539   */\n      dup3\n        /* \"#utility.yul\":3530:3546   */\n      add\n        /* \"#utility.yul\":3524:3547   */\n      mload\n        /* \"#utility.yul\":3560:3623   */\n      tag_149\n        /* \"#utility.yul\":3617:3621   */\n      0x80\n        /* \"#utility.yul\":3612:3615   */\n      dup6\n        /* \"#utility.yul\":3608:3622   */\n      add\n        /* \"#utility.yul\":3594:3606   */\n      dup3\n        /* \"#utility.yul\":3560:3623   */\n      tag_146\n      jump\t// in\n    tag_149:\n        /* \"#utility.yul\":3467:3633   */\n      pop\n        /* \"#utility.yul\":2702:3640   */\n      pop\n        /* \"#utility.yul\":2598:3640   */\n      pop\n      pop\n      jump\t// out\n        /* \"#utility.yul\":3646:3754   */\n    tag_146:\n        /* \"#utility.yul\":3723:3747   */\n      tag_151\n        /* \"#utility.yul\":3741:3746   */\n      dup2\n        /* \"#utility.yul\":3723:3747   */\n      tag_152\n      jump\t// in\n    tag_151:\n        /* \"#utility.yul\":3718:3721   */\n      dup3\n        /* \"#utility.yul\":3711:3748   */\n      mstore\n        /* \"#utility.yul\":3646:3754   */\n      pop\n      pop\n      jump\t// out\n        /* \"#utility.yul\":3760:3878   */\n    tag_153:\n        /* \"#utility.yul\":3847:3871   */\n      tag_155\n        /* \"#utility.yul\":3865:3870   */\n      dup2\n        /* \"#utility.yul\":3847:3871   */\n      tag_152\n      jump\t// in\n    tag_155:\n        /* \"#utility.yul\":3842:3845   */\n      dup3\n        /* \"#utility.yul\":3835:3872   */\n      mstore\n        /* \"#utility.yul\":3760:3878   */\n      pop\n      pop\n      jump\t// out\n        /* \"#utility.yul\":3884:4106   */\n    tag_27:\n        /* \"#utility.yul\":3977:3981   */\n      0x00\n        /* \"#utility.yul\":4015:4017   */\n      0x20\n        /* \"#utility.yul\":4004:4013   */\n      dup3\n        /* \"#utility.yul\":4000:4018   */\n      add\n        /* \"#utility.yul\":3992:4018   */\n      swap1\n      pop\n        /* \"#utility.yul\":4028:4099   */\n      tag_157\n        /* \"#utility.yul\":4096:4097   */\n      0x00\n        /* \"#utility.yul\":4085:4094   */\n      dup4\n        /* \"#utility.yul\":4081:4098   */\n      add\n        /* \"#utility.yul\":4072:4078   */\n      dup5\n        /* \"#utility.yul\":4028:4099   */\n      tag_125\n      jump\t// in\n    tag_157:\n        /* \"#utility.yul\":3884:4106   */\n      swap3\n      swap2\n      pop\n      pop\n      jump\t// out\n        /* \"#utility.yul\":4112:4354   */\n    tag_16:\n        /* \"#utility.yul\":4215:4219   */\n      0x00\n        /* \"#utility.yul\":4253:4255   */\n      0x20\n        /* \"#utility.yul\":4242:4251   */\n      dup3\n        /* \"#utility.yul\":4238:4256   */\n      add\n        /* \"#utility.yul\":4230:4256   */\n      swap1\n      pop\n        /* \"#utility.yul\":4266:4347   */\n      tag_159\n        /* \"#utility.yul\":4344:4345   */\n      0x00\n        /* \"#utility.yul\":4333:4342   */\n      dup4\n        /* \"#utility.yul\":4329:4346   */\n      add\n        /* \"#utility.yul\":4320:4326   */\n      dup5\n        /* \"#utility.yul\":4266:4347   */\n      tag_132\n      jump\t// in\n    tag_159:\n        /* \"#utility.yul\":4112:4354   */\n      swap3\n      swap2\n      pop\n      pop\n      jump\t// out\n        /* \"#utility.yul\":4360:4779   */\n    tag_80:\n        /* \"#utility.yul\":4526:4530   */\n      0x00\n        /* \"#utility.yul\":4564:4566   */\n      0x20\n        /* \"#utility.yul\":4553:4562   */\n      dup3\n        /* \"#utility.yul\":4549:4567   */\n      add\n        /* \"#utility.yul\":4541:4567   */\n      swap1\n      pop\n        /* \"#utility.yul\":4613:4622   */\n      dup2\n        /* \"#utility.yul\":4607:4611   */\n      dup2\n        /* \"#utility.yul\":4603:4623   */\n      sub\n        /* \"#utility.yul\":4599:4600   */\n      0x00\n        /* \"#utility.yul\":4588:4597   */\n      dup4\n        /* \"#utility.yul\":4584:4601   */\n      add\n        /* \"#utility.yul\":4577:4624   */\n      mstore\n        /* \"#utility.yul\":4641:4772   */\n      tag_161\n        /* \"#utility.yul\":4767:4771   */\n      dup2\n        /* \"#utility.yul\":4641:4772   */\n      tag_136\n      jump\t// in\n    tag_161:\n        /* \"#utility.yul\":4633:4772   */\n      swap1\n      pop\n        /* \"#utility.yul\":4360:4779   */\n      swap2\n      swap1\n      pop\n      jump\t// out\n        /* \"#utility.yul\":4785:5084   */\n    tag_22:\n        /* \"#utility.yul\":4916:4920   */\n      0x00\n        /* \"#utility.yul\":4954:4957   */\n      0xa0\n        /* \"#utility.yul\":4943:4952   */\n      dup3\n        /* \"#utility.yul\":4939:4958   */\n      add\n        /* \"#utility.yul\":4931:4958   */\n      swap1\n      pop\n        /* \"#utility.yul\":4968:5077   */\n      tag_163\n        /* \"#utility.yul\":5074:5075   */\n      0x00\n        /* \"#utility.yul\":5063:5072   */\n      dup4\n        /* \"#utility.yul\":5059:5076   */\n      add\n        /* \"#utility.yul\":5050:5056   */\n      dup5\n        /* \"#utility.yul\":4968:5077   */\n      tag_142\n      jump\t// in\n    tag_163:\n        /* \"#utility.yul\":4785:5084   */\n      swap3\n      swap2\n      pop\n      pop\n      jump\t// out\n        /* \"#utility.yul\":5090:5312   */\n    tag_32:\n        /* \"#utility.yul\":5183:5187   */\n      0x00\n        /* \"#utility.yul\":5221:5223   */\n      0x20\n        /* \"#utility.yul\":5210:5219   */\n      dup3\n        /* \"#utility.yul\":5206:5224   */\n      add\n        /* \"#utility.yul\":5198:5224   */\n      swap1\n      pop\n        /* \"#utility.yul\":5234:5305   */\n      tag_165\n        /* \"#utility.yul\":5302:5303   */\n      0x00\n        /* \"#utility.yul\":5291:5300   */\n      dup4\n        /* \"#utility.yul\":5287:5304   */\n      add\n        /* \"#utility.yul\":5278:5284   */\n      dup5\n        /* \"#utility.yul\":5234:5305   */\n      tag_153\n      jump\t// in\n    tag_165:\n        /* \"#utility.yul\":5090:5312   */\n      swap3\n      swap2\n      pop\n      pop\n      jump\t// out\n        /* \"#utility.yul\":5399:5568   */\n    tag_139:\n        /* \"#utility.yul\":5483:5494   */\n      0x00\n        /* \"#utility.yul\":5517:5523   */\n      dup3\n        /* \"#utility.yul\":5512:5515   */\n      dup3\n        /* \"#utility.yul\":5505:5524   */\n      mstore\n        /* \"#utility.yul\":5557:5561   */\n      0x20\n        /* \"#utility.yul\":5552:5555   */\n      dup3\n        /* \"#utility.yul\":5548:5562   */\n      add\n        /* \"#utility.yul\":5533:5562   */\n      swap1\n      pop\n        /* \"#utility.yul\":5399:5568   */\n      swap3\n      swap2\n      pop\n      pop\n      jump\t// out\n        /* \"#utility.yul\":5574:5670   */\n    tag_124:\n        /* \"#utility.yul\":5611:5618   */\n      0x00\n        /* \"#utility.yul\":5640:5664   */\n      tag_170\n        /* \"#utility.yul\":5658:5663   */\n      dup3\n        /* \"#utility.yul\":5640:5664   */\n      tag_171\n      jump\t// in\n    tag_170:\n        /* \"#utility.yul\":5629:5664   */\n      swap1\n      pop\n        /* \"#utility.yul\":5574:5670   */\n      swap2\n      swap1\n      pop\n      jump\t// out\n        /* \"#utility.yul\":5676:5815   */\n    tag_172:\n        /* \"#utility.yul\":5727:5734   */\n      0x00\n        /* \"#utility.yul\":5756:5761   */\n      dup2\n        /* \"#utility.yul\":5745:5761   */\n      swap1\n      pop\n        /* \"#utility.yul\":5762:5809   */\n      tag_174\n        /* \"#utility.yul\":5803:5808   */\n      dup3\n        /* \"#utility.yul\":5762:5809   */\n      tag_175\n      jump\t// in\n    tag_174:\n        /* \"#utility.yul\":5676:5815   */\n      swap2\n      swap1\n      pop\n      jump\t// out\n        /* \"#utility.yul\":5821:5956   */\n    tag_176:\n        /* \"#utility.yul\":5870:5877   */\n      0x00\n        /* \"#utility.yul\":5899:5904   */\n      dup2\n        /* \"#utility.yul\":5888:5904   */\n      swap1\n      pop\n        /* \"#utility.yul\":5905:5950   */\n      tag_178\n        /* \"#utility.yul\":5944:5949   */\n      dup3\n        /* \"#utility.yul\":5905:5950   */\n      tag_179\n      jump\t// in\n    tag_178:\n        /* \"#utility.yul\":5821:5956   */\n      swap2\n      swap1\n      pop\n      jump\t// out\n        /* \"#utility.yul\":5962:6088   */\n    tag_171:\n        /* \"#utility.yul\":5999:6006   */\n      0x00\n        /* \"#utility.yul\":6039:6081   */\n      0xffffffffffffffffffffffffffffffffffffffff\n        /* \"#utility.yul\":6032:6037   */\n      dup3\n        /* \"#utility.yul\":6028:6082   */\n      and\n        /* \"#utility.yul\":6017:6082   */\n      swap1\n      pop\n        /* \"#utility.yul\":5962:6088   */\n      swap2\n      swap1\n      pop\n      jump\t// out\n        /* \"#utility.yul\":6094:6171   */\n    tag_152:\n        /* \"#utility.yul\":6131:6138   */\n      0x00\n        /* \"#utility.yul\":6160:6165   */\n      dup2\n        /* \"#utility.yul\":6149:6165   */\n      swap1\n      pop\n        /* \"#utility.yul\":6094:6171   */\n      swap2\n      swap1\n      pop\n      jump\t// out\n        /* \"#utility.yul\":6177:6316   */\n    tag_131:\n        /* \"#utility.yul\":6239:6248   */\n      0x00\n        /* \"#utility.yul\":6272:6310   */\n      tag_183\n        /* \"#utility.yul\":6304:6309   */\n      dup3\n        /* \"#utility.yul\":6272:6310   */\n      tag_172\n      jump\t// in\n    tag_183:\n        /* \"#utility.yul\":6259:6310   */\n      swap1\n      pop\n        /* \"#utility.yul\":6177:6316   */\n      swap2\n      swap1\n      pop\n      jump\t// out\n        /* \"#utility.yul\":6322:6457   */\n    tag_135:\n        /* \"#utility.yul\":6382:6391   */\n      0x00\n        /* \"#utility.yul\":6415:6451   */\n      tag_185\n        /* \"#utility.yul\":6445:6450   */\n      dup3\n        /* \"#utility.yul\":6415:6451   */\n      tag_176\n      jump\t// in\n    tag_185:\n        /* \"#utility.yul\":6402:6451   */\n      swap1\n      pop\n        /* \"#utility.yul\":6322:6457   */\n      swap2\n      swap1\n      pop\n      jump\t// out\n        /* \"#utility.yul\":6463:6643   */\n    tag_71:\n        /* \"#utility.yul\":6511:6588   */\n      0x4e487b7100000000000000000000000000000000000000000000000000000000\n        /* \"#utility.yul\":6508:6509   */\n      0x00\n        /* \"#utility.yul\":6501:6589   */\n      mstore\n        /* \"#utility.yul\":6608:6612   */\n      0x21\n        /* \"#utility.yul\":6605:6606   */\n      0x04\n        /* \"#utility.yul\":6598:6613   */\n      mstore\n        /* \"#utility.yul\":6632:6636   */\n      0x24\n        /* \"#utility.yul\":6629:6630   */\n      0x00\n        /* \"#utility.yul\":6622:6637   */\n      revert\n        /* \"#utility.yul\":6772:6889   */\n    tag_110:\n        /* \"#utility.yul\":6881:6882   */\n      0x00\n        /* \"#utility.yul\":6878:6879   */\n      dup1\n        /* \"#utility.yul\":6871:6883   */\n      revert\n        /* \"#utility.yul\":6895:7064   */\n    tag_141:\n        /* \"#utility.yul\":7035:7056   */\n      0x43616c6c6572206973206e6f74206f776e657200000000000000000000000000\n        /* \"#utility.yul\":7031:7032   */\n      0x00\n        /* \"#utility.yul\":7023:7029   */\n      dup3\n        /* \"#utility.yul\":7019:7033   */\n      add\n        /* \"#utility.yul\":7012:7057   */\n      mstore\n        /* \"#utility.yul\":6895:7064   */\n      pop\n      jump\t// out\n        /* \"#utility.yul\":7070:7189   */\n    tag_175:\n        /* \"#utility.yul\":7157:7158   */\n      0x02\n        /* \"#utility.yul\":7150:7155   */\n      dup2\n        /* \"#utility.yul\":7147:7159   */\n      lt\n        /* \"#utility.yul\":7137:7183   */\n      tag_192\n      jumpi\n        /* \"#utility.yul\":7163:7181   */\n      tag_193\n      tag_71\n      jump\t// in\n    tag_193:\n        /* \"#utility.yul\":7137:7183   */\n    tag_192:\n        /* \"#utility.yul\":7070:7189   */\n      pop\n      jump\t// out\n        /* \"#utility.yul\":7195:7312   */\n    tag_179:\n        /* \"#utility.yul\":7280:7281   */\n      0x04\n        /* \"#utility.yul\":7273:7278   */\n      dup2\n        /* \"#utility.yul\":7270:7282   */\n      lt\n        /* \"#utility.yul\":7260:7306   */\n      tag_195\n      jumpi\n        /* \"#utility.yul\":7286:7304   */\n      tag_196\n      tag_71\n      jump\t// in\n    tag_196:\n        /* \"#utility.yul\":7260:7306   */\n    tag_195:\n        /* \"#utility.yul\":7195:7312   */\n      pop\n      jump\t// out\n        /* \"#utility.yul\":7318:7440   */\n    tag_98:\n        /* \"#utility.yul\":7391:7415   */\n      tag_198\n        /* \"#utility.yul\":7409:7414   */\n      dup2\n        /* \"#utility.yul\":7391:7415   */\n      tag_124\n      jump\t// in\n    tag_198:\n        /* \"#utility.yul\":7384:7389   */\n      dup2\n        /* \"#utility.yul\":7381:7416   */\n      eq\n        /* \"#utility.yul\":7371:7434   */\n      tag_199\n      jumpi\n        /* \"#utility.yul\":7430:7431   */\n      0x00\n        /* \"#utility.yul\":7427:7428   */\n      dup1\n        /* \"#utility.yul\":7420:7432   */\n      revert\n        /* \"#utility.yul\":7371:7434   */\n    tag_199:\n        /* \"#utility.yul\":7318:7440   */\n      pop\n      jump\t// out\n        /* \"#utility.yul\":7446:7559   */\n    tag_102:\n        /* \"#utility.yul\":7533:7534   */\n      0x02\n        /* \"#utility.yul\":7526:7531   */\n      dup2\n        /* \"#utility.yul\":7523:7535   */\n      lt\n        /* \"#utility.yul\":7513:7553   */\n      tag_201\n      jumpi\n        /* \"#utility.yul\":7549:7550   */\n      0x00\n        /* \"#utility.yul\":7546:7547   */\n      dup1\n        /* \"#utility.yul\":7539:7551   */\n      revert\n        /* \"#utility.yul\":7513:7553   */\n    tag_201:\n        /* \"#utility.yul\":7446:7559   */\n      pop\n      jump\t// out\n        /* \"#utility.yul\":7565:7687   */\n    tag_106:\n        /* \"#utility.yul\":7638:7662   */\n      tag_203\n        /* \"#utility.yul\":7656:7661   */\n      dup2\n        /* \"#utility.yul\":7638:7662   */\n      tag_152\n      jump\t// in\n    tag_203:\n        /* \"#utility.yul\":7631:7636   */\n      dup2\n        /* \"#utility.yul\":7628:7663   */\n      eq\n        /* \"#utility.yul\":7618:7681   */\n      tag_204\n      jumpi\n        /* \"#utility.yul\":7677:7678   */\n      0x00\n        /* \"#utility.yul\":7674:7675   */\n      dup1\n        /* \"#utility.yul\":7667:7679   */\n      revert\n        /* \"#utility.yul\":7618:7681   */\n    tag_204:\n        /* \"#utility.yul\":7565:7687   */\n      pop\n      jump\t// out\n\n    auxdata: 0xa26469706673582212200f57a1748a9c64055b77f6360cffb8e4f4143156984bc6a1dca38469f60c64df64736f6c63430008070033\n}\n",
				"bytecode": {
					"linkReferences": {},
					"object": "608060405234801561001057600080fd5b50604051610c5d380380610c5d83398181016040528101906100329190610106565b3373ffffffffffffffffffffffffffffffffffffffff16600073ffffffffffffffffffffffffffffffffffffffff167f342827c97908e5e2f71151c08502a66d44b6f758e3ac2f1de95f02eb95f0a73560405160405180910390a3336000806101000a81548173ffffffffffffffffffffffffffffffffffffffff021916908373ffffffffffffffffffffffffffffffffffffffff1602179055504260018190555082600281905550816003819055508060048190555050505061017f565b60008151905061010081610168565b92915050565b60008060006060848603121561011f5761011e610163565b5b600061012d868287016100f1565b935050602061013e868287016100f1565b925050604061014f868287016100f1565b9150509250925092565b6000819050919050565b600080fd5b61017181610159565b811461017c57600080fd5b50565b610acf8061018e6000396000f3fe6080604052600436106100865760003560e01c8063a6f9dae111610059578063a6f9dae11461013c578063b9d76da914610165578063c828371e146101a2578063f2c3e469146101cd578063fadeaf761461020a57610086565b80631865c57d1461008b578063805f1b80146100b6578063893d20e8146100e65780638ea36d4714610111575b600080fd5b34801561009757600080fd5b506100a0610235565b6040516100ad91906108ce565b60405180910390f35b6100d060048036038101906100cb9190610761565b61029c565b6040516100dd9190610909565b60405180910390f35b3480156100f257600080fd5b506100fb6103c8565b60405161010891906108b3565b60405180910390f35b34801561011d57600080fd5b506101266103f1565b6040516101339190610924565b60405180910390f35b34801561014857600080fd5b50610163600480360381019061015e9190610734565b6103fb565b005b34801561017157600080fd5b5061018c600480360381019061018791906107a1565b610546565b6040516101999190610924565b60405180910390f35b3480156101ae57600080fd5b506101b76105e8565b6040516101c49190610924565b60405180910390f35b3480156101d957600080fd5b506101f460048036038101906101ef91906107a1565b6105f2565b6040516102019190610924565b60405180910390f35b34801561021657600080fd5b5061021f610694565b60405161022c9190610924565b60405180910390f35b60008042905060025481101561024f576000915050610299565b6002548110158015610262575080600354105b15610271576001915050610299565b6003548110158015610284575060045481105b15610293576002915050610299565b60039150505b90565b6102a461069e565b60006040518060a001604052803373ffffffffffffffffffffffffffffffffffffffff168152602001600554815260200160065481526020018560018111156102f0576102ef6109d6565b5b8152602001348152509050600781908060018154018082558091505060019003906000526020600020906005020160009091909190915060008201518160000160006101000a81548173ffffffffffffffffffffffffffffffffffffffff021916908373ffffffffffffffffffffffffffffffffffffffff160217905550602082015181600101556040820151816002015560608201518160030160006101000a81548160ff021916908360018111156103ad576103ac6109d6565b5b02179055506080820151816004015550508091505092915050565b60008060009054906101000a900473ffffffffffffffffffffffffffffffffffffffff16905090565b6000600354905090565b60008054906101000a900473ffffffffffffffffffffffffffffffffffffffff1673ffffffffffffffffffffffffffffffffffffffff163373ffffffffffffffffffffffffffffffffffffffff1614610489576040517f08c379a0000000000000000000000000000000000000000000000000000000008152600401610480906108e9565b60405180910390fd5b8073ffffffffffffffffffffffffffffffffffffffff1660008054906101000a900473ffffffffffffffffffffffffffffffffffffffff1673ffffffffffffffffffffffffffffffffffffffff167f342827c97908e5e2f71151c08502a66d44b6f758e3ac2f1de95f02eb95f0a73560405160405180910390a3806000806101000a81548173ffffffffffffffffffffffffffffffffffffffff021916908373ffffffffffffffffffffffffffffffffffffffff16021790555050565b60008060009054906101000a900473ffffffffffffffffffffffffffffffffffffffff1673ffffffffffffffffffffffffffffffffffffffff163373ffffffffffffffffffffffffffffffffffffffff16146105d7576040517f08c379a00000000000000000000000000000000000000000000000000000000081526004016105ce906108e9565b60405180910390fd5b816005819055506005549050919050565b6000600254905090565b60008060009054906101000a900473ffffffffffffffffffffffffffffffffffffffff1673ffffffffffffffffffffffffffffffffffffffff163373ffffffffffffffffffffffffffffffffffffffff1614610683576040517f08c379a000000000000000000000000000000000000000000000000000000000815260040161067a906108e9565b60405180910390fd5b816006819055506006549050919050565b6000600454905090565b6040518060a00160405280600073ffffffffffffffffffffffffffffffffffffffff1681526020016000815260200160008152602001600060018111156106e8576106e76109d6565b5b8152602001600081525090565b60008135905061070481610a5b565b92915050565b60008135905061071981610a72565b92915050565b60008135905061072e81610a82565b92915050565b60006020828403121561074a57610749610a05565b5b6000610758848285016106f5565b91505092915050565b6000806040838503121561077857610777610a05565b5b60006107868582860161070a565b92505060206107978582860161071f565b9150509250929050565b6000602082840312156107b7576107b6610a05565b5b60006107c58482850161071f565b91505092915050565b6107d781610950565b82525050565b6107e681610950565b82525050565b6107f5816109b2565b82525050565b610804816109c4565b82525050565b600061081760138361093f565b915061082282610a0a565b602082019050919050565b60a08201600082015161084360008501826107ce565b5060208201516108566020850182610895565b5060408201516108696040850182610895565b50606082015161087c60608501826107ec565b50608082015161088f6080850182610895565b50505050565b61089e816109a8565b82525050565b6108ad816109a8565b82525050565b60006020820190506108c860008301846107dd565b92915050565b60006020820190506108e360008301846107fb565b92915050565b600060208201905081810360008301526109028161080a565b9050919050565b600060a08201905061091e600083018461082d565b92915050565b600060208201905061093960008301846108a4565b92915050565b600082825260208201905092915050565b600061095b82610988565b9050919050565b600081905061097082610a33565b919050565b600081905061098382610a47565b919050565b600073ffffffffffffffffffffffffffffffffffffffff82169050919050565b6000819050919050565b60006109bd82610962565b9050919050565b60006109cf82610975565b9050919050565b7f4e487b7100000000000000000000000000000000000000000000000000000000600052602160045260246000fd5b600080fd5b7f43616c6c6572206973206e6f74206f776e657200000000000000000000000000600082015250565b60028110610a4457610a436109d6565b5b50565b60048110610a5857610a576109d6565b5b50565b610a6481610950565b8114610a6f57600080fd5b50565b60028110610a7f57600080fd5b50565b610a8b816109a8565b8114610a9657600080fd5b5056fea26469706673582212200f57a1748a9c64055b77f6360cffb8e4f4143156984bc6a1dca38469f60c64df64736f6c63430008070033",
					"opcodes": "PUSH1 0x80 PUSH1 0x40 MSTORE CALLVALUE DUP1 ISZERO PUSH2 0x10 JUMPI PUSH1 0x0 DUP1 REVERT JUMPDEST POP PUSH1 0x40 MLOAD PUSH2 0xC5D CODESIZE SUB DUP1 PUSH2 0xC5D DUP4 CODECOPY DUP2 DUP2 ADD PUSH1 0x40 MSTORE DUP2 ADD SWAP1 PUSH2 0x32 SWAP2 SWAP1 PUSH2 0x106 JUMP JUMPDEST CALLER PUSH20 0xFFFFFFFFFFFFFFFFFFFFFFFFFFFFFFFFFFFFFFFF AND PUSH1 0x0 PUSH20 0xFFFFFFFFFFFFFFFFFFFFFFFFFFFFFFFFFFFFFFFF AND PUSH32 0x342827C97908E5E2F71151C08502A66D44B6F758E3AC2F1DE95F02EB95F0A735 PUSH1 0x40 MLOAD PUSH1 0x40 MLOAD DUP1 SWAP2 SUB SWAP1 LOG3 CALLER PUSH1 0x0 DUP1 PUSH2 0x100 EXP DUP2 SLOAD DUP2 PUSH20 0xFFFFFFFFFFFFFFFFFFFFFFFFFFFFFFFFFFFFFFFF MUL NOT AND SWAP1 DUP4 PUSH20 0xFFFFFFFFFFFFFFFFFFFFFFFFFFFFFFFFFFFFFFFF AND MUL OR SWAP1 SSTORE POP TIMESTAMP PUSH1 0x1 DUP2 SWAP1 SSTORE POP DUP3 PUSH1 0x2 DUP2 SWAP1 SSTORE POP DUP2 PUSH1 0x3 DUP2 SWAP1 SSTORE POP DUP1 PUSH1 0x4 DUP2 SWAP1 SSTORE POP POP POP POP PUSH2 0x17F JUMP JUMPDEST PUSH1 0x0 DUP2 MLOAD SWAP1 POP PUSH2 0x100 DUP2 PUSH2 0x168 JUMP JUMPDEST SWAP3 SWAP2 POP POP JUMP JUMPDEST PUSH1 0x0 DUP1 PUSH1 0x0 PUSH1 0x60 DUP5 DUP7 SUB SLT ISZERO PUSH2 0x11F JUMPI PUSH2 0x11E PUSH2 0x163 JUMP JUMPDEST JUMPDEST PUSH1 0x0 PUSH2 0x12D DUP7 DUP3 DUP8 ADD PUSH2 0xF1 JUMP JUMPDEST SWAP4 POP POP PUSH1 0x20 PUSH2 0x13E DUP7 DUP3 DUP8 ADD PUSH2 0xF1 JUMP JUMPDEST SWAP3 POP POP PUSH1 0x40 PUSH2 0x14F DUP7 DUP3 DUP8 ADD PUSH2 0xF1 JUMP JUMPDEST SWAP2 POP POP SWAP3 POP SWAP3 POP SWAP3 JUMP JUMPDEST PUSH1 0x0 DUP2 SWAP1 POP SWAP2 SWAP1 POP JUMP JUMPDEST PUSH1 0x0 DUP1 REVERT JUMPDEST PUSH2 0x171 DUP2 PUSH2 0x159 JUMP JUMPDEST DUP2 EQ PUSH2 0x17C JUMPI PUSH1 0x0 DUP1 REVERT JUMPDEST POP JUMP JUMPDEST PUSH2 0xACF DUP1 PUSH2 0x18E PUSH1 0x0 CODECOPY PUSH1 0x0 RETURN INVALID PUSH1 0x80 PUSH1 0x40 MSTORE PUSH1 0x4 CALLDATASIZE LT PUSH2 0x86 JUMPI PUSH1 0x0 CALLDATALOAD PUSH1 0xE0 SHR DUP1 PUSH4 0xA6F9DAE1 GT PUSH2 0x59 JUMPI DUP1 PUSH4 0xA6F9DAE1 EQ PUSH2 0x13C JUMPI DUP1 PUSH4 0xB9D76DA9 EQ PUSH2 0x165 JUMPI DUP1 PUSH4 0xC828371E EQ PUSH2 0x1A2 JUMPI DUP1 PUSH4 0xF2C3E469 EQ PUSH2 0x1CD JUMPI DUP1 PUSH4 0xFADEAF76 EQ PUSH2 0x20A JUMPI PUSH2 0x86 JUMP JUMPDEST DUP1 PUSH4 0x1865C57D EQ PUSH2 0x8B JUMPI DUP1 PUSH4 0x805F1B80 EQ PUSH2 0xB6 JUMPI DUP1 PUSH4 0x893D20E8 EQ PUSH2 0xE6 JUMPI DUP1 PUSH4 0x8EA36D47 EQ PUSH2 0x111 JUMPI JUMPDEST PUSH1 0x0 DUP1 REVERT JUMPDEST CALLVALUE DUP1 ISZERO PUSH2 0x97 JUMPI PUSH1 0x0 DUP1 REVERT JUMPDEST POP PUSH2 0xA0 PUSH2 0x235 JUMP JUMPDEST PUSH1 0x40 MLOAD PUSH2 0xAD SWAP2 SWAP1 PUSH2 0x8CE JUMP JUMPDEST PUSH1 0x40 MLOAD DUP1 SWAP2 SUB SWAP1 RETURN JUMPDEST PUSH2 0xD0 PUSH1 0x4 DUP1 CALLDATASIZE SUB DUP2 ADD SWAP1 PUSH2 0xCB SWAP2 SWAP1 PUSH2 0x761 JUMP JUMPDEST PUSH2 0x29C JUMP JUMPDEST PUSH1 0x40 MLOAD PUSH2 0xDD SWAP2 SWAP1 PUSH2 0x909 JUMP JUMPDEST PUSH1 0x40 MLOAD DUP1 SWAP2 SUB SWAP1 RETURN JUMPDEST CALLVALUE DUP1 ISZERO PUSH2 0xF2 JUMPI PUSH1 0x0 DUP1 REVERT JUMPDEST POP PUSH2 0xFB PUSH2 0x3C8 JUMP JUMPDEST PUSH1 0x40 MLOAD PUSH2 0x108 SWAP2 SWAP1 PUSH2 0x8B3 JUMP JUMPDEST PUSH1 0x40 MLOAD DUP1 SWAP2 SUB SWAP1 RETURN JUMPDEST CALLVALUE DUP1 ISZERO PUSH2 0x11D JUMPI PUSH1 0x0 DUP1 REVERT JUMPDEST POP PUSH2 0x126 PUSH2 0x3F1 JUMP JUMPDEST PUSH1 0x40 MLOAD PUSH2 0x133 SWAP2 SWAP1 PUSH2 0x924 JUMP JUMPDEST PUSH1 0x40 MLOAD DUP1 SWAP2 SUB SWAP1 RETURN JUMPDEST CALLVALUE DUP1 ISZERO PUSH2 0x148 JUMPI PUSH1 0x0 DUP1 REVERT JUMPDEST POP PUSH2 0x163 PUSH1 0x4 DUP1 CALLDATASIZE SUB DUP2 ADD SWAP1 PUSH2 0x15E SWAP2 SWAP1 PUSH2 0x734 JUMP JUMPDEST PUSH2 0x3FB JUMP JUMPDEST STOP JUMPDEST CALLVALUE DUP1 ISZERO PUSH2 0x171 JUMPI PUSH1 0x0 DUP1 REVERT JUMPDEST POP PUSH2 0x18C PUSH1 0x4 DUP1 CALLDATASIZE SUB DUP2 ADD SWAP1 PUSH2 0x187 SWAP2 SWAP1 PUSH2 0x7A1 JUMP JUMPDEST PUSH2 0x546 JUMP JUMPDEST PUSH1 0x40 MLOAD PUSH2 0x199 SWAP2 SWAP1 PUSH2 0x924 JUMP JUMPDEST PUSH1 0x40 MLOAD DUP1 SWAP2 SUB SWAP1 RETURN JUMPDEST CALLVALUE DUP1 ISZERO PUSH2 0x1AE JUMPI PUSH1 0x0 DUP1 REVERT JUMPDEST POP PUSH2 0x1B7 PUSH2 0x5E8 JUMP JUMPDEST PUSH1 0x40 MLOAD PUSH2 0x1C4 SWAP2 SWAP1 PUSH2 0x924 JUMP JUMPDEST PUSH1 0x40 MLOAD DUP1 SWAP2 SUB SWAP1 RETURN JUMPDEST CALLVALUE DUP1 ISZERO PUSH2 0x1D9 JUMPI PUSH1 0x0 DUP1 REVERT JUMPDEST POP PUSH2 0x1F4 PUSH1 0x4 DUP1 CALLDATASIZE SUB DUP2 ADD SWAP1 PUSH2 0x1EF SWAP2 SWAP1 PUSH2 0x7A1 JUMP JUMPDEST PUSH2 0x5F2 JUMP JUMPDEST PUSH1 0x40 MLOAD PUSH2 0x201 SWAP2 SWAP1 PUSH2 0x924 JUMP JUMPDEST PUSH1 0x40 MLOAD DUP1 SWAP2 SUB SWAP1 RETURN JUMPDEST CALLVALUE DUP1 ISZERO PUSH2 0x216 JUMPI PUSH1 0x0 DUP1 REVERT JUMPDEST POP PUSH2 0x21F PUSH2 0x694 JUMP JUMPDEST PUSH1 0x40 MLOAD PUSH2 0x22C SWAP2 SWAP1 PUSH2 0x924 JUMP JUMPDEST PUSH1 0x40 MLOAD DUP1 SWAP2 SUB SWAP1 RETURN JUMPDEST PUSH1 0x0 DUP1 TIMESTAMP SWAP1 POP PUSH1 0x2 SLOAD DUP2 LT ISZERO PUSH2 0x24F JUMPI PUSH1 0x0 SWAP2 POP POP PUSH2 0x299 JUMP JUMPDEST PUSH1 0x2 SLOAD DUP2 LT ISZERO DUP1 ISZERO PUSH2 0x262 JUMPI POP DUP1 PUSH1 0x3 SLOAD LT JUMPDEST ISZERO PUSH2 0x271 JUMPI PUSH1 0x1 SWAP2 POP POP PUSH2 0x299 JUMP JUMPDEST PUSH1 0x3 SLOAD DUP2 LT ISZERO DUP1 ISZERO PUSH2 0x284 JUMPI POP PUSH1 0x4 SLOAD DUP2 LT JUMPDEST ISZERO PUSH2 0x293 JUMPI PUSH1 0x2 SWAP2 POP POP PUSH2 0x299 JUMP JUMPDEST PUSH1 0x3 SWAP2 POP POP JUMPDEST SWAP1 JUMP JUMPDEST PUSH2 0x2A4 PUSH2 0x69E JUMP JUMPDEST PUSH1 0x0 PUSH1 0x40 MLOAD DUP1 PUSH1 0xA0 ADD PUSH1 0x40 MSTORE DUP1 CALLER PUSH20 0xFFFFFFFFFFFFFFFFFFFFFFFFFFFFFFFFFFFFFFFF AND DUP2 MSTORE PUSH1 0x20 ADD PUSH1 0x5 SLOAD DUP2 MSTORE PUSH1 0x20 ADD PUSH1 0x6 SLOAD DUP2 MSTORE PUSH1 0x20 ADD DUP6 PUSH1 0x1 DUP2 GT ISZERO PUSH2 0x2F0 JUMPI PUSH2 0x2EF PUSH2 0x9D6 JUMP JUMPDEST JUMPDEST DUP2 MSTORE PUSH1 0x20 ADD CALLVALUE DUP2 MSTORE POP SWAP1 POP PUSH1 0x7 DUP2 SWAP1 DUP1 PUSH1 0x1 DUP2 SLOAD ADD DUP1 DUP3 SSTORE DUP1 SWAP2 POP POP PUSH1 0x1 SWAP1 SUB SWAP1 PUSH1 0x0 MSTORE PUSH1 0x20 PUSH1 0x0 KECCAK256 SWAP1 PUSH1 0x5 MUL ADD PUSH1 0x0 SWAP1 SWAP2 SWAP1 SWAP2 SWAP1 SWAP2 POP PUSH1 0x0 DUP3 ADD MLOAD DUP2 PUSH1 0x0 ADD PUSH1 0x0 PUSH2 0x100 EXP DUP2 SLOAD DUP2 PUSH20 0xFFFFFFFFFFFFFFFFFFFFFFFFFFFFFFFFFFFFFFFF MUL NOT AND SWAP1 DUP4 PUSH20 0xFFFFFFFFFFFFFFFFFFFFFFFFFFFFFFFFFFFFFFFF AND MUL OR SWAP1 SSTORE POP PUSH1 0x20 DUP3 ADD MLOAD DUP2 PUSH1 0x1 ADD SSTORE PUSH1 0x40 DUP3 ADD MLOAD DUP2 PUSH1 0x2 ADD SSTORE PUSH1 0x60 DUP3 ADD MLOAD DUP2 PUSH1 0x3 ADD PUSH1 0x0 PUSH2 0x100 EXP DUP2 SLOAD DUP2 PUSH1 0xFF MUL NOT AND SWAP1 DUP4 PUSH1 0x1 DUP2 GT ISZERO PUSH2 0x3AD JUMPI PUSH2 0x3AC PUSH2 0x9D6 JUMP JUMPDEST JUMPDEST MUL OR SWAP1 SSTORE POP PUSH1 0x80 DUP3 ADD MLOAD DUP2 PUSH1 0x4 ADD SSTORE POP POP DUP1 SWAP2 POP POP SWAP3 SWAP2 POP POP JUMP JUMPDEST PUSH1 0x0 DUP1 PUSH1 0x0 SWAP1 SLOAD SWAP1 PUSH2 0x100 EXP SWAP1 DIV PUSH20 0xFFFFFFFFFFFFFFFFFFFFFFFFFFFFFFFFFFFFFFFF AND SWAP1 POP SWAP1 JUMP JUMPDEST PUSH1 0x0 PUSH1 0x3 SLOAD SWAP1 POP SWAP1 JUMP JUMPDEST PUSH1 0x0 DUP1 SLOAD SWAP1 PUSH2 0x100 EXP SWAP1 DIV PUSH20 0xFFFFFFFFFFFFFFFFFFFFFFFFFFFFFFFFFFFFFFFF AND PUSH20 0xFFFFFFFFFFFFFFFFFFFFFFFFFFFFFFFFFFFFFFFF AND CALLER PUSH20 0xFFFFFFFFFFFFFFFFFFFFFFFFFFFFFFFFFFFFFFFF AND EQ PUSH2 0x489 JUMPI PUSH1 0x40 MLOAD PUSH32 0x8C379A000000000000000000000000000000000000000000000000000000000 DUP2 MSTORE PUSH1 0x4 ADD PUSH2 0x480 SWAP1 PUSH2 0x8E9 JUMP JUMPDEST PUSH1 0x40 MLOAD DUP1 SWAP2 SUB SWAP1 REVERT JUMPDEST DUP1 PUSH20 0xFFFFFFFFFFFFFFFFFFFFFFFFFFFFFFFFFFFFFFFF AND PUSH1 0x0 DUP1 SLOAD SWAP1 PUSH2 0x100 EXP SWAP1 DIV PUSH20 0xFFFFFFFFFFFFFFFFFFFFFFFFFFFFFFFFFFFFFFFF AND PUSH20 0xFFFFFFFFFFFFFFFFFFFFFFFFFFFFFFFFFFFFFFFF AND PUSH32 0x342827C97908E5E2F71151C08502A66D44B6F758E3AC2F1DE95F02EB95F0A735 PUSH1 0x40 MLOAD PUSH1 0x40 MLOAD DUP1 SWAP2 SUB SWAP1 LOG3 DUP1 PUSH1 0x0 DUP1 PUSH2 0x100 EXP DUP2 SLOAD DUP2 PUSH20 0xFFFFFFFFFFFFFFFFFFFFFFFFFFFFFFFFFFFFFFFF MUL NOT AND SWAP1 DUP4 PUSH20 0xFFFFFFFFFFFFFFFFFFFFFFFFFFFFFFFFFFFFFFFF AND MUL OR SWAP1 SSTORE POP POP JUMP JUMPDEST PUSH1 0x0 DUP1 PUSH1 0x0 SWAP1 SLOAD SWAP1 PUSH2 0x100 EXP SWAP1 DIV PUSH20 0xFFFFFFFFFFFFFFFFFFFFFFFFFFFFFFFFFFFFFFFF AND PUSH20 0xFFFFFFFFFFFFFFFFFFFFFFFFFFFFFFFFFFFFFFFF AND CALLER PUSH20 0xFFFFFFFFFFFFFFFFFFFFFFFFFFFFFFFFFFFFFFFF AND EQ PUSH2 0x5D7 JUMPI PUSH1 0x40 MLOAD PUSH32 0x8C379A000000000000000000000000000000000000000000000000000000000 DUP2 MSTORE PUSH1 0x4 ADD PUSH2 0x5CE SWAP1 PUSH2 0x8E9 JUMP JUMPDEST PUSH1 0x40 MLOAD DUP1 SWAP2 SUB SWAP1 REVERT JUMPDEST DUP2 PUSH1 0x5 DUP2 SWAP1 SSTORE POP PUSH1 0x5 SLOAD SWAP1 POP SWAP2 SWAP1 POP JUMP JUMPDEST PUSH1 0x0 PUSH1 0x2 SLOAD SWAP1 POP SWAP1 JUMP JUMPDEST PUSH1 0x0 DUP1 PUSH1 0x0 SWAP1 SLOAD SWAP1 PUSH2 0x100 EXP SWAP1 DIV PUSH20 0xFFFFFFFFFFFFFFFFFFFFFFFFFFFFFFFFFFFFFFFF AND PUSH20 0xFFFFFFFFFFFFFFFFFFFFFFFFFFFFFFFFFFFFFFFF AND CALLER PUSH20 0xFFFFFFFFFFFFFFFFFFFFFFFFFFFFFFFFFFFFFFFF AND EQ PUSH2 0x683 JUMPI PUSH1 0x40 MLOAD PUSH32 0x8C379A000000000000000000000000000000000000000000000000000000000 DUP2 MSTORE PUSH1 0x4 ADD PUSH2 0x67A SWAP1 PUSH2 0x8E9 JUMP JUMPDEST PUSH1 0x40 MLOAD DUP1 SWAP2 SUB SWAP1 REVERT JUMPDEST DUP2 PUSH1 0x6 DUP2 SWAP1 SSTORE POP PUSH1 0x6 SLOAD SWAP1 POP SWAP2 SWAP1 POP JUMP JUMPDEST PUSH1 0x0 PUSH1 0x4 SLOAD SWAP1 POP SWAP1 JUMP JUMPDEST PUSH1 0x40 MLOAD DUP1 PUSH1 0xA0 ADD PUSH1 0x40 MSTORE DUP1 PUSH1 0x0 PUSH20 0xFFFFFFFFFFFFFFFFFFFFFFFFFFFFFFFFFFFFFFFF AND DUP2 MSTORE PUSH1 0x20 ADD PUSH1 0x0 DUP2 MSTORE PUSH1 0x20 ADD PUSH1 0x0 DUP2 MSTORE PUSH1 0x20 ADD PUSH1 0x0 PUSH1 0x1 DUP2 GT ISZERO PUSH2 0x6E8 JUMPI PUSH2 0x6E7 PUSH2 0x9D6 JUMP JUMPDEST JUMPDEST DUP2 MSTORE PUSH1 0x20 ADD PUSH1 0x0 DUP2 MSTORE POP SWAP1 JUMP JUMPDEST PUSH1 0x0 DUP2 CALLDATALOAD SWAP1 POP PUSH2 0x704 DUP2 PUSH2 0xA5B JUMP JUMPDEST SWAP3 SWAP2 POP POP JUMP JUMPDEST PUSH1 0x0 DUP2 CALLDATALOAD SWAP1 POP PUSH2 0x719 DUP2 PUSH2 0xA72 JUMP JUMPDEST SWAP3 SWAP2 POP POP JUMP JUMPDEST PUSH1 0x0 DUP2 CALLDATALOAD SWAP1 POP PUSH2 0x72E DUP2 PUSH2 0xA82 JUMP JUMPDEST SWAP3 SWAP2 POP POP JUMP JUMPDEST PUSH1 0x0 PUSH1 0x20 DUP3 DUP5 SUB SLT ISZERO PUSH2 0x74A JUMPI PUSH2 0x749 PUSH2 0xA05 JUMP JUMPDEST JUMPDEST PUSH1 0x0 PUSH2 0x758 DUP5 DUP3 DUP6 ADD PUSH2 0x6F5 JUMP JUMPDEST SWAP2 POP POP SWAP3 SWAP2 POP POP JUMP JUMPDEST PUSH1 0x0 DUP1 PUSH1 0x40 DUP4 DUP6 SUB SLT ISZERO PUSH2 0x778 JUMPI PUSH2 0x777 PUSH2 0xA05 JUMP JUMPDEST JUMPDEST PUSH1 0x0 PUSH2 0x786 DUP6 DUP3 DUP7 ADD PUSH2 0x70A JUMP JUMPDEST SWAP3 POP POP PUSH1 0x20 PUSH2 0x797 DUP6 DUP3 DUP7 ADD PUSH2 0x71F JUMP JUMPDEST SWAP2 POP POP SWAP3 POP SWAP3 SWAP1 POP JUMP JUMPDEST PUSH1 0x0 PUSH1 0x20 DUP3 DUP5 SUB SLT ISZERO PUSH2 0x7B7 JUMPI PUSH2 0x7B6 PUSH2 0xA05 JUMP JUMPDEST JUMPDEST PUSH1 0x0 PUSH2 0x7C5 DUP5 DUP3 DUP6 ADD PUSH2 0x71F JUMP JUMPDEST SWAP2 POP POP SWAP3 SWAP2 POP POP JUMP JUMPDEST PUSH2 0x7D7 DUP2 PUSH2 0x950 JUMP JUMPDEST DUP3 MSTORE POP POP JUMP JUMPDEST PUSH2 0x7E6 DUP2 PUSH2 0x950 JUMP JUMPDEST DUP3 MSTORE POP POP JUMP JUMPDEST PUSH2 0x7F5 DUP2 PUSH2 0x9B2 JUMP JUMPDEST DUP3 MSTORE POP POP JUMP JUMPDEST PUSH2 0x804 DUP2 PUSH2 0x9C4 JUMP JUMPDEST DUP3 MSTORE POP POP JUMP JUMPDEST PUSH1 0x0 PUSH2 0x817 PUSH1 0x13 DUP4 PUSH2 0x93F JUMP JUMPDEST SWAP2 POP PUSH2 0x822 DUP3 PUSH2 0xA0A JUMP JUMPDEST PUSH1 0x20 DUP3 ADD SWAP1 POP SWAP2 SWAP1 POP JUMP JUMPDEST PUSH1 0xA0 DUP3 ADD PUSH1 0x0 DUP3 ADD MLOAD PUSH2 0x843 PUSH1 0x0 DUP6 ADD DUP3 PUSH2 0x7CE JUMP JUMPDEST POP PUSH1 0x20 DUP3 ADD MLOAD PUSH2 0x856 PUSH1 0x20 DUP6 ADD DUP3 PUSH2 0x895 JUMP JUMPDEST POP PUSH1 0x40 DUP3 ADD MLOAD PUSH2 0x869 PUSH1 0x40 DUP6 ADD DUP3 PUSH2 0x895 JUMP JUMPDEST POP PUSH1 0x60 DUP3 ADD MLOAD PUSH2 0x87C PUSH1 0x60 DUP6 ADD DUP3 PUSH2 0x7EC JUMP JUMPDEST POP PUSH1 0x80 DUP3 ADD MLOAD PUSH2 0x88F PUSH1 0x80 DUP6 ADD DUP3 PUSH2 0x895 JUMP JUMPDEST POP POP POP POP JUMP JUMPDEST PUSH2 0x89E DUP2 PUSH2 0x9A8 JUMP JUMPDEST DUP3 MSTORE POP POP JUMP JUMPDEST PUSH2 0x8AD DUP2 PUSH2 0x9A8 JUMP JUMPDEST DUP3 MSTORE POP POP JUMP JUMPDEST PUSH1 0x0 PUSH1 0x20 DUP3 ADD SWAP1 POP PUSH2 0x8C8 PUSH1 0x0 DUP4 ADD DUP5 PUSH2 0x7DD JUMP JUMPDEST SWAP3 SWAP2 POP POP JUMP JUMPDEST PUSH1 0x0 PUSH1 0x20 DUP3 ADD SWAP1 POP PUSH2 0x8E3 PUSH1 0x0 DUP4 ADD DUP5 PUSH2 0x7FB JUMP JUMPDEST SWAP3 SWAP2 POP POP JUMP JUMPDEST PUSH1 0x0 PUSH1 0x20 DUP3 ADD SWAP1 POP DUP2 DUP2 SUB PUSH1 0x0 DUP4 ADD MSTORE PUSH2 0x902 DUP2 PUSH2 0x80A JUMP JUMPDEST SWAP1 POP SWAP2 SWAP1 POP JUMP JUMPDEST PUSH1 0x0 PUSH1 0xA0 DUP3 ADD SWAP1 POP PUSH2 0x91E PUSH1 0x0 DUP4 ADD DUP5 PUSH2 0x82D JUMP JUMPDEST SWAP3 SWAP2 POP POP JUMP JUMPDEST PUSH1 0x0 PUSH1 0x20 DUP3 ADD SWAP1 POP PUSH2 0x939 PUSH1 0x0 DUP4 ADD DUP5 PUSH2 0x8A4 JUMP JUMPDEST SWAP3 SWAP2 POP POP JUMP JUMPDEST PUSH1 0x0 DUP3 DUP3 MSTORE PUSH1 0x20 DUP3 ADD SWAP1 POP SWAP3 SWAP2 POP POP JUMP JUMPDEST PUSH1 0x0 PUSH2 0x95B DUP3 PUSH2 0x988 JUMP JUMPDEST SWAP1 POP SWAP2 SWAP1 POP JUMP JUMPDEST PUSH1 0x0 DUP2 SWAP1 POP PUSH2 0x970 DUP3 PUSH2 0xA33 JUMP JUMPDEST SWAP2 SWAP1 POP JUMP JUMPDEST PUSH1 0x0 DUP2 SWAP1 POP PUSH2 0x983 DUP3 PUSH2 0xA47 JUMP JUMPDEST SWAP2 SWAP1 POP JUMP JUMPDEST PUSH1 0x0 PUSH20 0xFFFFFFFFFFFFFFFFFFFFFFFFFFFFFFFFFFFFFFFF DUP3 AND SWAP1 POP SWAP2 SWAP1 POP JUMP JUMPDEST PUSH1 0x0 DUP2 SWAP1 POP SWAP2 SWAP1 POP JUMP JUMPDEST PUSH1 0x0 PUSH2 0x9BD DUP3 PUSH2 0x962 JUMP JUMPDEST SWAP1 POP SWAP2 SWAP1 POP JUMP JUMPDEST PUSH1 0x0 PUSH2 0x9CF DUP3 PUSH2 0x975 JUMP JUMPDEST SWAP1 POP SWAP2 SWAP1 POP JUMP JUMPDEST PUSH32 0x4E487B7100000000000000000000000000000000000000000000000000000000 PUSH1 0x0 MSTORE PUSH1 0x21 PUSH1 0x4 MSTORE PUSH1 0x24 PUSH1 0x0 REVERT JUMPDEST PUSH1 0x0 DUP1 REVERT JUMPDEST PUSH32 0x43616C6C6572206973206E6F74206F776E657200000000000000000000000000 PUSH1 0x0 DUP3 ADD MSTORE POP JUMP JUMPDEST PUSH1 0x2 DUP2 LT PUSH2 0xA44 JUMPI PUSH2 0xA43 PUSH2 0x9D6 JUMP JUMPDEST JUMPDEST POP JUMP JUMPDEST PUSH1 0x4 DUP2 LT PUSH2 0xA58 JUMPI PUSH2 0xA57 PUSH2 0x9D6 JUMP JUMPDEST JUMPDEST POP JUMP JUMPDEST PUSH2 0xA64 DUP2 PUSH2 0x950 JUMP JUMPDEST DUP2 EQ PUSH2 0xA6F JUMPI PUSH1 0x0 DUP1 REVERT JUMPDEST POP JUMP JUMPDEST PUSH1 0x2 DUP2 LT PUSH2 0xA7F JUMPI PUSH1 0x0 DUP1 REVERT JUMPDEST POP JUMP JUMPDEST PUSH2 0xA8B DUP2 PUSH2 0x9A8 JUMP JUMPDEST DUP2 EQ PUSH2 0xA96 JUMPI PUSH1 0x0 DUP1 REVERT JUMPDEST POP JUMP INVALID LOG2 PUSH5 0x6970667358 0x22 SLT KECCAK256 0xF JUMPI LOG1 PUSH21 0x8A9C64055B77F6360CFFB8E4F4143156984BC6A1DC LOG3 DUP5 PUSH10 0xF60C64DF64736F6C6343 STOP ADDMOD SMOD STOP CALLER "
				},
				"gasEstimates": {
					"creation": {
						"codeDepositCost": "553400",
						"executionCost": "infinite",
						"totalCost": "infinite"
					},
					"external": {
						"changeOwner(address)": "30567",
						"getBetsEndTime()": "2504",
						"getCloseTime()": "2525",
						"getOwner()": "2567",
						"getStartTime()": "2481",
						"getState()": "11102",
						"takeABet(uint8,uint256)": "infinite",
						"updateOddsA(uint256)": "infinite",
						"updateOddsB(uint256)": "infinite"
					}
				},
				"methodIdentifiers": {
					"changeOwner(address)": "a6f9dae1",
					"getBetsEndTime()": "8ea36d47",
					"getCloseTime()": "fadeaf76",
					"getOwner()": "893d20e8",
					"getStartTime()": "c828371e",
					"getState()": "1865c57d",
					"takeABet(uint8,uint256)": "805f1b80",
					"updateOddsA(uint256)": "b9d76da9",
					"updateOddsB(uint256)": "f2c3e469"
				}
			},
			"userdoc": {
				"kind": "user",
				"methods": {},
				"version": 1
			}
		}
	}
}