{
	"contracts/TheGame.sol": {
		"TheGame": {
			"abi": [
				{
					"inputs": [
						{
							"internalType": "uint256",
							"name": "_startTime",
							"type": "uint256"
						},
						{
							"internalType": "uint256",
							"name": "_betsEndTime",
							"type": "uint256"
						},
						{
							"internalType": "uint256",
							"name": "_closeTime",
							"type": "uint256"
						}
					],
					"stateMutability": "nonpayable",
					"type": "constructor"
				},
				{
					"anonymous": false,
					"inputs": [
						{
							"indexed": true,
							"internalType": "address",
							"name": "betTaker",
							"type": "address"
						},
						{
							"indexed": true,
							"internalType": "uint256",
							"name": "amount",
							"type": "uint256"
						},
						{
							"indexed": true,
							"internalType": "enum BetTakenFor",
							"name": "option",
							"type": "uint8"
						}
					],
					"name": "BetTaken",
					"type": "event"
				},
				{
					"anonymous": false,
					"inputs": [
						{
							"indexed": true,
							"internalType": "address",
							"name": "oldOwner",
							"type": "address"
						},
						{
							"indexed": true,
							"internalType": "address",
							"name": "newOwner",
							"type": "address"
						}
					],
					"name": "OwnerSet",
					"type": "event"
				},
				{
					"inputs": [
						{
							"internalType": "address",
							"name": "newOwner",
							"type": "address"
						}
					],
					"name": "changeOwner",
					"outputs": [],
					"stateMutability": "nonpayable",
					"type": "function"
				},
				{
					"inputs": [],
					"name": "getBetsEndTime",
					"outputs": [
						{
							"internalType": "uint256",
							"name": "",
							"type": "uint256"
						}
					],
					"stateMutability": "view",
					"type": "function"
				},
				{
					"inputs": [],
					"name": "getCloseTime",
					"outputs": [
						{
							"internalType": "uint256",
							"name": "",
							"type": "uint256"
						}
					],
					"stateMutability": "view",
					"type": "function"
				},
				{
					"inputs": [],
					"name": "getOwner",
					"outputs": [
						{
							"internalType": "address",
							"name": "",
							"type": "address"
						}
					],
					"stateMutability": "view",
					"type": "function"
				},
				{
					"inputs": [],
					"name": "getStartTime",
					"outputs": [
						{
							"internalType": "uint256",
							"name": "",
							"type": "uint256"
						}
					],
					"stateMutability": "view",
					"type": "function"
				},
				{
					"inputs": [],
					"name": "getState",
					"outputs": [
						{
							"internalType": "enum GameState",
							"name": "",
							"type": "uint8"
						}
					],
					"stateMutability": "view",
					"type": "function"
				},
				{
					"inputs": [
						{
							"internalType": "enum BetTakenFor",
							"name": "option",
							"type": "uint8"
						}
					],
					"name": "takeABet",
					"outputs": [
						{
							"internalType": "uint256",
							"name": "",
							"type": "uint256"
						}
					],
					"stateMutability": "payable",
					"type": "function"
				},
				{
					"inputs": [
						{
							"internalType": "uint256",
							"name": "odds",
							"type": "uint256"
						}
					],
					"name": "updateOddsA",
					"outputs": [
						{
							"internalType": "uint256",
							"name": "",
							"type": "uint256"
						}
					],
					"stateMutability": "nonpayable",
					"type": "function"
				},
				{
					"inputs": [
						{
							"internalType": "uint256",
							"name": "odds",
							"type": "uint256"
						}
					],
					"name": "updateOddsB",
					"outputs": [
						{
							"internalType": "uint256",
							"name": "",
							"type": "uint256"
						}
					],
					"stateMutability": "nonpayable",
					"type": "function"
				}
			],
			"devdoc": {
				"kind": "dev",
				"methods": {
					"changeOwner(address)": {
						"details": "Change owner",
						"params": {
							"newOwner": "address of new owner"
						}
					},
					"getOwner()": {
						"details": "Return owner address ",
						"returns": {
							"_0": "address of owner"
						}
					}
				},
				"version": 1
			},
			"evm": {
				"assembly": "    /* \"contracts/TheGame.sol\":326:2712  contract TheGame is Owner{... */\n  mstore(0x40, 0x80)\n    /* \"contracts/TheGame.sol\":741:1236  constructor(uint256 _startTime, uint256 _betsEndTime, uint256 _closeTime) Owner() {... */\n  callvalue\n  dup1\n  iszero\n  tag_1\n  jumpi\n  0x00\n  dup1\n  revert\ntag_1:\n  pop\n  mload(0x40)\n  sub(codesize, bytecodeSize)\n  dup1\n  bytecodeSize\n  dup4\n  codecopy\n  dup2\n  dup2\n  add\n  0x40\n  mstore\n  dup2\n  add\n  swap1\n  tag_2\n  swap2\n  swap1\n  tag_3\n  jump\t// in\ntag_2:\n    /* \"contracts/Owner.sol\":910:920  msg.sender */\n  caller\n    /* \"contracts/Owner.sol\":889:921  OwnerSet(address(0), msg.sender) */\n  0xffffffffffffffffffffffffffffffffffffffff\n  and\n    /* \"contracts/Owner.sol\":906:907  0 */\n  0x00\n    /* \"contracts/Owner.sol\":889:921  OwnerSet(address(0), msg.sender) */\n  0xffffffffffffffffffffffffffffffffffffffff\n  and\n  0x342827c97908e5e2f71151c08502a66d44b6f758e3ac2f1de95f02eb95f0a735\n  mload(0x40)\n  mload(0x40)\n  dup1\n  swap2\n  sub\n  swap1\n  log3\n    /* \"contracts/Owner.sol\":939:949  msg.sender */\n  caller\n    /* \"contracts/Owner.sol\":931:936  owner */\n  0x00\n  dup1\n    /* \"contracts/Owner.sol\":931:949  owner = msg.sender */\n  0x0100\n  exp\n  dup2\n  sload\n  dup2\n  0xffffffffffffffffffffffffffffffffffffffff\n  mul\n  not\n  and\n  swap1\n  dup4\n  0xffffffffffffffffffffffffffffffffffffffff\n  and\n  mul\n  or\n  swap1\n  sstore\n  pop\n    /* \"contracts/TheGame.sol\":848:863  block.timestamp */\n  timestamp\n    /* \"contracts/TheGame.sol\":833:845  creationTime */\n  0x01\n    /* \"contracts/TheGame.sol\":833:863  creationTime = block.timestamp */\n  dup2\n  swap1\n  sstore\n  pop\n    /* \"contracts/TheGame.sol\":896:906  _startTime */\n  dup3\n    /* \"contracts/TheGame.sol\":881:893  creationTime */\n  sload(0x01)\n    /* \"contracts/TheGame.sol\":881:906  creationTime < _startTime */\n  lt\n    /* \"contracts/TheGame.sol\":873:942  require(creationTime < _startTime, \"Bet have to begin in the future\") */\n  tag_8\n  jumpi\n  mload(0x40)\n  0x08c379a000000000000000000000000000000000000000000000000000000000\n  dup2\n  mstore\n  0x04\n  add\n  tag_9\n  swap1\n  tag_10\n  jump\t// in\ntag_9:\n  mload(0x40)\n  dup1\n  swap2\n  sub\n  swap1\n  revert\ntag_8:\n    /* \"contracts/TheGame.sol\":973:985  _betsEndTime */\n  dup2\n    /* \"contracts/TheGame.sol\":960:970  _startTime */\n  dup4\n    /* \"contracts/TheGame.sol\":960:985  _startTime < _betsEndTime */\n  lt\n    /* \"contracts/TheGame.sol\":952:1033  require(_startTime < _betsEndTime, \"Bets close time have to be after start time\") */\n  tag_11\n  jumpi\n  mload(0x40)\n  0x08c379a000000000000000000000000000000000000000000000000000000000\n  dup2\n  mstore\n  0x04\n  add\n  tag_12\n  swap1\n  tag_13\n  jump\t// in\ntag_12:\n  mload(0x40)\n  dup1\n  swap2\n  sub\n  swap1\n  revert\ntag_11:\n    /* \"contracts/TheGame.sol\":1066:1076  _closeTime */\n  dup1\n    /* \"contracts/TheGame.sol\":1051:1063  _betsEndTime */\n  dup3\n    /* \"contracts/TheGame.sol\":1051:1076  _betsEndTime < _closeTime */\n  lt\n    /* \"contracts/TheGame.sol\":1043:1129  require(_betsEndTime < _closeTime, \"Game close time have to be after bets close time\") */\n  tag_14\n  jumpi\n  mload(0x40)\n  0x08c379a000000000000000000000000000000000000000000000000000000000\n  dup2\n  mstore\n  0x04\n  add\n  tag_15\n  swap1\n  tag_16\n  jump\t// in\ntag_15:\n  mload(0x40)\n  dup1\n  swap2\n  sub\n  swap1\n  revert\ntag_14:\n    /* \"contracts/TheGame.sol\":1151:1161  _startTime */\n  dup3\n    /* \"contracts/TheGame.sol\":1139:1148  startTime */\n  0x02\n    /* \"contracts/TheGame.sol\":1139:1161  startTime = _startTime */\n  dup2\n  swap1\n  sstore\n  pop\n    /* \"contracts/TheGame.sol\":1185:1197  _betsEndTime */\n  dup2\n    /* \"contracts/TheGame.sol\":1171:1182  betsEndTime */\n  0x03\n    /* \"contracts/TheGame.sol\":1171:1197  betsEndTime = _betsEndTime */\n  dup2\n  swap1\n  sstore\n  pop\n    /* \"contracts/TheGame.sol\":1219:1229  _closeTime */\n  dup1\n    /* \"contracts/TheGame.sol\":1207:1216  closeTime */\n  0x04\n    /* \"contracts/TheGame.sol\":1207:1229  closeTime = _closeTime */\n  dup2\n  swap1\n  sstore\n  pop\n    /* \"contracts/TheGame.sol\":741:1236  constructor(uint256 _startTime, uint256 _betsEndTime, uint256 _closeTime) Owner() {... */\n  pop\n  pop\n  pop\n    /* \"contracts/TheGame.sol\":326:2712  contract TheGame is Owner{... */\n  jump(tag_17)\n    /* \"#utility.yul\":7:150   */\ntag_19:\n    /* \"#utility.yul\":64:69   */\n  0x00\n    /* \"#utility.yul\":95:101   */\n  dup2\n    /* \"#utility.yul\":89:102   */\n  mload\n    /* \"#utility.yul\":80:102   */\n  swap1\n  pop\n    /* \"#utility.yul\":111:144   */\n  tag_21\n    /* \"#utility.yul\":138:143   */\n  dup2\n    /* \"#utility.yul\":111:144   */\n  tag_22\n  jump\t// in\ntag_21:\n    /* \"#utility.yul\":7:150   */\n  swap3\n  swap2\n  pop\n  pop\n  jump\t// out\n    /* \"#utility.yul\":156:819   */\ntag_3:\n    /* \"#utility.yul\":244:250   */\n  0x00\n    /* \"#utility.yul\":252:258   */\n  dup1\n    /* \"#utility.yul\":260:266   */\n  0x00\n    /* \"#utility.yul\":309:311   */\n  0x60\n    /* \"#utility.yul\":297:306   */\n  dup5\n    /* \"#utility.yul\":288:295   */\n  dup7\n    /* \"#utility.yul\":284:307   */\n  sub\n    /* \"#utility.yul\":280:312   */\n  slt\n    /* \"#utility.yul\":277:396   */\n  iszero\n  tag_24\n  jumpi\n    /* \"#utility.yul\":315:394   */\n  tag_25\n  tag_26\n  jump\t// in\ntag_25:\n    /* \"#utility.yul\":277:396   */\ntag_24:\n    /* \"#utility.yul\":435:436   */\n  0x00\n    /* \"#utility.yul\":460:524   */\n  tag_27\n    /* \"#utility.yul\":516:523   */\n  dup7\n    /* \"#utility.yul\":507:513   */\n  dup3\n    /* \"#utility.yul\":496:505   */\n  dup8\n    /* \"#utility.yul\":492:514   */\n  add\n    /* \"#utility.yul\":460:524   */\n  tag_19\n  jump\t// in\ntag_27:\n    /* \"#utility.yul\":450:524   */\n  swap4\n  pop\n    /* \"#utility.yul\":406:534   */\n  pop\n    /* \"#utility.yul\":573:575   */\n  0x20\n    /* \"#utility.yul\":599:663   */\n  tag_28\n    /* \"#utility.yul\":655:662   */\n  dup7\n    /* \"#utility.yul\":646:652   */\n  dup3\n    /* \"#utility.yul\":635:644   */\n  dup8\n    /* \"#utility.yul\":631:653   */\n  add\n    /* \"#utility.yul\":599:663   */\n  tag_19\n  jump\t// in\ntag_28:\n    /* \"#utility.yul\":589:663   */\n  swap3\n  pop\n    /* \"#utility.yul\":544:673   */\n  pop\n    /* \"#utility.yul\":712:714   */\n  0x40\n    /* \"#utility.yul\":738:802   */\n  tag_29\n    /* \"#utility.yul\":794:801   */\n  dup7\n    /* \"#utility.yul\":785:791   */\n  dup3\n    /* \"#utility.yul\":774:783   */\n  dup8\n    /* \"#utility.yul\":770:792   */\n  add\n    /* \"#utility.yul\":738:802   */\n  tag_19\n  jump\t// in\ntag_29:\n    /* \"#utility.yul\":728:802   */\n  swap2\n  pop\n    /* \"#utility.yul\":683:812   */\n  pop\n    /* \"#utility.yul\":156:819   */\n  swap3\n  pop\n  swap3\n  pop\n  swap3\n  jump\t// out\n    /* \"#utility.yul\":825:1191   */\ntag_30:\n    /* \"#utility.yul\":967:970   */\n  0x00\n    /* \"#utility.yul\":988:1055   */\n  tag_32\n    /* \"#utility.yul\":1052:1054   */\n  0x2b\n    /* \"#utility.yul\":1047:1050   */\n  dup4\n    /* \"#utility.yul\":988:1055   */\n  tag_33\n  jump\t// in\ntag_32:\n    /* \"#utility.yul\":981:1055   */\n  swap2\n  pop\n    /* \"#utility.yul\":1064:1157   */\n  tag_34\n    /* \"#utility.yul\":1153:1156   */\n  dup3\n    /* \"#utility.yul\":1064:1157   */\n  tag_35\n  jump\t// in\ntag_34:\n    /* \"#utility.yul\":1182:1184   */\n  0x40\n    /* \"#utility.yul\":1177:1180   */\n  dup3\n    /* \"#utility.yul\":1173:1185   */\n  add\n    /* \"#utility.yul\":1166:1185   */\n  swap1\n  pop\n    /* \"#utility.yul\":825:1191   */\n  swap2\n  swap1\n  pop\n  jump\t// out\n    /* \"#utility.yul\":1197:1563   */\ntag_36:\n    /* \"#utility.yul\":1339:1342   */\n  0x00\n    /* \"#utility.yul\":1360:1427   */\n  tag_38\n    /* \"#utility.yul\":1424:1426   */\n  0x30\n    /* \"#utility.yul\":1419:1422   */\n  dup4\n    /* \"#utility.yul\":1360:1427   */\n  tag_33\n  jump\t// in\ntag_38:\n    /* \"#utility.yul\":1353:1427   */\n  swap2\n  pop\n    /* \"#utility.yul\":1436:1529   */\n  tag_39\n    /* \"#utility.yul\":1525:1528   */\n  dup3\n    /* \"#utility.yul\":1436:1529   */\n  tag_40\n  jump\t// in\ntag_39:\n    /* \"#utility.yul\":1554:1556   */\n  0x40\n    /* \"#utility.yul\":1549:1552   */\n  dup3\n    /* \"#utility.yul\":1545:1557   */\n  add\n    /* \"#utility.yul\":1538:1557   */\n  swap1\n  pop\n    /* \"#utility.yul\":1197:1563   */\n  swap2\n  swap1\n  pop\n  jump\t// out\n    /* \"#utility.yul\":1569:1935   */\ntag_41:\n    /* \"#utility.yul\":1711:1714   */\n  0x00\n    /* \"#utility.yul\":1732:1799   */\n  tag_43\n    /* \"#utility.yul\":1796:1798   */\n  0x1f\n    /* \"#utility.yul\":1791:1794   */\n  dup4\n    /* \"#utility.yul\":1732:1799   */\n  tag_33\n  jump\t// in\ntag_43:\n    /* \"#utility.yul\":1725:1799   */\n  swap2\n  pop\n    /* \"#utility.yul\":1808:1901   */\n  tag_44\n    /* \"#utility.yul\":1897:1900   */\n  dup3\n    /* \"#utility.yul\":1808:1901   */\n  tag_45\n  jump\t// in\ntag_44:\n    /* \"#utility.yul\":1926:1928   */\n  0x20\n    /* \"#utility.yul\":1921:1924   */\n  dup3\n    /* \"#utility.yul\":1917:1929   */\n  add\n    /* \"#utility.yul\":1910:1929   */\n  swap1\n  pop\n    /* \"#utility.yul\":1569:1935   */\n  swap2\n  swap1\n  pop\n  jump\t// out\n    /* \"#utility.yul\":1941:2360   */\ntag_13:\n    /* \"#utility.yul\":2107:2111   */\n  0x00\n    /* \"#utility.yul\":2145:2147   */\n  0x20\n    /* \"#utility.yul\":2134:2143   */\n  dup3\n    /* \"#utility.yul\":2130:2148   */\n  add\n    /* \"#utility.yul\":2122:2148   */\n  swap1\n  pop\n    /* \"#utility.yul\":2194:2203   */\n  dup2\n    /* \"#utility.yul\":2188:2192   */\n  dup2\n    /* \"#utility.yul\":2184:2204   */\n  sub\n    /* \"#utility.yul\":2180:2181   */\n  0x00\n    /* \"#utility.yul\":2169:2178   */\n  dup4\n    /* \"#utility.yul\":2165:2182   */\n  add\n    /* \"#utility.yul\":2158:2205   */\n  mstore\n    /* \"#utility.yul\":2222:2353   */\n  tag_47\n    /* \"#utility.yul\":2348:2352   */\n  dup2\n    /* \"#utility.yul\":2222:2353   */\n  tag_30\n  jump\t// in\ntag_47:\n    /* \"#utility.yul\":2214:2353   */\n  swap1\n  pop\n    /* \"#utility.yul\":1941:2360   */\n  swap2\n  swap1\n  pop\n  jump\t// out\n    /* \"#utility.yul\":2366:2785   */\ntag_16:\n    /* \"#utility.yul\":2532:2536   */\n  0x00\n    /* \"#utility.yul\":2570:2572   */\n  0x20\n    /* \"#utility.yul\":2559:2568   */\n  dup3\n    /* \"#utility.yul\":2555:2573   */\n  add\n    /* \"#utility.yul\":2547:2573   */\n  swap1\n  pop\n    /* \"#utility.yul\":2619:2628   */\n  dup2\n    /* \"#utility.yul\":2613:2617   */\n  dup2\n    /* \"#utility.yul\":2609:2629   */\n  sub\n    /* \"#utility.yul\":2605:2606   */\n  0x00\n    /* \"#utility.yul\":2594:2603   */\n  dup4\n    /* \"#utility.yul\":2590:2607   */\n  add\n    /* \"#utility.yul\":2583:2630   */\n  mstore\n    /* \"#utility.yul\":2647:2778   */\n  tag_49\n    /* \"#utility.yul\":2773:2777   */\n  dup2\n    /* \"#utility.yul\":2647:2778   */\n  tag_36\n  jump\t// in\ntag_49:\n    /* \"#utility.yul\":2639:2778   */\n  swap1\n  pop\n    /* \"#utility.yul\":2366:2785   */\n  swap2\n  swap1\n  pop\n  jump\t// out\n    /* \"#utility.yul\":2791:3210   */\ntag_10:\n    /* \"#utility.yul\":2957:2961   */\n  0x00\n    /* \"#utility.yul\":2995:2997   */\n  0x20\n    /* \"#utility.yul\":2984:2993   */\n  dup3\n    /* \"#utility.yul\":2980:2998   */\n  add\n    /* \"#utility.yul\":2972:2998   */\n  swap1\n  pop\n    /* \"#utility.yul\":3044:3053   */\n  dup2\n    /* \"#utility.yul\":3038:3042   */\n  dup2\n    /* \"#utility.yul\":3034:3054   */\n  sub\n    /* \"#utility.yul\":3030:3031   */\n  0x00\n    /* \"#utility.yul\":3019:3028   */\n  dup4\n    /* \"#utility.yul\":3015:3032   */\n  add\n    /* \"#utility.yul\":3008:3055   */\n  mstore\n    /* \"#utility.yul\":3072:3203   */\n  tag_51\n    /* \"#utility.yul\":3198:3202   */\n  dup2\n    /* \"#utility.yul\":3072:3203   */\n  tag_41\n  jump\t// in\ntag_51:\n    /* \"#utility.yul\":3064:3203   */\n  swap1\n  pop\n    /* \"#utility.yul\":2791:3210   */\n  swap2\n  swap1\n  pop\n  jump\t// out\n    /* \"#utility.yul\":3297:3466   */\ntag_33:\n    /* \"#utility.yul\":3381:3392   */\n  0x00\n    /* \"#utility.yul\":3415:3421   */\n  dup3\n    /* \"#utility.yul\":3410:3413   */\n  dup3\n    /* \"#utility.yul\":3403:3422   */\n  mstore\n    /* \"#utility.yul\":3455:3459   */\n  0x20\n    /* \"#utility.yul\":3450:3453   */\n  dup3\n    /* \"#utility.yul\":3446:3460   */\n  add\n    /* \"#utility.yul\":3431:3460   */\n  swap1\n  pop\n    /* \"#utility.yul\":3297:3466   */\n  swap3\n  swap2\n  pop\n  pop\n  jump\t// out\n    /* \"#utility.yul\":3472:3549   */\ntag_55:\n    /* \"#utility.yul\":3509:3516   */\n  0x00\n    /* \"#utility.yul\":3538:3543   */\n  dup2\n    /* \"#utility.yul\":3527:3543   */\n  swap1\n  pop\n    /* \"#utility.yul\":3472:3549   */\n  swap2\n  swap1\n  pop\n  jump\t// out\n    /* \"#utility.yul\":3678:3795   */\ntag_26:\n    /* \"#utility.yul\":3787:3788   */\n  0x00\n    /* \"#utility.yul\":3784:3785   */\n  dup1\n    /* \"#utility.yul\":3777:3789   */\n  revert\n    /* \"#utility.yul\":3801:4031   */\ntag_35:\n    /* \"#utility.yul\":3941:3975   */\n  0x4265747320636c6f73652074696d65206861766520746f206265206166746572\n    /* \"#utility.yul\":3937:3938   */\n  0x00\n    /* \"#utility.yul\":3929:3935   */\n  dup3\n    /* \"#utility.yul\":3925:3939   */\n  add\n    /* \"#utility.yul\":3918:3976   */\n  mstore\n    /* \"#utility.yul\":4010:4023   */\n  0x2073746172742074696d65000000000000000000000000000000000000000000\n    /* \"#utility.yul\":4005:4007   */\n  0x20\n    /* \"#utility.yul\":3997:4003   */\n  dup3\n    /* \"#utility.yul\":3993:4008   */\n  add\n    /* \"#utility.yul\":3986:4024   */\n  mstore\n    /* \"#utility.yul\":3801:4031   */\n  pop\n  jump\t// out\n    /* \"#utility.yul\":4037:4272   */\ntag_40:\n    /* \"#utility.yul\":4177:4211   */\n  0x47616d6520636c6f73652074696d65206861766520746f206265206166746572\n    /* \"#utility.yul\":4173:4174   */\n  0x00\n    /* \"#utility.yul\":4165:4171   */\n  dup3\n    /* \"#utility.yul\":4161:4175   */\n  add\n    /* \"#utility.yul\":4154:4212   */\n  mstore\n    /* \"#utility.yul\":4246:4264   */\n  0x206265747320636c6f73652074696d6500000000000000000000000000000000\n    /* \"#utility.yul\":4241:4243   */\n  0x20\n    /* \"#utility.yul\":4233:4239   */\n  dup3\n    /* \"#utility.yul\":4229:4244   */\n  add\n    /* \"#utility.yul\":4222:4265   */\n  mstore\n    /* \"#utility.yul\":4037:4272   */\n  pop\n  jump\t// out\n    /* \"#utility.yul\":4278:4459   */\ntag_45:\n    /* \"#utility.yul\":4418:4451   */\n  0x426574206861766520746f20626567696e20696e207468652066757475726500\n    /* \"#utility.yul\":4414:4415   */\n  0x00\n    /* \"#utility.yul\":4406:4412   */\n  dup3\n    /* \"#utility.yul\":4402:4416   */\n  add\n    /* \"#utility.yul\":4395:4452   */\n  mstore\n    /* \"#utility.yul\":4278:4459   */\n  pop\n  jump\t// out\n    /* \"#utility.yul\":4465:4587   */\ntag_22:\n    /* \"#utility.yul\":4538:4562   */\n  tag_64\n    /* \"#utility.yul\":4556:4561   */\n  dup2\n    /* \"#utility.yul\":4538:4562   */\n  tag_55\n  jump\t// in\ntag_64:\n    /* \"#utility.yul\":4531:4536   */\n  dup2\n    /* \"#utility.yul\":4528:4563   */\n  eq\n    /* \"#utility.yul\":4518:4581   */\n  tag_65\n  jumpi\n    /* \"#utility.yul\":4577:4578   */\n  0x00\n    /* \"#utility.yul\":4574:4575   */\n  dup1\n    /* \"#utility.yul\":4567:4579   */\n  revert\n    /* \"#utility.yul\":4518:4581   */\ntag_65:\n    /* \"#utility.yul\":4465:4587   */\n  pop\n  jump\t// out\n    /* \"contracts/TheGame.sol\":326:2712  contract TheGame is Owner{... */\ntag_17:\n  dataSize(sub_0)\n  dup1\n  dataOffset(sub_0)\n  0x00\n  codecopy\n  0x00\n  return\nstop\n\nsub_0: assembly {\n        /* \"contracts/TheGame.sol\":326:2712  contract TheGame is Owner{... */\n      mstore(0x40, 0x80)\n      jumpi(tag_1, lt(calldatasize, 0x04))\n      shr(0xe0, calldataload(0x00))\n      dup1\n      0xa6f9dae1\n      gt\n      tag_11\n      jumpi\n      dup1\n      0xa6f9dae1\n      eq\n      tag_6\n      jumpi\n      dup1\n      0xb9d76da9\n      eq\n      tag_7\n      jumpi\n      dup1\n      0xc828371e\n      eq\n      tag_8\n      jumpi\n      dup1\n      0xf2c3e469\n      eq\n      tag_9\n      jumpi\n      dup1\n      0xfadeaf76\n      eq\n      tag_10\n      jumpi\n      jump(tag_1)\n    tag_11:\n      dup1\n      0x1865c57d\n      eq\n      tag_2\n      jumpi\n      dup1\n      0x35644c7b\n      eq\n      tag_3\n      jumpi\n      dup1\n      0x893d20e8\n      eq\n      tag_4\n      jumpi\n      dup1\n      0x8ea36d47\n      eq\n      tag_5\n      jumpi\n    tag_1:\n      0x00\n      dup1\n      revert\n        /* \"contracts/TheGame.sol\":1525:1947  function getState() public view returns(GameState) {... */\n    tag_2:\n      callvalue\n      dup1\n      iszero\n      tag_12\n      jumpi\n      0x00\n      dup1\n      revert\n    tag_12:\n      pop\n      tag_13\n      tag_14\n      jump\t// in\n    tag_13:\n      mload(0x40)\n      tag_15\n      swap2\n      swap1\n      tag_16\n      jump\t// in\n    tag_15:\n      mload(0x40)\n      dup1\n      swap2\n      sub\n      swap1\n      return\n        /* \"contracts/TheGame.sol\":2380:2710  function takeABet(BetTakenFor option) public payable returns(uint256){... */\n    tag_3:\n      tag_17\n      0x04\n      dup1\n      calldatasize\n      sub\n      dup2\n      add\n      swap1\n      tag_18\n      swap2\n      swap1\n      tag_19\n      jump\t// in\n    tag_18:\n      tag_20\n      jump\t// in\n    tag_17:\n      mload(0x40)\n      tag_21\n      swap2\n      swap1\n      tag_22\n      jump\t// in\n    tag_21:\n      mload(0x40)\n      dup1\n      swap2\n      sub\n      swap1\n      return\n        /* \"contracts/Owner.sol\":1262:1343  function getOwner() external view returns (address) {... */\n    tag_4:\n      callvalue\n      dup1\n      iszero\n      tag_23\n      jumpi\n      0x00\n      dup1\n      revert\n    tag_23:\n      pop\n      tag_24\n      tag_25\n      jump\t// in\n    tag_24:\n      mload(0x40)\n      tag_26\n      swap2\n      swap1\n      tag_27\n      jump\t// in\n    tag_26:\n      mload(0x40)\n      dup1\n      swap2\n      sub\n      swap1\n      return\n        /* \"contracts/TheGame.sol\":1335:1426  function getBetsEndTime() public view returns(uint256) {... */\n    tag_5:\n      callvalue\n      dup1\n      iszero\n      tag_28\n      jumpi\n      0x00\n      dup1\n      revert\n    tag_28:\n      pop\n      tag_29\n      tag_30\n      jump\t// in\n    tag_29:\n      mload(0x40)\n      tag_31\n      swap2\n      swap1\n      tag_22\n      jump\t// in\n    tag_31:\n      mload(0x40)\n      dup1\n      swap2\n      sub\n      swap1\n      return\n        /* \"contracts/Owner.sol\":1047:1174  function changeOwner(address newOwner) public isOwner {... */\n    tag_6:\n      callvalue\n      dup1\n      iszero\n      tag_32\n      jumpi\n      0x00\n      dup1\n      revert\n    tag_32:\n      pop\n      tag_33\n      0x04\n      dup1\n      calldatasize\n      sub\n      dup2\n      add\n      swap1\n      tag_34\n      swap2\n      swap1\n      tag_35\n      jump\t// in\n    tag_34:\n      tag_36\n      jump\t// in\n    tag_33:\n      stop\n        /* \"contracts/TheGame.sol\":2027:2159  function updateOddsA(uint256 odds) public isOwner returns(uint256) {... */\n    tag_7:\n      callvalue\n      dup1\n      iszero\n      tag_37\n      jumpi\n      0x00\n      dup1\n      revert\n    tag_37:\n      pop\n      tag_38\n      0x04\n      dup1\n      calldatasize\n      sub\n      dup2\n      add\n      swap1\n      tag_39\n      swap2\n      swap1\n      tag_40\n      jump\t// in\n    tag_39:\n      tag_41\n      jump\t// in\n    tag_38:\n      mload(0x40)\n      tag_42\n      swap2\n      swap1\n      tag_22\n      jump\t// in\n    tag_42:\n      mload(0x40)\n      dup1\n      swap2\n      sub\n      swap1\n      return\n        /* \"contracts/TheGame.sol\":1242:1329  function getStartTime() public view returns(uint256) {... */\n    tag_8:\n      callvalue\n      dup1\n      iszero\n      tag_43\n      jumpi\n      0x00\n      dup1\n      revert\n    tag_43:\n      pop\n      tag_44\n      tag_45\n      jump\t// in\n    tag_44:\n      mload(0x40)\n      tag_46\n      swap2\n      swap1\n      tag_22\n      jump\t// in\n    tag_46:\n      mload(0x40)\n      dup1\n      swap2\n      sub\n      swap1\n      return\n        /* \"contracts/TheGame.sol\":2169:2301  function updateOddsB(uint256 odds) public isOwner returns(uint256) {... */\n    tag_9:\n      callvalue\n      dup1\n      iszero\n      tag_47\n      jumpi\n      0x00\n      dup1\n      revert\n    tag_47:\n      pop\n      tag_48\n      0x04\n      dup1\n      calldatasize\n      sub\n      dup2\n      add\n      swap1\n      tag_49\n      swap2\n      swap1\n      tag_40\n      jump\t// in\n    tag_49:\n      tag_50\n      jump\t// in\n    tag_48:\n      mload(0x40)\n      tag_51\n      swap2\n      swap1\n      tag_22\n      jump\t// in\n    tag_51:\n      mload(0x40)\n      dup1\n      swap2\n      sub\n      swap1\n      return\n        /* \"contracts/TheGame.sol\":1432:1519  function getCloseTime() public view returns(uint256) {... */\n    tag_10:\n      callvalue\n      dup1\n      iszero\n      tag_52\n      jumpi\n      0x00\n      dup1\n      revert\n    tag_52:\n      pop\n      tag_53\n      tag_54\n      jump\t// in\n    tag_53:\n      mload(0x40)\n      tag_55\n      swap2\n      swap1\n      tag_22\n      jump\t// in\n    tag_55:\n      mload(0x40)\n      dup1\n      swap2\n      sub\n      swap1\n      return\n        /* \"contracts/TheGame.sol\":1525:1947  function getState() public view returns(GameState) {... */\n    tag_14:\n        /* \"contracts/TheGame.sol\":1565:1574  GameState */\n      0x00\n        /* \"contracts/TheGame.sol\":1586:1596  uint256 ts */\n      dup1\n        /* \"contracts/TheGame.sol\":1599:1614  block.timestamp */\n      timestamp\n        /* \"contracts/TheGame.sol\":1586:1614  uint256 ts = block.timestamp */\n      swap1\n      pop\n        /* \"contracts/TheGame.sol\":1633:1642  startTime */\n      sload(0x02)\n        /* \"contracts/TheGame.sol\":1628:1630  ts */\n      dup2\n        /* \"contracts/TheGame.sol\":1628:1642  ts < startTime */\n      lt\n        /* \"contracts/TheGame.sol\":1624:1940  if (ts < startTime)... */\n      iszero\n      tag_57\n      jumpi\n        /* \"contracts/TheGame.sol\":1663:1680  GameState.CREATED */\n      0x00\n        /* \"contracts/TheGame.sol\":1656:1680  return GameState.CREATED */\n      swap2\n      pop\n      pop\n      jump(tag_56)\n        /* \"contracts/TheGame.sol\":1624:1940  if (ts < startTime)... */\n    tag_57:\n        /* \"contracts/TheGame.sol\":1712:1714  ts */\n      dup1\n        /* \"contracts/TheGame.sol\":1699:1708  startTime */\n      sload(0x02)\n        /* \"contracts/TheGame.sol\":1699:1714  startTime <= ts */\n      gt\n      iszero\n        /* \"contracts/TheGame.sol\":1699:1734  startTime <= ts && ts < betsEndTime */\n      dup1\n      iszero\n      tag_59\n      jumpi\n      pop\n        /* \"contracts/TheGame.sol\":1723:1734  betsEndTime */\n      sload(0x03)\n        /* \"contracts/TheGame.sol\":1718:1720  ts */\n      dup2\n        /* \"contracts/TheGame.sol\":1718:1734  ts < betsEndTime */\n      lt\n        /* \"contracts/TheGame.sol\":1699:1734  startTime <= ts && ts < betsEndTime */\n    tag_59:\n        /* \"contracts/TheGame.sol\":1695:1940  if (startTime <= ts && ts < betsEndTime)... */\n      iszero\n      tag_60\n      jumpi\n        /* \"contracts/TheGame.sol\":1755:1769  GameState.OPEN */\n      0x01\n        /* \"contracts/TheGame.sol\":1748:1769  return GameState.OPEN */\n      swap2\n      pop\n      pop\n      jump(tag_56)\n        /* \"contracts/TheGame.sol\":1695:1940  if (startTime <= ts && ts < betsEndTime)... */\n    tag_60:\n        /* \"contracts/TheGame.sol\":1803:1805  ts */\n      dup1\n        /* \"contracts/TheGame.sol\":1788:1799  betsEndTime */\n      sload(0x03)\n        /* \"contracts/TheGame.sol\":1788:1805  betsEndTime <= ts */\n      gt\n      iszero\n        /* \"contracts/TheGame.sol\":1788:1823  betsEndTime <= ts && ts < closeTime */\n      dup1\n      iszero\n      tag_62\n      jumpi\n      pop\n        /* \"contracts/TheGame.sol\":1814:1823  closeTime */\n      sload(0x04)\n        /* \"contracts/TheGame.sol\":1809:1811  ts */\n      dup2\n        /* \"contracts/TheGame.sol\":1809:1823  ts < closeTime */\n      lt\n        /* \"contracts/TheGame.sol\":1788:1823  betsEndTime <= ts && ts < closeTime */\n    tag_62:\n        /* \"contracts/TheGame.sol\":1784:1940  if (betsEndTime <= ts && ts < closeTime)... */\n      iszero\n      tag_63\n      jumpi\n        /* \"contracts/TheGame.sol\":1844:1865  GameState.BETS_CLOSED */\n      0x02\n        /* \"contracts/TheGame.sol\":1837:1865  return GameState.BETS_CLOSED */\n      swap2\n      pop\n      pop\n      jump(tag_56)\n        /* \"contracts/TheGame.sol\":1784:1940  if (betsEndTime <= ts && ts < closeTime)... */\n    tag_63:\n        /* \"contracts/TheGame.sol\":1922:1940  GameState.FINISHED */\n      0x03\n        /* \"contracts/TheGame.sol\":1915:1940  return GameState.FINISHED */\n      swap2\n      pop\n      pop\n        /* \"contracts/TheGame.sol\":1525:1947  function getState() public view returns(GameState) {... */\n    tag_56:\n      swap1\n      jump\t// out\n        /* \"contracts/TheGame.sol\":2380:2710  function takeABet(BetTakenFor option) public payable returns(uint256){... */\n    tag_20:\n        /* \"contracts/TheGame.sol\":2441:2448  uint256 */\n      0x00\n        /* \"contracts/TheGame.sol\":2508:2522  Bet memory bet */\n      dup1\n        /* \"contracts/TheGame.sol\":2525:2587  Bet(msg.sender, currentOddsA, currentOddsB, option, msg.value) */\n      mload(0x40)\n      dup1\n      0xa0\n      add\n      0x40\n      mstore\n      dup1\n        /* \"contracts/TheGame.sol\":2529:2539  msg.sender */\n      caller\n        /* \"contracts/TheGame.sol\":2525:2587  Bet(msg.sender, currentOddsA, currentOddsB, option, msg.value) */\n      0xffffffffffffffffffffffffffffffffffffffff\n      and\n      dup2\n      mstore\n      0x20\n      add\n        /* \"contracts/TheGame.sol\":2541:2553  currentOddsA */\n      sload(0x05)\n        /* \"contracts/TheGame.sol\":2525:2587  Bet(msg.sender, currentOddsA, currentOddsB, option, msg.value) */\n      dup2\n      mstore\n      0x20\n      add\n        /* \"contracts/TheGame.sol\":2555:2567  currentOddsB */\n      sload(0x06)\n        /* \"contracts/TheGame.sol\":2525:2587  Bet(msg.sender, currentOddsA, currentOddsB, option, msg.value) */\n      dup2\n      mstore\n      0x20\n      add\n        /* \"contracts/TheGame.sol\":2569:2575  option */\n      dup5\n        /* \"contracts/TheGame.sol\":2525:2587  Bet(msg.sender, currentOddsA, currentOddsB, option, msg.value) */\n      0x01\n      dup2\n      gt\n      iszero\n      tag_66\n      jumpi\n      tag_67\n      tag_68\n      jump\t// in\n    tag_67:\n    tag_66:\n      dup2\n      mstore\n      0x20\n      add\n        /* \"contracts/TheGame.sol\":2577:2586  msg.value */\n      callvalue\n        /* \"contracts/TheGame.sol\":2525:2587  Bet(msg.sender, currentOddsA, currentOddsB, option, msg.value) */\n      dup2\n      mstore\n      pop\n        /* \"contracts/TheGame.sol\":2508:2587  Bet memory bet = Bet(msg.sender, currentOddsA, currentOddsB, option, msg.value) */\n      swap1\n      pop\n        /* \"contracts/TheGame.sol\":2597:2601  bets */\n      0x07\n        /* \"contracts/TheGame.sol\":2607:2610  bet */\n      dup2\n        /* \"contracts/TheGame.sol\":2597:2611  bets.push(bet) */\n      swap1\n      dup1\n      0x01\n      dup2\n      sload\n      add\n      dup1\n      dup3\n      sstore\n      dup1\n      swap2\n      pop\n      pop\n      0x01\n      swap1\n      sub\n      swap1\n      0x00\n      mstore\n      keccak256(0x00, 0x20)\n      swap1\n      0x05\n      mul\n      add\n      0x00\n      swap1\n      swap2\n      swap1\n      swap2\n      swap1\n      swap2\n      pop\n      0x00\n      dup3\n      add\n      mload\n      dup2\n      0x00\n      add\n      exp(0x0100, 0x00)\n      dup2\n      sload\n      dup2\n      0xffffffffffffffffffffffffffffffffffffffff\n      mul\n      not\n      and\n      swap1\n      dup4\n      0xffffffffffffffffffffffffffffffffffffffff\n      and\n      mul\n      or\n      swap1\n      sstore\n      pop\n      0x20\n      dup3\n      add\n      mload\n      dup2\n      0x01\n      add\n      sstore\n      0x40\n      dup3\n      add\n      mload\n      dup2\n      0x02\n      add\n      sstore\n      0x60\n      dup3\n      add\n      mload\n      dup2\n      0x03\n      add\n      exp(0x0100, 0x00)\n      dup2\n      sload\n      dup2\n      0xff\n      mul\n      not\n      and\n      swap1\n      dup4\n      0x01\n      dup2\n      gt\n      iszero\n      tag_70\n      jumpi\n      tag_71\n      tag_68\n      jump\t// in\n    tag_71:\n    tag_70:\n      mul\n      or\n      swap1\n      sstore\n      pop\n      0x80\n      dup3\n      add\n      mload\n      dup2\n      0x04\n      add\n      sstore\n      pop\n      pop\n        /* \"contracts/TheGame.sol\":2659:2662  bet */\n      dup1\n        /* \"contracts/TheGame.sol\":2659:2674  bet.betTakenFor */\n      0x60\n      add\n      mload\n        /* \"contracts/TheGame.sol\":2626:2675  BetTaken(bet.player, bet.amount, bet.betTakenFor) */\n      0x01\n      dup2\n      gt\n      iszero\n      tag_72\n      jumpi\n      tag_73\n      tag_68\n      jump\t// in\n    tag_73:\n    tag_72:\n        /* \"contracts/TheGame.sol\":2647:2650  bet */\n      dup2\n        /* \"contracts/TheGame.sol\":2647:2657  bet.amount */\n      0x80\n      add\n      mload\n        /* \"contracts/TheGame.sol\":2635:2638  bet */\n      dup3\n        /* \"contracts/TheGame.sol\":2635:2645  bet.player */\n      0x00\n      add\n      mload\n        /* \"contracts/TheGame.sol\":2626:2675  BetTaken(bet.player, bet.amount, bet.betTakenFor) */\n      0xffffffffffffffffffffffffffffffffffffffff\n      and\n      0xd0ec3d0f31fea1291096288253382fdc9811dcf678e1e7628eb851cef2ba0a11\n      mload(0x40)\n      mload(0x40)\n      dup1\n      swap2\n      sub\n      swap1\n      log4\n        /* \"contracts/TheGame.sol\":2692:2696  bets */\n      0x07\n        /* \"contracts/TheGame.sol\":2692:2703  bets.length */\n      dup1\n      sload\n      swap1\n      pop\n        /* \"contracts/TheGame.sol\":2685:2703  return bets.length */\n      swap2\n      pop\n      pop\n        /* \"contracts/TheGame.sol\":2380:2710  function takeABet(BetTakenFor option) public payable returns(uint256){... */\n      swap2\n      swap1\n      pop\n      jump\t// out\n        /* \"contracts/Owner.sol\":1262:1343  function getOwner() external view returns (address) {... */\n    tag_25:\n        /* \"contracts/Owner.sol\":1305:1312  address */\n      0x00\n        /* \"contracts/Owner.sol\":1331:1336  owner */\n      dup1\n      0x00\n      swap1\n      sload\n      swap1\n      0x0100\n      exp\n      swap1\n      div\n      0xffffffffffffffffffffffffffffffffffffffff\n      and\n        /* \"contracts/Owner.sol\":1324:1336  return owner */\n      swap1\n      pop\n        /* \"contracts/Owner.sol\":1262:1343  function getOwner() external view returns (address) {... */\n      swap1\n      jump\t// out\n        /* \"contracts/TheGame.sol\":1335:1426  function getBetsEndTime() public view returns(uint256) {... */\n    tag_30:\n        /* \"contracts/TheGame.sol\":1381:1388  uint256 */\n      0x00\n        /* \"contracts/TheGame.sol\":1408:1419  betsEndTime */\n      sload(0x03)\n        /* \"contracts/TheGame.sol\":1401:1419  return betsEndTime */\n      swap1\n      pop\n        /* \"contracts/TheGame.sol\":1335:1426  function getBetsEndTime() public view returns(uint256) {... */\n      swap1\n      jump\t// out\n        /* \"contracts/Owner.sol\":1047:1174  function changeOwner(address newOwner) public isOwner {... */\n    tag_36:\n        /* \"contracts/Owner.sol\":807:812  owner */\n      0x00\n      dup1\n      sload\n      swap1\n      0x0100\n      exp\n      swap1\n      div\n      0xffffffffffffffffffffffffffffffffffffffff\n      and\n        /* \"contracts/Owner.sol\":793:812  msg.sender == owner */\n      0xffffffffffffffffffffffffffffffffffffffff\n      and\n        /* \"contracts/Owner.sol\":793:803  msg.sender */\n      caller\n        /* \"contracts/Owner.sol\":793:812  msg.sender == owner */\n      0xffffffffffffffffffffffffffffffffffffffff\n      and\n      eq\n        /* \"contracts/Owner.sol\":785:836  require(msg.sender == owner, \"Caller is not owner\") */\n      tag_77\n      jumpi\n      mload(0x40)\n      0x08c379a000000000000000000000000000000000000000000000000000000000\n      dup2\n      mstore\n      0x04\n      add\n      tag_78\n      swap1\n      tag_79\n      jump\t// in\n    tag_78:\n      mload(0x40)\n      dup1\n      swap2\n      sub\n      swap1\n      revert\n    tag_77:\n        /* \"contracts/Owner.sol\":1132:1140  newOwner */\n      dup1\n        /* \"contracts/Owner.sol\":1116:1141  OwnerSet(owner, newOwner) */\n      0xffffffffffffffffffffffffffffffffffffffff\n      and\n        /* \"contracts/Owner.sol\":1125:1130  owner */\n      0x00\n      dup1\n      sload\n      swap1\n      0x0100\n      exp\n      swap1\n      div\n      0xffffffffffffffffffffffffffffffffffffffff\n      and\n        /* \"contracts/Owner.sol\":1116:1141  OwnerSet(owner, newOwner) */\n      0xffffffffffffffffffffffffffffffffffffffff\n      and\n      0x342827c97908e5e2f71151c08502a66d44b6f758e3ac2f1de95f02eb95f0a735\n      mload(0x40)\n      mload(0x40)\n      dup1\n      swap2\n      sub\n      swap1\n      log3\n        /* \"contracts/Owner.sol\":1159:1167  newOwner */\n      dup1\n        /* \"contracts/Owner.sol\":1151:1156  owner */\n      0x00\n      dup1\n        /* \"contracts/Owner.sol\":1151:1167  owner = newOwner */\n      0x0100\n      exp\n      dup2\n      sload\n      dup2\n      0xffffffffffffffffffffffffffffffffffffffff\n      mul\n      not\n      and\n      swap1\n      dup4\n      0xffffffffffffffffffffffffffffffffffffffff\n      and\n      mul\n      or\n      swap1\n      sstore\n      pop\n        /* \"contracts/Owner.sol\":1047:1174  function changeOwner(address newOwner) public isOwner {... */\n      pop\n      jump\t// out\n        /* \"contracts/TheGame.sol\":2027:2159  function updateOddsA(uint256 odds) public isOwner returns(uint256) {... */\n    tag_41:\n        /* \"contracts/TheGame.sol\":2085:2092  uint256 */\n      0x00\n        /* \"contracts/Owner.sol\":807:812  owner */\n      dup1\n      0x00\n      swap1\n      sload\n      swap1\n      0x0100\n      exp\n      swap1\n      div\n      0xffffffffffffffffffffffffffffffffffffffff\n      and\n        /* \"contracts/Owner.sol\":793:812  msg.sender == owner */\n      0xffffffffffffffffffffffffffffffffffffffff\n      and\n        /* \"contracts/Owner.sol\":793:803  msg.sender */\n      caller\n        /* \"contracts/Owner.sol\":793:812  msg.sender == owner */\n      0xffffffffffffffffffffffffffffffffffffffff\n      and\n      eq\n        /* \"contracts/Owner.sol\":785:836  require(msg.sender == owner, \"Caller is not owner\") */\n      tag_82\n      jumpi\n      mload(0x40)\n      0x08c379a000000000000000000000000000000000000000000000000000000000\n      dup2\n      mstore\n      0x04\n      add\n      tag_83\n      swap1\n      tag_79\n      jump\t// in\n    tag_83:\n      mload(0x40)\n      dup1\n      swap2\n      sub\n      swap1\n      revert\n    tag_82:\n        /* \"contracts/TheGame.sol\":2119:2123  odds */\n      dup2\n        /* \"contracts/TheGame.sol\":2104:2116  currentOddsA */\n      0x05\n        /* \"contracts/TheGame.sol\":2104:2123  currentOddsA = odds */\n      dup2\n      swap1\n      sstore\n      pop\n        /* \"contracts/TheGame.sol\":2140:2152  currentOddsA */\n      sload(0x05)\n        /* \"contracts/TheGame.sol\":2133:2152  return currentOddsA */\n      swap1\n      pop\n        /* \"contracts/TheGame.sol\":2027:2159  function updateOddsA(uint256 odds) public isOwner returns(uint256) {... */\n      swap2\n      swap1\n      pop\n      jump\t// out\n        /* \"contracts/TheGame.sol\":1242:1329  function getStartTime() public view returns(uint256) {... */\n    tag_45:\n        /* \"contracts/TheGame.sol\":1286:1293  uint256 */\n      0x00\n        /* \"contracts/TheGame.sol\":1313:1322  startTime */\n      sload(0x02)\n        /* \"contracts/TheGame.sol\":1306:1322  return startTime */\n      swap1\n      pop\n        /* \"contracts/TheGame.sol\":1242:1329  function getStartTime() public view returns(uint256) {... */\n      swap1\n      jump\t// out\n        /* \"contracts/TheGame.sol\":2169:2301  function updateOddsB(uint256 odds) public isOwner returns(uint256) {... */\n    tag_50:\n        /* \"contracts/TheGame.sol\":2227:2234  uint256 */\n      0x00\n        /* \"contracts/Owner.sol\":807:812  owner */\n      dup1\n      0x00\n      swap1\n      sload\n      swap1\n      0x0100\n      exp\n      swap1\n      div\n      0xffffffffffffffffffffffffffffffffffffffff\n      and\n        /* \"contracts/Owner.sol\":793:812  msg.sender == owner */\n      0xffffffffffffffffffffffffffffffffffffffff\n      and\n        /* \"contracts/Owner.sol\":793:803  msg.sender */\n      caller\n        /* \"contracts/Owner.sol\":793:812  msg.sender == owner */\n      0xffffffffffffffffffffffffffffffffffffffff\n      and\n      eq\n        /* \"contracts/Owner.sol\":785:836  require(msg.sender == owner, \"Caller is not owner\") */\n      tag_87\n      jumpi\n      mload(0x40)\n      0x08c379a000000000000000000000000000000000000000000000000000000000\n      dup2\n      mstore\n      0x04\n      add\n      tag_88\n      swap1\n      tag_79\n      jump\t// in\n    tag_88:\n      mload(0x40)\n      dup1\n      swap2\n      sub\n      swap1\n      revert\n    tag_87:\n        /* \"contracts/TheGame.sol\":2261:2265  odds */\n      dup2\n        /* \"contracts/TheGame.sol\":2246:2258  currentOddsB */\n      0x06\n        /* \"contracts/TheGame.sol\":2246:2265  currentOddsB = odds */\n      dup2\n      swap1\n      sstore\n      pop\n        /* \"contracts/TheGame.sol\":2282:2294  currentOddsB */\n      sload(0x06)\n        /* \"contracts/TheGame.sol\":2275:2294  return currentOddsB */\n      swap1\n      pop\n        /* \"contracts/TheGame.sol\":2169:2301  function updateOddsB(uint256 odds) public isOwner returns(uint256) {... */\n      swap2\n      swap1\n      pop\n      jump\t// out\n        /* \"contracts/TheGame.sol\":1432:1519  function getCloseTime() public view returns(uint256) {... */\n    tag_54:\n        /* \"contracts/TheGame.sol\":1476:1483  uint256 */\n      0x00\n        /* \"contracts/TheGame.sol\":1503:1512  closeTime */\n      sload(0x04)\n        /* \"contracts/TheGame.sol\":1496:1512  return closeTime */\n      swap1\n      pop\n        /* \"contracts/TheGame.sol\":1432:1519  function getCloseTime() public view returns(uint256) {... */\n      swap1\n      jump\t// out\n        /* \"#utility.yul\":7:146   */\n    tag_92:\n        /* \"#utility.yul\":53:58   */\n      0x00\n        /* \"#utility.yul\":91:97   */\n      dup2\n        /* \"#utility.yul\":78:98   */\n      calldataload\n        /* \"#utility.yul\":69:98   */\n      swap1\n      pop\n        /* \"#utility.yul\":107:140   */\n      tag_94\n        /* \"#utility.yul\":134:139   */\n      dup2\n        /* \"#utility.yul\":107:140   */\n      tag_95\n      jump\t// in\n    tag_94:\n        /* \"#utility.yul\":7:146   */\n      swap3\n      swap2\n      pop\n      pop\n      jump\t// out\n        /* \"#utility.yul\":152:319   */\n    tag_96:\n        /* \"#utility.yul\":212:217   */\n      0x00\n        /* \"#utility.yul\":250:256   */\n      dup2\n        /* \"#utility.yul\":237:257   */\n      calldataload\n        /* \"#utility.yul\":228:257   */\n      swap1\n      pop\n        /* \"#utility.yul\":266:313   */\n      tag_98\n        /* \"#utility.yul\":307:312   */\n      dup2\n        /* \"#utility.yul\":266:313   */\n      tag_99\n      jump\t// in\n    tag_98:\n        /* \"#utility.yul\":152:319   */\n      swap3\n      swap2\n      pop\n      pop\n      jump\t// out\n        /* \"#utility.yul\":325:464   */\n    tag_100:\n        /* \"#utility.yul\":371:376   */\n      0x00\n        /* \"#utility.yul\":409:415   */\n      dup2\n        /* \"#utility.yul\":396:416   */\n      calldataload\n        /* \"#utility.yul\":387:416   */\n      swap1\n      pop\n        /* \"#utility.yul\":425:458   */\n      tag_102\n        /* \"#utility.yul\":452:457   */\n      dup2\n        /* \"#utility.yul\":425:458   */\n      tag_103\n      jump\t// in\n    tag_102:\n        /* \"#utility.yul\":325:464   */\n      swap3\n      swap2\n      pop\n      pop\n      jump\t// out\n        /* \"#utility.yul\":470:799   */\n    tag_35:\n        /* \"#utility.yul\":529:535   */\n      0x00\n        /* \"#utility.yul\":578:580   */\n      0x20\n        /* \"#utility.yul\":566:575   */\n      dup3\n        /* \"#utility.yul\":557:564   */\n      dup5\n        /* \"#utility.yul\":553:576   */\n      sub\n        /* \"#utility.yul\":549:581   */\n      slt\n        /* \"#utility.yul\":546:665   */\n      iszero\n      tag_105\n      jumpi\n        /* \"#utility.yul\":584:663   */\n      tag_106\n      tag_107\n      jump\t// in\n    tag_106:\n        /* \"#utility.yul\":546:665   */\n    tag_105:\n        /* \"#utility.yul\":704:705   */\n      0x00\n        /* \"#utility.yul\":729:782   */\n      tag_108\n        /* \"#utility.yul\":774:781   */\n      dup5\n        /* \"#utility.yul\":765:771   */\n      dup3\n        /* \"#utility.yul\":754:763   */\n      dup6\n        /* \"#utility.yul\":750:772   */\n      add\n        /* \"#utility.yul\":729:782   */\n      tag_92\n      jump\t// in\n    tag_108:\n        /* \"#utility.yul\":719:782   */\n      swap2\n      pop\n        /* \"#utility.yul\":675:792   */\n      pop\n        /* \"#utility.yul\":470:799   */\n      swap3\n      swap2\n      pop\n      pop\n      jump\t// out\n        /* \"#utility.yul\":805:1162   */\n    tag_19:\n        /* \"#utility.yul\":878:884   */\n      0x00\n        /* \"#utility.yul\":927:929   */\n      0x20\n        /* \"#utility.yul\":915:924   */\n      dup3\n        /* \"#utility.yul\":906:913   */\n      dup5\n        /* \"#utility.yul\":902:925   */\n      sub\n        /* \"#utility.yul\":898:930   */\n      slt\n        /* \"#utility.yul\":895:1014   */\n      iszero\n      tag_110\n      jumpi\n        /* \"#utility.yul\":933:1012   */\n      tag_111\n      tag_107\n      jump\t// in\n    tag_111:\n        /* \"#utility.yul\":895:1014   */\n    tag_110:\n        /* \"#utility.yul\":1053:1054   */\n      0x00\n        /* \"#utility.yul\":1078:1145   */\n      tag_112\n        /* \"#utility.yul\":1137:1144   */\n      dup5\n        /* \"#utility.yul\":1128:1134   */\n      dup3\n        /* \"#utility.yul\":1117:1126   */\n      dup6\n        /* \"#utility.yul\":1113:1135   */\n      add\n        /* \"#utility.yul\":1078:1145   */\n      tag_96\n      jump\t// in\n    tag_112:\n        /* \"#utility.yul\":1068:1145   */\n      swap2\n      pop\n        /* \"#utility.yul\":1024:1155   */\n      pop\n        /* \"#utility.yul\":805:1162   */\n      swap3\n      swap2\n      pop\n      pop\n      jump\t// out\n        /* \"#utility.yul\":1168:1497   */\n    tag_40:\n        /* \"#utility.yul\":1227:1233   */\n      0x00\n        /* \"#utility.yul\":1276:1278   */\n      0x20\n        /* \"#utility.yul\":1264:1273   */\n      dup3\n        /* \"#utility.yul\":1255:1262   */\n      dup5\n        /* \"#utility.yul\":1251:1274   */\n      sub\n        /* \"#utility.yul\":1247:1279   */\n      slt\n        /* \"#utility.yul\":1244:1363   */\n      iszero\n      tag_114\n      jumpi\n        /* \"#utility.yul\":1282:1361   */\n      tag_115\n      tag_107\n      jump\t// in\n    tag_115:\n        /* \"#utility.yul\":1244:1363   */\n    tag_114:\n        /* \"#utility.yul\":1402:1403   */\n      0x00\n        /* \"#utility.yul\":1427:1480   */\n      tag_116\n        /* \"#utility.yul\":1472:1479   */\n      dup5\n        /* \"#utility.yul\":1463:1469   */\n      dup3\n        /* \"#utility.yul\":1452:1461   */\n      dup6\n        /* \"#utility.yul\":1448:1470   */\n      add\n        /* \"#utility.yul\":1427:1480   */\n      tag_100\n      jump\t// in\n    tag_116:\n        /* \"#utility.yul\":1417:1480   */\n      swap2\n      pop\n        /* \"#utility.yul\":1373:1490   */\n      pop\n        /* \"#utility.yul\":1168:1497   */\n      swap3\n      swap2\n      pop\n      pop\n      jump\t// out\n        /* \"#utility.yul\":1503:1621   */\n    tag_117:\n        /* \"#utility.yul\":1590:1614   */\n      tag_119\n        /* \"#utility.yul\":1608:1613   */\n      dup2\n        /* \"#utility.yul\":1590:1614   */\n      tag_120\n      jump\t// in\n    tag_119:\n        /* \"#utility.yul\":1585:1588   */\n      dup3\n        /* \"#utility.yul\":1578:1615   */\n      mstore\n        /* \"#utility.yul\":1503:1621   */\n      pop\n      pop\n      jump\t// out\n        /* \"#utility.yul\":1627:1778   */\n    tag_121:\n        /* \"#utility.yul\":1724:1771   */\n      tag_123\n        /* \"#utility.yul\":1765:1770   */\n      dup2\n        /* \"#utility.yul\":1724:1771   */\n      tag_124\n      jump\t// in\n    tag_123:\n        /* \"#utility.yul\":1719:1722   */\n      dup3\n        /* \"#utility.yul\":1712:1772   */\n      mstore\n        /* \"#utility.yul\":1627:1778   */\n      pop\n      pop\n      jump\t// out\n        /* \"#utility.yul\":1784:2150   */\n    tag_125:\n        /* \"#utility.yul\":1926:1929   */\n      0x00\n        /* \"#utility.yul\":1947:2014   */\n      tag_127\n        /* \"#utility.yul\":2011:2013   */\n      0x13\n        /* \"#utility.yul\":2006:2009   */\n      dup4\n        /* \"#utility.yul\":1947:2014   */\n      tag_128\n      jump\t// in\n    tag_127:\n        /* \"#utility.yul\":1940:2014   */\n      swap2\n      pop\n        /* \"#utility.yul\":2023:2116   */\n      tag_129\n        /* \"#utility.yul\":2112:2115   */\n      dup3\n        /* \"#utility.yul\":2023:2116   */\n      tag_130\n      jump\t// in\n    tag_129:\n        /* \"#utility.yul\":2141:2143   */\n      0x20\n        /* \"#utility.yul\":2136:2139   */\n      dup3\n        /* \"#utility.yul\":2132:2144   */\n      add\n        /* \"#utility.yul\":2125:2144   */\n      swap1\n      pop\n        /* \"#utility.yul\":1784:2150   */\n      swap2\n      swap1\n      pop\n      jump\t// out\n        /* \"#utility.yul\":2156:2274   */\n    tag_131:\n        /* \"#utility.yul\":2243:2267   */\n      tag_133\n        /* \"#utility.yul\":2261:2266   */\n      dup2\n        /* \"#utility.yul\":2243:2267   */\n      tag_134\n      jump\t// in\n    tag_133:\n        /* \"#utility.yul\":2238:2241   */\n      dup3\n        /* \"#utility.yul\":2231:2268   */\n      mstore\n        /* \"#utility.yul\":2156:2274   */\n      pop\n      pop\n      jump\t// out\n        /* \"#utility.yul\":2280:2502   */\n    tag_27:\n        /* \"#utility.yul\":2373:2377   */\n      0x00\n        /* \"#utility.yul\":2411:2413   */\n      0x20\n        /* \"#utility.yul\":2400:2409   */\n      dup3\n        /* \"#utility.yul\":2396:2414   */\n      add\n        /* \"#utility.yul\":2388:2414   */\n      swap1\n      pop\n        /* \"#utility.yul\":2424:2495   */\n      tag_136\n        /* \"#utility.yul\":2492:2493   */\n      0x00\n        /* \"#utility.yul\":2481:2490   */\n      dup4\n        /* \"#utility.yul\":2477:2494   */\n      add\n        /* \"#utility.yul\":2468:2474   */\n      dup5\n        /* \"#utility.yul\":2424:2495   */\n      tag_117\n      jump\t// in\n    tag_136:\n        /* \"#utility.yul\":2280:2502   */\n      swap3\n      swap2\n      pop\n      pop\n      jump\t// out\n        /* \"#utility.yul\":2508:2750   */\n    tag_16:\n        /* \"#utility.yul\":2611:2615   */\n      0x00\n        /* \"#utility.yul\":2649:2651   */\n      0x20\n        /* \"#utility.yul\":2638:2647   */\n      dup3\n        /* \"#utility.yul\":2634:2652   */\n      add\n        /* \"#utility.yul\":2626:2652   */\n      swap1\n      pop\n        /* \"#utility.yul\":2662:2743   */\n      tag_138\n        /* \"#utility.yul\":2740:2741   */\n      0x00\n        /* \"#utility.yul\":2729:2738   */\n      dup4\n        /* \"#utility.yul\":2725:2742   */\n      add\n        /* \"#utility.yul\":2716:2722   */\n      dup5\n        /* \"#utility.yul\":2662:2743   */\n      tag_121\n      jump\t// in\n    tag_138:\n        /* \"#utility.yul\":2508:2750   */\n      swap3\n      swap2\n      pop\n      pop\n      jump\t// out\n        /* \"#utility.yul\":2756:3175   */\n    tag_79:\n        /* \"#utility.yul\":2922:2926   */\n      0x00\n        /* \"#utility.yul\":2960:2962   */\n      0x20\n        /* \"#utility.yul\":2949:2958   */\n      dup3\n        /* \"#utility.yul\":2945:2963   */\n      add\n        /* \"#utility.yul\":2937:2963   */\n      swap1\n      pop\n        /* \"#utility.yul\":3009:3018   */\n      dup2\n        /* \"#utility.yul\":3003:3007   */\n      dup2\n        /* \"#utility.yul\":2999:3019   */\n      sub\n        /* \"#utility.yul\":2995:2996   */\n      0x00\n        /* \"#utility.yul\":2984:2993   */\n      dup4\n        /* \"#utility.yul\":2980:2997   */\n      add\n        /* \"#utility.yul\":2973:3020   */\n      mstore\n        /* \"#utility.yul\":3037:3168   */\n      tag_140\n        /* \"#utility.yul\":3163:3167   */\n      dup2\n        /* \"#utility.yul\":3037:3168   */\n      tag_125\n      jump\t// in\n    tag_140:\n        /* \"#utility.yul\":3029:3168   */\n      swap1\n      pop\n        /* \"#utility.yul\":2756:3175   */\n      swap2\n      swap1\n      pop\n      jump\t// out\n        /* \"#utility.yul\":3181:3403   */\n    tag_22:\n        /* \"#utility.yul\":3274:3278   */\n      0x00\n        /* \"#utility.yul\":3312:3314   */\n      0x20\n        /* \"#utility.yul\":3301:3310   */\n      dup3\n        /* \"#utility.yul\":3297:3315   */\n      add\n        /* \"#utility.yul\":3289:3315   */\n      swap1\n      pop\n        /* \"#utility.yul\":3325:3396   */\n      tag_142\n        /* \"#utility.yul\":3393:3394   */\n      0x00\n        /* \"#utility.yul\":3382:3391   */\n      dup4\n        /* \"#utility.yul\":3378:3395   */\n      add\n        /* \"#utility.yul\":3369:3375   */\n      dup5\n        /* \"#utility.yul\":3325:3396   */\n      tag_131\n      jump\t// in\n    tag_142:\n        /* \"#utility.yul\":3181:3403   */\n      swap3\n      swap2\n      pop\n      pop\n      jump\t// out\n        /* \"#utility.yul\":3490:3659   */\n    tag_128:\n        /* \"#utility.yul\":3574:3585   */\n      0x00\n        /* \"#utility.yul\":3608:3614   */\n      dup3\n        /* \"#utility.yul\":3603:3606   */\n      dup3\n        /* \"#utility.yul\":3596:3615   */\n      mstore\n        /* \"#utility.yul\":3648:3652   */\n      0x20\n        /* \"#utility.yul\":3643:3646   */\n      dup3\n        /* \"#utility.yul\":3639:3653   */\n      add\n        /* \"#utility.yul\":3624:3653   */\n      swap1\n      pop\n        /* \"#utility.yul\":3490:3659   */\n      swap3\n      swap2\n      pop\n      pop\n      jump\t// out\n        /* \"#utility.yul\":3665:3761   */\n    tag_120:\n        /* \"#utility.yul\":3702:3709   */\n      0x00\n        /* \"#utility.yul\":3731:3755   */\n      tag_147\n        /* \"#utility.yul\":3749:3754   */\n      dup3\n        /* \"#utility.yul\":3731:3755   */\n      tag_148\n      jump\t// in\n    tag_147:\n        /* \"#utility.yul\":3720:3755   */\n      swap1\n      pop\n        /* \"#utility.yul\":3665:3761   */\n      swap2\n      swap1\n      pop\n      jump\t// out\n        /* \"#utility.yul\":3767:3902   */\n    tag_149:\n        /* \"#utility.yul\":3816:3823   */\n      0x00\n        /* \"#utility.yul\":3845:3850   */\n      dup2\n        /* \"#utility.yul\":3834:3850   */\n      swap1\n      pop\n        /* \"#utility.yul\":3851:3896   */\n      tag_151\n        /* \"#utility.yul\":3890:3895   */\n      dup3\n        /* \"#utility.yul\":3851:3896   */\n      tag_152\n      jump\t// in\n    tag_151:\n        /* \"#utility.yul\":3767:3902   */\n      swap2\n      swap1\n      pop\n      jump\t// out\n        /* \"#utility.yul\":3908:4034   */\n    tag_148:\n        /* \"#utility.yul\":3945:3952   */\n      0x00\n        /* \"#utility.yul\":3985:4027   */\n      0xffffffffffffffffffffffffffffffffffffffff\n        /* \"#utility.yul\":3978:3983   */\n      dup3\n        /* \"#utility.yul\":3974:4028   */\n      and\n        /* \"#utility.yul\":3963:4028   */\n      swap1\n      pop\n        /* \"#utility.yul\":3908:4034   */\n      swap2\n      swap1\n      pop\n      jump\t// out\n        /* \"#utility.yul\":4040:4117   */\n    tag_134:\n        /* \"#utility.yul\":4077:4084   */\n      0x00\n        /* \"#utility.yul\":4106:4111   */\n      dup2\n        /* \"#utility.yul\":4095:4111   */\n      swap1\n      pop\n        /* \"#utility.yul\":4040:4117   */\n      swap2\n      swap1\n      pop\n      jump\t// out\n        /* \"#utility.yul\":4123:4258   */\n    tag_124:\n        /* \"#utility.yul\":4183:4192   */\n      0x00\n        /* \"#utility.yul\":4216:4252   */\n      tag_156\n        /* \"#utility.yul\":4246:4251   */\n      dup3\n        /* \"#utility.yul\":4216:4252   */\n      tag_149\n      jump\t// in\n    tag_156:\n        /* \"#utility.yul\":4203:4252   */\n      swap1\n      pop\n        /* \"#utility.yul\":4123:4258   */\n      swap2\n      swap1\n      pop\n      jump\t// out\n        /* \"#utility.yul\":4264:4444   */\n    tag_68:\n        /* \"#utility.yul\":4312:4389   */\n      0x4e487b7100000000000000000000000000000000000000000000000000000000\n        /* \"#utility.yul\":4309:4310   */\n      0x00\n        /* \"#utility.yul\":4302:4390   */\n      mstore\n        /* \"#utility.yul\":4409:4413   */\n      0x21\n        /* \"#utility.yul\":4406:4407   */\n      0x04\n        /* \"#utility.yul\":4399:4414   */\n      mstore\n        /* \"#utility.yul\":4433:4437   */\n      0x24\n        /* \"#utility.yul\":4430:4431   */\n      0x00\n        /* \"#utility.yul\":4423:4438   */\n      revert\n        /* \"#utility.yul\":4573:4690   */\n    tag_107:\n        /* \"#utility.yul\":4682:4683   */\n      0x00\n        /* \"#utility.yul\":4679:4680   */\n      dup1\n        /* \"#utility.yul\":4672:4684   */\n      revert\n        /* \"#utility.yul\":4696:4865   */\n    tag_130:\n        /* \"#utility.yul\":4836:4857   */\n      0x43616c6c6572206973206e6f74206f776e657200000000000000000000000000\n        /* \"#utility.yul\":4832:4833   */\n      0x00\n        /* \"#utility.yul\":4824:4830   */\n      dup3\n        /* \"#utility.yul\":4820:4834   */\n      add\n        /* \"#utility.yul\":4813:4858   */\n      mstore\n        /* \"#utility.yul\":4696:4865   */\n      pop\n      jump\t// out\n        /* \"#utility.yul\":4871:4988   */\n    tag_152:\n        /* \"#utility.yul\":4956:4957   */\n      0x04\n        /* \"#utility.yul\":4949:4954   */\n      dup2\n        /* \"#utility.yul\":4946:4958   */\n      lt\n        /* \"#utility.yul\":4936:4982   */\n      tag_163\n      jumpi\n        /* \"#utility.yul\":4962:4980   */\n      tag_164\n      tag_68\n      jump\t// in\n    tag_164:\n        /* \"#utility.yul\":4936:4982   */\n    tag_163:\n        /* \"#utility.yul\":4871:4988   */\n      pop\n      jump\t// out\n        /* \"#utility.yul\":4994:5116   */\n    tag_95:\n        /* \"#utility.yul\":5067:5091   */\n      tag_166\n        /* \"#utility.yul\":5085:5090   */\n      dup2\n        /* \"#utility.yul\":5067:5091   */\n      tag_120\n      jump\t// in\n    tag_166:\n        /* \"#utility.yul\":5060:5065   */\n      dup2\n        /* \"#utility.yul\":5057:5092   */\n      eq\n        /* \"#utility.yul\":5047:5110   */\n      tag_167\n      jumpi\n        /* \"#utility.yul\":5106:5107   */\n      0x00\n        /* \"#utility.yul\":5103:5104   */\n      dup1\n        /* \"#utility.yul\":5096:5108   */\n      revert\n        /* \"#utility.yul\":5047:5110   */\n    tag_167:\n        /* \"#utility.yul\":4994:5116   */\n      pop\n      jump\t// out\n        /* \"#utility.yul\":5122:5235   */\n    tag_99:\n        /* \"#utility.yul\":5209:5210   */\n      0x02\n        /* \"#utility.yul\":5202:5207   */\n      dup2\n        /* \"#utility.yul\":5199:5211   */\n      lt\n        /* \"#utility.yul\":5189:5229   */\n      tag_169\n      jumpi\n        /* \"#utility.yul\":5225:5226   */\n      0x00\n        /* \"#utility.yul\":5222:5223   */\n      dup1\n        /* \"#utility.yul\":5215:5227   */\n      revert\n        /* \"#utility.yul\":5189:5229   */\n    tag_169:\n        /* \"#utility.yul\":5122:5235   */\n      pop\n      jump\t// out\n        /* \"#utility.yul\":5241:5363   */\n    tag_103:\n        /* \"#utility.yul\":5314:5338   */\n      tag_171\n        /* \"#utility.yul\":5332:5337   */\n      dup2\n        /* \"#utility.yul\":5314:5338   */\n      tag_134\n      jump\t// in\n    tag_171:\n        /* \"#utility.yul\":5307:5312   */\n      dup2\n        /* \"#utility.yul\":5304:5339   */\n      eq\n        /* \"#utility.yul\":5294:5357   */\n      tag_172\n      jumpi\n        /* \"#utility.yul\":5353:5354   */\n      0x00\n        /* \"#utility.yul\":5350:5351   */\n      dup1\n        /* \"#utility.yul\":5343:5355   */\n      revert\n        /* \"#utility.yul\":5294:5357   */\n    tag_172:\n        /* \"#utility.yul\":5241:5363   */\n      pop\n      jump\t// out\n\n    auxdata: 0xa2646970667358221220b84d2da2129731206f5ca4fc095f574ec5ca1e62d8e02402d0f311a142fd28ec64736f6c63430008070033\n}\n",
				"bytecode": {
					"linkReferences": {},
					"object": "60806040523480156200001157600080fd5b5060405162000e0338038062000e038339818101604052810190620000379190620001df565b3373ffffffffffffffffffffffffffffffffffffffff16600073ffffffffffffffffffffffffffffffffffffffff167f342827c97908e5e2f71151c08502a66d44b6f758e3ac2f1de95f02eb95f0a73560405160405180910390a3336000806101000a81548173ffffffffffffffffffffffffffffffffffffffff021916908373ffffffffffffffffffffffffffffffffffffffff16021790555042600181905550826001541062000120576040517f08c379a00000000000000000000000000000000000000000000000000000000081526004016200011790620002f4565b60405180910390fd5b81831062000165576040517f08c379a00000000000000000000000000000000000000000000000000000000081526004016200015c90620002b0565b60405180910390fd5b808210620001aa576040517f08c379a0000000000000000000000000000000000000000000000000000000008152600401620001a190620002d2565b60405180910390fd5b82600281905550816003819055508060048190555050505062000417565b600081519050620001d981620003fd565b92915050565b600080600060608486031215620001fb57620001fa62000331565b5b60006200020b86828701620001c8565b93505060206200021e86828701620001c8565b92505060406200023186828701620001c8565b9150509250925092565b60006200024a602b8362000316565b9150620002578262000336565b604082019050919050565b60006200027160308362000316565b91506200027e8262000385565b604082019050919050565b600062000298601f8362000316565b9150620002a582620003d4565b602082019050919050565b60006020820190508181036000830152620002cb816200023b565b9050919050565b60006020820190508181036000830152620002ed8162000262565b9050919050565b600060208201905081810360008301526200030f8162000289565b9050919050565b600082825260208201905092915050565b6000819050919050565b600080fd5b7f4265747320636c6f73652074696d65206861766520746f20626520616674657260008201527f2073746172742074696d65000000000000000000000000000000000000000000602082015250565b7f47616d6520636c6f73652074696d65206861766520746f20626520616674657260008201527f206265747320636c6f73652074696d6500000000000000000000000000000000602082015250565b7f426574206861766520746f20626567696e20696e207468652066757475726500600082015250565b620004088162000327565b81146200041457600080fd5b50565b6109dc80620004276000396000f3fe6080604052600436106100865760003560e01c8063a6f9dae111610059578063a6f9dae11461013c578063b9d76da914610165578063c828371e146101a2578063f2c3e469146101cd578063fadeaf761461020a57610086565b80631865c57d1461008b57806335644c7b146100b6578063893d20e8146100e65780638ea36d4714610111575b600080fd5b34801561009757600080fd5b506100a0610235565b6040516100ad919061082f565b60405180910390f35b6100d060048036038101906100cb919061076a565b61029c565b6040516100dd919061086a565b60405180910390f35b3480156100f257600080fd5b506100fb610428565b6040516101089190610814565b60405180910390f35b34801561011d57600080fd5b50610126610451565b604051610133919061086a565b60405180910390f35b34801561014857600080fd5b50610163600480360381019061015e919061073d565b61045b565b005b34801561017157600080fd5b5061018c60048036038101906101879190610797565b6105a6565b604051610199919061086a565b60405180910390f35b3480156101ae57600080fd5b506101b7610648565b6040516101c4919061086a565b60405180910390f35b3480156101d957600080fd5b506101f460048036038101906101ef9190610797565b610652565b604051610201919061086a565b60405180910390f35b34801561021657600080fd5b5061021f6106f4565b60405161022c919061086a565b60405180910390f35b60008042905060025481101561024f576000915050610299565b8060025411158015610262575060035481105b15610271576001915050610299565b8060035411158015610284575060045481105b15610293576002915050610299565b60039150505b90565b6000806040518060a001604052803373ffffffffffffffffffffffffffffffffffffffff168152602001600554815260200160065481526020018460018111156102e9576102e86108f7565b5b8152602001348152509050600781908060018154018082558091505060019003906000526020600020906005020160009091909190915060008201518160000160006101000a81548173ffffffffffffffffffffffffffffffffffffffff021916908373ffffffffffffffffffffffffffffffffffffffff160217905550602082015181600101556040820151816002015560608201518160030160006101000a81548160ff021916908360018111156103a6576103a56108f7565b5b0217905550608082015181600401555050806060015160018111156103ce576103cd6108f7565b5b8160800151826000015173ffffffffffffffffffffffffffffffffffffffff167fd0ec3d0f31fea1291096288253382fdc9811dcf678e1e7628eb851cef2ba0a1160405160405180910390a4600780549050915050919050565b60008060009054906101000a900473ffffffffffffffffffffffffffffffffffffffff16905090565b6000600354905090565b60008054906101000a900473ffffffffffffffffffffffffffffffffffffffff1673ffffffffffffffffffffffffffffffffffffffff163373ffffffffffffffffffffffffffffffffffffffff16146104e9576040517f08c379a00000000000000000000000000000000000000000000000000000000081526004016104e09061084a565b60405180910390fd5b8073ffffffffffffffffffffffffffffffffffffffff1660008054906101000a900473ffffffffffffffffffffffffffffffffffffffff1673ffffffffffffffffffffffffffffffffffffffff167f342827c97908e5e2f71151c08502a66d44b6f758e3ac2f1de95f02eb95f0a73560405160405180910390a3806000806101000a81548173ffffffffffffffffffffffffffffffffffffffff021916908373ffffffffffffffffffffffffffffffffffffffff16021790555050565b60008060009054906101000a900473ffffffffffffffffffffffffffffffffffffffff1673ffffffffffffffffffffffffffffffffffffffff163373ffffffffffffffffffffffffffffffffffffffff1614610637576040517f08c379a000000000000000000000000000000000000000000000000000000000815260040161062e9061084a565b60405180910390fd5b816005819055506005549050919050565b6000600254905090565b60008060009054906101000a900473ffffffffffffffffffffffffffffffffffffffff1673ffffffffffffffffffffffffffffffffffffffff163373ffffffffffffffffffffffffffffffffffffffff16146106e3576040517f08c379a00000000000000000000000000000000000000000000000000000000081526004016106da9061084a565b60405180910390fd5b816006819055506006549050919050565b6000600454905090565b60008135905061070d81610968565b92915050565b6000813590506107228161097f565b92915050565b6000813590506107378161098f565b92915050565b60006020828403121561075357610752610926565b5b6000610761848285016106fe565b91505092915050565b6000602082840312156107805761077f610926565b5b600061078e84828501610713565b91505092915050565b6000602082840312156107ad576107ac610926565b5b60006107bb84828501610728565b91505092915050565b6107cd81610896565b82525050565b6107dc816108e5565b82525050565b60006107ef601383610885565b91506107fa8261092b565b602082019050919050565b61080e816108db565b82525050565b600060208201905061082960008301846107c4565b92915050565b600060208201905061084460008301846107d3565b92915050565b60006020820190508181036000830152610863816107e2565b9050919050565b600060208201905061087f6000830184610805565b92915050565b600082825260208201905092915050565b60006108a1826108bb565b9050919050565b60008190506108b682610954565b919050565b600073ffffffffffffffffffffffffffffffffffffffff82169050919050565b6000819050919050565b60006108f0826108a8565b9050919050565b7f4e487b7100000000000000000000000000000000000000000000000000000000600052602160045260246000fd5b600080fd5b7f43616c6c6572206973206e6f74206f776e657200000000000000000000000000600082015250565b60048110610965576109646108f7565b5b50565b61097181610896565b811461097c57600080fd5b50565b6002811061098c57600080fd5b50565b610998816108db565b81146109a357600080fd5b5056fea2646970667358221220b84d2da2129731206f5ca4fc095f574ec5ca1e62d8e02402d0f311a142fd28ec64736f6c63430008070033",
					"opcodes": "PUSH1 0x80 PUSH1 0x40 MSTORE CALLVALUE DUP1 ISZERO PUSH3 0x11 JUMPI PUSH1 0x0 DUP1 REVERT JUMPDEST POP PUSH1 0x40 MLOAD PUSH3 0xE03 CODESIZE SUB DUP1 PUSH3 0xE03 DUP4 CODECOPY DUP2 DUP2 ADD PUSH1 0x40 MSTORE DUP2 ADD SWAP1 PUSH3 0x37 SWAP2 SWAP1 PUSH3 0x1DF JUMP JUMPDEST CALLER PUSH20 0xFFFFFFFFFFFFFFFFFFFFFFFFFFFFFFFFFFFFFFFF AND PUSH1 0x0 PUSH20 0xFFFFFFFFFFFFFFFFFFFFFFFFFFFFFFFFFFFFFFFF AND PUSH32 0x342827C97908E5E2F71151C08502A66D44B6F758E3AC2F1DE95F02EB95F0A735 PUSH1 0x40 MLOAD PUSH1 0x40 MLOAD DUP1 SWAP2 SUB SWAP1 LOG3 CALLER PUSH1 0x0 DUP1 PUSH2 0x100 EXP DUP2 SLOAD DUP2 PUSH20 0xFFFFFFFFFFFFFFFFFFFFFFFFFFFFFFFFFFFFFFFF MUL NOT AND SWAP1 DUP4 PUSH20 0xFFFFFFFFFFFFFFFFFFFFFFFFFFFFFFFFFFFFFFFF AND MUL OR SWAP1 SSTORE POP TIMESTAMP PUSH1 0x1 DUP2 SWAP1 SSTORE POP DUP3 PUSH1 0x1 SLOAD LT PUSH3 0x120 JUMPI PUSH1 0x40 MLOAD PUSH32 0x8C379A000000000000000000000000000000000000000000000000000000000 DUP2 MSTORE PUSH1 0x4 ADD PUSH3 0x117 SWAP1 PUSH3 0x2F4 JUMP JUMPDEST PUSH1 0x40 MLOAD DUP1 SWAP2 SUB SWAP1 REVERT JUMPDEST DUP2 DUP4 LT PUSH3 0x165 JUMPI PUSH1 0x40 MLOAD PUSH32 0x8C379A000000000000000000000000000000000000000000000000000000000 DUP2 MSTORE PUSH1 0x4 ADD PUSH3 0x15C SWAP1 PUSH3 0x2B0 JUMP JUMPDEST PUSH1 0x40 MLOAD DUP1 SWAP2 SUB SWAP1 REVERT JUMPDEST DUP1 DUP3 LT PUSH3 0x1AA JUMPI PUSH1 0x40 MLOAD PUSH32 0x8C379A000000000000000000000000000000000000000000000000000000000 DUP2 MSTORE PUSH1 0x4 ADD PUSH3 0x1A1 SWAP1 PUSH3 0x2D2 JUMP JUMPDEST PUSH1 0x40 MLOAD DUP1 SWAP2 SUB SWAP1 REVERT JUMPDEST DUP3 PUSH1 0x2 DUP2 SWAP1 SSTORE POP DUP2 PUSH1 0x3 DUP2 SWAP1 SSTORE POP DUP1 PUSH1 0x4 DUP2 SWAP1 SSTORE POP POP POP POP PUSH3 0x417 JUMP JUMPDEST PUSH1 0x0 DUP2 MLOAD SWAP1 POP PUSH3 0x1D9 DUP2 PUSH3 0x3FD JUMP JUMPDEST SWAP3 SWAP2 POP POP JUMP JUMPDEST PUSH1 0x0 DUP1 PUSH1 0x0 PUSH1 0x60 DUP5 DUP7 SUB SLT ISZERO PUSH3 0x1FB JUMPI PUSH3 0x1FA PUSH3 0x331 JUMP JUMPDEST JUMPDEST PUSH1 0x0 PUSH3 0x20B DUP7 DUP3 DUP8 ADD PUSH3 0x1C8 JUMP JUMPDEST SWAP4 POP POP PUSH1 0x20 PUSH3 0x21E DUP7 DUP3 DUP8 ADD PUSH3 0x1C8 JUMP JUMPDEST SWAP3 POP POP PUSH1 0x40 PUSH3 0x231 DUP7 DUP3 DUP8 ADD PUSH3 0x1C8 JUMP JUMPDEST SWAP2 POP POP SWAP3 POP SWAP3 POP SWAP3 JUMP JUMPDEST PUSH1 0x0 PUSH3 0x24A PUSH1 0x2B DUP4 PUSH3 0x316 JUMP JUMPDEST SWAP2 POP PUSH3 0x257 DUP3 PUSH3 0x336 JUMP JUMPDEST PUSH1 0x40 DUP3 ADD SWAP1 POP SWAP2 SWAP1 POP JUMP JUMPDEST PUSH1 0x0 PUSH3 0x271 PUSH1 0x30 DUP4 PUSH3 0x316 JUMP JUMPDEST SWAP2 POP PUSH3 0x27E DUP3 PUSH3 0x385 JUMP JUMPDEST PUSH1 0x40 DUP3 ADD SWAP1 POP SWAP2 SWAP1 POP JUMP JUMPDEST PUSH1 0x0 PUSH3 0x298 PUSH1 0x1F DUP4 PUSH3 0x316 JUMP JUMPDEST SWAP2 POP PUSH3 0x2A5 DUP3 PUSH3 0x3D4 JUMP JUMPDEST PUSH1 0x20 DUP3 ADD SWAP1 POP SWAP2 SWAP1 POP JUMP JUMPDEST PUSH1 0x0 PUSH1 0x20 DUP3 ADD SWAP1 POP DUP2 DUP2 SUB PUSH1 0x0 DUP4 ADD MSTORE PUSH3 0x2CB DUP2 PUSH3 0x23B JUMP JUMPDEST SWAP1 POP SWAP2 SWAP1 POP JUMP JUMPDEST PUSH1 0x0 PUSH1 0x20 DUP3 ADD SWAP1 POP DUP2 DUP2 SUB PUSH1 0x0 DUP4 ADD MSTORE PUSH3 0x2ED DUP2 PUSH3 0x262 JUMP JUMPDEST SWAP1 POP SWAP2 SWAP1 POP JUMP JUMPDEST PUSH1 0x0 PUSH1 0x20 DUP3 ADD SWAP1 POP DUP2 DUP2 SUB PUSH1 0x0 DUP4 ADD MSTORE PUSH3 0x30F DUP2 PUSH3 0x289 JUMP JUMPDEST SWAP1 POP SWAP2 SWAP1 POP JUMP JUMPDEST PUSH1 0x0 DUP3 DUP3 MSTORE PUSH1 0x20 DUP3 ADD SWAP1 POP SWAP3 SWAP2 POP POP JUMP JUMPDEST PUSH1 0x0 DUP2 SWAP1 POP SWAP2 SWAP1 POP JUMP JUMPDEST PUSH1 0x0 DUP1 REVERT JUMPDEST PUSH32 0x4265747320636C6F73652074696D65206861766520746F206265206166746572 PUSH1 0x0 DUP3 ADD MSTORE PUSH32 0x2073746172742074696D65000000000000000000000000000000000000000000 PUSH1 0x20 DUP3 ADD MSTORE POP JUMP JUMPDEST PUSH32 0x47616D6520636C6F73652074696D65206861766520746F206265206166746572 PUSH1 0x0 DUP3 ADD MSTORE PUSH32 0x206265747320636C6F73652074696D6500000000000000000000000000000000 PUSH1 0x20 DUP3 ADD MSTORE POP JUMP JUMPDEST PUSH32 0x426574206861766520746F20626567696E20696E207468652066757475726500 PUSH1 0x0 DUP3 ADD MSTORE POP JUMP JUMPDEST PUSH3 0x408 DUP2 PUSH3 0x327 JUMP JUMPDEST DUP2 EQ PUSH3 0x414 JUMPI PUSH1 0x0 DUP1 REVERT JUMPDEST POP JUMP JUMPDEST PUSH2 0x9DC DUP1 PUSH3 0x427 PUSH1 0x0 CODECOPY PUSH1 0x0 RETURN INVALID PUSH1 0x80 PUSH1 0x40 MSTORE PUSH1 0x4 CALLDATASIZE LT PUSH2 0x86 JUMPI PUSH1 0x0 CALLDATALOAD PUSH1 0xE0 SHR DUP1 PUSH4 0xA6F9DAE1 GT PUSH2 0x59 JUMPI DUP1 PUSH4 0xA6F9DAE1 EQ PUSH2 0x13C JUMPI DUP1 PUSH4 0xB9D76DA9 EQ PUSH2 0x165 JUMPI DUP1 PUSH4 0xC828371E EQ PUSH2 0x1A2 JUMPI DUP1 PUSH4 0xF2C3E469 EQ PUSH2 0x1CD JUMPI DUP1 PUSH4 0xFADEAF76 EQ PUSH2 0x20A JUMPI PUSH2 0x86 JUMP JUMPDEST DUP1 PUSH4 0x1865C57D EQ PUSH2 0x8B JUMPI DUP1 PUSH4 0x35644C7B EQ PUSH2 0xB6 JUMPI DUP1 PUSH4 0x893D20E8 EQ PUSH2 0xE6 JUMPI DUP1 PUSH4 0x8EA36D47 EQ PUSH2 0x111 JUMPI JUMPDEST PUSH1 0x0 DUP1 REVERT JUMPDEST CALLVALUE DUP1 ISZERO PUSH2 0x97 JUMPI PUSH1 0x0 DUP1 REVERT JUMPDEST POP PUSH2 0xA0 PUSH2 0x235 JUMP JUMPDEST PUSH1 0x40 MLOAD PUSH2 0xAD SWAP2 SWAP1 PUSH2 0x82F JUMP JUMPDEST PUSH1 0x40 MLOAD DUP1 SWAP2 SUB SWAP1 RETURN JUMPDEST PUSH2 0xD0 PUSH1 0x4 DUP1 CALLDATASIZE SUB DUP2 ADD SWAP1 PUSH2 0xCB SWAP2 SWAP1 PUSH2 0x76A JUMP JUMPDEST PUSH2 0x29C JUMP JUMPDEST PUSH1 0x40 MLOAD PUSH2 0xDD SWAP2 SWAP1 PUSH2 0x86A JUMP JUMPDEST PUSH1 0x40 MLOAD DUP1 SWAP2 SUB SWAP1 RETURN JUMPDEST CALLVALUE DUP1 ISZERO PUSH2 0xF2 JUMPI PUSH1 0x0 DUP1 REVERT JUMPDEST POP PUSH2 0xFB PUSH2 0x428 JUMP JUMPDEST PUSH1 0x40 MLOAD PUSH2 0x108 SWAP2 SWAP1 PUSH2 0x814 JUMP JUMPDEST PUSH1 0x40 MLOAD DUP1 SWAP2 SUB SWAP1 RETURN JUMPDEST CALLVALUE DUP1 ISZERO PUSH2 0x11D JUMPI PUSH1 0x0 DUP1 REVERT JUMPDEST POP PUSH2 0x126 PUSH2 0x451 JUMP JUMPDEST PUSH1 0x40 MLOAD PUSH2 0x133 SWAP2 SWAP1 PUSH2 0x86A JUMP JUMPDEST PUSH1 0x40 MLOAD DUP1 SWAP2 SUB SWAP1 RETURN JUMPDEST CALLVALUE DUP1 ISZERO PUSH2 0x148 JUMPI PUSH1 0x0 DUP1 REVERT JUMPDEST POP PUSH2 0x163 PUSH1 0x4 DUP1 CALLDATASIZE SUB DUP2 ADD SWAP1 PUSH2 0x15E SWAP2 SWAP1 PUSH2 0x73D JUMP JUMPDEST PUSH2 0x45B JUMP JUMPDEST STOP JUMPDEST CALLVALUE DUP1 ISZERO PUSH2 0x171 JUMPI PUSH1 0x0 DUP1 REVERT JUMPDEST POP PUSH2 0x18C PUSH1 0x4 DUP1 CALLDATASIZE SUB DUP2 ADD SWAP1 PUSH2 0x187 SWAP2 SWAP1 PUSH2 0x797 JUMP JUMPDEST PUSH2 0x5A6 JUMP JUMPDEST PUSH1 0x40 MLOAD PUSH2 0x199 SWAP2 SWAP1 PUSH2 0x86A JUMP JUMPDEST PUSH1 0x40 MLOAD DUP1 SWAP2 SUB SWAP1 RETURN JUMPDEST CALLVALUE DUP1 ISZERO PUSH2 0x1AE JUMPI PUSH1 0x0 DUP1 REVERT JUMPDEST POP PUSH2 0x1B7 PUSH2 0x648 JUMP JUMPDEST PUSH1 0x40 MLOAD PUSH2 0x1C4 SWAP2 SWAP1 PUSH2 0x86A JUMP JUMPDEST PUSH1 0x40 MLOAD DUP1 SWAP2 SUB SWAP1 RETURN JUMPDEST CALLVALUE DUP1 ISZERO PUSH2 0x1D9 JUMPI PUSH1 0x0 DUP1 REVERT JUMPDEST POP PUSH2 0x1F4 PUSH1 0x4 DUP1 CALLDATASIZE SUB DUP2 ADD SWAP1 PUSH2 0x1EF SWAP2 SWAP1 PUSH2 0x797 JUMP JUMPDEST PUSH2 0x652 JUMP JUMPDEST PUSH1 0x40 MLOAD PUSH2 0x201 SWAP2 SWAP1 PUSH2 0x86A JUMP JUMPDEST PUSH1 0x40 MLOAD DUP1 SWAP2 SUB SWAP1 RETURN JUMPDEST CALLVALUE DUP1 ISZERO PUSH2 0x216 JUMPI PUSH1 0x0 DUP1 REVERT JUMPDEST POP PUSH2 0x21F PUSH2 0x6F4 JUMP JUMPDEST PUSH1 0x40 MLOAD PUSH2 0x22C SWAP2 SWAP1 PUSH2 0x86A JUMP JUMPDEST PUSH1 0x40 MLOAD DUP1 SWAP2 SUB SWAP1 RETURN JUMPDEST PUSH1 0x0 DUP1 TIMESTAMP SWAP1 POP PUSH1 0x2 SLOAD DUP2 LT ISZERO PUSH2 0x24F JUMPI PUSH1 0x0 SWAP2 POP POP PUSH2 0x299 JUMP JUMPDEST DUP1 PUSH1 0x2 SLOAD GT ISZERO DUP1 ISZERO PUSH2 0x262 JUMPI POP PUSH1 0x3 SLOAD DUP2 LT JUMPDEST ISZERO PUSH2 0x271 JUMPI PUSH1 0x1 SWAP2 POP POP PUSH2 0x299 JUMP JUMPDEST DUP1 PUSH1 0x3 SLOAD GT ISZERO DUP1 ISZERO PUSH2 0x284 JUMPI POP PUSH1 0x4 SLOAD DUP2 LT JUMPDEST ISZERO PUSH2 0x293 JUMPI PUSH1 0x2 SWAP2 POP POP PUSH2 0x299 JUMP JUMPDEST PUSH1 0x3 SWAP2 POP POP JUMPDEST SWAP1 JUMP JUMPDEST PUSH1 0x0 DUP1 PUSH1 0x40 MLOAD DUP1 PUSH1 0xA0 ADD PUSH1 0x40 MSTORE DUP1 CALLER PUSH20 0xFFFFFFFFFFFFFFFFFFFFFFFFFFFFFFFFFFFFFFFF AND DUP2 MSTORE PUSH1 0x20 ADD PUSH1 0x5 SLOAD DUP2 MSTORE PUSH1 0x20 ADD PUSH1 0x6 SLOAD DUP2 MSTORE PUSH1 0x20 ADD DUP5 PUSH1 0x1 DUP2 GT ISZERO PUSH2 0x2E9 JUMPI PUSH2 0x2E8 PUSH2 0x8F7 JUMP JUMPDEST JUMPDEST DUP2 MSTORE PUSH1 0x20 ADD CALLVALUE DUP2 MSTORE POP SWAP1 POP PUSH1 0x7 DUP2 SWAP1 DUP1 PUSH1 0x1 DUP2 SLOAD ADD DUP1 DUP3 SSTORE DUP1 SWAP2 POP POP PUSH1 0x1 SWAP1 SUB SWAP1 PUSH1 0x0 MSTORE PUSH1 0x20 PUSH1 0x0 KECCAK256 SWAP1 PUSH1 0x5 MUL ADD PUSH1 0x0 SWAP1 SWAP2 SWAP1 SWAP2 SWAP1 SWAP2 POP PUSH1 0x0 DUP3 ADD MLOAD DUP2 PUSH1 0x0 ADD PUSH1 0x0 PUSH2 0x100 EXP DUP2 SLOAD DUP2 PUSH20 0xFFFFFFFFFFFFFFFFFFFFFFFFFFFFFFFFFFFFFFFF MUL NOT AND SWAP1 DUP4 PUSH20 0xFFFFFFFFFFFFFFFFFFFFFFFFFFFFFFFFFFFFFFFF AND MUL OR SWAP1 SSTORE POP PUSH1 0x20 DUP3 ADD MLOAD DUP2 PUSH1 0x1 ADD SSTORE PUSH1 0x40 DUP3 ADD MLOAD DUP2 PUSH1 0x2 ADD SSTORE PUSH1 0x60 DUP3 ADD MLOAD DUP2 PUSH1 0x3 ADD PUSH1 0x0 PUSH2 0x100 EXP DUP2 SLOAD DUP2 PUSH1 0xFF MUL NOT AND SWAP1 DUP4 PUSH1 0x1 DUP2 GT ISZERO PUSH2 0x3A6 JUMPI PUSH2 0x3A5 PUSH2 0x8F7 JUMP JUMPDEST JUMPDEST MUL OR SWAP1 SSTORE POP PUSH1 0x80 DUP3 ADD MLOAD DUP2 PUSH1 0x4 ADD SSTORE POP POP DUP1 PUSH1 0x60 ADD MLOAD PUSH1 0x1 DUP2 GT ISZERO PUSH2 0x3CE JUMPI PUSH2 0x3CD PUSH2 0x8F7 JUMP JUMPDEST JUMPDEST DUP2 PUSH1 0x80 ADD MLOAD DUP3 PUSH1 0x0 ADD MLOAD PUSH20 0xFFFFFFFFFFFFFFFFFFFFFFFFFFFFFFFFFFFFFFFF AND PUSH32 0xD0EC3D0F31FEA1291096288253382FDC9811DCF678E1E7628EB851CEF2BA0A11 PUSH1 0x40 MLOAD PUSH1 0x40 MLOAD DUP1 SWAP2 SUB SWAP1 LOG4 PUSH1 0x7 DUP1 SLOAD SWAP1 POP SWAP2 POP POP SWAP2 SWAP1 POP JUMP JUMPDEST PUSH1 0x0 DUP1 PUSH1 0x0 SWAP1 SLOAD SWAP1 PUSH2 0x100 EXP SWAP1 DIV PUSH20 0xFFFFFFFFFFFFFFFFFFFFFFFFFFFFFFFFFFFFFFFF AND SWAP1 POP SWAP1 JUMP JUMPDEST PUSH1 0x0 PUSH1 0x3 SLOAD SWAP1 POP SWAP1 JUMP JUMPDEST PUSH1 0x0 DUP1 SLOAD SWAP1 PUSH2 0x100 EXP SWAP1 DIV PUSH20 0xFFFFFFFFFFFFFFFFFFFFFFFFFFFFFFFFFFFFFFFF AND PUSH20 0xFFFFFFFFFFFFFFFFFFFFFFFFFFFFFFFFFFFFFFFF AND CALLER PUSH20 0xFFFFFFFFFFFFFFFFFFFFFFFFFFFFFFFFFFFFFFFF AND EQ PUSH2 0x4E9 JUMPI PUSH1 0x40 MLOAD PUSH32 0x8C379A000000000000000000000000000000000000000000000000000000000 DUP2 MSTORE PUSH1 0x4 ADD PUSH2 0x4E0 SWAP1 PUSH2 0x84A JUMP JUMPDEST PUSH1 0x40 MLOAD DUP1 SWAP2 SUB SWAP1 REVERT JUMPDEST DUP1 PUSH20 0xFFFFFFFFFFFFFFFFFFFFFFFFFFFFFFFFFFFFFFFF AND PUSH1 0x0 DUP1 SLOAD SWAP1 PUSH2 0x100 EXP SWAP1 DIV PUSH20 0xFFFFFFFFFFFFFFFFFFFFFFFFFFFFFFFFFFFFFFFF AND PUSH20 0xFFFFFFFFFFFFFFFFFFFFFFFFFFFFFFFFFFFFFFFF AND PUSH32 0x342827C97908E5E2F71151C08502A66D44B6F758E3AC2F1DE95F02EB95F0A735 PUSH1 0x40 MLOAD PUSH1 0x40 MLOAD DUP1 SWAP2 SUB SWAP1 LOG3 DUP1 PUSH1 0x0 DUP1 PUSH2 0x100 EXP DUP2 SLOAD DUP2 PUSH20 0xFFFFFFFFFFFFFFFFFFFFFFFFFFFFFFFFFFFFFFFF MUL NOT AND SWAP1 DUP4 PUSH20 0xFFFFFFFFFFFFFFFFFFFFFFFFFFFFFFFFFFFFFFFF AND MUL OR SWAP1 SSTORE POP POP JUMP JUMPDEST PUSH1 0x0 DUP1 PUSH1 0x0 SWAP1 SLOAD SWAP1 PUSH2 0x100 EXP SWAP1 DIV PUSH20 0xFFFFFFFFFFFFFFFFFFFFFFFFFFFFFFFFFFFFFFFF AND PUSH20 0xFFFFFFFFFFFFFFFFFFFFFFFFFFFFFFFFFFFFFFFF AND CALLER PUSH20 0xFFFFFFFFFFFFFFFFFFFFFFFFFFFFFFFFFFFFFFFF AND EQ PUSH2 0x637 JUMPI PUSH1 0x40 MLOAD PUSH32 0x8C379A000000000000000000000000000000000000000000000000000000000 DUP2 MSTORE PUSH1 0x4 ADD PUSH2 0x62E SWAP1 PUSH2 0x84A JUMP JUMPDEST PUSH1 0x40 MLOAD DUP1 SWAP2 SUB SWAP1 REVERT JUMPDEST DUP2 PUSH1 0x5 DUP2 SWAP1 SSTORE POP PUSH1 0x5 SLOAD SWAP1 POP SWAP2 SWAP1 POP JUMP JUMPDEST PUSH1 0x0 PUSH1 0x2 SLOAD SWAP1 POP SWAP1 JUMP JUMPDEST PUSH1 0x0 DUP1 PUSH1 0x0 SWAP1 SLOAD SWAP1 PUSH2 0x100 EXP SWAP1 DIV PUSH20 0xFFFFFFFFFFFFFFFFFFFFFFFFFFFFFFFFFFFFFFFF AND PUSH20 0xFFFFFFFFFFFFFFFFFFFFFFFFFFFFFFFFFFFFFFFF AND CALLER PUSH20 0xFFFFFFFFFFFFFFFFFFFFFFFFFFFFFFFFFFFFFFFF AND EQ PUSH2 0x6E3 JUMPI PUSH1 0x40 MLOAD PUSH32 0x8C379A000000000000000000000000000000000000000000000000000000000 DUP2 MSTORE PUSH1 0x4 ADD PUSH2 0x6DA SWAP1 PUSH2 0x84A JUMP JUMPDEST PUSH1 0x40 MLOAD DUP1 SWAP2 SUB SWAP1 REVERT JUMPDEST DUP2 PUSH1 0x6 DUP2 SWAP1 SSTORE POP PUSH1 0x6 SLOAD SWAP1 POP SWAP2 SWAP1 POP JUMP JUMPDEST PUSH1 0x0 PUSH1 0x4 SLOAD SWAP1 POP SWAP1 JUMP JUMPDEST PUSH1 0x0 DUP2 CALLDATALOAD SWAP1 POP PUSH2 0x70D DUP2 PUSH2 0x968 JUMP JUMPDEST SWAP3 SWAP2 POP POP JUMP JUMPDEST PUSH1 0x0 DUP2 CALLDATALOAD SWAP1 POP PUSH2 0x722 DUP2 PUSH2 0x97F JUMP JUMPDEST SWAP3 SWAP2 POP POP JUMP JUMPDEST PUSH1 0x0 DUP2 CALLDATALOAD SWAP1 POP PUSH2 0x737 DUP2 PUSH2 0x98F JUMP JUMPDEST SWAP3 SWAP2 POP POP JUMP JUMPDEST PUSH1 0x0 PUSH1 0x20 DUP3 DUP5 SUB SLT ISZERO PUSH2 0x753 JUMPI PUSH2 0x752 PUSH2 0x926 JUMP JUMPDEST JUMPDEST PUSH1 0x0 PUSH2 0x761 DUP5 DUP3 DUP6 ADD PUSH2 0x6FE JUMP JUMPDEST SWAP2 POP POP SWAP3 SWAP2 POP POP JUMP JUMPDEST PUSH1 0x0 PUSH1 0x20 DUP3 DUP5 SUB SLT ISZERO PUSH2 0x780 JUMPI PUSH2 0x77F PUSH2 0x926 JUMP JUMPDEST JUMPDEST PUSH1 0x0 PUSH2 0x78E DUP5 DUP3 DUP6 ADD PUSH2 0x713 JUMP JUMPDEST SWAP2 POP POP SWAP3 SWAP2 POP POP JUMP JUMPDEST PUSH1 0x0 PUSH1 0x20 DUP3 DUP5 SUB SLT ISZERO PUSH2 0x7AD JUMPI PUSH2 0x7AC PUSH2 0x926 JUMP JUMPDEST JUMPDEST PUSH1 0x0 PUSH2 0x7BB DUP5 DUP3 DUP6 ADD PUSH2 0x728 JUMP JUMPDEST SWAP2 POP POP SWAP3 SWAP2 POP POP JUMP JUMPDEST PUSH2 0x7CD DUP2 PUSH2 0x896 JUMP JUMPDEST DUP3 MSTORE POP POP JUMP JUMPDEST PUSH2 0x7DC DUP2 PUSH2 0x8E5 JUMP JUMPDEST DUP3 MSTORE POP POP JUMP JUMPDEST PUSH1 0x0 PUSH2 0x7EF PUSH1 0x13 DUP4 PUSH2 0x885 JUMP JUMPDEST SWAP2 POP PUSH2 0x7FA DUP3 PUSH2 0x92B JUMP JUMPDEST PUSH1 0x20 DUP3 ADD SWAP1 POP SWAP2 SWAP1 POP JUMP JUMPDEST PUSH2 0x80E DUP2 PUSH2 0x8DB JUMP JUMPDEST DUP3 MSTORE POP POP JUMP JUMPDEST PUSH1 0x0 PUSH1 0x20 DUP3 ADD SWAP1 POP PUSH2 0x829 PUSH1 0x0 DUP4 ADD DUP5 PUSH2 0x7C4 JUMP JUMPDEST SWAP3 SWAP2 POP POP JUMP JUMPDEST PUSH1 0x0 PUSH1 0x20 DUP3 ADD SWAP1 POP PUSH2 0x844 PUSH1 0x0 DUP4 ADD DUP5 PUSH2 0x7D3 JUMP JUMPDEST SWAP3 SWAP2 POP POP JUMP JUMPDEST PUSH1 0x0 PUSH1 0x20 DUP3 ADD SWAP1 POP DUP2 DUP2 SUB PUSH1 0x0 DUP4 ADD MSTORE PUSH2 0x863 DUP2 PUSH2 0x7E2 JUMP JUMPDEST SWAP1 POP SWAP2 SWAP1 POP JUMP JUMPDEST PUSH1 0x0 PUSH1 0x20 DUP3 ADD SWAP1 POP PUSH2 0x87F PUSH1 0x0 DUP4 ADD DUP5 PUSH2 0x805 JUMP JUMPDEST SWAP3 SWAP2 POP POP JUMP JUMPDEST PUSH1 0x0 DUP3 DUP3 MSTORE PUSH1 0x20 DUP3 ADD SWAP1 POP SWAP3 SWAP2 POP POP JUMP JUMPDEST PUSH1 0x0 PUSH2 0x8A1 DUP3 PUSH2 0x8BB JUMP JUMPDEST SWAP1 POP SWAP2 SWAP1 POP JUMP JUMPDEST PUSH1 0x0 DUP2 SWAP1 POP PUSH2 0x8B6 DUP3 PUSH2 0x954 JUMP JUMPDEST SWAP2 SWAP1 POP JUMP JUMPDEST PUSH1 0x0 PUSH20 0xFFFFFFFFFFFFFFFFFFFFFFFFFFFFFFFFFFFFFFFF DUP3 AND SWAP1 POP SWAP2 SWAP1 POP JUMP JUMPDEST PUSH1 0x0 DUP2 SWAP1 POP SWAP2 SWAP1 POP JUMP JUMPDEST PUSH1 0x0 PUSH2 0x8F0 DUP3 PUSH2 0x8A8 JUMP JUMPDEST SWAP1 POP SWAP2 SWAP1 POP JUMP JUMPDEST PUSH32 0x4E487B7100000000000000000000000000000000000000000000000000000000 PUSH1 0x0 MSTORE PUSH1 0x21 PUSH1 0x4 MSTORE PUSH1 0x24 PUSH1 0x0 REVERT JUMPDEST PUSH1 0x0 DUP1 REVERT JUMPDEST PUSH32 0x43616C6C6572206973206E6F74206F776E657200000000000000000000000000 PUSH1 0x0 DUP3 ADD MSTORE POP JUMP JUMPDEST PUSH1 0x4 DUP2 LT PUSH2 0x965 JUMPI PUSH2 0x964 PUSH2 0x8F7 JUMP JUMPDEST JUMPDEST POP JUMP JUMPDEST PUSH2 0x971 DUP2 PUSH2 0x896 JUMP JUMPDEST DUP2 EQ PUSH2 0x97C JUMPI PUSH1 0x0 DUP1 REVERT JUMPDEST POP JUMP JUMPDEST PUSH1 0x2 DUP2 LT PUSH2 0x98C JUMPI PUSH1 0x0 DUP1 REVERT JUMPDEST POP JUMP JUMPDEST PUSH2 0x998 DUP2 PUSH2 0x8DB JUMP JUMPDEST DUP2 EQ PUSH2 0x9A3 JUMPI PUSH1 0x0 DUP1 REVERT JUMPDEST POP JUMP INVALID LOG2 PUSH5 0x6970667358 0x22 SLT KECCAK256 0xB8 0x4D 0x2D LOG2 SLT SWAP8 BALANCE KECCAK256 PUSH16 0x5CA4FC095F574EC5CA1E62D8E02402D0 RETURN GT LOG1 TIMESTAMP REVERT 0x28 0xEC PUSH5 0x736F6C6343 STOP ADDMOD SMOD STOP CALLER "
				},
				"gasEstimates": {
					"creation": {
						"codeDepositCost": "504800",
						"executionCost": "infinite",
						"totalCost": "infinite"
					},
					"external": {
						"changeOwner(address)": "30567",
						"getBetsEndTime()": "2504",
						"getCloseTime()": "2525",
						"getOwner()": "2567",
						"getStartTime()": "2481",
						"getState()": "11102",
						"takeABet(uint8)": "148271",
						"updateOddsA(uint256)": "infinite",
						"updateOddsB(uint256)": "infinite"
					}
				},
				"methodIdentifiers": {
					"changeOwner(address)": "a6f9dae1",
					"getBetsEndTime()": "8ea36d47",
					"getCloseTime()": "fadeaf76",
					"getOwner()": "893d20e8",
					"getStartTime()": "c828371e",
					"getState()": "1865c57d",
					"takeABet(uint8)": "35644c7b",
					"updateOddsA(uint256)": "b9d76da9",
					"updateOddsB(uint256)": "f2c3e469"
				}
			},
			"userdoc": {
				"kind": "user",
				"methods": {},
				"version": 1
			}
		}
	}
}